:020000041000EA
:1000000000B5324B212058609868022188439860DF
:10001000D860186158612E4B002199600221596106
:100020000121F02299502B49196001219960352056
:1000300000F044F80222904214D00621196600F024
:1000400034F8196E01211966002018661A6600F04E
:100050002CF8196E196E196E052000F02FF8012189
:100060000842F9D1002199601B49196000215960AB
:100070001A491B48016001219960EB211966A021F2
:10008000196600F012F800219960164914480160C1
:100090000121996001BC002800D000471248134993
:1000A000086003C880F30888084703B5996A0420EC
:1000B0000142FBD001200142F8D103BD02B5186610
:1000C0001866FFF7F2FF186E186E02BD00000240BE
:1000D000000000180000070000035F00212200005C
:1000E000F4000018222000A00001001008ED00E03C
:1000F00000000000000000000000000074B24E7A12
:1001000000200420F7010010C3010010C5010010F9
:10011000C1010010C1010010C1010010C101001097
:10012000C1010010C1010010C1010010C701001081
:10013000C1010010C1010010C9010010CB01001065
:10014000CD010010CD010010CD010010CD01001037
:10015000CD010010CD010010CD010010CD01001027
:10016000CD010010CD010010CD010010CD01001017
:10017000CD010010CD010010CD010010CD01001007
:10018000CD010010CD010010CD010010CD010010F7
:10019000CD010010CD010010CD010010CD010010E7
:1001A000CD010010CD010010CD010010CD010010D7
:1001B000CD010010CD010010CD010010CD010010C7
:1001C00000BE00BE00BE00BE00BE00BEEFF3058054
:1001D000103800BEF2EB8871BC5D0310E05D0310C7
:1001E0003402001090A31AE700201F49086006C8D7
:1001F00081F3088810471D48006800282FD10DA4FE
:100200000ECC002902D000F012F8F9E71849194A7B
:10021000002000E001C19142FCD1174988471749ED
:1002200088471749884700BEFDE701C901C29A42C5
:10023000FBD37047E05D0310C00000206C25002058
:100240008C82031000000420000004208C82031024
:10025000001004200010042000000000704709482E
:1002600012F0ACFF0047000008ED00E0000000D0F5
:1002700070250020E4960120F11E011031170010B6
:10028000AF1E01105756000006005250ABB360532A
:1002900038C2021006005250861C030248C20210E7
:1002A000060052505422A29D58C20210050052501E
:1002B000DE65F4688C820310F8B5C04610B5064CB4
:1002C0002378002B07D1054B002B02D0044800E017
:1002D00000BF0123237010BD08270020000000008C
:1002E000B8340210044B10B5002B03D00349044866
:1002F00000E000BF10BDC046000000000C27002039
:10030000B8340210F8B50700C3689C4680683E68A0
:10031000002304E05D004C5B94407453013363455B
:10032000F8D304E05A00B21800211180013383424F
:10033000F8D3386939687A6802F0CAFFF8BD7047A7
:1003400010B5040083685A000021006815F0FAF81F
:100350006068A268520801329200002115F0F2F89C
:1003600010BD000030B583B00500C160012383607B
:1003700001E06400AC60AC688C42FAD3600015F018
:100380009FF8286000281CD060080130C00015F0DC
:1003900097F8686000281ED00023019301AB00226B
:1003A0000021200002F0F6FE00281ED0224B1B6820
:1003B000DB681B220121214821F028FB002003B02B
:1003C00030BD1D4B1B68DB68212201211C4821F038
:1003D0001DFB0020F3E7184B1B68DB68222201217C
:1003E000184821F013FB0020E9E7019C200015F0DC
:1003F00067F8021E28610AD06C6101AB0021A86871
:1004000002F0C8FE2B6983420BD10120D7E70A4BCB
:100410001B68DB68233201210B4821F0F7FA00202A
:10042000CDE7054B1B68DB682B220121074821F033
:10043000EDFA0020C3E7C046001D00200035021081
:10044000B8340210DC3402101C35021040350210A2
:1004500010B5041E23D012F09FFE0122104380210C
:100460000906C1401E32101AC20F12185210013272
:10047000002302E05B0889080200501E002A06D013
:100480005A18A242F6D8A41A5B085B18F3E79C42FC
:1004900003D9044A934200D0013398B210BD002022
:1004A000FCE7C046FFFF0000F0B5CE46474680B5EA
:1004B00083B006000F1E1BD003000B431FD012F0A9
:1004C00071FE0124204320235B42C11819D48024EB
:1004D0002406CC40220080210906C1400B003F24A5
:1004E000201AC40F2418641001340020002124E0D5
:1004F000FFF7AEFF03B0C0BCB946B046F0BD402028
:10050000DFE72021091A802424068C402200E2E73C
:10051000361BAF41CC074508009525430095490897
:10052000019100980199801859419C0795089B08F2
:1005300099462C4322004B466446651EAC46002C6F
:1005400010D004000D00A4185D41BD4202D8DFD1D7
:10055000B442DDD9CC074508490889462C43200020
:100560004946E2E78F4202D8C4D18642C2D9431C31
:1005700004D00122002380185941BBE70029F8D19B
:10058000B8E770B585684468A300D218C91809E0B7
:1005900000200B5E0226885F04315B4340431B183A
:1005A00008C20134AC42F3DB70BDF0B5DE465746FD
:1005B0004E464546E0B58DB083460B91036A0693DF
:1005C000C16803690793426903680A93002305938E
:1005D0000026002730E09A1C02920021585EC117C5
:1005E000524610CA9246E3179946220014F0CEFBF9
:1005F00036184F4141460231039140460022825E47
:10060000D3172000494614F0C1FB009A019B121831
:100610004B4100920193013503998846029B049A4D
:100620009542D8DB069BC0C3059A01320592099A10
:100630000899009E019F06930A9B0598834223DB3D
:100640008B1C08930023CB5E9B000B998A469A442F
:1006500007990023CD5E6D005B469B695B190231F3
:1006600007915946C9698C466544911C099100213E
:10067000525E0492002290460021002200910192D5
:100680004246A8461500CAE70DB0F0BCBB46B246CC
:10069000A946A046F0BDF0B5CE4600B582B0814671
:1006A0000F000568036A01931C000834002607E068
:1006B00003CCFFF7F9FE019BF84001C3013601931B
:1006C000AE42F5DB4B46186A02B080BCB946F0BDBD
:1006D00010B50300006A1A680132D200002114F03C
:1006E00031FF10BD10B514F043FC0022054B13F090
:1006F00012F813F031FB0022034B13F02AF813F029
:100700002DF910BD00E08540009C9140F8B5CE4623
:10071000474680B506000C1C151C99460021201C7C
:1007200014F0B8FB00281AD0291C201C14F0A4FBDC
:1007300000281AD0201CFFF7D5FF071C281CFFF744
:10074000D1FF391C14F03FFB041C300014F0B4FB43
:10075000011C201C14F041FB8046002419E0104BC2
:10076000104A2521104811F0A5FB104B0D4A2621F7
:100770000D4811F09FFB651C280014F09DFB4146BD
:1007800014F041FBA4004C44391C14F021FB206000
:100790002C00B442EFDBC0BCB946B046F8BDC04641
:1007A0006C350210C83602108C3502101836021053
:1007B00070B5041C0E0015008B21C90514F023FB35
:1007C00014F0D6FB00220F4B12F09CFF13F076FAC8
:1007D00013F050F83080201C14F0CAFB02000B000C
:1007E0000020094912F085FF0022084B12F0B1FFEA
:1007F0000022044B12F086FF13F060FA13F03AF86F
:10080000288070BD0000E03F0000F03F0000B040D5
:10081000F0B5DE4657464E464546E0B58BB00290F1
:100820008B469046099303680B60013305935C0087
:10083000200014F045FE07005A46D060200014F056
:100840003FFE06005A461061200014F039FE0500F4
:100850005A465061059BD80014F032FE5A46106289
:10086000059B980014F02CFE8246200014F028FE10
:1008700081460690200014F023FE0790002F4BD0F5
:10088000002E49D0002D47D05346002B44D04B4674
:10089000002B41D000283FD0029E73680093B368BC
:1008A00001935346009A01990598FFF72FFF4046A0
:1008B00012F0C8FF0022AA4B12F04BFF04000D00FB
:1008C000099814F0F9FAFE21890514F07CFA14F065
:1008D0004FFB02000B002000290012F01CFF13F058
:1008E0003DF88146B3680093011C181C14F075FA9A
:1008F00014F03EFB00229B4B12F004FF12F0BAFFF3
:100900005B46586000235A46936000269846019340
:10091000534682461F0074E0504614F007FE0698C6
:1009200014F004FE079814F001FE8F4B1B68DB687F
:10093000232201218D4821F069F80020FEE00134D6
:10094000200014F0B9FA291C14F05DFAFFF7CAFE72
:100950000096B300D95914F095FA0028EFD1A946B2
:100960005346E11A7500069B52465A53079B59534A
:10097000002920D15B46DB685B1900221A805B46A8
:100980001B695B191A8004235A4652695353434624
:10099000002B34D15D4605E028695900425A0432E3
:1009A000425201339E42F7DCAB46019B0433019374
:1009B0000123984623E0D20F5244521053009C4624
:1009C0005346D80F82440123524613401B1A59182C
:1009D0000139C817032303405B189B1001339B00A8
:1009E0005A46D268614651535A461169019A4A5390
:1009F000594649694B5394469C44634601930136DA
:100A0000A246059B9E4202DA54464D4698E7BA46F6
:100A10000221019D280014F065FD04005B469861E9
:100A20000221280014F05EFD5B46D861002C0BD03B
:100A3000002809D0029B9868FFF754FE0890002315
:100A400004934B46039348E0504614F06FFD06981C
:100A500014F06CFD079814F069FD434B1B68DB68CC
:100A600028220121424820F0D1FF002066E0089BA7
:100A7000019352E0009B9C0054442668380014F017
:100A80001BFA039914F0BFF9FFF72CFE011C301C70
:100A900014F099F9061C2068019914F094F9011CCE
:100AA000301C14F09AF902994944491949005B46EF
:100AB000DB695A185B469B699C466144FFF778FEE8
:100AC000013501374545D5DB5B469B68BB4201DA02
:100AD0005B469F60049B01330493049B059A9342F9
:100AE0001DDA049800904300069AD25E1700079919
:100AF000C95E88465946C968C95E521A02925A466A
:100B00001269D35E99460028B1D00300194A944671
:100B100063449B005246D35801930025D2E75046C8
:100B200014F004FD069814F001FD079814F0FEFC83
:100B30005B469B68099A934207DA01200BB0F0BC30
:100B4000BB46B246A946A046F0BD074B1B68DB6812
:100B50002D220121084820F059FF0020EEE7C04671
:100B60000000E03F0000F83F001D00204836021062
:100B70006C360210FFFFFF3F98360210F0B5C646F4
:100B800000B505000C0011001A000023036043604B
:100B9000069B200000F026FB002837D01823E05EDB
:100BA000002837D012F0F8FA0600113E20001C3061
:100BB00032006169FFF7A6FB236A984627003437A5
:100BC0001A0019003800FFF7DCFC41463800FFF737
:100BD000ECFC31003800FFF75EFD060020005830C5
:100BE000310000F055F9E36E002B15D1606A002842
:100BF00018D012F0D1FA19231B1A20008030626B32
:100C0000310000F009F9636B6B602860280080BC3C
:100C1000B846F0BD2026C8E720006C30310000F057
:100C200007FAE3E72020E6E710B5040000F032FB06
:100C300020001C30FFF784FB20003430FFF748FD14
:100C40002000583000F078F910BD0000F0B5C6461D
:100C500000B582B006000D00170088220021280090
:100C600014F070FC3A002900300000F025FB041E4F
:100C700042D01C239846A84429684046FFF772FBDF
:100C8000041E46D04046FFF75AFB6B6A5B080133EF
:100C900029003431300008303A00FFF7B9FD041E56
:100CA00040D029005831300018306A6B00F04EF9FE
:100CB000041E40D0686A002846D012F06DFA19234D
:100CC0001B1A29006C31300028300193AB6D9BB2A8
:100CD00000936B6BAA6E00F00DFA041E36D029004B
:100CE00080313000383000F0CDF8041E37D02800B5
:100CF000FFF79AFF012407E01D4B1B68DB682022E9
:100D000001211C4820F082FE200002B080BCB846C1
:100D1000F0BD174B1B68DB681D220121164820F02F
:100D200075FEF1E7124B1B68DB6824220121134892
:100D300020F06CFEE8E70E4B1B68DB6829220121DE
:100D40000F4820F063FEDFE72020B8E7084B1B6860
:100D5000DB682B2201210B4820F058FED4E7044B1E
:100D60001B68DB6823220121074820F04FFECBE7F8
:100D7000001D0020E4360210083702102837021048
:100D8000503702107C370210A837021010B501232B
:100D90008B40C31A0F2911D81022511A8B405A12B6
:100DA000084851000C5A511C4900095A5202091BAB
:100DB000981A484300141B19181810BD10390B411C
:100DC000EDE7C046CC37021070B506000D000028D4
:100DD0001DD012F0E1F91F24241A21003000FFF782
:100DE000D5FF240420180B4A0023002113F0CEFF66
:100DF000802212020023801859410B04000C184372
:100E0000A84080231B029C466044000C70BD20203B
:100E1000E1E7C04672B10000F0B5DE4657464E46E7
:100E2000C0B582B007000C00019191469A46436814
:100E30009B460E0000250BE05B42D84012E00020EC
:100E400080235B02984200D30D4830800135023682
:100E50004D450DDA01CC3B68002BF1D05346002BF9
:100E6000EADB98400128EAD95946FFF7ADFFE7E7EA
:100E7000019802B0E0BCBB46B246A946F0BDC046F0
:100E8000FFFF000003680B6043684B600120704760
:100E9000F0B5D6464F464646C0B582B005008846F6
:100EA00000273CE0E8888026F601361ABB00994608
:100EB000C246CA4453461C682B689C40220000234B
:100EC000002113F063FF009001912B699C46E144DF
:100ED0004B461A6800233000002113F057FF009A98
:100EE000019B12184B4110009B04860B1E434B467E
:100EF0001E60B44200D226002A89002351460868A9
:100F0000002113F043FF8904800BA61B2B68DE40F1
:100F10000143B14200D23100534619600137EB68FA
:100F2000BB4203DDFB07BDD4A888BCE702B0E0BC30
:100F3000BA46B146A846F0BD10B503000069DA68AC
:100F40009200002114F0FEFA10BD000070B50500FB
:100F50000C00160003680B608D21C905806813F032
:100F600052FF13F0FDFFE0808D21C905686813F082
:100F70004AFF13F0F5FFA080E8688D21C90513F042
:100F800042FF13F0EDFF2081E6600421300014F0F1
:100F9000A9FA2061002801D0012070BD044B1B6814
:100FA000DB6820220121034820F030FD0020F4E717
:100FB000001D0020D038021070B504000D0002287A
:100FC00022D9002823D012F0E7F82023181AC100F4
:100FD0000C3969180A281CDC153B181A8440A40532
:100FE000A40D0423C85E604342110223C85E400181
:100FF000801844438023DB019C466444E0130023B3
:10100000CC5E201800B270BD4400605EFBE720207B
:10101000DBE70B38C440A405A40DE2E780239B0165
:10102000984202D24043000D704780094038FBE7E8
:10103000F8B505000F00002608E02022D21A9140E2
:10104000D8400843FFF7EAFF20600136AB68B3429F
:1010500013DDB4006B681859E968FFF7ADFF3C1960
:1010600022680023002113F091FE2B6920225242B6
:101070009A18E2D4D1400800E4E7F8BDF8B50400BE
:101080000F00100013F013FF061C01252800B840C4
:1010900013F00DFF011C301C13F09FFE061C2800EE
:1010A000E368984013F003FF051CA0686468802380
:1010B0001B069C466444311C13F08AFE211C14F06C
:1010C000BBF8011C281C13F09EFE041C074913F0FA
:1010D000E9FE002808D1FC218905201C13F078FEC8
:1010E00013F00CFF00B2F8BD0148FCE700FEFF461C
:1010F000FF7F0000F0B5D6464F464646C0B5804655
:101100000F0008A90D8801683960002905D1012068
:10111000E0BCBA46B146A846F0BD7A60BB60FA2092
:1011200014F0CEF9041EF86019D04346DB68099A22
:101130009B1A0C3B3B61AB1A9946002219004046B2
:10114000FFF79CFF2080FC68012249464046FFF7DC
:1011500095FF6080FB680C3BFB6002252BE01F4B7A
:101160001B68DB681C2201211D4820F04FFC002079
:10117000CEE7022199408A4649464046FFF77EFF66
:101180000600220049464046FFF778FF0400524619
:1011900049464046FFF772FFA41B801BA400241A97
:1011A000001BEA00FB689E52911CFB685C520432F3
:1011B000FB6898520135202D0BDC6B1E01229A40F2
:1011C0005408A418202DD4D1022199404B1E9A46D0
:1011D000D2E7FB680C33FB60012099E7001D00207B
:1011E000F4380210F8B5CE46474680B50400150025
:1011F0001F000368994600691B1A934200D81D001E
:101200004000E3689C4660446A0014F0A1F93D6028
:1012100023699C466544256123689D4238D36268F2
:10122000E36860690025002106E05B421AB216E01F
:101230000131404663463A00494514DA9F1CBC46DA
:1012400000269B5F9846971C0023D35E424653437B
:101250001B131AB2861CB0460280002AE5DB9542B9
:10126000E6DA1500E4E7A2685100E3689C466144B1
:1012700023689A1A5200604620F014FF2369A2687E
:101280009B1A236125830120C0BCB946B046F8BD36
:101290000020F9E710B5040003685A000021C06877
:1012A00014F050F923685A000021606914F04AF9DB
:1012B00000232361238310BDF0B5C64600B50600A8
:1012C0000F00150000685043FA21890011F0CAFF91
:1012D0000400386070686843FA21890011F0C2FF89
:1012E000B860600014F0ECF8786000280FD020009F
:1012F00013F0DDFD13F03CFE02000B0037483849C7
:1013000012F009FA12F02AFB804600263BE0354B2A
:101310001B68DB6827220121334820F077FB00207F
:1013200044E0300012F08EFA0022304B12F0EAF95D
:1013300004000D00404613F01BFE22002B0012F0AB
:1013400008FA12F02DFB0022284B12F002FA0200DC
:101350000B000020254912F0CCF912F0FFFA8B2186
:10136000C90513F050FD13F003FE00221F4B12F0CD
:10137000C9F912F0A3FC74007B689C46644412F027
:1013800079FA208001363C68B442CAD800233B6118
:101390006400200014F094F8F860002809D02000C0
:1013A00014F08EF8786100280DD0012080BCB8467A
:1013B000F0BD0C4B1B68DB68202201210C4820F09B
:1013C00025FB0020F2E7074B1B68DB682122012187
:1013D000084820F01BFB0020E8E7C046182D4454C5
:1013E000FB211940001D0020143902100000E03FCD
:1013F0003C3902106039021070B50F4B1B78412B3D
:1014000005D00E4B1A68403219681A6070BD0B4C3B
:101410002568103523681B01DA17120D9B18180573
:10142000000D801A40008021054BC018490017F0BC
:1014300067FD2560EAE7C046D4960120F0900020C1
:10144000F490002010B51D491D4816F089FF0321B6
:1014500004200EF05DFC032105200EF059FC002253
:10146000012104200EF06CFC0022012105200EF069
:1014700067FC18F013FB41280FD0124B00221A70A2
:101480001148124B8361124B436017F02BF9114B3B
:101490001B68002BFBD0002010BD0A4B41221A70A4
:1014A0000D4817F0E9FB094817F024FD17F0D4FCAC
:1014B000084B1B68002BFBD0EDE7C046801A0600E6
:1014C000B01C0020D4960120B81C0020F913001095
:1014D00068500020F0900020A01B002070B50D0087
:1014E00016001C002A4B1B78002B16D0294B1B78AA
:1014F000412B1AD02D01300127490B685A1CD60FF9
:101500009219012313409B1B0B6022D0D0231B0692
:10151000802252025A6100232FE0FFF793FF002838
:1015200034D11B4B01221A70E0E72D013601002156
:10153000B14224DA4A19D017000D121813051B0DF9
:101540001B1A5B00154A985E4A00154BD0520131B8
:10155000EEE7D0231B06802252029A61DBE75A197C
:10156000D117C90C5218D204D20C521A52000D498C
:10157000565E59000A4A8E5201338342EFDB8023C4
:101580009B002360049B064A1A60002070BDC04681
:10159000D5960120D496012018B10020F4900020A7
:1015A000684C002068500020014B18687047C04606
:1015B000F090002010B582B004AC2478002C01D14A
:1015C00002B010BD0091024901F0A6FFF8E7C04645
:1015D000843902100160426001230372002304E099
:1015E0004268D21800211170013302689A42F7DC78
:1015F00070477047F0B5DE4657464E464546E0B563
:1016000087B00500894610001C002A68F523DB001E
:101610009A421CD1142111F0FDFD07001421200075
:1016200011F0F8FD8046C31B9A462B7A002B1CD183
:101630005346312B01DD31239A46109B52461A60E6
:101640003124A41A002C32DD00239C4621E0F5232E
:10165000DB003549484601F05FFF012007B0F0BCD0
:10166000BB46B246A946A046F0BD484600F090FCF5
:101670000028F3D100232B7231339A46DDE7F918A5
:101680009019C05650540133272BF8DD01239B4697
:10169000DC44A4450BDA6A6863469B006344DF00C0
:1016A000514661448B005B18DE000023ECE7534693
:1016B000002B1EDC0020D1E703AB009304AB1E22FD
:1016C0004846FFF70BFF049A80239B009A421FDBDA
:1016D000A3001B19DB0069688C46634405A90191CE
:1016E000009328230399484600F09AFC0028B5D1BE
:1016F0000134302C15DC4246303A121993009B1805
:1017000000220392049299009B00D5D50021D3E7D3
:10171000813BFF3B9B000549484601F0FDFE01204F
:101720009CE700209AE7C04698390210CC39021095
:1017300010B514F0E7F800F08DF900F0A3F8FCE71D
:101740000023036043608360704710B503685B69E2
:10175000984710BD10B503689B69984710BD0000FD
:10176000024B034A1A60034A1A607047B81B0020F4
:1017700064AD0210943B0210034B044A1A60044A01
:101780001A60044A1A6070471CB10020EC3B02103A
:10179000C43B0210A83B021010B5040020290CD055
:1017A00000228423E358934209D95301E318181DFA
:1017B0009B698B4204D00132F3E7002000E0002057
:1017C00010BD0000034B0360034B0360034B036039
:1017D0007047C046EC3B0210C43B0210A83B02100D
:1017E000034B0360034B0360034B03607047C04629
:1017F000EC3B0210C43B0210A83B021010B502489B
:10180000FFF7F7FE10BDC04610B4002010B5024827
:101810000AF0BBFE10BDC04678B3002010B59C2373
:10182000C458042C01D8002302E01FF02FFE01331E
:101830009C4209D9C218883212788A42F7D12233E1
:101840009B00C018406800E0002010BDF8B50500FE
:101850000E00002400E001348423EB58A3420ED98B
:101860006301EB181F1D9B69202BF4D16301EB185A
:10187000D869310020F0C6FE0028ECD100E0002736
:101880003800F8BD30B589B0FFF78EFE04000023A4
:101890000793544B1A68544B1968544B186807AB9C
:1018A00000932300FFF7A6FE002806D14D4B1C60D5
:1018B000079B002B06D000220CE04B4B18684C49CC
:1018C00001F02AFE09B030BD4A4909684A4B9B56CF
:1018D0008B540132F521C9008A42F5DB474B186869
:1018E0000BF046FA002844D1444B186800210AF056
:1018F000CBFF01000023069317226A4413701625BC
:101900006D442B703E4B18680195009206AB220087
:1019100000F0EEFB002832D117236B441B78324ACB
:10192000106816256D442A780092069A2100FFF768
:1019300041FE2B78002BC5D0069B324A934224D01F
:10194000314A934237D0FC24E400009446235022CD
:101950005A21002017F0B6FF2C4B0294002201926E
:101960005A6800921B68069A5A21012017F068FFF6
:10197000A8E71D4B1868264901F0CEFDA2E71A4BD7
:101980001868244901F0C8FD9CE7FC24E400009499
:10199000462350225A21002017F094FF1B4B02943B
:1019A000002201925A6800921B68069A5A21192057
:1019B00017F046FF86E7FC24E400009446235022FB
:1019C0005A21002017F07EFF104B02940022019252
:1019D0005A6800921B68069A5A211E2017F030FFA1
:1019E00070E7C046A0440020B4440020604C0020B2
:1019F000F4390210644C0020B8440020482700202D
:101A000044270020543A0210583A0210DC1C0020EF
:101A1000103A0210203A0210704710B50068FFF724
:101A2000FBFF10BD704710B50068FFF7FBFF10BD4E
:101A3000704710B50088FFF7FBFF10BD10B504001C
:101A40000068FFF7E9FF201810BD10B5FFF7F6FF9B
:101A500010BD0000F0B58DB017F0D8FEC44B009358
:101A6000A02350220021002017F085FFFA20C0009B
:101A70000FF018FBBF4B1B78BFF35B8FDB0722D542
:101A8000BD4BBE4A1A60BE48FFF7DFFF0400BD4BE6
:101A90001860FFF7C8FF251A2800FFF7CAFF0428BF
:101AA0001DD9281DFFF7C5FF00281AD02018FFF701
:101AB000B4FF0200032A16D00323B349AF4801F054
:101AC0002BFD0DB0F0BDAB4817F0EEFF0028D7D0CE
:101AD000AE481FF0E3FCA74818F002F8D0E700205A
:101AE000E2E70022E6E7AA4B1B78BFF35B8FDB0738
:101AF00000D488E004A803F021FBA64803685B69D2
:101B000004219847002800D19AE0A24AA023D05887
:101B1000002803D00422A04901F0FEFC0124002C7F
:101B2000CFD104A804F03AFF9A4803685B69092101
:101B30009847002800D1B6E0964AA023D058002844
:101B400003D00922944901F0E7FC0124002CB8D10C
:101B500004A806F0C7FB8F4803685B691921984702
:101B6000002800D1D1E08B4AA023D058002803D010
:101B70001922894901F0D0FC0124002CA1D104A82C
:101B800008F038FC834803685B69162198470028F1
:101B900000D11DE17F4AA023D058002803D016228F
:101BA0007D4901F0B9FC0124002C00D089E77B4B72
:101BB0001B78BFF35B8FDB0700D43BE17848794BA0
:101BC00018600AF0EFFF002800D04EE1754B18684E
:101BD00000210AF09BFD744B186043691A68022AC1
:101BE0000BD15A68012A08D19A68F523DB009A4282
:101BF00003D1037F092B00D13DE15F4B18686B498E
:101C000001F08AFC5DE7624817F04EFF002800D122
:101C100070E7594B19685F4B654A1A60654A1A604C
:101C2000654A1A60002284201A5018301A50A032D7
:101C3000995062481FF032FC554817F051FF59E7A0
:101C4000544A8423D158032922D852484C010423F2
:101C50009C460419251D04AB2A00E0CBE0C2E0CB72
:101C6000E0C260CB60C26346A36101318033C150E2
:101C70009C214358C2188832644614701A002232DC
:101C8000920082184E4C546001334350002446E7C2
:101C90001C33D058002804D09C3B0422494901F051
:101CA0003BFC01243BE73B4A8423D158032921D83C
:101CB00038484D01AC46844463461E1D04AB3200D7
:101CC000E0CBE0C2E0CBE0C260CB60C20926634655
:101CD0009E6101318423C1509C214358C21888322F
:101CE00016701A00223292008218374D5560013367
:101CF00043502BE71C33D058002804D09C3B0922CA
:101D0000304901F009FC012420E7224A8423D158FC
:101D1000032921D81F484D01AC46844463461E1D4B
:101D200004AB3200E0CBE0C2E0CBE0C260CB60C2EB
:101D3000192663469E6101318423C1509C2143587A
:101D4000C218883216701A002232920082181F4D73
:101D500055600133435010E71C33D058002804D09D
:101D60009C3B1922174901F0D7FB012405E7C04627
:101D70004CDA021030270020B4440020B81B0020A9
:101D80003C3C0210F4B000205C3A021061170010D5
:101D9000242700201CB10020A43A02102C27002088
:101DA00078B30020482700204C270020543B021025
:101DB000A83B0210C43B0210EC3B02107917001044
:101DC00021380010F43A0210693A0010493C001022
:101DD000564A8423D158032921D854484D01AC4692
:101DE000844463461E1D04AB3200E0CBE0C2E0CB6E
:101DF000E0C260CB60C2162663469E610131842337
:101E0000C1509C214358C218883216701A002232E1
:101E100092008218464D556001334350C4E61C338E
:101E2000D058002804D09C3B1622424901F074FB94
:101E30000124B9E6404817F037FE002800D1BDE67E
:101E40003E4B1968002302933D4B1B6801933D4BA9
:101E500000933D4B354A3D480AF02AFC3C481FF0B0
:101E60001DFB354817F03CFEA8E6354B186839498C
:101E700001F052FB25E60269374B1A60374B1B789D
:101E8000BFF35B8FDB0729D5354B364A1A60364BDB
:101E90001B78BFF35B8FDB0732D5344B344A1A60B3
:101EA0000025344B1D60FC26F600300017F058FD6D
:101EB000314C029601956368009323682F4A1421E0
:101EC000052017F0BDFC0296019563680093236816
:101ED0002B4A2D210A2017F0B3FCF2E51F4817F01A
:101EE000E3FD0028D0D0F521264AC9001D48FFF7A0
:101EF00071FB25481FF0D2FA184817F0F1FDC3E72F
:101F0000194817F0D1FD0028C7D0FA220323019306
:101F10001E4B0093C823920009490968144800F039
:101F2000B7F8114817F0DCFDB7E7C0461CB1002038
:101F3000C9360010F43A02102C270020F4B000201B
:101F4000B4440020501D00005027002078B300202A
:101F50000D180010383B0210644C0020342700207C
:101F6000604C002010B400202827002044270020C7
:101F7000C0B10020A0440020DC1C00207C3B0210EB
:101F8000843B0210B8440020FD170010DC0500005F
:101F900010B590B004001E2300930A3B01930A3B46
:101FA00006931E330293144B0493144B0393144B68
:101FB0000793144B0893144B099301230A93134A74
:101FC0000B92134A0C9215220D920E9305330F9328
:101FD000E53292010F496846FEF738FE002805D029
:101FE0000D4B01221A70002010B010BD0B492000CB
:101FF00001F092FA0120F7E70000FA420060EA459A
:10200000CDCCCC3C8FC2753DCDCC4C3D3333733FF2
:102010000000A04268900020BC1B00200C3C021075
:1020200030B585B01300089D164A1278002A0BD0EF
:10203000144A00201070099A00920A00124902A85E
:10204000FEF79CFD002406E04131FF31F3E78020DC
:10205000404228550134039BA34210D96300029AE1
:10206000985A00024E30FF30084911F0D3F88038FA
:1020700003008033EBDB7F28EBDD7F20E9E70020E6
:1020800005B030BDBC1B0020689000209A02000003
:1020900070B5016042600372049BC360059B0361DD
:1020A00006001436416104001834312107E0002590
:1020B0001D700133013A002AF9DA08340139002988
:1020C00004DB2300002204C30332F4E70023CA2206
:1020D0005200B3500432B350B133FF33034AC250FD
:1020E000043380221206C25070BDC0462C3C021040
:1020F000F0B5D646474680B58FB0050002920393EF
:102100004B691A68022A05D15868012802D19868DB
:1021100004280CD028689B6800920422AA4901F088
:10212000FBF901200FB0C0BCBA46B046F0BD0A7F33
:10213000092A1BD1D6235B00EB58002B08D0D423EF
:102140005B00EB58DB00EB189B69029A934213DCAF
:102150002F0014370869029B0A930023032B11DC1C
:10216000C1560AAAD21811710133F7E728689749B6
:1021700001F0D2F90120D5E72868954901F0CCF9A2
:102180000120CFE7CC235B00FB58312B14DC591C1A
:10219000CC225200B950043ABA589B18312B00DDBA
:1021A000323BDB00FB1804330AAA03CA03C3029BB9
:1021B0006A689B1A98463DE08649686901F0ACF967
:1021C000F5E7E3179A46D4235B00EB58DB00EB18E6
:1021D0009B691800D917029E3200F317121A8B411F
:1021E000100019002B69A34248DC6A68D617032344
:1021F00033409B189A10DB178B423FDC3CD0002603
:1022000065E07549386801F087F900230C930333C2
:102210000DAA002B0EDB002111700132013BF8E703
:102220000139CC225200B950913AFF3A04A90CA8C6
:1022300013F08EF9D6235B00EC58002CC1D0043B80
:10224000EB58DB00EB189B699845BADDCC235B00AB
:10225000F9580029D5DDCA20400004AC3B58DB000A
:10226000FB18043344CB44C43B585A1C3A50312A1F
:10227000D6DD00223A50D3E78242C0D9D8235B0092
:10228000EB580293039B029A1A600023169A13706C
:10229000179A1370002045E732002CE005AAD256A9
:1022A00080218846904406A99800425894464246A8
:1022B000624442500133032B08DC002EEED105AA04
:1022C000D15680319A0006A81150F3E70136D62383
:1022D0005B00EB589E421DDA002E04DBCC235B0032
:1022E000FB589E42D8DB3D49386801F015F9CC23F4
:1022F0005B00FA58013ACA235B00FB589B18312B4C
:1023000000DD323BDB00FB18043304AA03CB03C21D
:102310000023D0E70027032F0EDC06AEBB00984653
:102320009B59D917220053464046805910F0C0FFF0
:102330004346F0500137EEE700230020002100E083
:102340000133032B07DC9A0006AE92598242F7DD77
:1023500010001900F4E7224B8900CA58D82149001F
:1023600069581B68994219D0DA235B00EB58802624
:102370003606B34215D0029CE31ADF172E7A864246
:1023800019DA914210D0D8235B00EA500433029945
:10239000E950B43BFF3B17990B700FE0114B00273E
:1023A000ECE7104B0027E9E7E968CE17B742EADC13
:1023B00001D18B42E7D8002317990B70039B1A6059
:1023C000169B18700020ADE654850210B8850210E7
:1023D000FC85021078860210AC860210D8860210A6
:1023E000C01B0020FFFFFF7FF0B5D6464F46464694
:1023F000C0B582B08C460932FF3217009D004519E6
:102400000022845EA203121B8021C9018846424437
:10241000D21302800222845EA203121B4244D21312
:1024200042800022AC5EA203121B4244D21312B2BD
:102430002A8002216E5EB403A41B4444E41321B23B
:10244000884669800024395F89460E005643022180
:102450007C5E41466143761A8021C9018A46564412
:10246000F61331B201AE31805443A24644464A4687
:102470005443220052448024E401A0464244D21333
:1024800012B272806446A4003F1906888CB2361BD3
:102490002E80468892B2B61A6E800688A4190480EF
:1024A00044881219428004350430013B002BA7D127
:1024B00002B0E0BCBA46B146A846F0BDF0B5DE4673
:1024C00057464E464546E0B593B0060009910A933B
:1024D00011000931FF3101910593039102910B9293
:1024E00014E008998B1A2B8053461B196B80884681
:1024F000424463461A8053461C1B63465C80043684
:10250000059B013B0593002B00D11EE10023F25EE9
:1025100053039B1A8022D20194466344DB13338019
:102520000223F25E53039B1A6344DB1373800A9900
:102530008B00F518F25E53039B1A6344DB132B8068
:102540000223EA5E53039B1A6344DB136B80CB00C8
:10255000F2189346F25E53039B1A6344DB135A4608
:1025600013805B4602229A5E53039B1A6344DB137B
:102570005A4653804B008C4663449B00F2189446A5
:10258000F25E53039B1A8022D20190464344DB1330
:102590009846634642461A8002229B5E5903C91A36
:1025A0008023DB0199464944C9136346049159804D
:1025B0000022AB5E9A46019B0022985E544644433B
:1025C00002216A5E02215B5E19005143641A802178
:1025D000C90189464C44E41321B20CAC0691218018
:1025E00054466343504318184844C01302B20CAC1D
:1025F000079262805B460027DC5FA146029A0024B6
:10260000105F4C4644430227DB5F0227D25F110074
:102610005943641A8027FF01BA465444E41324B294
:102620000CAFBC804F467A43584310185044C01337
:1026300000B20CAFF880039B00215F5EB9464146B3
:1026400079430A000227DB5F1900049F7943521A7D
:102650008027FF01BA465244D21312B20CAF3A811E
:1026600047467B434F46049979435B185344DB1339
:102670001BB20CAF7B813188A4B204940F1BB84607
:10268000BFB208970CAF4446BC827488A04680B2A3
:10269000241AA146A4B2A2463C004F46E782049CFD
:1026A000A146494489B23180404470806846008B1D
:1026B00092B20490801887B2B9460CAFB8816846D0
:1026C000808B9BB2C7183C00BFB2B8460CAFFC81F0
:1026D000049CA21A94B23A82C31A9AB27B824F46E1
:1026E000C91B5B46198073884746DB1B59464B80E4
:1026F00009998B00019883469B4458460190CB0072
:10270000029883469B44584602904B008B465B449C
:102710009B0003998B469B445B46039333884B4451
:1027200033807388434473800B9B5B68002B00D01D
:10273000D7E608998B182B8053461B1B6B808A1A8F
:1027400063461A8054445C80D9E613B0F0BCBB46A3
:10275000B246A946A046F0BDF0B5DE4657464E4605
:102760004546E0B58DB00C00049119000593230097
:102770004B4342339B009B58069384235B0098464F
:1027800090444346019302910022835E644C63436C
:102790008022D20194466344DB1303800222835ECD
:1027A00063436344DB134380059A9300C518C35EFB
:1027B00063436344DB132B8002216B5E63436146FA
:1027C0006344DB136B80D300C2189446C35E63433B
:1027D00089464B44DB13624613800221525E544308
:1027E0004C44E4136246548000216A5E924642469D
:1027F0000021525E56465643039502216F5E4146C4
:102800000225495F0D007D43761B8025ED01A94619
:102810004E44F61335B2A94607AEB5805546694316
:102820007A438A188021C9018A465244D21312B2CF
:10283000F28001990027CD5FAA462F005F43022551
:10284000495F0D0065437F1B8025ED01AB465F446A
:10285000FF133FB23781594353465C43091959442A
:10286000C91309B271814B469BB2BCB21F19BDB2EC
:10287000A9463FB2BA46B78192B28FB2BB46D719CA
:10288000B9B23FB2F7811B1B1BB233805C46121BEF
:1028900012B27280049DAC00A044EC00019DAB46D6
:1028A000A3445C460194048855466D10641B039D47
:1028B0002C8044887F10E71B6F8006AC0227E75FFF
:1028C0007B438024E401A2465344DB131BB23380D4
:1028D0007A435244D21312B2728004884C4404806A
:1028E000448809194180298892B289186446218058
:1028F00069889BB2C91A618029888A1A2A806A88E5
:102900009B186B800430029B013B0293002B00D08C
:102910003AE70DB0F0BCBB46B246A946A046F0BDB2
:10292000AA2A0000F0B5DE4657464E464546E0B5B9
:10293000A5B00700029013911D00129316000936EE
:10294000FF3601960C005C43A100B44661440422AA
:1029500016A812F0FDFDE100B4466144042215A85A
:1029600012F0F6FDAB00BC4663440393EB006344F6
:1029700004936B00AC4663449B00BC4663440593E0
:102980002B016344069300230793FDE1029A002183
:10299000535EFA4D6B438021C9018C466344DB13BF
:1029A00013800221535E6B436344DB135380039F08
:1029B00000217B5E6B436344DB133B8002217B5E23
:1029C0006B436344DB137B80049900200B5E6B43F5
:1029D0006344DB130B8002200B5E6B436344DB1309
:1029E0004B80059A0020135E6B436344DB13138016
:1029F0000220135E6B436344DB135380069800236D
:102A0000C65E6E436644F61306800224035F5D4390
:102A10006544EA130992428017AC0422029920000F
:102A200012F096FD390000203D5EA8461398079FDE
:102A300078438200019FBB18BF5E42467A430391F0
:102A40000225495F02255B5F1D004D43521B802517
:102A5000ED01AC466244D21315B20A95A5804546F5
:102A60006B4379435B186344DB131BB29B46E380E3
:102A7000049900254B5F9C46C200019FBB18BF5EB6
:102A800062467A430225495F02255B5F1D004D4384
:102A9000521B8025ED01A8464244D21315B2A94627
:102AA000258165466B4379435B184344DB131BB2B6
:102AB0009A466381059F0023FA5E944642001218ED
:102AC000920001998B188A5E6546554329000225BC
:102AD0007F5F02255B5F1D007D43491B8025ED0163
:102AE000A8464144C91309B2A18165466B437A43A4
:102AF0009A184244D21313B20893E3810301019F51
:102B0000F818FB5E1D0075432F000225405F05008D
:102B1000099A55437F1B4744FF133FB227827043F6
:102B200015005D4340194044C01300B260826B46FB
:102B30001D8DAC46BFB2EB199EB209961DB20A9527
:102B4000A5835E46B3B282B29E18B5B236B20B967A
:102B5000E6836646F71B3EB20C962685981A00B2AD
:102B60000D9060854B4698B289B243189EB2B0462C
:102B70001BB20E93238453469FB26B461A8CBB182C
:102B80009EB2B4461BB20F936384411A08B21090F0
:102B9000A084BA1A12B21192E284029F3888099E68
:102BA0004644B6B286193E807B8808936544ADB230
:102BB0009C4665447D8016AD0022AE5E0A9A724343
:102BC0008023DB019C466244D21392B2821893B2F6
:102BD0009C4615AA0023D75E3B000E994B439846AE
:102BE0008023DB019946C8444346DB139BB29846D9
:102BF000C44463469BB298466346A3820B9B7343CF
:102C00009C46CC446346DB139BB29C46089B99468A
:102C1000CC4463469BB29C460F9B7B4399468023E2
:102C2000DB019A46D1444B46DB139BB29946E14403
:102C30004B469BB219004B46E3820223EB5E1D001C
:102C40000D9B09956B439A468023DB019946CA4444
:102C50005346DB139BB29A460225525F9146119A66
:102C60004B465A438023DB019B465A44D21392B20F
:102C7000524493B29A4622830C9A099D6A435A445D
:102C8000D21392B2109B4D466B439B468025ED01BB
:102C9000AC46E3445D46ED13ADB25242521B95B2D1
:102CA000AB46628345465246AA1A039B1A805A468F
:102CB0008A1A5A80D0444246069B1A808C46DC44CD
:102CC00062465A800A9A7A438025ED01AC466244F6
:102CD000D21392B2821892B20E9870436044C0131D
:102CE00080B2101882B2A0850B9878430300634429
:102CF000DB139BB20899C91889B20F98704303007F
:102D00006344DB139BB2C9188BB2E1851199099D0D
:102D100069430F006744FF13BFB20D984D466843E7
:102D200001006144C91389B2791A88B221860C9EC8
:102D30006E4337006744FF13BFB2109E099D6E4378
:102D400031006144C91389B2791A8EB261861118B3
:102D5000049C218099196180121A059F3A809B1B5F
:102D60007B80029A04320292039B1A1D0392221D59
:102D700004923A1D0592069B043301E09919000064
:102D80000693079F7B1C0793079B129A934200DAD6
:102D9000FCE525B0F0BCBB46B246A946A046F0BD56
:102DA000F0B5DE4657464E464546E0B58BB0059039
:102DB0000291069315000935FF3517680023079324
:102DC00085E0B900059B9C466144AE0004223000BA
:102DD00012F0BEFB0023F45E4146484810F01AFA98
:102DE00044438023DB019C466444E4133480022284
:102DF000B35E43436344DB1373804F440135454561
:102E0000DFDB55465F46079B049300230393149B27
:102E1000994644E0B0000022835E9C468A005346F7
:102E20009B185546AF5E62467A430225405F0225F5
:102E30005B5F1D004543521B8025ED01A8464244BF
:102E4000D21312B2904609AD2A80624653437843AA
:102E50001B188022D20194466344DB131BB26B80A3
:102E6000424692B22088121822809BB262889B1838
:102E7000638001364E4508DA029B019A5343C91814
:102E80008B45C7DC5B46C91AC4E755465F46049BC1
:102E9000069A944663440493039B01330393039B74
:102EA0004B4511DA049B98469C00059B9C46644464
:102EB00004220021200012F04BFB00210126434692
:102EC0000193AA46BB46D5E7079B01330793079BAF
:102ED000069A93420BDA079B9A460023BB46574655
:102EE000AA461D00069B9946149B984687E70BB09F
:102EF000F0BCBB46B246A946A046F0BDFF7F00002D
:102F0000F0B5DE4657464E464546E0B585B00390DF
:102F10000C0015001F000E9B1A689146082293466C
:102F20009B445B689A464B46524653439B008046FF
:102F30009844012A23D0039E0F9B01935B46009384
:102F40003B004A466A4321003000FFF7D9FF2B00BF
:102F50007B439B00E41853469B00F618B045EBD129
:102F60004B46042B32D01BDC022B22D0032B34D156
:102F700053460F9A29000398FFF7EEFB1FE0060067
:102F80003B004746984604222100300012F0E0FA48
:102F900043466B439B00E4180436B742F3D1DFE7A6
:102FA000052B1AD153460F9A29000398FFF7BAFC54
:102FB00005E053460F9A29000398FFF715FA05B06C
:102FC000F0BCBB46B246A946A046F0BD53460F9A98
:102FD00029000398FFF772FAF1E74B460093534636
:102FE0000F9A29000398FFF7DBFEE8E7F0B5C64625
:102FF00000B50500884610F025FC10F0BBFC10F071
:103000005DFE06000F00042414E0022C03D0042C03
:1030100003D0023402E0032400E00224200010F078
:1030200011FC32003B0010F0F5FB002802D02C0010
:1030300000E098462100280010F0ECF80029E4D1C7
:103040002100280010F0E6F8050043461C60083314
:10305000424650600128ECDC80BCB846F0BD000060
:10306000F0B5CE4600B582B081461600020042326D
:103070009200002B5FD0002E08D01868904208D331
:103080001A604B463360716000272DE01A603000F3
:103090004DE01A6000204AE00198290010F080FC01
:1030A0000022264B10F055FB0022254B10F02AFB86
:1030B00010F004FE34000934FF34BB00E41810F0B3
:1030C000D9FB20800198290010F080FC00221B4BC6
:1030D00010F03FFB00221A4B10F014FB10F0EEFD35
:1030E00010F0C8FB608001374F451ADA380010F045
:1030F000A9FB144A144B10F02CFB04000D004846A9
:1031000010F0A0FB02000B002000290010F003FBD0
:1031100001900D007268002ABED0802212068D1820
:10312000BAE7310008314846FFF760FF300002B0CF
:1031300080BCB946F0BD1800F9E7C046C0FFDF40CB
:103140000000E03F182D4454FB2119C030B583B076
:1031500004001500914209D002000832019000924B
:1031600001222800FFF7CCFE03B030BD0200083278
:103170000190009201220020FFF7C2FE2268920017
:103180000021280012F0E4F9EEE710B50123FFF763
:10319000DDFF10BDF0B5D6464F464646C0B584B0FB
:1031A0008A4690461E0001231C000440034200D0C2
:1031B00084E0451003AB00222800FFF751FF6B00AD
:1031C0005B19DA0FD21852109200039B9C4662449E
:1031D0000C32002E18D03368934214D33260434629
:1031E000002B11D042460C321A60039BD318414683
:1031F0004B60A9005B1841468B6003AB5146280029
:10320000FFF72EFF2DE03260002051E001983900D9
:1032100010F0C6FB00222A4B10F09BFA0022294B2B
:1032200010F070FA10F04AFDA40043469B681E1986
:1032300010F020FB30800198390010F0C7FB00220D
:103240001F4B10F086FA00221E4B10F05BFA10F0B4
:1032500035FD43469B689C46644410F00BFB608040
:103260004C46EB0F5B195B10A34220DD631C9946B3
:10327000180010F0E7FA06000F00280010F0E2FA3C
:1032800002000B003000390010F045FA00220D4B0F
:1032900010F038FA0C4A0D4B10F05BFA01900F0059
:1032A0005246002AB2D0802212068F18AEE740465E
:1032B00004B0E0BCBA46B146A846F0BD0020F7E72E
:1032C000C0FFDF400000E03F182D4454FB2109C03F
:1032D000F0B5DE4657464E464546E0B589B08046D5
:1032E0001500019200684368002B06D009B0F0BCBD
:1032F000BB46B246A946A046F0BD076843465A6899
:10330000FFF743FF43465B6800215A5E02A90A802B
:103310000221595E02AB598093039B1A8024E40179
:10332000A4466344DB131BB202AC23808A03521A07
:103330006244D21312B262809BB292B29918298071
:10334000B900AC4661449B1A0B8000236B804B8014
:1033500001248FE043465B689946A5000095591902
:1033600006AE0422300012F0F3F83B1B9B009C4693
:103370004B4663444A466146505E07A908805B8815
:103380005B421BB299464B800022B35E9A03D21A6D
:103390008023DB019A465244D21312B232800225B6
:1033A000735F9A469B0355465B1B8025ED01AA4639
:1033B0005344DB131BB273808603361A5644F6134C
:1033C00036B20E80484680034D46401B5044C01321
:1033D00000B2488092B2B1B28A46561836B205A9F8
:1033E0000E809BB280B21D182DB2A9464D80514669
:1033F000521A12B204A90A801B1A1BB24B8021492F
:10340000601880004146896809184546AD68285E05
:10341000834650430225495F0D005D43401B8025D4
:10342000ED01AA465044C01300B2824603A8554697
:1034300005804A4359464B43D3188022D201934614
:103440005B44DB131BB243807219521001998B4607
:10345000009D5D442A804A46D21852106A80524626
:10346000B61A76100A006244168049465B1A5B1051
:1034700053800134FB0FDB195B10A34200DB69E7CB
:1034800034E7C046FFFFFF3F013080007047000077
:103490000D281DD88000104B1B589F460F487047C1
:1034A0000F48FCE70F48FAE70F48F8E70F48F6E740
:1034B0000F48F4E70F48F2E70F48F0E70F48EEE750
:1034C0000F48ECE70F48EAE70F48E8E70F48E6E760
:1034D0000F48E4E70F48E2E7908702108887021060
:1034E00020870210288702103087021038870210C8
:1034F0004087021048870210508702105887021038
:10350000648702107087021078870210808702108B
:1035100008870210188702100EB400B582B003AA03
:1035200002CA019203689B68984702B008BC03B0C6
:1035300018470CB400B583B004AA02CA019203680C
:103540009B68984703B008BC02B01847052803D809
:103550008300024AD3589F4600207047C887021054
:10356000002803D0012803D1013070470120FCE777
:103570000020FAE710B5002806D0002906D0002A5E
:1035800006D0002B06D010BD1DF080FF1DF07EFF81
:103590001DF07CFF1DF07AFF10B513000C2836D803
:1035A00083001F4AD3589F460A230B70002010BD8A
:1035B00001230B70FBE70B230B700020F7E70723B9
:1035C0000B700020F3E702230B700020EFE70323CA
:1035D0000B700020EBE709230B700020E7E70423C2
:1035E0000B700020E3E70D230B700020DFE70523BD
:1035F0000B700020DBE706230B700020D7E70823C1
:103600000B700020D3E70C230B700020CFE70022C3
:103610000A70020003491800FFF77EFF0120C6E789
:1036200004880210E0870210F0B5C64600B582B0EB
:1036300004000D001700019300291AD00868FEF756
:10364000EBF90600A008B0421AD30024B44225D2F8
:10365000A3009846B8442868FEF7DEF9844216D2E3
:103660002B1DA2009858FEF7DDF94346186001347F
:10367000ECE7089A0C491800FFF74EFF01200EE016
:10368000089A0A490198FFF747FF012007E08321C4
:10369000074B084A490008480EF00CFC002002B015
:1036A00080BCB846F0BDC046388802106888021059
:1036B000AC880210B888021088890210704710B5D3
:1036C0000078FFF7FBFF10BDF0B5C64600B584B02B
:1036D00004000F0015001E00FFF74CFF2B681B684D
:1036E000042224212800984780462422002111F03A
:1036F00029FF0295434603934546002B0ED0200038
:10370000FEF791F9231A98461800FEF792F90A2855
:1037100011D940460A30FEF78CF90DE0384B019381
:10372000B723DB000093374B374A39003800FFF7E7
:1037300000FF013551E00020002803D02018FFF7DA
:10374000BEFF00E00020112819D12000FEF76BF920
:10375000231A98461800FEF76CF90C2804D9404645
:103760000C30FEF766F900E000202418002804D091
:103770002000FEF752F9241802E0002400E00024A3
:10378000002C25D0A0462000FEF74DF9241A200079
:10379000FEF74FF904282ED9201DFEF74AF94346BB
:1037A0001C18002829D02000FEF737F92418002C17
:1037B0000ED0164B00933B002A0021002020FFF77B
:1037C00033FF051E09D12068FEF726F9039B186216
:1037D000039B33600023039300250399002903D042
:1037E000029803685B68984700230393280004B09D
:1037F00080BCB846F0BD0020D1E70024D7E7C04622
:103800007C8A0210F8890210648A0210908A0210E1
:10381000704710B5007840B2FFF7FAFF10BD000006
:10382000F0B5C64600B584B00400884615001E00F9
:10383000FFF7A0FE2B681B6804221C212800984774
:1038400007001C22002111F07DFE02950397002F36
:103850000DD02000FEF7E7F8251A2800FEF7E9F85A
:103860000A2810D928000A30FEF7E3F80CE07A4B5A
:1038700001937A4B00937A4B7A4A41464046FFF7D0
:1038800058FE0124BDE00020002803D02018FFF7D7
:1038900016FF00E00020022818D12000FEF7C3F830
:1038A000251A2800FEF7C5F80C2804D928000C308A
:1038B000FEF7BFF800E000202418002804D0200004
:1038C000FEF7ABF8241802E0002400E00024002CEE
:1038D00000D191E025002000FEF7A5F8241A200071
:1038E000FEF7A7F8042800D899E0201DFEF7A1F8FC
:1038F000002800D195E02818FFF78BFFC0B2FFF732
:103900002FFE3870039F2800FEF78DF82C1A200038
:10391000FEF78FF8062800D885E0A01DFEF789F88D
:10392000002800D181E02818FEF77DF87860039C1C
:103930002800FEF778F82F1A3800FEF77AF80828E2
:1039400000D874E038000830FEF773F8002800D182
:103950006FE02818FEF767F8A0602800FEF763F80C
:103960002F1A3800FEF765F80A2864D938000A30A3
:10397000FEF75FF8002860D02818FEF754F8E060E2
:103980002800FEF750F82F1A3800FEF752F80C28DE
:1039900055D938000C30FEF74CF8002851D02818C3
:1039A000FFF737FFC0B2FFF7D1FD20742800FEF704
:1039B0003AF82F1A3800FEF73CF80E2843D93800A1
:1039C0000E30FEF736F800283FD02818FEF72BF807
:1039D00060612800FEF727F82F1A3800FEF729F853
:1039E000102834D938001030FEF723F8002830D0E2
:1039F0002818FEF718F8A061039B33600023039397
:103A000000240399002903D0029803685B68984753
:103A100000230393200004B080BCB846F0BD002012
:103A200066E700206AE700207AE700207EE70020B2
:103A30008CE7002090E700209CE700209FE7002013
:103A4000ABE70020AEE70020BDE70120C0E7002083
:103A5000CCE70120CFE7C0467C8A02102304000097
:103A6000F8890210648A0210F0B5C64600B584B029
:103A70000400884615001E00FFF77CFD2B681B68BC
:103A8000012204212800984707000422002111F098
:103A900059FD029503973D1E28D02000FDF7C3FF76
:103AA000271A3800FDF7C5FF0A282BD938000A303D
:103AB000FDF7BFFF002827D02018FFF700FE0828D9
:103AC00028D12000FDF7AFFF271A3800FDF7B1FF1E
:103AD0000C281BD938000C30FDF7ABFF2418002848
:103AE00016D02000FDF799FF241814E04E4B0193E7
:103AF0004E4B00934E4B4F4A41464046FFF719FD4F
:103B000001247FE00020D5E70020D8E70020E5E78A
:103B1000002400E00024002C6FD027002000FDF7D7
:103B200082FF241A2000FDF784FF042852D9201DAB
:103B3000FDF77FFF00284FD03818FFF76AFEC0B2AC
:103B4000FFF704FD2870039D3800FDF76CFF3C1A59
:103B50002000FDF76EFF082840D920000830FDF74F
:103B600068FF00283CD03818FFF7A9FD431E984194
:103B7000A870039D3800FDF756FF3C1A2000FDF7A2
:103B800058FF0A282ED920000A30FDF752FF0028DE
:103B90002AD03818FFF793FD431E9841E87038008B
:103BA000FDF741FF3C1A2000FDF743FF06281DD911
:103BB000A01DFDF73EFF00281AD03818FFF729FE98
:103BC000002817D001282BD01B494046FFF7A4FC42
:103BD000012417E00020ADE70020B0E70020C0E797
:103BE0000020C3E70020D2E70020D5E70020E2E76D
:103BF0000020E5E70023039A5370039B3360002302
:103C0000039300240399002903D0029803685B689A
:103C1000984700230393200004B080BCB846F0BD51
:103C20000123039A5370E8E77C8A021067040000BE
:103C3000F8890210648A0210988A0210704710B541
:103C40000068FFF7FBFF10BDF0B5C64600B584B0B5
:103C50000400884615001E00FFF78CFC2B681B68CB
:103C60000422042128009847002303600295039052
:103C7000071E0DD02000FDF7D6FE251A2800FDF7FF
:103C8000D8FE0A2810D928000A30FDF7D2FE0CE031
:103C90002D4B01932D4B00932D4B2E4A4146404610
:103CA000FFF747FC01243DE00020002803D0201846
:103CB000FFF705FD00E00020092818D12000FDF7DE
:103CC000B2FE251A2800FDF7B4FE0C2804D92800FE
:103CD0000C30FDF7AEFE00E000202418002804D0D0
:103CE0002000FDF79AFE241802E0002400E00024E2
:103CF000002C12D025002000FDF795FE241A20008C
:103D0000FDF797FE04281BD9201DFDF792FE002821
:103D100018D02818FFF793FF3860039B3360002307
:103D2000039300240399002903D0029803685B6879
:103D3000984700230393200004B080BCB846F0BD30
:103D40000020E4E70020E7E77C8A0210410600003B
:103D5000F8890210648A0210F0B5CE4600B582B030
:103D600004000D0001921F0000233B6009F051FB8D
:103D7000009006002000FDF756FE231A9946180011
:103D8000FDF757FE082804D948460830FDF751FED4
:103D900000E00020002804D02018FDF744FE8146F2
:103DA00001E001239946832E0FD8202E1FD02B68C7
:103DB0001B684A46009928009847386000280BD0B5
:103DC000002002B080BCB946F0BD009A1E4901989F
:103DD000FFF7A2FB0120F4E7009B9E001B4B9A59C2
:103DE0004B461B490198FFF797FB0120E9E72000AC
:103DF000FDF719FE261A3000FDF71BFE062816D91E
:103E0000B01DFDF716FE2418002812D02000FDF783
:103E100004FE2418002C0ED0211D2B685B684A4636
:103E200028009847386000280BD00020C9E7002000
:103E3000E9E70024EEE707490198FFF76DFB012051
:103E4000BFE70120BDE7C046C48A0210849102107A
:103E5000188B0210508B0210F0B583B004000D00D7
:103E600017001E00002200230FF0B6FC002804D02B
:103E700000233B60336003B0F0BD32002000290016
:103E80001FF0BAFA00221D4B0FF063FC0FF0C8FEC2
:103E90000FF038FD04000D1E14DC00290ED0802325
:103EA0001B069C4210D0002D26DC21D033681F3326
:103EB00002DA0023336000243C60DCE780231B0629
:103EC0009842ECD91DF0E2FA002DECD1EA0F002364
:103ED00012196B411C001300E10700930194520872
:103EE00011430C00019B5D10336801333360DAE746
:103EF00080231B069C42D9D31DF0C8FA0000E04184
:103F0000F8B506000F0015001C000022094B0FF049
:103F100081FC002809D023002A0030003900FFF777
:103F20009BFF2368002B02DBF8BD1DF0AFFA1DF0EC
:103F3000ADFAC0460000F03F30B585B00FF009FC87
:103F400004000D0080200006089BD8400FF07AFC8A
:103F500022002B000FF0FDFB00900191094A0A4B53
:103F6000029203930FF056FC002808D16B461868A4
:103F700059680A9B099AFFF7C3FF05B030BD02AB31
:103F8000F5E7C0460000C0FFFFFFDF41F0B5C646C1
:103F900000B503000C00012098400138D21A2023FC
:103FA0005B42D3182BD401259D40012393409846B2
:103FB0000FF048FC06000F00404629000FF096FC69
:103FC00002000B00300039000FF0C3FB06000F00A9
:103FD00020235B42E31817D4012199400120A0401F
:103FE0000FF084FC02000B00300039000FF093FB4F
:103FF0000FF064FE0FF03EFC80BCB846F0BD2023FD
:104000009B1A0125DD40D0E720231B1B0121D9404D
:10401000E4E7000030B58BB0019100929D68DC6848
:104020000395049401280AD0032820D0022845D003
:104030000E9B019A1A600F9B009A1A6013E0291CCC
:10404000002010F0CAFE11F0D7F810F057FF241826
:104050000594019BA34208DB01AB1B680E9A136019
:104060000F9B009A1A600BB030BD05ABF5E7291C19
:10407000002010F0B2FE11F0BFF810F03FFF201842
:104080000690019B834215DB01AB1B680E9A1360FF
:10409000291C1E4810F0A1FE11F0AEF810F02EFF02
:1040A00024180794009BA34206DC6B461B680F9AFA
:1040B0001360D8E706ABE8E707ABF7E7291C14481D
:1040C00010F08BFE11F098F810F018FF20180890EF
:1040D000019B834216DB01AB1B680E9A1360291CFF
:1040E000FE20800510F079FE11F086F810F006FF32
:1040F00024180994009BA34206DC6B461B680F9AA8
:104100001360B0E708ABE7E709ABF7E70000C04092
:10411000000080BF10B50B6802CB002A10DB8A427A
:1041200010DA920099584B1C0ED000290EDB8368E0
:10413000002B02D04801181810BD036D9847FBE70B
:104140000020F9E70020F7E70020F5E70020F3E77B
:1041500010B54B6802CB002A10DB914210DD9200B3
:1041600099584B1C0ED000290EDB8368002B02D01F
:104170004801181810BD036D9847FBE70020F9E7C8
:104180000020F7E70020F5E70020F3E710B5FFF780
:10419000C1FF10BDF0B5C64600B582B080461D0017
:1041A0008868916810F02FFE041C10F0E1FE0600F4
:1041B0000F000021201C10F06DFE002810D0A86810
:1041C00010F0D6FE02000B00300039000FF0A3FA09
:1041D000089B18605960002002B080BCB846F0BD52
:1041E00043465C69A123044A00925B00034A0449E8
:1041F0004046A0470120EFE7F89302109893021081
:10420000648A0210F0B5C64600B584B080460D0041
:1042100016001C000A9F886810F0AAFE0290039105
:10422000B06810F0A5FE02000B00029803990FF091
:1042300090FA02900391002C1AD0A06810F098FE1A
:1042400002000B00029803990FF053FA02904C0001
:104250006408B86810F08CFE02000B000298210080
:104260000FF059FA0E4A0F4B0FF0C4FA00280BD08A
:104270000B9B00933B00320029004046FFF78AFF6A
:1042800004B080BCB846F0BD43465C693623064A9C
:104290000092FF33054A06494046A0470120EFE758
:1042A0007B14AE47E17A943F149402109893021065
:1042B000648A021030B583B00D001400127F032A07
:1042C0000DD0092A0ED0072A19D0446976230D4A49
:1042D0000092FF330C4A0D49A04701200DE0FF2258
:1042E000002102E07F22802149420698019000933C
:1042F00023002800FFF78EFE002003B030BD044AE3
:104300000449F2E73894021098930210648A02106C
:10431000FF7F00000080FFFFF0B5DE4657464E46A7
:104320004546E0B58DB004000D00049205930E786B
:10433000012E14D045690123039302967D4B01930E
:104340007D4B0093D1237D4A7D49A847012630004B
:104350000DB0F0BCBB46B246A946A046F0BD049BDA
:104360001F78012F0CD04569012303930297714BED
:104370000193744B0093D323704A7149A847E6E731
:10438000049B5B68002B15D01A689146002A1AD04E
:1043900012689346012A5DDD0A7F092A1CD0072A8C
:1043A0001AD04569684B0093E323644A6749A847DC
:1043B0003E00CCE74569664B0093DE235F4A6349C4
:1043C000A8473E00C3E74569624B0093DF235B4A81
:1043D0005E49A8473E00BAE7049A127F092A0ED028
:1043E00065690923039302925B4B01935B4B009336
:1043F000E523524A52492000A8473E00A7E71E9AEB
:1044000093450ED0656903925B460293544B01932A
:10441000544B0093E623494A49492000A8473E00EF
:1044200095E7049A526906929B689B009446634400
:104430005B681E9A93420DD06569039302924A4BC2
:104440000193474B0093E7233C4A3D492000A8478E
:104450003E007CE7AB680693169B9B689A464B46EA
:104460000433079300235F461E00A346A84623E0BB
:104470004B46586810F07CFD04000D00069810F0C3
:1044800077FD22002B000FF064F904000D00504668
:1044900010F06EFD02000B00200029000FF03BF928
:1044A0000AAB09AAFFF7D8FCB3001C9A0999D150AE
:1044B0001D9A0A99D15001361E9B9E4205DA012FA2
:1044C000D6DDB300079AD058D4E75C4645462B7F2B
:1044D000032B08D02B7F092B21D0032B1FD0072BB8
:1044E0001DD0002633E7002200230A920B930AAB6B
:1044F0000193169B0093059B049A41465846FFF78B
:1045000081FE061E00D022E709AB189A0A980B9983
:10451000FFF7A2FC099B5B42199A1360DAE7179B2D
:1045200019781B9B00931A9B169A2000FFF7C2FE76
:1045300006000CE75C940210789402109893021025
:104540004094021094940210E0940210648A0210C5
:10455000B0940210C49402101C9502102895021009
:1045600038950210489502106C95021010B500287D
:1045700001D0006810BD1CF089FF002800D0006841
:10458000704710B5002801D0006810BD1CF07EFFF8
:10459000002800D00068704710B5002801D00068DE
:1045A00010BD1CF073FF002800D0006870477047F2
:1045B000084070470841704740187047C043704733
:1045C00010B5002802D00020FFF7F8FF10BD10B58D
:1045D0000123884200DB00231800FFF7F1FF10BD24
:1045E00010B50123884200DC00231800FFF7E8FF24
:1045F00010BD10B5002801D0006810BD1CF046FFAA
:10460000012808D003280BD002280ED00A4B0B60DB
:104610000A4B136003E000230B60084B13607047E4
:1046200000230B60064B1360F9E7064B0B60FE237B
:104630009B051360F3E7C046FFFF7FFFFFFF7F7F0F
:104640000000C040000080BF10B5836B002B02D07B
:104650003821984710BD1CF019FF0000F0B5DE4668
:1046600057464E464546E0B591B005000C00160091
:104670000B931DAB1B7898460B681B68032B0AD065
:10468000022B08D044695F4B009349235E4A5F497F
:10469000A047012011E063681B68012B14D06C69EE
:1046A0000122039202935A4B01935A4B00934A23DF
:1046B000554A59492800A047012011B0F0BCBB461B
:1046C000B246A946A046F0BD01235B421E9A536341
:1046D000B3689B4673689A463778012F34D0022F0F
:1046E0003AD000239946012F3FD0022F45D0002316
:1046F000013B5A4653431C9A944663441A9A9B1AA8
:1047000044D401211940DA0FD3185B100D930F9197
:1047100048460138534658431B9B9C4660440B9BBC
:10472000C71A35D401213940FB0FDF197F100CAABD
:104730000C970E911E9B83CA83C312681A6043466E
:10474000012B27D10020B8E70B98504401381900FD
:104750000EF060FD8146C6E70B9850441B9BC01AC3
:1047600051460EF057FD8146BDE71A98584401386E
:1047700059460EF04FFD0300BAE71A9858441C9BA7
:10478000C01A59460EF046FD0300B1E70023B8E712
:104790000027C7E7002221002800FFF7BBFC804666
:1047A000012221002800FFF7B5FC070002222100AA
:1047B0002800FFF7EBFC8146002221002800FFF7CC
:1047C000C7FC7B691B6910361E9A926A0B9208938C
:1047D00007921E9B5B6A0B9306931E9B30330593D7
:1047E0001E9B2C3304931E9B203303931E9C1C346E
:1047F0000294019600904B463A0041462800FFF78C
:104800008BFD5AE71C960210AC950210648A0210C8
:10481000409C02104096021040940210F0B5DE4613
:1048200057464E464546E0B5BBB004000D008F68C4
:10483000002F56D0CB689A46002B54D00022FFF7A9
:1048400069FC0600012229002000FFF763FC804676
:10485000002229002000FFF77BFC0A90337F9B4653
:104860007369DA6806929B68079343465B69DA6866
:1048700008929A6809925A46092A36D01B699B0009
:10488000994619002000A36B98477862494620009A
:10489000A36B9847B86204975B460393099B029306
:1048A000089B0193079B0093069B5246290020001A
:1048B000FFF7D4FE814600280BD1F3683B614346E5
:1048C000DB687B610A9BDB680B93BB61337F092B41
:1048D00065D048463BB0F0BCBB46B246A946A046B0
:1048E000F0BD1CF0D3FD1CF0D1FD4246127891467C
:1048F000012A0FD06569012303930292C34B0193F0
:10490000C34B00938023C34AC3492000A847012317
:104910009946DEE742465268002A14D01168002901
:104920001AD05068002820D00A68012A26D01969B8
:104930008A4223D06569B94B00938A23B54AB849A6
:104940002000A847C5E76569B64B00938723B14AA5
:10495000B3492000A847BCE76569B34B009388239F
:10496000AC4AAF492000A847B3E76569AF4B009355
:104970008923A84AAA492000A847AAE701688A42D1
:1049800000D17BE7656903910292A94B0193A94B82
:1049900000938E239F4AA0492000A84799E7002E44
:1049A00000D1D3E0716904C9002319931992052A33
:1049B00000DDCEE0199B052B00DCCCE01A989200BC
:1049C00010F0C6FD0A9B002B00D1C6E00A9B596976
:1049D00004C900231F931F92052A00DDBFE01F9B1F
:1049E000052B00DCBDE02098920010F0B1FD43469D
:1049F000002B00D1B7E0596904C900232593259203
:104A0000052A00DDB1E0259B052B00DCAFE02698F0
:104A1000920010F09DFD199B042B00D0A9E0259B6E
:104A2000042B00D0A7E01F9B042B00D0A5E0199B0E
:104A3000002B00DCA3E0052B00DCA2E01A9B1B6826
:104A40001F9A002A00DC9EE0052A00DC9DE0209AE7
:104A500012689A4200D09AE039931F9A002A00DC2B
:104A600097E0052A00DC96E0209A1268389293427B
:104A700000DD92E039AB1B681F9A032A00DC8EE050
:104A8000052A00DC8DE0209AD2682599032900DCF4
:104A900089E0052900DC88E02699C968914200D0A8
:104AA00085E037922599032900DC82E0052900DCA6
:104AB00081E02699C96836918A427EDC37AA12685D
:104AC000012B7CD10D9307990E9106990F9119999D
:104AD000032976DD052976DD1A99C968109101212F
:104AE00011910999129108991391149215931F9B92
:104AF000012B6ADD052B6ADD209B5B6816931F9BEB
:104B0000022B66DD052B66DD209B9B6817931892B0
:104B10007B6831933B68309315AB11AA0DA92BA884
:104B200009F0F7FE011E5EDD236C3A0034322000EE
:104B3000984700285AD0259B052B4EDC1F9B052B40
:104B40004DDC199B052B4CDC8146C2E600231993F2
:104B500038E71CF09BFC1AA831E71F9347E71CF0CD
:104B600095FC20A840E7259355E71CF08FFC26A86C
:104B70004EE71CF08BFC1CF089FC1CF087FC1CF041
:104B800085FC1A9B5CE71CF081FC209A61E71CF015
:104B90007DFC1CF07BFC209A68E738AB6BE71CF0CF
:104BA00075FC239A71E71CF071FC299976E71CF0DB
:104BB0006DFC1CF06BFC29997DE736AA7FE71CF0A1
:104BC00065FC1CF063FC1D9988E71CF05FFC219BD1
:104BD00094E71CF05BFC229B98E71CF057FC1CF050
:104BE00055FC1CF053FC01235B427B63259B052B8A
:104BF00008DC1F9B052B07DC199B052B00DC68E6F6
:104C00001CF044FC1CF042FC1CF040FC5C940210C4
:104C100094940210AC950210409402107496021005
:104C2000648A0210B0940210C494021054960210C8
:104C3000F896021048950210F0B5DE4657464E46EB
:104C40004546E0B5A3B088460A929A462D9B0A21B4
:104C5000425E11920C21425E12920E21425E9346F8
:104C60001021425E00920221425E13920421425EB4
:104C700014921221425E10920F92026B1592426BB7
:104C80000E9242461268042A00D0B9E052461268D9
:104C9000042A00D0B6E02F9A12680192042A00D0AC
:104CA000B2E042461268002A00DCAFE0052A00DCD0
:104CB000AEE04246526812682F990968002900DC6C
:104CC000A9E0052900DCA8E02F994968096891420C
:104CD00000D0A5E021922F990968002900DCA1E00D
:104CE000052900DCA0E02F994968096820918A42D3
:104CF00000DD9CE021AA1268199252461268032A2C
:104D000000DC96E0052A00DC95E052465268D26845
:104D10002F990968032900DC90E0052900DC8FE069
:104D20002F994968C968914200D08CE01F922F9951
:104D30000968032900DC88E0052900DC87E02F9959
:104D40004968C9681E918A4200DD83E01FAA156880
:104D500042461268012A7FDD052A7FDD42465268FD
:104D60005268029242461268022A7BDD052A7BDDE8
:104D7000424652689268019242461268032A77DDE1
:104D8000052A77DD42465268D2681692524612686A
:104D9000012A73DD052A73DD524652685268069275
:104DA00052461268022A6FDD052A6FDD52465268AC
:104DB000926891462F9A1268012A6BDD052A6BDDF5
:104DC0002F9A5268526818922F9A1268022A67DD49
:104DD000052A67DD2F9A526892681792169A1099E1
:104DE0004A43AA4262D11868052861DD5B68002247
:104DF000012190425EDD9400E45861430132F8E7FE
:104E00001CF044FB1CF042FB1CF040FB1CF03EFB82
:104E10004246526850E71CF039FB2F99496856E723
:104E20001CF034FB1CF032FB2F9949685EE720AA86
:104E300061E71CF02BFB5246126969E71CF026FB68
:104E40002F9909696FE71CF021FB1CF01FFB2F99BC
:104E5000096977E71EAA7AE71CF018FB42469268B8
:104E600002927FE71CF012FB4246D268019283E770
:104E70001CF00CFB42461269169287E71CF006FBF9
:104E80005246926806928BE71CF000FB5246D268AD
:104E900091468FE71CF0FAFA2F9A9268189293E7DE
:104EA0001CF0F4FA2F9AD268179297E71CF0EEFAEA
:104EB00004339CE78D4206D1002304935346CA462F
:104EC000D9469B462CE11CF0E1FA1CF0DFFA1CF0FD
:104ED000DDFA1CF0DBFA1CF0D9FA1CF0D7FA1CF052
:104EE000D5FA1CF0D3FA1CF0D1FA1CF0CFFA1CF062
:104EF000CDFA0134BC426BDA009A72434244534605
:104F000063435B19F5D401998B42F2DA002AF0DB96
:104F100002998A42EDDA494609680429D5D10499F3
:104F20000029D4DB484640688142D0DA002AD0DB31
:104F3000494689688C468A42CBDA002BCBDB49464E
:104F4000C96808918B42C6DA07980028C5DB494634
:104F5000096909918842C0DA604604994843844649
:104F6000624408994A439B18099A5343079A944606
:104F700063449B000A9A98585B461B68042BAED189
:104F80005B465B68002BACDD002EACDB5B469B68B0
:104F90009E42A8DA002CA8DB5B46DB689C42A4DAC0
:104FA00003990029A3DB5A46126991429FDA7343A1
:104FB000E3185343039A944663449B002C9A9958F0
:104FC0000FF021FF011C05980FF002FF059090E7FC
:104FD0000136069B9E4201DA00248BE72E9B002BB4
:104FE00067D0039B9B002E9AD15805980FF0F0FED6
:104FF0002F9B1B680593042B5DD1049B002B5CDB6E
:105000002F9A52680592934257DA0B9B002B56DB7E
:105010002F9A9468A34252DA0C9B002B51DB2F9AF3
:10502000D1688B424DDA039B002B4CDB2F9A12691F
:10503000934248DA049B5C430B9B9C4664444C437C
:105040000C9B9C4664445443039B9C466444A400CC
:10505000309B9C4664441B9015991C910E9B1D939C
:105060000FF00AFF002830D11BAD29680E980FF011
:1050700003FF00282BD12B6823600D9B01330D9378
:105080000D9A0F9B9A4224DA109B07994B43944642
:1050900063440393119D0C9B5D43139BED1A129B7C
:1050A0000B9A5343149A9B1A9846002600230593A3
:1050B0008FE7002199E71CF0E9F91CF0E7F91CF0F3
:1050C000E5F91CF0E3F91CF0E1F91CADCDE71DADED
:1050D000D1E7079B01330793079B169A934202DAA5
:1050E00000230D93CCE70C9B01330C930C9B179A78
:1050F000934202DA00230793EEE7C846D146BA4648
:105100000B9B01330B930B9B189A934205DA0023F8
:105110000C935746CA46C146E8E7049B0133049303
:10512000049B199A934202DA00230B93EBE723B016
:10513000F0BCBB46B246A946A046F0BD30B5044B14
:10514000020032CB32C232CB32C212CB12C230BDDD
:105150001C980210F0B5CE46474680B5B1B0150098
:105160001E00107C16AA17A9FFF74AFA06AC012305
:105170002370336863807368A3806B686381AB6856
:10518000A3816B69E381AB692382EB686382179B20
:105190001293169B1393389918A804F0BEFF389801
:1051A000FFF7E4F9804639991EA804F0B6FF399854
:1051B000FFF7DCF9814624AD3A99280004F0ADFFF1
:1051C0003A98FFF7D3F907002AAE3B99300004F074
:1051D000A4FF3B98FFF7D1F904900396029701953D
:1051E0004B4600931EAB424618A92000FFF724FD52
:1051F0002A9B052B0DDC249B052B0CDC1E9B052B11
:105200000BDC189B052B0ADC31B0C0BCB946B0469C
:10521000F0BD1CF03BF91CF039F91CF037F91CF01B
:1052200035F90000F0B5DE4657464E464546E0B536
:10523000A9B019911A929B46339B9A46359B0A2135
:10524000425E14920C21425E15920E22875E10225D
:10525000855E0221425E16920421425E179212215F
:10526000425E1392129242690A92C2691892816A4E
:105270002391C26A229258460068042800D0BEE0FA
:1052800050460068042800D0BBE0379800680190C1
:10529000042800D0B7E0914200DDB6E05A4612681B
:1052A000002A00DCB3E0052A00DCB2E05A4652686E
:1052B000126837990968002900DCADE0052900DC97
:1052C000ACE0379949680968914200D0A9E027927B
:1052D00037990968002900DCA5E0052900DCA4E075
:1052E00037994968096826918A4200DDA0E027AA1B
:1052F00012681F9252461268032A00DC9AE0052ABF
:1053000000DC99E052465268D2683799096803294F
:1053100000DC94E0052900DC93E037994968C9680E
:10532000914200D090E0259237990968032900DC6A
:105330008CE0052900DC8BE037994968C968249125
:105340008A4200DD87E025AA126894465A46126810
:10535000012A00DC81E0052A00DC80E05A46526820
:10536000526805925A461268022A7CDD052A7CDDC5
:105370005A465268926890465A461268032A78DD67
:10538000052A78DD5A465268D2681B925246126846
:10539000012A74DD052A74DD52465268526807926C
:1053A00052461268022A70DD052A70DD52465268A4
:1053B0009668379A1268012A6CDD052A6CDD379AE7
:1053C000526852681D92379A1268022A68DD052ACF
:1053D00068DD379A526892681C921B9A13994A4367
:1053E000624563D11868052862DD5B6800220121EF
:1053F00090425FDD9400E45861430132F8E71CF00D
:1054000045F81CF043F81CF041F81CF03FF81CF084
:105410003DF85A4652684CE71CF038F8379949680D
:1054200052E71CF033F81CF031F8379949685AE715
:1054300026AA5DE71CF02AF85246126965E71CF0BF
:1054400025F8379909696BE71CF020F81CF01EF865
:105450003799096973E724AA76E71CF017F85A46CA
:10546000926805927EE71CF011F85A46D268904681
:1054700082E71CF00BF85A4612691B9286E71CF073
:1054800005F85246926807928AE71BF0FFFF5246E2
:10549000D6688EE71BF0FAFF379A92681D9292E762
:1054A0001BF0F4FF379AD2681C9296E71BF0EEFFD0
:1054B00004339BE78C4513D1002306932C003D0059
:1054C000C146D846D346B246069B1F9A934200DB9C
:1054D000F3E100230B935B463393C3469846D8E130
:1054E0001BF0D4FF1BF0D2FF1BF0D0FF1BF0CEFF50
:1054F0001BF0CCFF1BF0CAFF1BF0C8FF1BF0C6FF60
:105500001BF0C4FF1BF0C2FF1BF0C0FF0132AA4218
:105510006CDA390061434144019B534302981B18E4
:10552000F4D45345F2DA0029F0DB05988142EDDA34
:10553000584600680428D5D106980028D4DB5E467A
:105540007668B042D0DA0029D0DB584680688146C0
:105550008142CBDA002BCBDB5846C06808908342EF
:10556000C6DA03980028C5DB584600690600099092
:105570000398B042BEDA4846069E704381464944CD
:10558000089841435B1809994B43039989464B445A
:105590003299C95663461B68042BADD163465B68DC
:1055A000002BABDD002CABDB63469B689C42A7DA8B
:1055B000002AA7DB6346DB689A42A3DA0498002836
:1055C000A2DB66463669B0429EDA6343D318734362
:1055D000049881464B443498C3560A9881464944FE
:1055E0005943219B9946494421918FE7019E029896
:1055F0000134079B9C4203DA00220196029086E761
:105600002C0035003E005B46D34667469A46369BE3
:10561000002B07D0049B9B00369A9B58219A9446F6
:10562000634421932198049B9B00199AD2581A999C
:10563000CB58191E00DAD4E0002B00DCD3E00023A5
:1056400098468840824200D1D0E000230193C117E0
:10565000D3170FF09BFB02000B1E00DAD0E0802175
:10566000C9050E91C9170F910E980F9912184B4149
:10567000D9174900490810910021119110981199EA
:1056800012184B4111005B00CA0F13439946019B4E
:10569000002B00D0B6E04346002B00DAB5E01F2B0C
:1056A00000DDB9E0012098400138FEF780FF01904D
:1056B0000020FEF77CFF08900120FEF778FF0290A3
:1056C00001994846FEF774FF099001210198FEF701
:1056D00071FF019008994846FEF779FF0299FEF79D
:1056E00067FF01000198FEF767FF019041464846B9
:1056F000FEF760FF804601990998FEF771FF029955
:10570000FEF756FF01004046FEF756FF2190189B1A
:105710009C4660442190239B984200DA83E021ABB1
:105720001B682193229A93427FDC21AB1968219157
:10573000379B1B680193042B79D1069B002B78DBE8
:10574000379A52680192934273DA0B9A002A72DBFD
:10575000379B9B689A426EDA0C9A002A6DDB379869
:10576000C0688446824268DA049A002A67DB379868
:105770000069824263DA069A53430B9A9046434487
:10578000624653430C9A944663444343049A9446B6
:105790006344389AD1540D9B01330D930D9A129B9B
:1057A0009A424EDA139B03994B4394466344049305
:1057B00014980C9B5843169BC01A159B0B9A534385
:1057C000179A9B1A9846002321939C465346DA4623
:1057D000339737002E0025006446339A94469B4643
:1057E00007E7002128E75B4298462AE780231B064B
:1057F000984202D00023019329E70123019326E771
:1058000031492EE7314B994645E7B321304B314AB8
:10581000490031480CF04EFB6821304B2D4AFF31D6
:105820002D480CF047FB23AB7AE722AB7EE71BF059
:105830002DFE1BF02BFE1BF029FE1BF027FE1BF09C
:1058400025FED346B246B846039B01330393039B20
:105850001B9A934207DA00230D935646DA461E9BA5
:105860009B4647469AE7A1462C000C9B01330C93BC
:105870000C9B1C9A934204DA0023039325004C46A8
:10588000E5E725005446CA461E9B99460B9B01330B
:105890000B930B9B1D9A934207DA00230C934B4604
:1058A0001E93D146A2462C00E2E743463393D846E6
:1058B0009B46069B0133069306E629B0F0BCBB4627
:1058C000B246A946A046F0BD010000C0FFFFFF7F21
:1058D00020970210309702108C970210F097021058
:1058E000F0B5DE4657464E464546E0B5E9B0040001
:1058F0001D009369499356694896012B01D1012EE9
:1059000068D031AC012323702B6863806B68A3805F
:10591000536863819368A381E68193692382D36886
:1059200063822B695B4263610023A361AB69E3611E
:1059300080235B42A362FF33E3626B6A9A46AB6AE1
:105940009B4672994CA804F0E8FB7298FEF719FE8A
:10595000099052AF7399380004F0DFFB7398FEF79B
:1059600010FE804658AD7499280004F0D6FB749858
:10597000FEF73FFE81465EAE7599300004F0CDFB28
:105980007598FEF705FE069005964B460493039521
:10599000434602930197099B00934CAB5A465146EC
:1059A0002000FFF73FFC5E9B052B00DD63E1589B69
:1059B000052B00DD61E1529B052B00DD5FE14C9B77
:1059C000052B00DD5DE169B0F0BCBB46B246A946DF
:1059D000A046F0BD2B695B424193AB69429393684B
:1059E0004593536844936B6847932B684693802391
:1059F0005B424A93FF334B93D368099343936B6A9B
:105A00000B93AB6A0C9373991FA804F086FB7299F1
:105A100025A804F082FB75992BA804F07EFB7499ED
:105A200031A804F07AFB4A9A4B9B9A4244DC259BAE
:105A3000002B43DD052B43DD269B1B682B9A002A98
:105A400040DD052A40DD2C9A12689A423ED16793C8
:105A50002B9A002A3CDD052A3CDD2C9A12686692BE
:105A6000934239DC67AB1B6898461F9B032B35DDDF
:105A7000052B35DD209BDB682B9A032A32DD052AB6
:105A800032DD2C9AD2689A4230D165932B9A032A40
:105A90002EDD052A2EDD2C9AD268649293422BDCEF
:105AA00065AB1F687498FEF76CFD002832D0319901
:105AB000052923DD329822E01BF0E8FC1BF0E6FC10
:105AC000269BBBE71BF0E2FC2C9ABEE71BF0DEFC3A
:105AD0001BF0DCFC2C9AC2E766ABC4E71BF0D6FCDB
