:020000041000EA
:1000000000B5324B212058609868022188439860DF
:10001000D860186158612E4B002199600221596106
:100020000121F02299502B49196001219960352056
:1000300000F044F80222904214D00621196600F024
:1000400034F8196E01211966002018661A6600F04E
:100050002CF8196E196E196E052000F02FF8012189
:100060000842F9D1002199601B49196000215960AB
:100070001A491B48016001219960EB211966A021F2
:10008000196600F012F800219960164914480160C1
:100090000121996001BC002800D000471248134993
:1000A000086003C880F30888084703B5996A0420EC
:1000B0000142FBD001200142F8D103BD02B5186610
:1000C0001866FFF7F2FF186E186E02BD00000240BE
:1000D000000000180000070000035F00212200005C
:1000E000F4000018222000A00001001008ED00E03C
:1000F00000000000000000000000000074B24E7A12
:1001000000200420F7010010C3010010C5010010F9
:10011000C1010010C1010010C1010010C101001097
:10012000C1010010C1010010C1010010C701001081
:10013000C1010010C1010010C9010010CB01001065
:10014000CD010010CD010010CD010010CD01001037
:10015000CD010010CD010010CD010010CD01001027
:10016000CD010010CD010010CD010010CD01001017
:10017000CD010010CD010010CD010010CD01001007
:10018000CD010010CD010010CD010010CD010010F7
:10019000CD010010CD010010CD010010CD010010E7
:1001A000CD010010CD010010CD010010CD010010D7
:1001B000CD010010CD010010CD010010CD010010C7
:1001C00000BE00BE00BE00BE00BE00BEEFF3058054
:1001D000103800BEF2EB8871680F03108C0F03100B
:1001E0003402001090A31AE700201F49086006C8D7
:1001F00081F3088810471D48006800282FD10DA4FE
:100200000ECC002902D000F012F8F9E71849194A7B
:10021000002000E001C19142FCD1174988471749ED
:1002200088471749884700BEFDE701C901C29A42C5
:10023000FBD370478C0F0310C0000020E49F002008
:10024000B0AE03100000042000000420B0AE031084
:10025000001004200010042000000000704709482E
:1002600012F024FD0047000008ED00E0000000D07F
:10027000E89F0020146D0120F919011005030010FA
:10028000B71901105756000006005250ABB3605327
:10029000985D021006005250861C0302A85D0210F1
:1002A000060052505422A29DB85D02100500525023
:1002B000DE65F468B0AE0310F8B5C04610B5064C64
:1002C0002378002B07D1054B002B02D0044800E017
:1002D00000BF0123237010BDF0A00020000000002B
:1002E00098150210044B10B5002B03D003490448A5
:1002F00000E000BF10BDC04600000000F4A00020D8
:100300009815021010B500F0F3FF00F087FEFCE72F
:100310000023036043608360704710B503685B6926
:10032000984710BD10B503689B69984710BD000041
:10033000F0B5DE4657464E464546E0B583B08346A7
:100340002B4B1868642813DD64239A465346013307
:100350009A009B1AE122D20094466344C01811000F
:1003600012F0D0FC0E000024002501952F1C1FE088
:100370008246EBE7600000198019E121C90012F004
:10038000C1FC89001B4A8B1889585A6891469B68A2
:100390009846381C13F0A6FC071C4946019813F038
:1003A000A1FC01904146281C13F09CFC051C013463
:1003B000A245DFDC504613F001FD041C011C381C73
:1003C00013F095FC5B461860211C019813F08FFC1C
:1003D0005B465860211C281C13F089FC5B46986022
:1003E00003B0F0BCBB46B246A946A046F0BDC0462D
:1003F000445D0120DC080120F0B5DE4657464E463C
:100400004546E0B583B081460B689B464B68009338
:100410008B689A46030001339800181AE123DB0029
:100420009C466044284B1B68C018614612F06AFC69
:10043000019100253FE068004019019B9C46604403
:10044000E121C90012F05EFC8900204A8B1888580F
:100450005E689C68594613F040FC80460099301C49
:1004600013F03BFC071C5146201C13F036FC061C05
:10047000174C2168404613F035FC804620606168C7
:10048000381C13F02FFC071C6060A168301C13F0AF
:1004900029FC061CA0600F49404613F03EFC20607A
:1004A0000C49381C13F039FC60600A49301C13F009
:1004B00034FCA06001354D45BDDB03B0F0BCBB464C
:1004C000B246A946A046F0BD445D0120DC080120EB
:1004D000605D012048E17A3FF0B5DE4657464E4662
:1004E0004546E0B587B0814613680293536803938D
:1004F0009368049303008000181AE123DB009C46F4
:100500006044324B1B68C018614612F0FBFB05913A
:100510002F4B1968FE20800513F0E9FB8246002569
:100520004AE068004019059B9C466044E121C900EF
:1005300012F0E8FB0C008E00264AB318B0585A6837
:1005400090469F68029913F0C8FB83460399404682
:1005500013F0C3FB80460499381C13F0BEFB071C44
:100560005946504613F0D9FB00904146504613F0CF
:10057000D4FB0190391C504613F0CFFB8046164F38
:10058000F3199B46154BE018E121C90012F0BAFBA4
:100590008900CC19C859009913F0A4FBB8510199EE
:1005A000606813F09FFB5B465860A068414613F0FB
:1005B00099FB5B46986001354D45B2DB07B0F0BC56
:1005C000BB46B246A946A046F0BDC0461C4101202C
:1005D000405D01209CD00020BCEC002005070000FD
:1005E000F0B5DE4657464E464546E0B583B0344B3F
:1005F0001B681A1A312A60DD32308200801AE1222B
:10060000D200944660441818110012F07BFB8A4611
:100610000024002301933EE0600000195044E121D2
:10062000C90012F06FFB8B009846264FDD19264B50
:10063000C818E121C90012F065FB8900CE194346B4
:10064000D859C95913F049FB83467168686813F09B
:1006500044FB8046A868B16813F03FFB071C59466D
:10066000584613F05AFB81464146404613F055FB6D
:10067000011C484613F036FB8046391C381C13F029
:100680004CFB011C404613F02DFB011C019813F09C
:1006900029FB01900134312CBEDD01240B49019866
:1006A00013F082FB002800D10024E0B203B0F0BCBC
:1006B000BB46B246A946A046F0BD0020F6E7C046BC
:1006C0001C410120BCEC0020050700000000204177
:1006D000024B034A1A60034A1A607047749600205E
:1006E000504902109C170210034B044A1A60044A36
:1006F0001A60044A1A607047E05E0120F417021085
:10070000CC170210B017021010B5040020290CD02D
:1007100000228423E358934209D95301E318181D9A
:100720009B698B4204D00132F3E7002000E00020F7
:1007300010BD0000034B0360034B0360034B0360D9
:100740007047C046F4170210CC170210B017021001
:10075000034B0360034B0360034B03607047C046C9
:10076000F4170210CC170210B0170210F8B50500EC
:100770000E00002400E001348423EB58A3420ED97C
:100780006301EB181F1D9B69202BF4D16301EB184B
:10079000D86931001FF096FF0028ECD100E0002757
:1007A0003800F8BD10B582B011E06B46DC79294BFA
:1007B0001B78002B05D0284A1368591C1160274A62
:1007C000D454F42C18D00A2C1ED0254B1C70254B69
:1007D0009B6910210A001A40194238D16B46D91D75
:1007E000002AE2D11F4B9B69DB06FBD41D4B1B6823
:1007F0000B7001320131F3E7194B1B78F52BE2D175
:10080000144B01221A70E0E7154B1B780D2BDCD13D
:100810000023104A137010480268023A0F498B54A3
:10082000036011481FF04EFF002806D10F4B012234
:100830001A700A4813F0FAFDC7E708490C481FF080
:1008400041FF0028F5D1094B00221A70F1E702B0F0
:1008500010BDC046106D0120BC6A0120C06501209A
:100860000F6D01200040034098150210046D012017
:10087000AC15021010B502480CF0C9F910BDC04605
:10088000845F012010B59C23C458042C01D8002398
:1008900002E01EF0BBFE01339C4209D9C218883227
:1008A00012788A42F7D122339B00C018406800E0DA
:1008B000002010BD70B504002549264816F07AFACC
:1008C000032104200EF0C0FF032105200EF0BCFF21
:1008D0000022012104200EF0CFFF0022012105207B
:1008E0000EF0CAFFFA20800010F058F916F092FCC2
:1008F000412814D0184B00221A70184D280016F009
:1009000053FF2B78012B1DD1154B164A1360164A45
:1009100013601649200001F0E9F8002070BD0E4B6D
:1009200001221A7016F07BFC002805D0104B0D4AEE
:1009300013600D4A1360ECE70E49200001F0D6F871
:100940000120EBE70B49200001F0D0F80120E5E79A
:10095000801A060050970020026D0120036D0120CF
:100960000000FA42485D0120405D0120DC150210C4
:100970000000C842C0150210F0B5C64600B5070019
:100980000E00002303600B606A4B1B78012B00D024
:1009900081E016F088FC002867D0674B98461C68F9
:1009A000E121C900200012F0ADF90D0003344346E7
:1009B0001C608C00614B9846A044614BE4182200F7
:1009C0000832211D200016F007FB002842D0636882
:1009D0008022120694466344AD00584AAB50584BEF
:1009E000EB586344424653604346A2689A603368BA
:1009F00001333360534B98461C68E121C900200045
:100A000012F080F90D00033443461C608C004E4BFD
:100A10009846A0444D4BE41822000832211D2000C6
:100A200016F06AFB002819D06368802212069446EB
:100A30006344AD00444AAB50444BEB5863444246D8
:100A400053604346A2689A603B6801333B6016F0EE
:100A50002AFC9EE73E4813F019FD06E03D4813F0DE
:100A600015FD02E03A4813F011FD80BCB846F0BD18
:100A700063688022120694466344AD00324AAB504C
:100A8000324BEB586344424653604346A2689A6037
:100A90003B6801333B6016F03BFC0028E5D0264B59
:100AA00098461C68E121C900200012F02BF90D00C6
:100AB000033443461C608C00204B9846A044204BD6
:100AC000E41822000832211D200016F031FC002815
:100AD000C8D063688022120694466344AD00174A6A
:100AE000AB50174BEB586344424653604346A268F1
:100AF0009A60336801333360124B98461C68E121D9
:100B0000C900200012F0FEF80D00033443461C60BB
:100B10008C000D4B9846A0440C4BE4182200083280
:100B2000211D200016F09EFC0028A1D1094813F0D9
:100B3000ADFC9AE7026D01201C4101209CD00020F1
:100B4000FC240120445D0120DC080120204101201B
:100B5000EC1502100C16021070B5030000685E68F8
:100B60009D68011C13F0D9F8041C311C301C13F0D3
:100B7000D4F8011C201C13F0B5F8041C291C281CF7
:100B800013F0CBF8011C201C13F0ACF813F07CF927
:100B900070BD0000F0B5DE4657464E464546E0B50E
:100BA00083B083462F48FFF7D7FF2F4913F0FCF897
:100BB00000284FD12D4B1868142813DD14239A46B2
:100BC000534601339A009B1AE122D20094466344B3
:100BD000C018110012F096F80E00002400250195AF
:100BE0002F1C1FE08246EBE7600000198019E1210D
:100BF000C90012F087F889001D4A8B1889585A6875
:100C000091469B689846381C13F06CF8071C4946BF
:100C1000019813F067F801904146281C13F062F820
:100C2000051C0134A245DFDC504613F0C7F8041C54
:100C3000011C381C13F05BF85B461860211C0198FE
:100C400013F055F85B465860211C281C13F04FF830
:100C50005B46986003B0F0BCBB46B246A946A046CE
:100C6000F0BDC046605D0120CDCCCC3D1C410120D3
:100C70009CD00020F0B5DE4657464E464546E0B5CE
:100C80008BB00890099100230B70002526E0002806
:100C900005D0C14A32211160C04A31391160BF4AC2
:100CA0001168002919D0BC48026801320260A020F6
:100CB0004000824201DDB84A1060089A013AAA4217
:100CC0002ED00022022B31D0022931D000230999E5
:100CD0000B70002B2ED1002A2CD1079D089B9D4222
:100CE00000DB51E16A1C07929C1A2000FFF778FC98
:100CF000AA4B1B68002BCAD0022BC8D0012BCED127
:100D00000028CCD1A44A12683C2A03DDA34A022160
:100D10001160C4E70022A0490A60A0490A60BEE74A
:100D2000012901D00022CDE70122CBE70023CEE745
:100D30000123CCE7984B1B6898464444A000201A36
:100D4000E123DB009C466044954B1C68001961461A
:100D500011F0D8FF894600250026371CA84515DD6F
:100D6000680040194844E121C90011F0CBFF8C0014
:100D70008C4964186168381C12F0B4FF071CA16824
:100D8000301C12F0AFFF061C0135E7E7404613F0B8
:100D900015F8041C011C381C12F0A9FF0490211C3A
:100DA000301C12F0A4FF05907F4B5C689E68211CEC
:100DB000201C12F0B2FF051C311C301C12F0ADFFDC
:100DC000011C281C12F08EFF13F05EF8051C7749F9
:100DD00012F0DCFF002800D0744D291C201C12F0FA
:100DE00086FF041C291C301C12F081FF06900300B2
:100DF00080221206944663449A46A444E046664B19
:100E00001A68D30F9B185B10644A5360002446E0B5
:100E10007F2038708621C905301C12F07EFF13F048
:100E2000CBF812F0EDFF7F2807DC0300803310DBE6
:100E300040B203E080204042EBE77F207870002C36
:100E40000AD0291C029812F0AFFF002805D00295A5
:100E500003E080204042F1E70295002C07D0311CCE
:100E6000039812F0A1FF002802D0039600E0039639
:100E7000002C07D0291C009F381C12F087FF002887
:100E800000D13D1C002C07D0311C019F381C12F0F2
:100E90007DFF002800D13E1C0134019600953F4B98
:100EA0005B68A3424BDD6700381940004844E121EC
:100EB000C90011F027FF89003A4BC91848688D68AE
:100EC000049912F00AFF3A4912F011FF061C059925
:100ED000281C12F002FF364912F009FF8346011C5C
:100EE000504612F01AFF051C311C404612F015FF47
:100EF000011C281C12F0F6FE051C5946404612F053
:100F00000CFF8346311C069812F007FF011C58465F
:100F100012F0E8FE061C274BFF188621C905281C85
:100F200012F0FBFE13F048F812F06AFF7F2800DD94
:100F30006EE70300803300DA7CE740B269E7099E80
:100F40003378002B00D1C8E60299009812F0C5FE54
:100F5000051C0399019812F0C0FE041C0021281CF6
:100F600012F014FF002800D1B7E60021201C12F077
:100F70000DFF002800D1B0E600233370074A13604C
:100F80005360054A1360A8E60BB0F0BCBB46B246FE
:100F9000A946A046F0BDC046505D01206C5D012011
:100FA0001C410120BCEC0020545D012017B7D13852
:100FB0000000B442745D012010B5E121144C4902D7
:100FC000200010F075FA022100200EF03DFC0221F5
:100FD00001200EF039FC002301220821200010F02E
:100FE00035FA0021200010F047FA0A4914200EF0CB
:100FF00097FD012114200EF069FD5023A363636B5C
:1010000038221A40044980235B010B431A6010BD4B
:1010100000400340A507001034400340F0B593B0F2
:101020000027D0231B065B689B0121D4D0231B061D
:10103000802292045A6110A911A8FFF79DFC372362
:1010400002AA9446634400221A70109B002B15DC00
:10105000119B002B4ADC372302AA944663441B7879
:10106000002B03D0834B1B78002B48D013B0F0BD6E
:10107000D0231B06802292049A61DCE77E4C20007C
:10108000FFF788FD22007D491098FFF725FA3721E8
:1010900002AB9C4661441098FFF7ECFD754B1B7842
:1010A000002B1CD0764B1B78002B02D0744B0022F7
:1010B0001A70744A1388591C11801B07C8D100226A
:1010C0007149A4235B009A42C2D2704B9B699B0674
:1010D000FBD408786D4B186001320131F1E7684BA1
:1010E00001221A70674B00221A80B1E7634C20007E
:1010F000FFF71EF921001198FFF77EF9ABE7644A6C
:10110000614841680830634B0293202301930093A8
:10111000131C00F081FB9020C00112F0E7FF0600D5
:101120000025002431E080301FD00021232007ABB0
:101130009854080A631C9BB230550234A4B2F1548F
:1011400001321F2A1ADC6B005B195B015100891800
:101150005B1850481918C35601200856897849B2BF
:101160008033E0D000212320E1E7803102D000214C
:101170002320DCE7FC21C9002E20D8E707A8202384
:101180000022C25413F052F901351F2D01DC002258
:10119000D7E7414B186800210BF0FAFD0023C0226D
:1011A0001201934205DA3B4AD2560169CA5401330F
:1011B000F5E7394B18680CF01DF9002806D1364BBD
:1011C000186800210BF0A2FE002308E0334B1868DA
:1011D000334900F08BFC49E7059301331700092BD5
:1011E00009DC0269D256002BF6D0974201DB3A00A7
:1011F000F3E70593F1E7803764235F433F12059BD4
:101200009B00284A9C58254B18683B002200264921
:1012100000F06CFC3B002200244907A811F014FDEB
:10122000FC25ED000095462350225A21002016F09F
:101230002BFC00240094222322225A21172016F08E
:1012400023FC0096202320225B21182016F075FC39
:10125000174B029501945A6800921B6807AA8221D5
:101260000F2016F0CFFB002E00D1FFE6300012F069
:1012700045FFFBE6046D0120B45E0120545D0120B2
:1012800070960020FE6C01206C5D01200040034040
:101290009A99193F88C4002024A1002098D00020EA
:1012A00030160210381802104016021050160210A4
:1012B00058970020704710B50068FFF7FBFF10BD7E
:1012C000704710B50068FFF7FBFF10BD704710B501
:1012D0000088FFF7FBFF10BD10B504000068FFF7A2
:1012E000E9FF201810BD10B5FFF7F6FF10BD000094
:1012F000F0B58DB019200EF0D9FAD0231B0680224C
:1013000092045A625B689B013CD4D0231B065A614D
:1013100016F05EFBCC4B0093A0235022002100204E
:1013200016F00BFCFFF748FE13F0F2F9C74B1B78E1
:10133000BFF35B8FDB072BD5C548C64B1860FFF7A3
:10134000B9FAC548FFF7CFFF0400C44B1860FFF798
:10135000B8FF251A2800FFF7BAFF042824D9281D52
:10136000FFF7B5FF002821D02018FFF7A4FF0200E7
:10137000032A1DD0B74B18680323B94900F0B6FB08
:101380000DB0F0BDD0231B06802292049A61BFE706
:10139000AE4816F049FC0028CED0B2481EF03EF907
:1013A000AA4816F05DFCC7E70020DBE70022DFE774
:1013B000AD4B1B78BFF35B8FDB0713D504A802F09E
:1013C00049F8AA4803685B6903219847002823D09D
:1013D000A64AA023D058002841D00322A44900F0F7
:1013E00085FB3CE0A04816F01FFC0028E6D09F4B90
:1013F000A04A1A60A04A1A60A04A1A6000228421FA
:101400005A5018315A5004315A509D481EF006F96E
:10141000954816F025FCD1E7944A8423D158032936
:1014200031D892484C010419251D04AB2A00E0CBA9
:10143000E0C2E0CBE0C260CB60C20325A561013110
:101440008423C1509C214358C218883215701A0059
:101450002232920082188B4C54600133435004A80E
:1014600007F05CF8814803685B69282198470028E9
:1014700013D07E4AA023D058002831D028227C499E
:1014800000F034FB2CE01C33D0580028E7D09C3B04
:1014900003227D4900F02AFBE1E7744A8423D158F6
:1014A000032931D871484C010419251D04AB2A00C9
:1014B000E0CBE0C2E0CBE0C260CB60C22825A561F2
:1014C00001318423C1509C214358C21888321570C1
:1014D0001A002232920082186C4C5460013343503F
:1014E00004A803F0CDFA614803685B6909219847B5
:1014F000002813D05D4AA023D058002831D00922FB
:101500005B4900F0F3FA2CE01C33D0580028E7D0F8
:101510009C3B28225C4900F0E9FAE1E7534A842326
:10152000D158032931D851484C010419251D04AB69
:101530002A00E0CBE0C2E0CBE0C260CB60C209256C
:10154000A56101318423C1509C214358C2188832BF
:1015500015701A002232920082184D4C54600133EB
:10156000435004A804F030FF404803685B69192128
:101570009847002813D03D4AA023D058002831D0E6
:1015800019223B4900F0B2FA2CE01C33D058002855
:10159000E7D09C3B09223C4900F0A8FAE1E7334A36
:1015A0008423D158032945D830484C010419251DFE
:1015B00004AB2A00E0CBE0C2E0CBE0C260CB60C26B
:1015C0001925A56101318423C1509C214358C218BB
:1015D000883215701A002232920082182D4C546005
:1015E000013343502C4B1B78BFF35B8FDB075BD57C
:1015F0002A4C2B4820600BF017FE206800210BF0CE
:10160000C7FB43691A68042A0ED15A68012A0BD114
:101610009A68202A08D1DA68202A05D11B69032B91
:1016200002D1037F092B59D00A4B18681D4900F0DD
:101630005DFAA5E61C33D0580028D3D09C3B192274
:10164000114900F053FACDE7F88B021014A10020E5
:101650007496002098D00020581C00204C5D01207A
:1016600058160210D10600100CA10020E05E0120E7
:10167000A0160210B0170210CC170210F4170210B7
:10168000E9060010011F0010F0160210091C0010DE
:101690002D1D00101D21001010A1002024A10020EC
:1016A000845F012034170210324816F0BDFA00287A
:1016B0009ED0314B196800230293304B1B68019375
:1016C0002F4B00932F4B304A30480BF033FB304800
:1016D0001DF0A4FF274816F0C3FA89E72D4B1868C0
:1016E00000210BF013FC43691A68022A08D15A68DA
:1016F000012A05D19B680A2B02D1037F092B05D053
:101700001E4B1868244900F0F1F939E6FC25ED007C
:10171000280016F007FA214B0093282350220021BD
:10172000080016F00AFA1E4C02950026019663681E
:10173000009323681B4A2D21052016F063F90295BA
:101740000196636800932368174A46211E2016F00D
:1017500059F9D0231B065B689B0105D4D0231B06D7
:10176000802292045A610BE6D0231B068022920449
:101770009A6105E610A100204C5D012098D0002060
:101780006023000028A10020E05E0120845F01208A
:101790007508001024A100205C170210F8720210D6
:1017A00058970020841702108C1702104143CB1762
:1017B000FF20184040180012704710B5002900D1D2
:1017C0000131000211F09EFA10BD10B58721C90544
:1017D00012F0A3FA12F014FB10BD10B51400FFF7BD
:1017E000ECFF2100FFF7E2FF001910BD030080337A
:1017F000DA17FF201040C01800127047884203DB40
:10180000904202DD100000E008007047002800DD73
:1018100070474042FCE70000F0B5DE4657464E46B2
:101820004546E0B58DB00B900691101C1C1C169B14
:10183000179A53435D00ED1800231899AB4203DA61
:101840008022CA540133F9E7169B1A02179B1B0228
:10185000521004925B100793FFF7B7FF0890201C0B
:10186000FFF7B3FF099006998020400011F04AFA73
:101870000A90002600E0059E069B013BB34200DC77
:10188000E3E073000B99CA18C85640000127D757E8
:101890007F00731C05935B00CA18CC5664000125B9
:1018A00055576D00049A089B9B461900FFF795FF5A
:1018B00080467842079B9A461A00099F3900FFF735
:1018C0008CFF8146049A59462000FFF786FF0400EA
:1018D000684252463900FFF780FF4346E41A4B4600
:1018E000C51A0A9870437F2849DC8021FFF765FFFD
:1018F000060080204000801B0302181AFFF776FFC5
:1019000080235B429B4683443002801BFFF76EFFBF
:101910008038070080235B429A46802676427F22E9
:1019200031005846FFF76AFF43B201937F2231002E
:101930003800FFF763FF43B202937F223100504625
:10194000FFF75CFF43B203932000FFF75FFF060041
:101950002800FFF75BFF864232DD2000FFF746FFDD
:10196000FFF754FF0700002C21DD21002800FFF7BE
:1019700024FF834680235B009A4600243BE08038A6
:101980008021FFF71AFF060080204000801B030221
:10199000181AFFF72BFF803807003002801BFFF773
:1019A00025FF80235B429A4682449B46B5E721008F
:1019B0002800FFF702FF43429B46274B9A46DCE78D
:1019C0002800FFF713FFFFF721FF0700002D08DDB8
:1019D00029002000FFF7F1FE824680235B009B4632
:1019E000CBE729002000FFF7E8FE43429A461A4B56
:1019F0009B46C2E70134A74200DA3CE75046604309
:101A000040445E4666434E44FFF7F0FE050030005A
:101A1000FFF7ECFE002DEDDB169BAB42EADD002864
:101A2000E8DB179B8342E5DD169B584345196800A8
:101A30004519189B019A5A556B1C189A0299D15452
:101A400002351300039A5A55D4E70DB0F0BCBB46DB
:101A5000B246A946A046F0BD00FFFFFF013080005E
:101A6000704700000D281DD88000104B1B589F4662
:101A70000F4870470F48FCE70F48FAE70F48F8E7B0
:101A80000F48F6E70F48F4E70F48F2E70F48F0E792
:101A90000F48EEE70F48ECE70F48EAE70F48E8E7A2
:101AA0000F48E6E70F48E4E70F48E2E7E8180210BE
:101AB000E01802107818021080180210881802101E
:101AC0009018021098180210A0180210A8180210FE
:101AD000B0180210BC180210C8180210D01802105A
:101AE000D818021060180210701802100EB400B559
:101AF00082B003AA02CA019203689B68984702B0A9
:101B000008BC03B018470CB400B583B004AA02CADD
:101B1000019203689B68984703B008BC02B018475D
:101B2000052803D88300024AD3589F4600207047F7
:101B300020190210002803D0012803D1013070477A
:101B40000120FCE70020FAE710B5002806D00029A4
:101B500006D0002A06D0002B06D010BD1DF056FD81
:101B60001DF054FD1DF052FD1DF050FD10B5130089
:101B70000C2836D883001F4AD3589F460A230B707F
:101B8000002010BD01230B70FBE70B230B7000201E
:101B9000F7E707230B700020F3E702230B70002008
:101BA000EFE703230B700020EBE709230B70002005
:101BB000E7E704230B700020E3E70D230B70002000
:101BC000DFE705230B700020DBE706230B70002006
:101BD000D7E708230B700020D3E70C230B700020FD
:101BE000CFE700220A70020003491800FFF77EFFCA
:101BF0000120C6E75C19021038190210704710B5B1
:101C00000078FFF7FBFF10BDF0B5C64600B584B005
:101C10000400884615001E00FFF796FF2B681B681E
:101C200001220121280098470023037002950390A8
:101C3000071E0DD02000FFF744FB251A2800FFF7F0
:101C400046FB0A2810D928000A30FFF740FB0CE0B9
:101C50002E4B01932E4B00932E4B2F4A414640466C
:101C6000FFF751FF01243FE00020002803D0201897
:101C7000FFF7C5FF00E000201B2818D12000FFF768
:101C800020FB251A2800FFF722FB0C2804D9280086
:101C90000C30FFF71CFB00E000202418002804D0C3
:101CA0002000FFF708FB241802E0002400E00024D5
:101CB000002C14D025002000FFF703FB241A20007D
:101CC000FFF705FB04281DD9201DFFF700FB0028A6
:101CD0001AD02818FFF793FF431E98413870039BD2
:101CE00033600023039300240399002903D0029852
:101CF00003685B68984700230393200004B080BC0E
:101D0000B846F0BD0020E2E70020E5E7141A021013
:101D10008E05000090190210FC190210704710B5D2
:101D2000007840B2FFF7FAFF10BD0000F0B5C646DC
:101D300000B584B00400884615001E00FFF704FFBC
:101D40002B681B6801220421280098470700042201
:101D5000002112F0BFF9029503973D1E28D0200004
:101D6000FFF7AFFA271A3800FFF7B1FA0A282BD984
:101D700038000A30FFF7ABFA002827D02018FFF709
:101D80003EFF082828D12000FFF79BFA271A3800C9
:101D9000FFF79DFA0C281BD938000C30FFF797FA93
:101DA0002418002816D02000FFF785FA241814E024
:101DB0004E4B01934E4B00934E4B4F4A414640468B
:101DC000FFF7A1FE01247FE00020D5E70020D8E73F
:101DD0000020E5E7002400E00024002C6FD027005D
:101DE0002000FFF76EFA241A2000FFF770FA04288B
:101DF00052D9201DFFF76BFA00284FD03818FFF793
:101E00008EFFC0B2FFF78CFE2870039D3800FFF7ED
:101E100058FA3C1A2000FFF75AFA082840D9200047
:101E20000830FFF754FA00283CD03818FFF7E7FED7
:101E3000431E9841A870039D3800FFF742FA3C1AF0
:101E40002000FFF744FA0A282ED920000A30FFF7B5
:101E50003EFA00282AD03818FFF7D1FE431E9841D9
:101E6000E8703800FFF72DFA3C1A2000FFF72FFA30
:101E700006281DD9A01DFFF72AFA00281AD0381805
:101E8000FFF74DFF002817D001282BD01B494046F3
:101E9000FFF72CFE012417E00020ADE70020B0E79B
:101EA0000020C0E70020C3E70020D2E70020D5E7EC
:101EB0000020E2E70020E5E70023039A5370039B2C
:101EC00033600023039300240399002903D0029870
:101ED00003685B68984700230393200004B080BC2C
:101EE000B846F0BD0123039A5370E8E7141A0210B4
:101EF0006704000090190210FC190210281A021041
:101F0000F0B5C64600B584B00400884615001E0032
:101F1000FFF71AFE2B681B68042218212800984737
:101F200007001822002112F0D5F802950397002F20
:101F30000DD02000FFF7C5F9251A2800FFF7C7F9D3
:101F40000A2810D928000A30FFF7C1F90CE06C4BC1
:101F500001936C4B00936C4B6C4A41464046FFF733
:101F6000D2FD0124A6E00020002803D02018FFF7AE
:101F700046FE00E00020012818D12000FFF7A1F95B
:101F8000251A2800FFF7A3F90C2804D928000C30E3
:101F9000FFF79DF900E000202418002804D020005D
:101FA000FFF789F9241802E0002400E00024002C47
:101FB0007BD025002000FFF784F9241A2000FFF7CA
:101FC00086F9042800D883E0201DFFF780F9002857
:101FD00000D17FE02818FFF7A2FEC0B2FFF7AAFDEC
:101FE0003870039F2800FFF76CF92C1A2000FFF7C8
:101FF0006EF9062800D86FE0A01DFFF768F90028E9
:102000006CD02818FFF75DF97860039F2800FFF770
:1020100058F92C1A2000FFF75AF9082860D9200037
:102020000830FFF754F900285CD02818FFF749F969
:10203000B8602800FFF745F92C1A2000FFF747F990
:102040000A2851D920000A30FFF741F900284DD065
:102050002818FFF764FEC0B2FFF762FD387328004E
:10206000FFF72FF92C1A2000FFF731F90C283FD980
:1020700020000C30FFF72BF900283BD02818FFF781
:1020800020F938612800FFF71CF92C1A2000FFF70F
:102090001EF90E2830D920000E30FFF718F900285D
:1020A0002CD02818FFF70DF97861039B33600023CB
:1020B000039300240399002903D0029803685B6806
:1020C000984700230393200004B080BCB846F0BDBD
:1020D00000207CE7002080E7002090E7002093E7C5
:1020E0000020A0E70020A3E70020AFE70020B2E730
:1020F0000020C1E70120C4E70020D0E70120D3E79A
:10210000141A0210F903000090190210FC190210B1
:10211000704710B50068FFF7FBFF10BDF0B5C6466D
:1021200000B584B00400884615001E00FFF70CFDC2
:102130002B681B68042204212800984700230360B1
:1021400002950390071E0DD02000FFF7BAF8251A5C
:102150002800FFF7BCF80A2810D928000A30FFF73A
:10216000B6F80CE02D4B01932D4B00932D4B2E4ACE
:1021700041464046FFF7C7FC01243DE0002000280F
:1021800003D02018FFF73BFD00E00020092818D1FC
:102190002000FFF796F8251A2800FFF798F80C287A
:1021A00004D928000C30FFF792F800E00020241832
:1021B000002804D02000FFF77EF8241802E0002455
:1021C00000E00024002C12D025002000FFF779F851
:1021D000241A2000FFF77BF804281BD9201DFFF7E5
:1021E00076F8002818D02818FFF793FF3860039B73
:1021F00033600023039300240399002903D002983D
:1022000003685B68984700230393200004B080BCF8
:10221000B846F0BD0020E4E70020E7E7141A0210FA
:102220004106000090190210FC190210F0B5CE46CC
:1022300000B582B004000D0001921F0000233B6036
:102240000BF029FC009006002000FFF73AF8231A53
:1022500099461800FFF73BF8082804D9484608308B
:10226000FFF735F800E00020002804D02018FFF721
:1022700028F8814601E001239946832E0FD8202EAD
:102280001FD02B681B684A46009928009847386081
:1022900000280BD0002002B080BCB946F0BD009AE7
:1022A0001E490198FFF722FC0120F4E7009B9E00E5
:1022B0001B4B9A594B461B490198FFF717FC01200D
:1022C000E9E72000FEF7FDFF261A3000FEF7FFFFCA
:1022D000062816D9B01DFEF7FAFF2418002812D0E0
:1022E0002000FEF7E8FF2418002C0ED0211D2B68DB
:1022F0005B684A4628009847386000280BD00020C9
:10230000C9E70020E9E70024EEE707490198FFF755
:10231000EDFB0120BFE70120BDE7C046541A0210C3
:1023200000210210A81A0210E01A0210F0B583B0C2
:1023300004000D0017001E000022002310F0B8FF5B
:10234000002804D000233B60336003B0F0BD3200AE
:10235000200029001FF0C0F800221D4B10F065FF7F
:1023600011F0CCF811F02EF804000D1E14DC002939
:102370000ED080231B069C4210D0002D26DC21D0DD
:1023800033681F3302DA0023336000243C60DCE74B
:1023900080231B069842ECD91DF038F9002DECD1B2
:1023A000EA0F002312196B411C001300E107009390
:1023B0000194520811430C00019B5D1033680133F6
:1023C0003360DAE780231B069C42D9D31DF01EF947
:1023D0000000E041F8B506000F0015001C000022C7
:1023E000094B10F083FF002809D023002A00300099
:1023F0003900FFF79BFF2368002B02DBF8BD1DF0BF
:1024000005F91DF003F9C0460000F03F30B585B076
:1024100010F00BFF04000D0080200006089BD84040
:1024200010F07CFF22002B0010F0FFFE00900191C5
:10243000094A0A4B0292039310F058FF002808D172
:102440006B46186859680A9B099AFFF7C3FF05B0E5
:1024500030BD02ABF5E7C0460000C0FFFFFFDF4123
:10246000F0B5C64600B503000C00012098400138C5
:10247000D21A20235B42D3182BD401259D4001237F
:102480009340984610F04AFF06000F00404629008E
:1024900010F08CFF02000B003000390010F0C5FE78
:1024A00006000F0020235B42E31817D40121994056
:1024B0000120A04010F07AFF02000B00300039002C
:1024C00010F095FE11F068F810F040FF80BCB8469F
:1024D000F0BD20239B1A0125DD40D0E720231B1BE4
:1024E0000121D940E4E7000030B58BB001910092A2
:1024F0009D68DC680395049401280AD0032820D045
:10250000022845D00E9B019A1A600F9B009A1A6010
:1025100013E0291C002011F0EAFB11F04DFD11F031
:102520006FFC24180594019BA34208DB01AB1B68D8
:102530000E9A13600F9B009A1A600BB030BD05AB6A
:10254000F5E7291C002011F0D2FB11F035FD11F048
:1025500057FC20180690019B834215DB01AB1B68DA
:102560000E9A1360291C1E4811F0C1FB11F024FDC6
:1025700011F046FC24180794009BA34206DC6B462E
:102580001B680F9A1360D8E706ABE8E707ABF7E7DD
:10259000291C144811F0ABFB11F00EFD11F030FCBA
:1025A00020180890019B834216DB01AB1B680E9A32
:1025B0001360291CFE20800511F099FB11F0FCFC32
:1025C00011F01EFC24180994009BA34206DC6B4604
:1025D0001B680F9A1360B0E708ABE7E709ABF7E7B2
:1025E0000000C040000080BF10B50B6802CB002A7D
:1025F00010DB8A4210DA920099584B1C0ED0002949
:102600000EDB8368002B02D04801181810BD036D43
:102610009847FBE70020F9E70020F7E70020F5E7FF
:102620000020F3E710B54B6802CB002A10DB914283
:1026300010DD920099584B1C0ED000290EDB8368E8
:10264000002B02D04801181810BD036D9847FBE716
:102650000020F9E70020F7E70020F5E70020F3E786
:1026600010B5FFF7C1FF10BDF0B5C64600B582B08A
:1026700080461D008868916811F04FFB041C11F022
:10268000F9FB06000F000021201C11F085FB00283B
:1026900010D0A86811F0EEFB02000B0030003900EA
:1026A00010F0A5FD089B18605960002002B080BCA6
:1026B000B846F0BD43465C69A123044A00925B0022
:1026C000034A04494046A0470120EFE77423021063
:1026D00014230210FC190210F0B5C64600B584B0F0
:1026E00080460D0016001C000A9F886811F0C2FB8E
:1026F00002900391B06811F0BDFB02000B0002983C
:10270000039910F092FD02900391002C1AD0A0685A
:1027100011F0B0FB02000B000298039910F055FD78
:1027200002904C006408B86811F0A4FB02000B0092
:102730000298210010F05BFD0E4A0F4B10F0C6FD11
:1027400000280BD00B9B00933B0032002900404631
:10275000FFF78AFF04B080BCB846F0BD43465C6911
:102760003623064A0092FF33054A06494046A047F1
:102770000120EFE77B14AE47E17A943F90230210EB
:1027800014230210FC19021030B583B00D001400A0
:10279000127F032A0DD0092A0ED0072A19D04469C6
:1027A00076230D4A0092FF330C4A0D49A0470120C1
:1027B0000DE0FF22002102E07F228021494206989D
:1027C0000190009323002800FFF78EFE002003B045
:1027D00030BD044A0449F2E7B42302101423021066
:1027E000FC190210FF7F00000080FFFFF0B5DE46FD
:1027F00057464E464546E0B58DB004000D000492A4
:1028000005930E78012E14D0456901230393029697
:102810007D4B01937D4B0093D1237D4A7D49A84791
:10282000012630000DB0F0BCBB46B246A946A0461A
:10283000F0BD049B1F78012F0CD045690123039341
:102840000297714B0193744B0093D323704A7149E3
:10285000A847E6E7049B5B68002B15D01A689146F1
:10286000002A1AD012689346012A5DDD0A7F092AE0
:102870001CD0072A1AD04569684B0093E323644AA9
:102880006749A8473E00CCE74569664B0093DE23C5
:102890005F4A6349A8473E00C3E74569624B00931E
:1028A000DF235B4A5E49A8473E00BAE7049A127FDD
:1028B000092A0ED065690923039302925B4B0193A9
:1028C0005B4B0093E523524A52492000A8473E0043
:1028D000A7E71E9A93450ED0656903925B46029363
:1028E000544B0193544B0093E623494A4949200035
:1028F000A8473E0095E7049A526906929B689B00A0
:10290000944663445B681E9A93420DD065690393B5
:1029100002924A4B0193474B0093E7233C4A3D49BF
:102920002000A8473E007CE7AB680693169B9B6897
:102930009A464B460433079300235F461E00A34686
:10294000A84623E04B46586811F094FA04000D00A5
:10295000069811F08FFA22002B0010F066FC04009C
:102960000D00504611F086FA02000B0020002900ED
:1029700010F03DFC0AAB09AAFFF7D8FCB3001C9A83
:102980000999D1501D9A0A99D15001361E9B9E4239
:1029900005DA012FD6DDB300079AD058D4E75C469C
:1029A00045462B7F032B08D02B7F092B21D0032BEF
:1029B0001FD0072B1DD0002633E7002200230A92E8
:1029C0000B930AAB0193169B0093059B049A414617
:1029D0005846FFF781FE061E00D022E709AB189A81
:1029E0000A980B99FFF7A2FC099B5B42199A1360A6
:1029F000DAE7179B19781B9B00931A9B169A200005
:102A0000FFF7C2FE06000CE7D8230210F4230210E1
:102A100014230210BC230210102402105C240210A4
:102A2000FC1902102C2402104024021098240210D9
:102A3000A4240210B4240210C4240210E8240210BA
:102A400010B5002801D0006810BD1CF0DFFD002883
:102A500000D00068704710B5002801D0006810BD94
:102A60001CF0D4FD002800D00068704710B5002885
:102A700001D0006810BD1CF0C9FD002800D000681E
:102A800070477047084070470841704740187047CA
:102A9000C043704710B5002802D00020FFF7F8FFB0
:102AA00010BD10B50123884200DB00231800FFF79A
:102AB000F1FF10BD10B50123884200DC002318008F
:102AC000FFF7E8FF10BD10B5002801D0006810BD69
:102AD0001CF09CFD012808D003280BD002280ED042
:102AE0000A4B0B600A4B136003E000230B60084B9A
:102AF0001360704700230B60064B1360F9E7064B29
:102B00000B60FE239B051360F3E7C046FFFF7FFFCA
:102B1000FFFF7F7F0000C040000080BF10B5836BC7
:102B2000002B02D03821984710BD1CF06FFD00002B
:102B3000F0B5DE4657464E464546E0B593B0050033
:102B40000C0016001F0021AB1B780B930B681B6851
:102B5000032B0AD0022B08D04469664B00935723FD
:102B6000654A6649A047012011E063681B68012B94
:102B700014D06C69012203920293614B0193614B63
:102B8000009358235C4A60492800A047012013B0F5
:102B9000F0BCBB46B246A946A046F0BD3378984685
:102BA000B3689A467368994673699B4633690D9377
:102BB0001D9A501E584301304346012B3FD0022B33
:102BC00045D000230C931E9B581E5B465843013092
:102BD0004346012B43D0022B48D000201E9B013BD3
:102BE0005A46534301330138524650431B181C9A2E
:102BF0009B1A42D401211940DA0FD3185B100F93AE
:102C000011911D9B013B0D9A534301330C980138E0
:102C10004A4650431B18DB1B31D401211940DA0FFF
:102C2000D3185B100EAA0E931091229B83CA83C304
:102C300012681A600B9B012B23D10020A7E73800F4
:102C400048440138494610F05DF80C90BBE73B0062
:102C50004B44181A494610F055F80C90B3E71C98ED
:102C600050440138514610F04DF8B7E71C9B5344CF
:102C7000181A514610F046F8B0E70023BAE70023CF
:102C8000CBE7002221002800FFF7AEFC804601229E
:102C900021002800FFF7A8FC0700022221002800DD
:102CA000FFF7DEFC8146002221002800FFF7BAFC76
:102CB0007B695B680C36229A926A0B9208930792A2
:102CC000229B5B6A0B930693229B30330593229BD6
:102CD0002C330493229B20330393229C1C340294B4
:102CE000019600904B463A0041462800FFF77EFDD2
:102CF0004DE7C0469025021028250210FC1902104D
:102D0000802B0210B4250210BC230210F0B5DE4661
:102D100057464E464546E0B5AFB004000D008E68FC
:102D2000002E21D0CB689A46002B1FD00022FFF73F
:102D30005BFC0700012229002000FFF755FC8146BB
:102D4000002229002000FFF76DFC8046002F0FD0E5
:102D5000796904C9002326932692052A0BDC269B59
:102D6000052B0ADD279809E01CF050FC1CF04EFCF6
:102D70000023269305E01CF049FC27A8920011F0DF
:102D8000AFF94346002B0BD0596904C900232093A7
:102D90002092052A06DC209B052B05DD219804E006
:102DA000209305E01CF032FC21A8920011F098F964
:102DB000269B002B00DC96E0052B00DC95E0279B92
:102DC0001B68209A002A00DC91E0052A00DC90E0D4
:102DD000219A12689A4200D08DE02D93209A002A01
:102DE00000DC8AE0052A00DC89E0219A12682C9236
:102DF000934200DD85E02DAB19681C917B699A68D0
:102E00001D92DB6808931E93269B032B00DC7AE05F
:102E1000052B00DC79E0279BDA681F92209B032BAF
:102E200000DC74E0052B00DC73E0219BDB68189369
:102E30004B465B6998681990D8681A901B92149158
:102E40004246526991681591D26808921692209A6A
:102E5000032A60DD052A60DD219AD26817925B683B
:102E60009B009B4619002000A36B9847706259464F
:102E70002000A36B9847B0621E9B08931D9A09928D
:102E80001A9A19991698159B9C463B7F06960593AE
:102E900063460493039002910192099A0092089B61
:102EA000524629002000FFF743FE051E0DD1FB68A6
:102EB00033614B46DB6873614346DB68B3613A7F3D
:102EC000092A2CD001235B427363209B052B4EDC27
:102ED000269B052B4DDC28002FB0F0BCBB46B2462C
:102EE000A946A046F0BD1CF091FB279B69E71CF0AA
:102EF0008DFB219A6EE71CF089FB1CF087FB219A61
:102F000075E72CAB78E71CF081FB2A9A85E71CF06B
:102F10007DFB249B8BE71CF079FB249A9EE7FA68E3
:102F200052420A920B9353469B680D9353465B683B
:102F30000C9353465B69119353461B690893109396
:102F400073680F9333680E93F36A1293336B139382
:102F500014AB18AA1CA90AA80AF0E2FF011EB1DDF1
:102F6000236C32003432200098470500ADE71CF096
:102F70004DFB1CF04BFBF0B5DE4657464E46454632
:102F8000E0B5A3B00F0003929B462D9B0A21425E41
:102F900013920C21425E14920E21425E0592102182
:102FA000425E0A920221425E15920421425E16920E
:102FB000026B1092426B0E923A68042A00D080E0B5
:102FC0005A461268042A7ED12F9A12680092042A67
:102FD0007BD13A68002A7ADD052A7ADD7A681268A0
:102FE0002F990968002976DD052976DD2F99496832
:102FF0000968914274D121922F990968002971DDE5
:10300000052971DD2F994968096820918A426EDC93
:1030100021AA126817923A68032A6ADD052A6ADD36
:103020007A68D26859460968032966DD052966DD94
:1030300059464968C968914264D11F925946096846
:10304000032961DD052961DD59464968C9681E917A
:103050008A425EDC1FAA126802925A461268002A4F
:1030600059DD052A59DD5A46526812682F990968B8
:10307000032955DD052955DD2F994968C968914215
:1030800053D11D922F990968032950DD052950DD80
:103090002F994968C9681C918A424DDC1DAA1268A3
:1030A0000F922E9A002A4ED01868052846DD5B68DC
:1030B00000220121904243DD9400E4586143013233
:1030C000F8E71CF0A3FA1CF0A1FA1CF09FFA1CF020
:1030D0009DFA7A6884E71CF099FA2F99496888E785
:1030E0001CF094FA1CF092FA2F9949688DE720AAF7
:1030F0008FE71CF08BFA3A6994E71CF087FA59467F
:10310000096998E71CF082FA1CF080FA59460969AF
:103110009DE71EAA9FE71CF079FA5A465268A5E778
:103120001CF074FA2F990969A9E71CF06FFA1CF0DA
:103130006DFA2F990969AEE71CAAB0E70433B7E727
:103140000F9B8B423AD13B68012B39DD052B39DDD2
:103150007B685B6808933B68022B36DD052B36DD08
:103160007B689B6807935B461B68012B32DD052B50
:1031700032DD5B465B685B6809935B461B68022B2C
:103180002EDD052B2EDD5B465B689B6804932F9B31
:103190001B68012B2ADD052B2ADD2F9B5B685B68F2
:1031A00012932F9B1B68022B26DD052B26DD2F9B00
:1031B0005B689B681193002300933DE11CF026FAA5
:1031C0001CF024FABB680893C5E71CF01FFAFB68E3
:1031D0000793C8E71CF01AFA5B469B680993CCE793
:1031E0001CF014FA5B46DB680493D0E71CF00EFA7F
:1031F0002F9B9B681293D4E71CF008FA2F9BDB6887
:103200001193D8E71CF002FA1CF000FA1CF0FEF94A
:103210001CF0FCF91CF0FAF91CF0F8F91CF0F6F9B6
:103220001CF0F4F91CF0F2F91CF0F0F94346B0463A
:10323000AB461E000136049B9E4266DA059D75432F
:10324000069BED18F6D4079B9D42F3DA4B46002B04
:10325000F0DB089B9945EDDA0024320046465B46D8
:10326000AB461D009046029B9C42DFDA3B68042B74
:10327000C8D1009B002BC7DB7A689342C4DA4B4667
:10328000002BC3DBBB689945C0DA5A46002ABFDB76
:10329000F9688B45BCDA002CBCDB3A699442B9DA98
:1032A000009843434B444B435B445343E3189B0018
:1032B000039A98582B68042BAED1002EAEDB6B68B6
:1032C0009E42ABDA5346002BAADBAB689A45A7DADD
:1032D0004246002AA6DBE9688845A3DA002CA3DB76
:1032E0002A699442A0DA734353444B434344534303
:1032F000E3189B002C9A995810F00FFD011C0198BF
:1033000010F0F0FC01900134ADE701239C46E2444B
:10331000099B9A4507DA0A9B524653430B9A9146FA
:103320009944002687E72E9B002B54D043469B00F0
:103330002E9AD158019810F0D5FC2F9B1B68019351
:10334000042B4AD1009B002B49DB2F9A5268019233
:10335000934244DA0C9B002B43DB2F9A9568AB42D7
:103360003FDA0D9B002B3EDB2F9AD1688B423ADA75
:103370004346002B39DB2F9B1A69904535DA009BB9
:103380005D430C9B9C4665444D430D9B9C466544A8
:1033900055434544AD00309B9C46654419901099B7
:1033A0001A910E9B1B9310F0F1FC00281FD119AC51
:1033B00021680E9810F0EAFC00281AD123682B60CF
:1033C00001239C46E0440F9B984514DA00239A465B
:1033D000002301939CE70021ACE71CF017F91CF0D7
:1033E00015F91CF013F91CF011F91CF00FF91AACC7
:1033F000DEE71BACE2E70D9B01330D930D9A119BA9
:103400009A4207DA139B5343159A9B1A069300239B
:103410009846D8E70C9B01330C930C9A129B9A4266
:1034200007DA149B5343169A9B1A0B9300230D93B0
:10343000E4E7009B01330093009B179A934202DA62
:1034400000230C93E9E723B0F0BCBB46B246A94683
:10345000A046F0BD30B5044B020032CB32C232CBB5
:1034600032C212CB12C230BD78270210F0B5DE4650
:1034700057464E464546E0B5B7B015001E00107BD6
:1034800016AA17A9FFF726FB2B78012B02D0022BD7
:1034900000D0002308AC2370336863807368A38076
:1034A0006B686381AB68A3812B69E3816B692382BD
:1034B000179B1493169B1593409918A804F09FFE30
:1034C0004098FFF7BDFA814641991EA804F097FE87
:1034D0004198FFF7B5FA824624AD4299280004F0DE
:1034E0008EFE4298FFF7ACFA83462AAE459930002B
:1034F00004F085FE4598FFF7AAFA804630AF43995D
:10350000380004F07CFE4398FFF7A1FA0690059777
:103510004346049303965B460293019553460093FA
:103520001EAB4A4618A92000FFF725FD309B052B4E
:1035300013DC2A9B052B12DC249B052B11DC1E9B24
:10354000052B10DC189B052B0FDC002037B0F0BCDE
:10355000BB46B246A946A046F0BD1CF057F81CF089
:1035600055F81CF053F81CF051F81CF04FF800000F
:10357000F0B5DE4657464E464546E0B5A7B0139136
:1035800014921E00319D339B426902920A21425ED1
:1035900017920C21425E18920E21425E0492102175
:1035A000425E09920221425E19920421425E1A9201
:1035B000C2691292816A1F91C26A1E92914276DCA0
:1035C0003268042A75D12A68042A74D1359A12689F
:1035D0000092042A71D13268002A70DD052A70DD5C
:1035E000726812683599096800296CDD05296CDD5F
:1035F00035994968096891426AD1259235990968D7
:10360000002967DD052967DD359949680968249136
:103610008A4264DC25AA12681B923268032A60DDA4
:10362000052A60DD7268D268296803295DDD0529F5
:103630005DDD6968C96891425BD1239229680329DD
:1036400059DD052959DD6968C96822918A4256DC2D
:1036500023AA126801922A68002A52DD052A52DD47
:103660006A6812683599096803294EDD05294EDD1F
:1036700035994968C96891424CD1219235990968B8
:10368000032949DD052949DD35994968C968209133
:103690008A4246DC21AA12681192349A002A4DD03F
:1036A000186805283FDD5B680022012141E01BF01E
:1036B000ADFF1BF0ABFF1BF0A9FF1BF0A7FF1BF03A
:1036C000A5FF72688EE71BF0A1FF3599496892E764
:1036D0001BF09CFF1BF09AFF3599496897E724AAD5
:1036E00099E71BF093FF32699EE71BF08FFF296972
:1036F000A1E71BF08BFF1BF089FF2969A5E722AA30
:10370000A7E71BF083FF6A68ACE71BF07FFF3599E2
:103710000969B0E71BF07AFF1BF078FF359909695A
:10372000B5E720AAB7E70433BEE79400E458614345
:1037300001329042F9DC119B8B4238D13368012B66
:1037400037DD052B37DD73685B6807933368022B21
:1037500034DD052B34DD73689B6806932B68012BE1
:1037600031DD052B31DD6B685B6808932B68022B1C
:103770002EDD052B2EDD6B689B680393359B1B6844
:10378000012B2ADD052B2ADD359B5B685B681693D0
:10379000359B1B68022B26DD052B26DD359B5B68E0
:1037A0009B681593002733003E001F00D6E11BF0F5
:1037B0002DFF1BF02BFFB3680793C7E71BF026FF15
:1037C000F3680693CAE71BF021FFAB680893CDE7C7
:1037D0001BF01CFFEB680393D0E71BF017FF359B32
:1037E0009B681693D4E71BF011FF359BDB6815939C
:1037F000D8E71BF00BFF1BF009FF1BF007FF1BF0C6
:1038000005FF1BF003FF1BF001FF1BF0FFFE1BF089
:10381000FDFE1BF0FBFE1BF0F9FEB146464680465E
:103820006046009B9C460130039B98426BDA0499EA
:103830004143059BC918F6D4069B9942F3DA002E42
:10384000F1DB079B9E42EEDA00220B0061460091FD
:1038500084464046B0464E469946019B9A42DCDA81
:103860003B68042BC5D100990029C4DB7B689942D1
:10387000C1DA4346002BC0DBBB689845BDDA4C4635
:10388000002CBCDBFC68A246A145B8DA002AB8DBF4
:103890003C69A242B5DA00994B43434451464B433D
:1038A0004B446343D3183099CC562B68042BAAD1D0
:1038B0000028AADB6B689842A7DA002EA7DBAB686A
:1038C0009E42A4DA61460029A3DBE9688B468C4559
:1038D0009FDA002A9FDB29698A468A429BDA4343A2
:1038E000F31859464B43634451464B43D31832991E
:1038F000CB5602998A4654445C431D9B9A465444D5
:103900001D940132A9E701239A46D144089B9945A9
:1039100007DA099E4B465E430E9B9A4656440020AA
:1039200082E7664644463195349B002B06D0A300BF
:10393000349A9B581D9A944663441D931D98A30086
:10394000139AD2581499CB58191E00DAB1E0002B03
:1039500000DCB0E000239A468840824200D1ADE00E
:1039600000239846C117D31710F09AF902000B1ED6
:1039700000DAADE08021C9050A91C9170B910A98B8
:103980000B9912184B41D917490049080C91002195
:103990000D910C980D9912184B4111005B00CA0F44
:1039A000134399464346002B00D093E05346002B27
:1039B00000DA92E01F2B00DD96E0012098400138EC
:1039C000FFF75FF880460020FFF75BF800900120CA
:1039D000FFF757F8834641464846FFF753F805007E
:1039E00001214046FFF750F8804600994846FFF70E
:1039F00058F85946FFF746F801004046FFF746F8E9
:103A0000804651464846FFF73FF881464146280028
:103A1000FFF750F85946FFF735F801004846FFF721
:103A200035F81D90129B9C4660441D901F9B984248
:103A300061DB1DAB1B681D931E9A93425DDC1DABC1
:103A40001A681D92359B1B680093042B57D1002EDA
:103A500057DB359B5B6800939E4252DA0F99002931
:103A600051DB359B9B6899424DDA109900294CDB5C
:103A70003598C068814248DA002C48DB35990969DD
:103A80008C4244DA73430F9DAC4663444343109821
:103A9000844663444B43E3183699CA540134119B5E
:103AA0009C4236DA00231D939946B446A046319DC8
:103AB0002CE700214BE75B429A464DE780231B062B
:103AC000984202D0002398464CE70123984649E7E4
:103AD000294951E7294B994668E7B321284B294AE0
:103AE000490029480DF06AFF6821284B254AFF311B
:103AF00025480DF063FF1FAB9CE71EABA0E71BF052
:103B000085FD1BF083FD1BF081FD1BF07FFD1BF08D
:103B10007DFDB346319D109B01331093109A159B88
:103B20009A4209DA179B5343199A9B1A059300236B
:103B30005E461C003195B2E75E460F9B01330F9342
:103B40000F9A169B9A4208DA189B53431A9A9B1AAB
:103B50000E9300231093B346E0E701361B9B9E4271
:103B600002DA00230F93EBE727B0F0BCBB46B24666
:103B7000A946A046F0BDC046010000C0FFFFFF7F80
:103B8000C8250210D82502103426021098260210EB
:103B9000F0B5DE4657464E464546E0B5E7B0040070
:103BA0001D005369459316694496012B01D1012EDE
:103BB00063D02B695B4230AC6361AB69E3619368AE
:103BC000A38153686381536923821369E3816B681E
:103BD000A3802B686380EB6AA3622B6BE3626B6A42
:103BE0009A46AB6A9B46709948A804F008FB709807
:103BF000FEF731FF09904EAF7199380004F0FFFADB
:103C00007198FEF728FF804654AD7299280004F0A1
:103C1000F6FA7298FEF757FF81465AAE7399300054
:103C200004F0EDFA7398FEF71DFF069005964B46DB
:103C300004930395434602930197099B009348AB75
:103C40005A4651462000FFF793FC5A9B052B00DD96
:103C500087E1549B052B00DD85E14E9B052B00DDA4
:103C600083E1489B052B00DD81E1002067B0F0BCBB
:103C7000BB46B246A946A046F0BD2B695B423E93C7
:103C8000AB693F93936841935368099340936B6882
:103C900043932B684293EB6A46932B6B47936B6A73
:103CA0000A93AB6A0B9371991EA804F0A8FA709955
:103CB00024A804F0A4FA73992AA804F0A0FA72992F
:103CC00030A804F09CFA469A479B9A426BDC249BEE
:103CD000042B6AD11E9B042B69D12A9B042B68D12B
:103CE000249B002B67DD052B67DD259B1B682A9A2B
:103CF000002A64DD052A64DD2B9A12689A4262D19B
:103D000065932A9A002A60DD052A60DD2B9A1268E5
:103D1000649293425DDC65AB1B689846249B032B41
:103D200059DD052B59DD259BDB681E9A032A56DDDC
:103D3000052A56DD1F9AD2689A4254D163931E9A7F
:103D4000032A52DD052A52DD1F9AD26862929342FD
:103D50004FDC63AB1B6899461E9B002B4BDD052B8C
:103D60004BDD1F9B1B682A9A032A48DD052A48DD84
:103D70002B9AD2689A4246D161932A9A032A44DD4B
:103D8000052A44DD2B9AD2686092934241DC61ABF4
:103D90001F687298FEF75FFE002847D0309905290A
:103DA00039DD319838E01BF031FC1BF02FFC1BF0A3
:103DB0002DFC1BF02BFC1BF029FC259B97E71BF02F
:103DC00025FC2B9A9AE71BF021FC1BF01FFC2B9A79
:103DD0009EE764ABA0E71BF019FC289BA5E71BF04E
:103DE00015FC229AA8E71BF011FC1BF00FFC229A8D
:103DF000ACE762ABAEE71BF009FC1F9BB3E71BF01F
:103E000005FC2E9AB6E71BF001FC1BF0FFFB2E9A77
:103E1000BAE760ABBCE731A8002303E09A00125870
:103E2000564301339942F9DCB74278D143460E93A9
:103E3000249B012B75DD052B75DD259B5B680F939E
:103E4000249B022B71DD052B71DD259B9B68109354
:103E50004B46119312971E9B012B6ADD052B6ADDE1
:103E60001F9B5B6813931E9B022B66DD052B66DD93
:103E70001F9B9B6814934B4615930123169317932E
:103E80001893199743461A932A9B012B59DD052B4A
:103E900059DD2B9B5B681B932A9B022B55DD052B61
:103EA00055DD2B9B9B681C931D9700230C930D9352
:103EB000696B002903DB636C200098470C907098B5
:103EC000FEF7C9FD04007198FEF7C5FD0500729864
:103ED000FEF7F9FD06007398FEF7C4FD06901AABD5
:103EE0000593049616AB0393029512AB01930094CD
:103EF0000EAB0AAA3EA90CA809F0BCFF002828D1E5
:103F0000309B052B27DC2A9B052B26DC249B052BCD
:103F100025DC1E9B052B00DCA7E61BF077FB1BF0C6
:103F200075FB1BF073FB269B89E71BF06FFB279B40
:103F30008DE71BF06BFB209B94E71BF067FB219B3D
:103F400098E71BF063FB2C9BA5E71BF05FFB2D9B09
:103F5000A9E71BF05BFB1BF059FB1BF057FB1BF0A9
:103F600055FB1BF053FB1BF051FB1BF04FFB1BF0F1
:103F70004DFB0000F0B5DE4657464E464546E0B5DF
:103F8000ABB00E0005921D00359B0A21425E1B92CC
:103F90000C21425E1C920E21425E07921021425E6D
:103FA0000C920221425E1D920421425E1E924269E1
:103FB000039282690492C2691892026A1492426A58
:103FC0001592816A2391C26A2292914276DC32680C
:103FD000042A75D12A68042A74D1379A126801928A
:103FE000042A71D13268002A70DD052A70DD7268FA
:103FF00012683799096800296CDD05296CDD37994D
:104000004968096891426AD129923799096800295B
:1040100067DD052967DD37994968096828918A4273
:1040200064DC29AA12681F923268032A60DD052A1F
:1040300060DD7268D268296803295DDD05295DDDD0
:104040006968C96891425BD127922968032959DDC3
:10405000052959DD6968C96826918A4256DC27AA74
:10406000126802922A68002A52DD052A52DD6A6827
:1040700012683799096803294EDD05294EDD379905
:104080004968C96891424CD125923799096803293A
:1040900049DD052949DD37994968C96824918A4273
:1040A00046DC25AA12681792369A002A4DD0186865
:1040B00005283FDD5B680022012141E01BF0A6FAE4
:1040C0001BF0A4FA1BF0A2FA1BF0A0FA1BF09EFA58
:1040D00072688EE71BF09AFA3799496892E71BF0ED
:1040E00095FA1BF093FA3799496897E728AA99E758
:1040F0001BF08CFA32699EE71BF088FA2969A1E768
:104100001BF084FA1BF082FA2969A5E726AAA7E723
:104110001BF07CFA6A68ACE71BF078FA37990969FA
:10412000B0E71BF073FA1BF071FA37990969B5E72C
:1041300024AAB7E70433BEE79400E4586143013290
:104140009042F9DC179B8B4238D13368012B37DD65
:10415000052B37DD73685B680A933368022B34DD07
:10416000052B34DD73689B6809932B68012B31DDC7
:10417000052B31DD6B685B680B932B68022B2EDD02
:10418000052B2EDD6B689B680693379B1B68012B04
:104190002ADD052B2ADD379B5B685B681A93379B0A
:1041A0001B68022B26DD052B26DD379B5B689B6891
:1041B0001993002733003E001F00D8E11BF026FAB8
:1041C0001BF024FAB3680A93C7E71BF01FFAF368E1
:1041D0000993CAE71BF01AFAAB680B93CDE71BF003
:1041E00015FAEB680693D0E71BF010FA379B9B6833
:1041F0001A93D4E71BF00AFA379BDB681993D8E7C8
:104200001BF004FA1BF002FA1BF000FA1BF0FEF997
:104210001BF0FCF91BF0FAF91BF0F8F91BF0F6F9AA
:104220001BF0F4F91BF0F2F9B146464680466046B1
:10423000019B9C460130069B98426EDA07994143E8
:10424000089BC918F6D4099B9942F3DA002EF1DBDA
:104250000A9B9E42EEDA00220B00614601918446E1
:104260004046B0464E469946029B9A42DCDA3B688D
:10427000042BC5D101990029C4DB7B689942C1DABE
:104280004346002BC0DBBB689845BDDA4C46002C8A
:10429000BCDBFC68A246A145B8DA002AB8DB3C6961
:1042A000A242B5DA01994B43434451464B434B4438
:1042B0006343D3180599CC5C2B68042BAAD1002842
:1042C000AADB6B689842A7DA002EA7DBAB689E4298
:1042D000A4DA61460029A3DBE9688B468C459FDAA6
:1042E000002A9FDB29698A468A429BDA4343F318F6
:1042F00059464B43634451464B43D3183499CB5CE6
:1043000004998A46534403998A4654445C43219B4A
:104310009A46544421940132A6E701239A46D14497
:104320000B9B994507DA0C9E4B465E430D9B9A46C4
:10433000564400207FE7664644460195369B002B95
:1043400006D0A300369A9B58219A94466344219341
:104350002198159A131E00DAB4E0159A002A00DCA1
:10436000B2E0002292469840149B834200D1AEE016
:1043700000239846C117149AD3170FF091FC02003E
:104380000B1E00DAADE08021C9050E91C9170F910F
:104390000E980F9912184B41D917490049081091EE
:1043A000002111911098119912184B4111005B00D6
:1043B000CA0F134399464346002B00D093E053465F
:1043C000002B00DA92E01F2B00DD96E001209840E0
:1043D0000138FEF756FB80460020FEF752FB169090
:1043E0000120FEF74EFB834641464846FEF74AFB56
:1043F000050001214046FEF747FB804616994846D6
:10440000FEF74FFB5946FEF73DFB01004046FEF725
:104410003DFB804651464846FEF736FB8146414605
:104420002800FEF747FB5946FEF72CFB01004846E3
:10443000FEF72CFB2190189B9C4660442190239B07
:10444000984261DB21AB1B682193229A93425DDC89
:1044500021AB1A682192379B1B681693042B57D106
:10446000002E57DB379B5B6816939E4252DA1299F7
:10447000002951DB379B9B6899424DDA139900293B
:104480004CDB3798C068814248DA002C48DB37990A
:1044900009698C4244DA7343129DAC46634443433A
:1044A0001398844663444B43E3183899CA54013443
:1044B000179B9C4236DA002321939946B446A046C6
:1044C000019D2DE7002348E7524292464BE78023A7
:1044D0001B06984202D0002398464BE701239846DA
:1044E00048E7294951E7294B994668E7B321284B0A
:1044F000284A490028480DF061FA6821274B254ACF
:10450000FF3125480DF05AFA23AB9CE722ABA0E718
:104510001BF07CF81BF07AF81BF078F81BF076F8AB
:104520001BF074F8B346019D139B01331393139A48
:10453000199B9A4209DA1B9B53431D9A9B1A0893B5
:1045400000235E461C000195B2E75E46129B0133D4
:104550001293129A1A9B9A4208DA1C9B53431E9A92
:104560009B1A0D9300231393B346E0E701361F9B7C
:104570009E4202DA00231293EBE72BB0F0BCBB465D
:10458000B246A946A046F0BD010000C0FFFFFF7F74
:10459000C8250210D82502103426021098260210D1
:1045A000F0B5DE4657464E464546E0B5B5B019690A
:1045B0004D42596948429E691178012902D0022969
:1045C00000D0002108AC2170196861805968A18071
:1045D000516861819168A1811169E18152692282EA
:1045E0000D950E900F96DA6910921A6A5242119246
:1045F000DA6A12921B6B13933E9916A803F0FFFD23
:104600003E98FEF733FA81463F991CA803F0F7FD68
:104610003F98FEF72BFA824622AD4099280003F01E
:10462000EEFD4098FEF74FFA834628AE43993000DE
:1046300003F0E5FD4398FEF720FA80462EAF41993E
:10464000380003F0DCFD4198FEF717FA00230793CA
:10465000069005974346049303965B4602930195A3
:10466000534600931CAB4A4616A92000FFF782FC74
:104670002E9B052B13DC289B052B12DC229B052B84
:1046800011DC1C9B052B10DC169B052B0FDC00207E
:1046900035B0F0BCBB46B246A946A046F0BD1AF004
:1046A000B5FF1AF0B3FF1AF0B1FF1AF0AFFF1AF01E
:1046B000ADFF0000F0B5CE46474680B587B0040098
:1046C0000D00CB689946002839D0002939D00B68F5
:1046D0005968436D98470600002C34D0002D34D023
:1046E0002B6899682000636D984707002B681B684A
:1046F000032B2CD000239846002C37D0002D37D028
:104700006B6859682000636D9847AB68002B31D007
:10471000327A017A8A422FD06569D32303910292BB
:10472000374A0192374A00925B00374A37492000E6
:10473000A847012007B0C0BCB946B046F0BD1AF08A
:1047400065FF1AF063FF1AF061FF1AF05FFF002C9B
:1047500008D0002D08D02B68D9682000636D9847D9
:104760008046C9E71AF052FF1AF050FF1AF04EFFC8
:104770001AF04CFF1AF04AFF397A8A4205D0636971
:104780002349200098470120D4E7032A2AD0092A88
:104790001BD0012A0AD065691000FDF763F90200F9
:1047A000337A1C492000A8470120C3E70590002266
:1047B0000492039242460292019700964A462900CB
:1047C0002000FEF753FE0020B4E70022049203907D
:1047D00042460292019700964A4629002000FFF7C0
:1047E000D7F9A7E70590002204920392424602926D
:1047F000019700964A4629002000FFF7D1FE99E76D
:10480000A8260210B826021028250210BC23021088
:10481000C42602105C27021010B5836B002B02D057
:104820002421984710BD1AF0F1FEF0B587B00400BE
:104830000D001E000F9F01235B427B61012A02D104
:10484000002007B0F0BD002200230492059304ABC2
:1048500001930E9B00930D9B0C9A3100FDF73CFFDA
:104860000028EED103AB3A0004980599FDF75EFDF0
:10487000039B5B427B603B0008333A000C320092A2
:104880000E9A29002000FDF77FFF0028D9D1F36898
:10489000BB610C9BDB68FB610E9BDB683B62D0E776
:1048A000F0B5CE46474680B597B005000C008B6842
:1048B0009946002B2BD0CE68002E2AD00022FDF77F
:1048C00093FE0700012221002800FDF78DFE80469F
:1048D000022221002800FDF7C3FE059000222100DE
:1048E0002800FDF79FFE0400387F237F984212D1F5
:1048F00043461B7F984222D06B695C492800984749
:104900000126300017B0C0BCB946B046F0BD1AF061
:104910007DFE1AF07BFE6F69FDF7A4F80600207F8C
:10492000FDF7A0F803900296514B0193514B009371
:104930006923514A51492800B8470126E1E73178F7
:104940004B4603930294059B0193434600933B001F
:1049500002002800FFF769FF061ED2D13B7F092B1A
:10496000CFD1059B002BCCD01B69002BC9D043466F
:10497000002B0BD0596904C900230A930A92052A17
:1049800006DC0A9B052B05DD0B9804E00A9305E085
:104990001AF03CFE0BA892000FF0A2FB002C0BD0EB
:1049A000616904C9002310931092052A07DC109B4B
:1049B000052B06DD119805E00023109305E01AF0A1
:1049C00025FE11A892000FF08BFB109B022B2AD121
:1049D0000A9B013B29D40A9A934228DA052A28DD4A
:1049E0009B000B9AD3580693012307930893109BBF
:1049F000012B24DD052B24DD119B5B68099306A8A0
:104A000009F001FB011E22DD2B6C4A4614322800FE
:104A1000984700281FD0109B052B14DC0A9B052B00
:104A200013DC06006DE71AF0F1FD1AF0EFFD1AF045
:104A3000EDFD9B000AAA944663445B68D3E71AF035
:104A4000E5FD129BDAE71AF0E1FD1AF0DFFD012324
:104A50005B424A465361109B052B05DC0A9B052BE4
:104A600000DC4EE71AF0D2FD1AF0D0FD2828021023
:104A7000A8260210B8260210982702100C2802104F
:104A800030B50A4B0A4A1A6000225A6009499960F7
:104A90000949D9601A615A619A61DA61020032CB20
:104AA00032C232CB32C212CB12C230BDC05E012044
:104AB00019480010A14800101D5A0010002800D00D
:104AC00000687047F0B5DE4657464E464546E0B5AD
:104AD000B1B010001C0014AA15A9FDF7FBFF159B2F
:104AE0001193149B1293210016A803F088FB200059
:104AF000FDF7A6FF03903A991CA803F080FB3A98B3
:104B0000FDF79EFF04903B9922A803F078FB3B98A9
:104B1000FDF796FF83463C9928A803F070FB3C986C
:104B2000FDF795FF0290119B9846129B99461C98A1
:104B3000289C621E05D4A24203DA052C03DD299DC0
:104B400002E01AF063FD29AD0023012102E00126F5
:104B5000714301339C4204DD9A42F8D09E00AE5965
:104B6000F6E70591831E31D41C998B4230DA052972
:104B700030DD9B001D99CB58002A31DB28998A42F1
:104B800030DA052930DD9100299C6158994231D1F4
:104B90002F93002A30DB28998A422FDA05292FDD4E
:104BA000920029998A582E9293422FDC2FAB1F68CE
:104BB00001382DD41C9B98422CDA052B2CDD80006B
:104BC0001D9B1B589A460023019376E01AF01EFDA8
:104BD0001AF01CFD9B001CA98C4663445B68CBE764
:104BE0001AF014FD1AF012FD910028ACA44661449D
:104BF0004968CBE71AF00AFD1AF008FD1AF006FD25
:104C0000920028A98C4662445268CCE72EABCEE7CE
:104C10001AF0FCFC1AF0FAFC80001CAB9C466044C5
:104C200043689A46CFE75346019A5343E3189B00E3
:104C3000039A985853466B43E3189B00049A99587B
:104C40000FF06BF8011C301C0FF04CF8061C0134FF
:104C50005445E8DB5B46002B26D0AB005A46D158C2
:104C6000301C0FF03FF8011C019C7C432C19A40060
:104C7000029B9C4664440990434608934B46079325
:104C800040460FF091F8002810D109AE316848462F
:104C90000FF07CF800280BD1336823600135BD424A
:104CA00008DA00240026D3E70021D9E708AEEDE7B3
:104CB00007AEF1E7019B01330193019B059A9342F3
:104CC00001DA0025EBE7289B052B10DC229B052B46
:104CD0000FDC1C9B052B0EDC169B052B0DDC00202E
:104CE00031B0F0BCBB46B246A946A046F0BD1AF0B2
:104CF0008DFC1AF08BFC1AF089FC1AF087FC00007E
:104D0000F0B5DE4657464E464546E0B593B0904670
:104D10001C9A91461F99026892464268934682689F
:104D20000C92C268089202690992446911948069E0
:104D300010901A68012A2DDD0D68022D2CD18442B5
:104D40002CDC086800282BDD05282BDD486800686E
:104D50000D900868012828DD052828DD4968496884
:104D60000791911E26D41868814225DA052825DD91
:104D70008900586841580798814223DB013A23D4BF
:104D800019688A4222DA052922DD5B6892009C5864
:104D90000027F8E01AF03AFC1AF038FC1AF036FC5A
:104DA0001AF034FC48680D90D3E71AF02FFC89689C
:104DB0000791D6E71AF02AFC1AF028FC8900591846
:104DC0004968D8E71AF022FC1AF020FC1AF01EFC01
:104DD00092009A185468DBE723007B439B184946EE
:104DE000CB562100694389184046415671185344F7
:104DF0004B430F998C4663440F930132A242EBDB85
:104E0000B3461E9B002B06D0AB001E9A9B580F9AF0
:104E1000944663440F930F98099A131E00DA88E0B2
:104E2000099A002A00DC86E0002204929840089B40
:104E3000834200D182E000230593C117089AD3175B
:104E40000EF02EFF02000B1E00DA81E08021C90562
:104E50000091C91701910098019912184B41D91777
:104E60004900490802910021039102980399121800
:104E70004B415E00D20F1643059B002B6AD1049B69
:104E8000002B69DB049B1F2B6DDC0120049B9840E9
:104E90000138FDF7F6FD05900020FDF7F2FD0A90C0
:104EA0000120FDF7EEFD069005993000FDF7EAFDC3
:104EB0000B9001210598FDF7E7FD05900A99300058
:104EC000FDF7EFFD0699FDF7DDFD01000598FDF703
:104ED000DDFD059004993000FDF7D6FD060005992B
:104EE0000B98FDF7E7FD0699FDF7CCFD01003000BA
:104EF000FDF7CCFD0F900C9B9C4660440F90119BDE
:104F0000984237DB0FAB1B680F93109A934233DC48
:104F10000FAB1A680F92079B7B435B192099CA5409
:104F20000135079B9D4229DA00230F9300225E463C
:104F300064E7002374E75242049277E780231B065C
:104F4000984202D00023059377E70123059374E785
:104F500015497DE7154E92E7B321154B154A4900D7
:104F600015480CF02BFD6821144B124AFF311248F2
:104F70000CF024FD11ABC6E710ABCAE743461C9307
:104F8000C846994601370D9B9F4205DA00254B46DE
:104F90001C93C1469846C4E713B0F0BCBB46B2466A
:104FA000A946A046F0BDC046010000C0FFFFFF7F3C
:104FB000C8250210D82502103426021098260210A7
:104FC000F0B5CE46474680B5D3B0060014001D00AC
:104FD0005B98FDF778FD002800D1EBE05C9924A8F0
:104FE00003F00DF9249B022B00D089E0249B002BB9
:104FF00000DC87E0052B00DC86E0259B1B689846DB
:10500000249B012B00DC82E0052B00DC81E0259B4A
:105010005F685A992AA803F0F2F82A9B5A1E00D515
:1050200079E02A9B9A4200DB77E0052B00DC76E0F2
:1050300092002B9B9B589946290030A803F0DFF87B
:10504000A3695B421F93236A2193E3695B42209328
:10505000A3682293E368239323680B9363685B42FE
:105060000C9343460F930122109211924B461293D8
:1050700013931492159216971792189219921A97E1
:1050800043461B931C921D921E9700230D930E9373
:105090006169002903DB3000736C98470D9028008C
:1050A000FDF7D9FC04005A98FDF7D5FC07005B9882
:1050B000FDF709FD80465C98FDF7D4FC06901BAB1C
:1050C00005934346049317AB0393029713AB0193E5
:1050D00000940FAB0BAA1FA90DA808F052FF0028DF
:1050E00024D1309B052B5FDC2A9B052B5EDC249BA7
:1050F000052B5DDC002053B0C0BCB946B046F0BD06
:105100001AF084FA1AF082FA259B984678E71AF08A
:105110007DFA269F7DE71AF079FA1AF077FA920065
:105120002AAB9C4662445368994685E77369984662
:105130002800FDF790FC04005A98FDF78CFC050050
:105140005B98FDF7C0FC07005C98FDF78BFC0690B0
:105150001BAB0593049717AB0393029513AB019315
:1051600000940FAB0BAA1FA90DA808F00AFF00239B
:1051700003930290394B0193394B0093C723394A6B
:1051800039493000C047309B052B07DC2A9B052B93
:1051900006DC249B052B05DC0120ACE71AF036FA6F
:1051A0001AF034FA1AF032FA1AF030FA1AF02EFA2B
:1051B0001AF02CFAA3695B423093E3695B423193A6
:1051C000236A32932368339363685B423493A36802
:1051D0003593E3680993369329003AA803F00FF852
:1051E0002800FDF738FC80465A9940A803F007F8DC
:1051F0005A98FDF730FC050046AF5B99380002F085
:10520000FEFF5B98FDF75FFC06004CAC5C9920004C
:1052100002F0F5FF5C98FDF725FC049003940296DC
:105220000197009540AB42463AA930A8FFF768FDC8
:105230004C9B052B0ADC469B052B09DC409B052B70
:1052400008DC3A9B052B07DC002054E71AF0DEF956
:105250001AF0DCF91AF0DAF91AF0D8F9CC280210B1
:10526000E028021098270210BC230210F0B5DE4699
:1052700057464E464546E0B597B090461E00209BE7
:105280009946239D03689B4643689A468368019329
:10529000C368099303690A9343690D9382690E9267
:1052A000934211DC019B002B10D137682868421E05
:1052B0000ED482420CDA05280CDD6C68019B0121BA
:1052C000AC46250014000BE01AF0A0F91AF09EF984
:1052D0001AF09CF92C1DF1E79A00AA5851430133AA
:1052E000984203DD9C42F7D10122F7E722000F919B
:1052F0006546BB1E33D431688B4232DA052932DD74
:105300009B007168CB58002A31DB29688A4230DA69
:10531000052930DD91006868415899422FD11593D5
:10532000002A2EDB29688A422DDA05292DDD6968DD
:1053300092008A58149293422BDC15AB1B68089399
:10534000013F28D433689F4227DA052B27DD736895
:10535000BF00DC59019F5346DA469B46FEE01AF037
:1053600055F91AF053F99B00F3185B68CBE71AF074
:105370004DF91AF04BF9910069184968CDE71AF018
:1053800045F91AF043F91AF041F99200AA18526847
:10539000D0E714ABD2E71AF039F91AF037F9BF00A9
:1053A000F7197C68D6E723007B439B18F35C5344D2
:1053B0001BB29C4623006B439B184146CB5C1B18D9
:1053C0001BB261464B4311998C46634411930132E1
:1053D000A242E8DB8346B14611980A9A131E00DA0E
:1053E00092E00A9A002A00DC90E0019A009298402C
:1053F000099B834200D18CE000230693C117099AD0
:10540000D3170EF04DFC02000B1E00DA8BE080215A
:10541000C9050291C91703910298039912184B41CB
:10542000D91749004908049100210591049805996C
:1054300012184B415E00D20F1643069B002B74D10D
:10544000009B002B73DB009B1F2B77DC0120009B54
:1054500098400138FDF715FB06900020FDF711FB81
:105460000B900120FDF70DFB079006993000FDF72A
:1054700009FB0C9001210698FDF706FB06900B999D
:105480003000FDF70EFB0799FDF7FCFA01000698C6
:10549000FDF7FCFA069000993000FDF7F5FA0600DA
:1054A00006990C98FDF706FB0799FDF7EBFA01004A
:1054B0003000FDF7EBFA11900D9B019A9B1A1293A5
:1054C000834242DC11AB1A6811920E9B01995B1A60
:1054D00013939A423BDC11AB1A681192019B9C46D4
:1054E00062441192089B7B435B195B002499CA526A
:1054F0000135089B9D422CDAAB00229A9B581193F0
:10550000019A58464E4663E700236AE752420092EA
:105510006DE780231B06984202D0002306936DE7B7
:10552000012306936AE7154973E7154E88E7B3210F
:10553000144B154A490015480CF040FA6821144BE9
:10554000114AFF3111480CF039FA12ABBBE713AB2B
:10555000C2E743462093C846994601370F9B9F42B6
:1055600005DA019D4B462093C1469846C1E717B026
:10557000F0BCBB46B246A946A046F0BD010000C043
:10558000FFFFFF7FC8250210D82502103426021025
:1055900098260210F0B5DE4657464E464546E0B521
:1055A00095B090461E001E9B9946219D03689A4621
:1055B00043689B4683680C93C36808930369099307
:1055C00043691193816910913768012F12DD2A68B0
:1055D000002A11DD8B4211DC2868013A10D4824286
:1055E0000EDA05280EDD6C6800230121AC4625008B
:1055F00014000DE01AF00AF81AF008F81AF006F88C
:105600001AF004F82C1DEFE79A00AA585143013311
:10561000984203DD9C42F7D10122F7E722000D9169
:105620006546BB1E30D431688B422FDA05292FDD49
:105630009B007168CB58002A2EDB29688A422DDA3C
:1056400005292DDD91006868415899422CD11393AA
:10565000002A2BDB29688A422ADA05292ADD6968B3
:1056600092008A581292934228DC13AB1B6807936E
:10567000013F25D433689F4224DA052B24DD73686B
:10568000BF00DC590027FAE019F0C0FF19F0BEFF97
:105690009B00F3185B68CEE719F0B8FF19F0B6FF6E
:1056A000910069184968D0E719F0B0FF19F0AEFF12
:1056B00019F0ACFF9200AA185268D3E712ABD5E7F5
:1056C00019F0A4FF19F0A2FFBF00F7197C68D9E711
:1056D00023007B439B184946CB5C21006943891812
:1056E0004046415C711853444B430F998C466344C8
:1056F0000F930132A242EBDBB346209B002B06D076
:10570000AB00209A9B580F9A944663440F930F98CE
:10571000099A131E00DA88E0099A002A00DC86E064
:10572000002204929840089B834200D182E000232B
:105730000593C117089AD3170EF0B2FA02000B1E98
:1057400000DA81E08021C9050091C9170191009814
:10575000019912184B41D9174900490802910021BB
:1057600003910298039912184B415E00D20F164321
:10577000059B002B6AD1049B002B69DB049B1F2B2C
:105780006DDC0120049B98400138FDF77AF9059003
:105790000020FDF776F90A900120FDF772F90690D6
:1057A00005993000FDF76EF90B9001210598FDF782
:1057B0006BF905900A993000FDF773F90699FDF72A
:1057C00061F901000598FDF761F905900499300031
:1057D000FDF75AF9060005990B98FDF76BF9069944
:1057E000FDF750F901003000FDF750F90F900C9BC8
:1057F0009C4660440F90119B984237DB0FAB1B68AF
:105800000F93109A934233DC0FAB1A680F92079BE9
:105810007B435B192299CA540135079B9D4229DAC3
:1058200000230F9300225E4664E7002374E7524290
:10583000049277E780231B06984202D00023059349
:1058400077E70123059374E715497DE7154E92E745
:10585000B321154B154A490015480CF0AFF86821E3
:10586000144B124AFF3112480CF0A8F811ABC6E7EE
:1058700010ABCAE743461E93C846994601370D9BB5
:105880009F4205DA00254B461E93C1469846C4E761
:1058900015B0F0BCBB46B246A946A046F0BDC04616
:1058A000010000C0FFFFFF7FC8250210D8250210AD
:1058B0003426021098260210F0B5C64600B5C2B0D4
:1058C00006001C0093695942D3695B420891099311
:1058D000136A0A9313680B9353685B420C939368A3
:1058E0000D93D36807930E934A9B187A03280CD024
:1058F00007284FD07469FCF7B5F802004A9B1B7A61
:1059000045493000A047012038E0210012A802F0EC
:1059100076FC2000FDF7AAF88046489918A802F006
:105920006EFC4898FDF7A2F806001EAD49992800C4
:1059300002F065FC4998FDF7C6F8070024AC4A99C7
:10594000200002F05CFC4A98FDF797F8049003945D
:1059500002970195009618AB424612A908A8FFF7D6
:1059600019FE249B052B0DDC1E9B052B0CDC189BC4
:10597000052B0BDC129B052B0ADC002042B080BCFF
:10598000B846F0BD19F042FE19F040FE19F03EFE97
:1059900019F03CFE21002AA802F031FC2000FDF79E
:1059A00065F88046489930A802F029FC4898FDF730
:1059B0005DF8060036AC4999200002F020FC4998B9
:1059C000FDF781F807003CAD4A99280002F017FC6A
:1059D0004A98FFF773F80490039502970194009694
:1059E00030AB42462AA908A8FFF740FC3C9B052B98
:1059F0000ADC369B052B09DC309B052B08DC2A9B37
:105A0000052B07DC0020B9E719F000FE19F0FEFDB8
:105A100019F0FCFD19F0FAFD5C270210F0B5CE4636
:105A2000474680B585B004000D00CF68002F3AD0FE
:105A300000283AD000293AD00B685968436D98473E
:105A40000600002C35D0002D35D02B689968200039
:105A5000636D98478046002C2FD0002D2FD02B68E7
:105A6000D9682000636D98478146002C29D0002D0D
:105A700029D06B6859682000636D9847AA68002A8E
:105A800023D0337A032B3DD0092B30D0012B1ED0ED
:105A900065691800FBF7E6FF0200337A1F49200012
:105AA000A84701201EE019F0B1FD19F0AFFD19F073
:105AB000ADFD19F0ABFD19F0A9FD19F0A7FD19F026
:105AC000A5FD19F0A3FD19F0A1FD19F09FFD3A788D
:105AD00002904B4601934346009333002900200077
