:020000041000EA
:1000000000B5324B212058609868022188439860DF
:10001000D860186158612E4B002199600221596106
:100020000121F02299502B49196001219960352056
:1000300000F044F80222904214D00621196600F024
:1000400034F8196E01211966002018661A6600F04E
:100050002CF8196E196E196E052000F02FF8012189
:100060000842F9D1002199601B49196000215960AB
:100070001A491B48016001219960EB211966A021F2
:10008000196600F012F800219960164914480160C1
:100090000121996001BC002800D000471248134993
:1000A000086003C880F30888084703B5996A0420EC
:1000B0000142FBD001200142F8D103BD02B5186610
:1000C0001866FFF7F2FF186E186E02BD00000240BE
:1000D000000000180000070000035F00212200005C
:1000E000F4000018222000A00001001008ED00E03C
:1000F00000000000000000000000000074B24E7A12
:1001000000200420F7010010C3010010C5010010F9
:10011000C1010010C1010010C1010010C101001097
:10012000C1010010C1010010C1010010C701001081
:10013000C1010010C1010010C9010010CB01001065
:10014000CD010010CD010010CD010010CD01001037
:10015000CD010010CD010010CD010010CD01001027
:10016000CD010010CD010010CD010010CD01001017
:10017000CD010010CD010010CD010010CD01001007
:10018000CD010010CD010010CD010010CD010010F7
:10019000CD010010CD010010CD010010CD010010E7
:1001A000CD010010CD010010CD010010CD010010D7
:1001B000CD010010CD010010CD010010CD010010C7
:1001C00000BE00BE00BE00BE00BE00BEEFF3058054
:1001D000103800BEF2EB8871ACE30210D0E30210DD
:1001E0003402001090A31AE700201F49086006C8D7
:1001F00081F3088810471D48006800282FD10DA4FE
:100200000ECC002902D000F012F8F9E71849194A7B
:10021000002000E001C19142FCD1174988471749ED
:1002200088471749884700BEFDE701C901C29A42C5
:10023000FBD37047D0E30210C0000020B42400209C
:10024000C40703100000042000000420C4070310AA
:10025000001004200010042000000000704709482E
:1002600014F054FD0047000008ED00E0000000D04D
:10027000B8240020A8330020593A01104904001086
:10028000173A01105756000006005250ABB36053A6
:1002900060BD021006005250861C030270BD0210A1
:1002A000060052505422A29D80BD021005005250FB
:1002B000DE65F468C4070310F8B5C04610B5064CF7
:1002C0002378002B07D1054B002B02D0044800E017
:1002D00000BF0123237010BDC025002000000000D6
:1002E00018240210044B10B5002B03D00349044816
:1002F00000E000BF10BDC04600000000C425002083
:10030000182402100023036043608360704710B517
:1003100003685B69984710BD10B503689B699847EF
:1003200010BD0000034B044A1A60044A1A60044AD4
:100330001A607047282600207C760210547602103E
:100340003876021010B5040020290CD00022A42316
:10035000E358934209D95301E318181D9B698B4256
:1003600004D00132F3E7002000E0002010BD0000BF
:10037000034B0360034B0360034B03607047C046AD
:100380007C7602105476021038760210034B03601C
:10039000034B0360034B03607047C0467C7602103A
:1003A000547602103876021010B5C423C458052CB8
:1003B00001D8002302E020F083F801339C4208D9E1
:1003C000C218A83212788A42F7D12C339B001858F1
:1003D00000E0002010BDF8B505000E00002400E08C
:1003E0000134A423EB58A3420ED96301EB181F1D5F
:1003F0009B69202BF4D16301EB18D869310021F0FF
:10040000BBF80028ECD100E000273800F8BD7047A9
:1004100010B50068FFF7FBFF10BD704710B500680E
:10042000FFF7FBFF10BD704710B50088FFF7FBFF1B
:1004300010BD10B504000068FFF7E9FF201810BDDB
:1004400010B5FFF7F6FF10BDF0B5C64600B5B84CC5
:10045000A5440023B74A1360B74A1360B74BB84AA4
:100460006A441360B64A6A44B64B1A6016F034F810
:10047000FA20800012F0CAFB192011F04FFAD023A5
:100480001B06802292045A620024182C0DDCD02511
:100490002D068026B6046E61FA2012F0B7FBAE611D
:1004A000FA2012F0B3FB0134EFE7A74815F0D8FFAC
:1004B000A44B1868A54900F0B5FC0023A44A1370AA
:1004C000A44A13705DE3002072E3002277E3032364
:1004D000A14904A800F0A6FC74E3A04818F0FEFAB5
:1004E000002800D175E39E4B9E4A1A609E4A1A600E
:1004F0009E4A1A600022A4215A5020315A500431D9
:100500005A509B481FF0E4FF944818F003FB60E347
:10051000934AA423D158042933D891484D01AC46BD
:10052000844463461E1D2BAB3200E0CBE0C2E0CB1F
:10053000E0C260CB60C2032663469E610131A42302
:10054000C150C4214358C218A83216701A002C3268
:100550009200884D1550013343502BA804F014FA33
:100560007F4803685B6904219847002813D07C4AC0
:10057000C823D058002836D004227F4900F052FC0E
:1005800031E02433D0580028E7D0C33B03227B4915
:1005900000F048FCE1E7724AA423D158042936D878
:1005A0006F484D0104239C46A846804443461E1DC7
:1005B0002BAB3200E0CBE0C2E0CBE0C260CB60C24C
:1005C000434662469A610131A423C150C421435875
:1005D000C218A832654615701A002C329200684D78
:1005E0001550013343502BA805F0FEFD5C4803680D
:1005F0005B6909219847002813D0594AC823D0586D
:10060000002833D009225C4900F00CFC2EE0243392
:10061000D0580028E7D0C33B0422584900F002FC20
:10062000E1E74F4AA423D158042933D84C484D015F
:10063000AC46844463461E1D2BAB3200E0CBE0C2C7
:10064000E0CBE0C260CB60C2092663469E61013107
:10065000A423C150C4214358C218A83216701A00EE
:100660002C329200474D1550013343502BA807F010
:1006700013FF3B4803685B6911219847002813D09A
:10068000374AC823D058002833D011223A4900F005
:10069000C9FB2EE02433D0580028E7D0C33B092201
:1006A000364900F0BFFBE1E72D4AA423D1580429C5
:1006B00033D82B484D01AC46844463461E1D2BABFA
:1006C0003200E0CBE0C2E0CBE0C260CB60C21126DA
:1006D00063469E610131A423C150C4214358C2180E
:1006E000A83216701A002C329200274D1550013393
:1006F00043502BA808F056FE194803685B6919217E
:100700009847002842D0164AC823D058002862D003
:100710001922194900F086FB5DE02433D0580028E7
:10072000E7D0C33B1122154900F07CFBE1E7C0464E
:10073000500FFFFFF0250020EC25002018A9021023
:10074000ACF00000F4250020B8700210D070021048
:100750009A33002099330020F8700210DC25002025
:100760002826002038760210547602107C7602107B
:10077000250300106D1300104071021090710210DB
:10078000510F0010991100107D150010B34AA423D9
:10079000D15804295DD8B1484D01AC468444634624
:1007A0001E1D2BAB3200E0CBE0C2E0CBE0C260CB41
:1007B00060C2192663469E610131A423C150C42141
:1007C0004358C218A83216701A002C329200A44D59
:1007D0001550013343500023029304AB0193F023DF
:1007E0001B0200932BAB9D4A210005A80CF064FE70
:1007F00005A80DF0DBF8002105A80CF08BFE041E07
:1008000031D063691B68042B38D163695B68012BA5
:1008100042D163699B68802B4BD16369DB68032BF2
:1008200055D163691B69012B5FD1237F012B69D1EE
:10083000A2698C4904A800F0F5FA0022A3699B087C
:1008400093426CD993008849C9582069C15001323C
:10085000F4E72433D0580028BDD0C33B1922834984
:1008600000F0E0FAB7E7824B18685423814A8249C6
:1008700000F0D8FA814B01221A70C2E77C4A106856
:1008800001930423009351337A4A7D4900F0CAFA58
:100890007A4B01221A70B8E7754A10680193012556
:1008A00000955723734A774900F0BCFA734B1D70CB
:1008B000AFE76F4A1068019380230093283B6D4A8D
:1008C000714900F0AFFA6D4B01221A70A5E7684A32
:1008D00010680193032300935633664A6B4900F076
:1008E000A1FA664B01221A709BE7614A10680193D6
:1008F000012500955A235F4A654900F093FA5F4B42
:100900001D7092E75A4A10680193012500955C23F7
:10091000584A604900F086FA584B1D7088E705A8D0
:100920000DF02AF90500061E2DD1002E30D1002130
:1009300005A80CF0ADFE050043691B68022B35D1FC
:100940006B695B68012B3FD16B699B68042B48D1B5
:100950002B7F012B53D12B6918685D689F68DE6877
:10096000291C15F051FA002856D1391C281C15F005
:1009700043FA00285BD1311C281C15F03DFA0028F1
:1009800060D10022A0E0444904A800F04BFACCE773
:10099000374B18680195002300936A33354A3F4965
:1009A00000F040FA354B01221A70C0E7304A106857
:1009B0000193022300936C332E4A394900F032FA36
:1009C0002E4B01221A70BBE7294A106801930126B9
:1009D00000966F23274A334900F024FA274B1E70F4
:1009E000B2E7234A10680193042300936C33214A31
:1009F0002D4900F017FA214B01221A70A8E71C4A72
:100A0000106801930126009671231A4A274900F0C5
:100A100009FA1A4B1E709EE7154B18687E23154A7B
:100A2000234900F0FFF9154B01221A709DE7104B86
:100A300018687F230F4A1F4900F0F4F90F4B012279
:100A40001A7098E70A4B186880230A4A1A4900F07E
:100A5000E9F90A4B01221A7093E7C04628260020C4
:100A60009917001004A502109C76021090710210D4
:100A7000F4250020D4710210307202109933002046
:100A80005472021088720210C0720210F8720210C2
:100A90003073021068730210A4730210B473021052
:100AA000EC7302102074021058740210907402103B
:100AB000CC740210F47402102075021093009A494D
:100AC000C9582069C1500132A3699B089342F5D8E7
:100AD00005A80DF051F80400051E00D08FE0002D90
:100AE00000D091E0002105A80CF0D2FD040043697C
:100AF0001B68022B00D095E063695B68012B00D076
:100B00009EE063699B68042B00D0A6E0237F012B45
:100B100000D0B0E0236918685E689C68DD68211C1D
:100B200015F072F9002800D0B2E0211C301C15F03D
:100B30006BF9002800D0B6E0291C201C15F05CF9E8
:100B4000002800D0BAE005A80CF023FC774B0493F2
:100B5000774B0493774B01221A70774B1A78002A4F
:100B600000D1B6E0002375490868844663440B60F1
:100B7000002A00D1AFE00123714A11688C4663441A
:100B800013606C4B1B78002B00D0A6E0674B0493DE
:100B90006C48FFF755FC0400FFF740FC251A2800BD
:100BA000FFF742FC042800D88DE4281DFFF73CFC29
:100BB000002800D189E42018FFF72AFC0200032A4C
:100BC00000D084E4604B1B78BFF35B8FDB0700D45D
:100BD00083E42BA801F07CFF5C4803685B69032178
:100BE0009847002800D193E4584AC823D0580028D9
:100BF00000D1B2E40322564900F014F9ADE455499E
:100C000004A800F00FF96AE7534B18680194002319
:100C100000938D33514A524900F004F9464B0122AA
:100C20001A705FE74C4A10680193022300938F33D8
:100C30004A4A4C4900F0F6F83F4B01221A705BE734
:100C4000454A10680193012500959223434A46497D
:100C500000F0E8F8384B1D7053E73F4A10680193E5
:100C6000042300938F333D4A404900F0DBF8324BB8
:100C700001221A704AE7384A10680193012500954D
:100C80009423364A3A4900F0CDF82B4B1D7041E7CA
:100C9000314B18689B23314A364900F0C3F8264B84
:100CA00001221A7041E72C4B18689C232B4A3249C9
:100CB00000F0B8F8204B01221A703DE7264B186867
:100CC0009D23264A2D4900F0ADF81B4B01221A70D6
:100CD00039E7012347E700234EE7184B1A68184C01
:100CE0002368D3181C490868254900F09BF824683C
:100CF000002C12D12349184B186800F093F80B4BC5
:100D0000214A6A4413600A4B1F4A6A441360200058
:100D10001E4B9D4480BCB846F0BD1D490E4B186863
:100D200000F080F80124EAE79C7C021018A9021068
:100D3000247602109A33002099330020F0250020F9
:100D4000EC25002018240210DC2500202826002095
:100D500040710210A4730210F4250020D471021017
:100D6000B4730210EC730210207402105874021055
:100D7000907402104C75021078750210A475021060
:100D8000D4750210E8750210ACF00000B0F000005D
:100D90000076021001308000704700000D281DD839
:100DA0008000104B1B589F460F4870470F48FCE7C8
:100DB0000F48FAE70F48F8E70F48F6E70F48F4E75F
:100DC0000F48F2E70F48F0E70F48EEE70F48ECE76F
:100DD0000F48EAE70F48E8E70F48E6E70F48E4E77F
:100DE0000F48E2E7248302101C830210B482021031
:100DF000BC820210C4820210CC820210D482021083
:100E0000DC820210E4820210EC820210F8820210EE
:100E1000048302100C830210148302109C820210BF
:100E2000AC8202100EB400B582B003AA02CA0192CD
:100E300003689B68984702B008BC03B018470CB41D
:100E400000B583B004AA02CA019203689B68984760
:100E500003B008BC02B01847052803D88300024A33
:100E6000D3589F46002070475C830210002803D0AF
:100E7000012803D1013070470120FCE70020FAE788
:100E800010B5002806D0002906D0002A06D0002B75
:100E900006D010BD1FF014FB1FF012FB1FF010FB5B
:100EA0001FF00EFB10B513000C2836D883001F4A24
:100EB000D3589F460A230B70002010BD01230B70EE
:100EC000FBE70B230B700020F7E707230B700020D4
:100ED000F3E702230B700020EFE703230B700020E1
:100EE000EBE709230B700020E7E704230B700020D9
:100EF000E3E70D230B700020DFE705230B700020D4
:100F0000DBE706230B700020D7E708230B700020D7
:100F1000D3E70C230B700020CFE700220A700200F9
:100F200003491800FFF77EFF0120C6E798830210EF
:100F300074830210704710B50078FFF7FBFF10BDF7
:100F4000704710B5007840B2FFF7FAFF10BD0000FF
:100F5000F0B5C64600B584B00400884615001E00F2
:100F6000FFF78EFF2B681B6804221C21280098477E
:100F700007001C22002115F0CFF802950397002FDF
:100F80000DD02000FFF74AFA251A2800FFF74CFA87
:100F90000A2810D928000A30FFF746FA0CE07A4BED
:100FA00001937A4B00937A4B7A4A41464046FFF7C9
:100FB00046FF0124BDE00020002803D02018FFF7E1
:100FC000BAFF00E00020022818D12000FFF726FA1F
:100FD000251A2800FFF728FA0C2804D928000C301D
:100FE000FFF722FA00E000202418002804D0200097
:100FF000FFF70EFA241802E0002400E00024002C81
:1010000000D191E025002000FFF708FA241A200003
:10101000FFF70AFA042800D899E0201DFFF704FA28
:10102000002800D195E02818FFF78BFFC0B2FFF72A
:101030001DFF3870039F2800FFF7F0F92C1A2000DD
:10104000FFF7F2F9062800D885E0A01DFFF7ECF9BC
:10105000002800D181E02818FFF7E0F97860039CB0
:101060002800FFF7DBF92F1A3800FFF7DDF9082811
:1010700000D874E038000830FFF7D6F9002800D116
:101080006FE02818FFF7CAF9A0602800FFF7C6F93B
:101090002F1A3800FFF7C8F90A2864D938000A3037
:1010A000FFF7C2F9002860D02818FFF7B7F9E06011
:1010B0002800FFF7B3F92F1A3800FFF7B5F90C280D
:1010C00055D938000C30FFF7AFF9002851D0281857
:1010D000FFF737FFC0B2FFF7BFFE20742800FFF70D
:1010E0009DF92F1A3800FFF79FF90E2843D93800D1
:1010F0000E30FFF799F900283FD02818FFF78EF936
:1011000060612800FFF78AF92F1A3800FFF78CF981
:10111000102834D938001030FFF786F9002830D075
:101120002818FFF77BF9A061039B3360002303932A
:1011300000240399002903D0029803685B6898474C
:1011400000230393200004B080BCB846F0BD00200B
:1011500066E700206AE700207AE700207EE70020AB
:101160008CE7002090E700209CE700209FE700200C
:10117000ABE70020AEE70020BDE70120C0E700207C
:10118000CCE70120CFE7C0465084021023040000C2
:10119000CC83021038840210F0B5C64600B584B086
:1011A0000400884615001E00FFF76AFE2B681B68C6
:1011B000012204212800984707000422002114F08E
:1011C000ABFF029503973D1E28D02000FFF726F9BC
:1011D000271A3800FFF728F90A282BD938000A30D7
:1011E000FFF722F9002827D02018FFF7A4FE0828CF
:1011F00028D12000FFF712F9271A3800FFF714F959
:101200000C281BD938000C30FFF70EF924180028E1
:1012100016D02000FFF7FCF8241814E04E4B019381
:101220004E4B00934E4B4F4A41464046FFF707FE58
:1012300001247FE00020D5E70020D8E70020E5E783
:10124000002400E00024002C6FD027002000FFF7CE
:10125000E5F8241A2000FFF7E7F8042852D9201DEA
:10126000FFF7E2F800284FD03818FFF76AFEC0B247
:10127000FFF7F2FD2870039D3800FFF7CFF83C1A06
:101280002000FFF7D1F8082840D920000830FFF7E8
:10129000CBF800283CD03818FFF74DFE431E98418C
:1012A000A870039D3800FFF7B9F83C1A2000FFF73B
:1012B000BBF80A282ED920000A30FFF7B5F800281D
:1012C0002AD03818FFF737FE431E9841E8703800DF
:1012D000FFF7A4F83C1A2000FFF7A6F806281DD94E
:1012E000A01DFFF7A1F800281AD03818FFF729FE33
:1012F000002817D001282BD01B494046FFF792FD4C
:10130000012417E00020ADE70020B0E70020C0E78F
:101310000020C3E70020D2E70020D5E70020E2E765
:101320000020E5E70023039A5370039B33600023FA
:10133000039300240399002903D0029803685B6893
:10134000984700230393200004B080BCB846F0BD4A
:101350000123039A5370E8E75084021067040000E9
:10136000CC8302103884021064840210F0B5C646A3
:1013700000B584B00400884615001E00FFF780FD0C
:101380002B681B68042218212800984707001822A0
:10139000002114F0C1FE02950397002F0DD020000C
:1013A000FFF73CF8251A2800FFF73EF80A2810D965
:1013B00028000A30FFF738F80CE06C4B01936C4BB7
:1013C00000936C4B6C4A41464046FFF738FD0124C0
:1013D000A6E00020002803D02018FFF7ACFD00E0B5
:1013E0000020012818D12000FFF718F8251A28003E
:1013F000FFF71AF80C2804D928000C30FFF714F86E
:1014000000E000202418002804D02000FFF700F896
:10141000241802E0002400E00024002C7BD02500EA
:101420002000FEF7FBFF241A2000FEF7FDFF042832
:1014300000D883E0201DFEF7F7FF002800D17FE0F1
:101440002818FFF77EFDC0B2FFF710FD3870039F2C
:101450002800FEF7E3FF2C1A2000FEF7E5FF062820
:1014600000D86FE0A01DFEF7DFFF00286CD0281821
:10147000FEF7D4FF7860039F2800FEF7CFFF2C1AF9
:101480002000FEF7D1FF082860D920000830FEF7C1
:10149000CBFF00285CD02818FEF7C0FFB8602800FA
:1014A000FEF7BCFF2C1A2000FEF7BEFF0A2851D918
:1014B00020000A30FEF7B8FF00284DD02818FFF7AB
:1014C00040FDC0B2FFF7C8FC38732800FEF7A6FF46
:1014D0002C1A2000FEF7A8FF0C283FD920000C3062
:1014E000FEF7A2FF00283BD02818FEF797FF3861CF
:1014F0002800FEF793FF2C1A2000FEF795FF0E2818
:1015000030D920000E30FEF78FFF00282CD028188D
:10151000FEF784FF7861039B33600023039300246C
:101520000399002903D0029803685B689847002359
:101530000393200004B080BCB846F0BD00207CE7D7
:10154000002080E7002090E7002093E70020A0E73C
:101550000020A3E70020AFE70020B2E70020C1E7AA
:101560000120C4E70020D0E70120D3E75084021017
:10157000F9030000CC83021038840210F0B5C6468F
:1015800000B584B00400884615001E00FFF778FC03
:101590002B681B680422282128009847070028226E
:1015A000002114F0B9FD02950397002F0DD0200003
:1015B000FEF734FF251A2800FEF736FF0A2810D957
:1015C00028000A30FEF730FF0CE06C4B01936C4BA7
:1015D00000936C4B6C4A41464046FFF730FC0124B7
:1015E000A6E00020002803D02018FFF7A4FC00E0AC
:1015F0000020052818D12000FEF710FF251A28002A
:10160000FEF712FF0C2804D928000C30FEF70CFF5F
:1016100000E000202418002804D02000FEF7F8FE87
:10162000241802E0002400E00024002C7BD02500D8
:101630002000FEF7F3FE241A2000FEF7F5FE042832
:1016400000D883E0201DFEF7EFFE002800D17FE0E8
:101650002818FFF776FCC0B2FFF708FC3870039F2C
:101660002800FEF7DBFE2C1A2000FEF7DDFE062820
:1016700000D86FE0A01DFEF7D7FE00286CD0281818
:10168000FEF7CCFE7860039F2800FEF7C7FE2C1AF9
:101690002000FEF7C9FE082860D920000830FEF7B8
:1016A000C3FE00285CD02818FEF7B8FEB8602800FA
:1016B000FEF7B4FE2C1A2000FEF7B6FE0A2851D918
:1016C00020000A30FEF7B0FE00284DD02818FEF7A3
:1016D000A5FEF8602800FEF7A1FE2C1A2000FEF7F8
:1016E000A3FE0C2842D920000C30FEF79DFE0028F6
:1016F0003ED02818FEF792FE38612800FEF78EFED5
:101700002C1A2000FEF790FE0E2833D920000E3050
:10171000FEF78AFE00282FD02818FFF712FCC0B26F
:10172000FFF79AFB3875039B336000230393002473
:101730000399002903D0029803685B689847002347
:101740000393200004B080BCB846F0BD00207CE7C5
:10175000002080E7002090E7002093E70020A0E72A
:101760000020A3E70020AFE70020B2E70020BEE79B
:101770000020C1E70020CDE70020D0E75084021010
:101780005E050000CC83021038840210704710B54B
:101790000068FFF7FBFF10BDF0B5C64600B584B08A
:1017A0000400884615001E00FFF76AFB2B681B68C3
:1017B0000422042128009847002303600295039027
:1017C000071E0DD02000FEF729FE251A2800FEF77F
:1017D0002BFE0A2810D928000A30FEF725FE0CE05F
:1017E0002D4B01932D4B00932D4B2E4A41464046E5
:1017F000FFF725FB01243DE00020002803D020183E
:10180000FFF799FB00E00020092818D12000FEF71F
:1018100005FE251A2800FEF707FE0C2804D928002B
:101820000C30FEF701FE00E000202418002804D050
:101830002000FEF7EDFD241802E0002400E0002463
:10184000002C12D025002000FEF7E8FD241A20000D
:10185000FEF7EAFD04281BD9201DFEF7E5FD002850
:1018600018D02818FFF793FF3860039B33600023DC
:10187000039300240399002903D0029803685B684E
:10188000984700230393200004B080BCB846F0BD05
:101890000020E4E70020E7E7508402104106000042
:1018A000CC83021038840210F0B5CE4600B582B069
:1018B00004000D0001921F0000233B600CF09FFC10
:1018C000009006002000FEF7A9FD231A9946180093
:1018D000FEF7AAFD082804D948460830FEF7A4FD03
:1018E00000E00020002804D02018FEF797FD814674
:1018F00001E001239946832E0FD8202E1FD02B689C
:101900001B684A46009928009847386000280BD089
:10191000002002B080BCB946F0BD009A1E49019873
:10192000FFF780FA0120F4E7009B9E001B4B9A59B9
:101930004B461B490198FFF775FA0120E9E72000A3
:10194000FEF76CFD261A3000FEF76EFD062816D94C
:10195000B01DFEF769FD2418002812D02000FEF704
:1019600057FD2418002C0ED0211D2B685B684A46B9
:1019700028009847386000280BD00020C9E70020D5
:10198000E9E70024EEE707490198FFF74BFA012049
:10199000BFE70120BDE7C04690840210508B0210C3
:1019A000E48402101C850210F0B583B004000D0021
:1019B00017001E000022002313F0AAFC002804D008
:1019C00000233B60336003B0F0BD320020002900EB
:1019D00020F0D2FC00221D4B13F057FC13F0BEFD8B
:1019E00013F020FD04000D1E14DC00290ED080230E
:1019F0001B069C4210D0002D26DC21D033681F33FB
:101A000002DA0023336000243C60DCE780231B06FD
:101A10009842ECD91EF054FD002DECD1EA0F0023C2
:101A200012196B411C001300E10700930194520846
:101A300011430C00019B5D10336801333360DAE71A
:101A400080231B069C42D9D31EF03AFD0000E041E2
:101A5000F8B506000F0015001C000022094B13F01A
:101A600075FC002809D023002A0030003900FFF758
:101A70009BFF2368002B02DBF8BD1EF021FD1EF04A
:101A80001FFDC0460000F03F30B585B013F0FDFBF0
:101A900004000D0080200006089BD84013F06EFC67
:101AA00022002B0013F0F1FB00900191094A0A4B30
:101AB0000292039313F04AFC002808D16B46186881
:101AC00059680A9B099AFFF7C3FF05B030BD02AB06
:101AD000F5E7C0460000C0FFFFFFDF41F0B5C64696
:101AE00000B503000C00012098400138D21A2023D1
:101AF0005B42D3182BD401259D4001239340984687
:101B000013F03CFC06000F004046290013F07EFC59
:101B100002000B003000390013F0B7FB06000F0085
:101B200020235B42E31817D4012199400120A040F3
:101B300013F06CFC02000B003000390013F087FB3F
:101B400013F05AFD13F032FC80BCB846F0BD2023E0
:101B50009B1A0125DD40D0E720231B1B0121D94022
:101B6000E4E7000030B58BB0019100929D68DC681D
:101B70000395049401280AD0032820D0022845D0D8
:101B80000E9B019A1A600F9B009A1A6013E0291CA1
:101B9000002014F0DCF814F031FA14F065F9241880
:101BA0000594019BA34208DB01AB1B680E9A1360EE
:101BB0000F9B009A1A600BB030BD05ABF5E7291CEE
:101BC000002014F0C4F814F019FA14F04DF920189C
:101BD0000690019B834215DB01AB1B680E9A1360D4
:101BE000291C1E4814F0B3F814F008FA14F03CF95C
:101BF00024180794009BA34206DC6B461B680F9ACF
:101C00001360D8E706ABE8E707ABF7E7291C1448F1
:101C100014F09DF814F0F2F914F026F92018089049
:101C2000019B834216DB01AB1B680E9A1360291CD3
:101C3000FE20800514F08BF814F0E0F914F014F98C
:101C400024180994009BA34206DC6B461B680F9A7C
:101C50001360B0E708ABE7E709ABF7E70000C04067
:101C6000000080BF10B50B6802CB002A10DB8A424F
:101C700010DA920099584B1C0ED000290EDB8368B5
:101C8000002B02D04801181810BD036D9847FBE7E0
:101C90000020F9E70020F7E70020F5E70020F3E750
:101CA00010B54B6802CB002A10DB914210DD920088
:101CB00099584B1C0ED000290EDB8368002B02D0F4
:101CC0004801181810BD036D9847FBE70020F9E79D
:101CD0000020F7E70020F5E70020F3E710B5FFF755
:101CE000C1FF10BDF0B5C64600B582B080461D00EC
:101CF0008868916814F041F8041C14F0EFF80600AD
:101D00000F000021201C14F07FF8002810D0A868D4
:101D100014F0E4F802000B003000390013F097FAD9
:101D2000089B18605960002002B080BCB846F0BD26
:101D300043465C69A123044A00925B00034A0449BC
:101D40004046A0470120EFE7C48D0210648D0210C9
:101D500038840210F0B5C64600B584B080460D0048
:101D600016001C000A9F886814F0B8F802900391CE
:101D7000B06814F0B3F802000B000298039913F056
:101D800084FA02900391002C1AD0A06814F0A6F8EF
:101D900002000B000298039913F047FA02904C00DE
:101DA0006408B86814F09AF802000B000298210049
:101DB00013F04DFA0E4A0F4B13F0B8FA00280BD06F
:101DC0000B9B00933B00320029004046FFF78AFF3F
:101DD00004B080BCB846F0BD43465C693623064A71
:101DE0000092FF33054A06494046A0470120EFE72D
:101DF0007B14AE47E17A943FE08D0210648D0210AF
:101E00003884021030B583B00D001400127F032A0D
:101E10000DD0092A0ED0072A19D0446976230D4A1D
:101E20000092FF330C4A0D49A04701200DE0FF222C
:101E3000002102E07F228021494206980190009310
:101E400023002800FFF78EFE002003B030BD044AB7
:101E50000449F2E7048E0210648D021038840210E7
:101E6000FF7F00000080FFFFF0B5DE4657464E467C
:101E70004546E0B58DB004000D00049205930E7840
:101E8000012E14D045690123039302967D4B0193E3
:101E90007D4B0093D1237D4A7D49A8470126300020
:101EA0000DB0F0BCBB46B246A946A046F0BD049BAF
:101EB0001F78012F0CD04569012303930297714BC2
:101EC0000193744B0093D323704A7149A847E6E706
:101ED000049B5B68002B15D01A689146002A1AD023
:101EE00012689346012A5DDD0A7F092A1CD0072A61
:101EF0001AD04569684B0093E323644A6749A847B1
:101F00003E00CCE74569664B0093DE235F4A634998
:101F1000A8473E00C3E74569624B0093DF235B4A55
:101F20005E49A8473E00BAE7049A127F092A0ED0FC
:101F300065690923039302925B4B01935B4B00930A
:101F4000E523524A52492000A8473E00A7E71E9ABF
:101F500093450ED0656903925B460293544B0193FF
:101F6000544B0093E623494A49492000A8473E00C4
:101F700095E7049A526906929B689B0094466344D5
:101F80005B681E9A93420DD06569039302924A4B97
:101F90000193474B0093E7233C4A3D492000A84763
:101FA0003E007CE7AB680693169B9B689A464B46BF
:101FB0000433079300235F461E00A346A84623E090
:101FC0004B46586813F08AFF04000D00069813F082
:101FD00085FF22002B0013F058F904000D00504635
:101FE00013F07CFF02000B002000290013F02FF9F2
:101FF0000AAB09AAFFF7D8FCB3001C9A0999D15083
:102000001D9A0A99D15001361E9B9E4205DA012F76
:10201000D6DDB300079AD058D4E75C4645462B7FFF
:10202000032B08D02B7F092B21D0032B1FD0072B8C
:102030001DD0002633E7002200230A920B930AAB3F
:102040000193169B0093059B049A41465846FFF75F
:1020500081FE061E00D022E709AB189A0A980B9958
:10206000FFF7A2FC099B5B42199A1360DAE7179B02
:1020700019781B9B00931A9B169A2000FFF7C2FE4B
:1020800006000CE7288E0210448E0210648D0210A8
:102090000C8E0210608E0210AC8E0210388402107A
:1020A0007C8E0210908E0210E88E0210F48E0210C8
:1020B000048F0210148F0210388F021010B5002800
:1020C00001D0006810BD1EF0FBF9002800D00068A8
:1020D000704710B5002801D0006810BD1EF0F0F95F
:1020E000002800D00068704710B5002801D00068B3
:1020F00010BD1EF0E5F9002800D000687047704759
:10210000084070470841704740187047C043704707
:1021100010B5002802D00020FFF7F8FF10BD10B561
:102120000123884200DB00231800FFF7F1FF10BDF8
:1021300010B50123884200DC00231800FFF7E8FFF8
:1021400010BD10B5002801D0006810BD1EF0B8F910
:10215000012808D003280BD002280ED00A4B0B60B0
:102160000A4B136003E000230B60084B13607047B9
:1021700000230B60064B1360F9E7064B0B60FE2350
:102180009B051360F3E7C046FFFF7FFFFFFF7F7FE4
:102190000000C040000080BF10B5836B002B02D050
:1021A0003821984710BD1EF08BF90000F0B5DE46CF
:1021B00057464E464546E0B593B005000C00160064
:1021C0001F0021AB1B780B930B681B68032B0AD0F5
:1021D000022B08D04469664B00935723654A664931
:1021E000A047012011E063681B68012B14D06C69C3
:1021F000012203920293614B0193614B0093582398
:102200005C4A60492800A047012013B0F0BCBB46DF
:10221000B246A946A046F0BD33789846B3689A46C0
:102220007368994673699B4633690D931D9A501ED6
:10223000584301304346012B3FD0022B45D00023A9
:102240000C931E9B581E5B46584301304346012B9E
:1022500043D0022B48D000201E9B013B5A465343DB
:1022600001330138524650431B181C9A9B1A42D422
:1022700001211940DA0FD3185B100F9311911D9BA8
:10228000013B0D9A534301330C9801384A465043A1
:102290001B18DB1B31D401211940DA0FD3185B1056
:1022A0000EAA0E931091229B83CA83C312681A60F0
:1022B0000B9B012B23D10020A7E7380048440138AD
:1022C000494612F04FFD0C90BBE73B004B44181AF7
:1022D000494612F047FD0C90B3E71C985044013872
:1022E000514612F03FFDB7E71C9B5344181A514664
:1022F00012F038FDB0E70023BAE70023CBE7002255
:1023000021002800FFF7AEFC8046012221002800B2
:10231000FFF7A8FC0700022221002800FFF7DEFCDF
:102320008146002221002800FFF7BAFC7B695B6828
:102330000C36229A926A0B9208930792229B5B6A50
:102340000B930693229B30330593229B2C330493EB
:10235000229B20330393229C1C340294019600900C
:102360004B463A0041462800FFF77EFD4DE7C04648
:10237000E08F0210788F021038840210BC97021090
:10238000049002100C8E0210F0B5DE4657464E4601
:102390004546E0B5AFB004000D008E68002E21D098
:1023A000CB689A46002B1FD00022FFF75BFC07008A
:1023B000012229002000FFF755FC81460022290058
:1023C0002000FFF76DFC8046002F0FD0796904C90B
:1023D000002326932692052A0BDC269B052B0ADD7B
:1023E000279809E01EF06CF81EF06AF80023269387
:1023F00005E01EF065F827A8920013F093FE43460F
:10240000002B0BD0596904C9002320932092052A80
:1024100006DC209B052B05DD219804E0209305E0D8
:102420001EF04EF821A8920013F07CFE269B002B94
:1024300000DC96E0052B00DC95E0279B1B68209ACA
:10244000002A00DC91E0052A00DC90E0219A126865
:102450009A4200D08DE02D93209A002A00DC8AE079
:10246000052A00DC89E0219A12682C92934200DD53
:1024700085E02DAB19681C917B699A681D92DB6819
:1024800008931E93269B032B00DC7AE0052B00DCCF
:1024900079E0279BDA681F92209B032B00DC74E015
:1024A000052B00DC73E0219BDB6818934B465B69CE
:1024B00098681990D8681A901B92149142465269F4
:1024C00091681591D26808921692209A032A60DDCD
:1024D000052A60DD219AD26817925B689B009B46B3
:1024E00019002000A36B9847706259462000A36B27
:1024F0009847B0621E9B08931D9A09921A9A1999DF
:102500001698159B9C463B7F06960593634604935D
:10251000039002910192099A0092089B5246290069
:102520002000FFF743FE051E0DD1FB6833614B46CB
:10253000DB6873614346DB68B3613A7F092A2CD0BC
:1025400001235B427363209B052B4EDC269B052BEE
:102550004DDC28002FB0F0BCBB46B246A946A046D1
:10256000F0BD1DF0ADFF279B69E71DF0A9FF219A83
:102570006EE71DF0A5FF1DF0A3FF219A75E72CABB8
:1025800078E71DF09DFF2A9A85E71DF099FF249BAF
:102590008BE71DF095FF249A9EE7FA6852420A9253
:1025A0000B9353469B680D9353465B680C935346BD
:1025B0005B69119353461B690893109373680F93DB
:1025C00033680E93F36A1293336B139314AB18AA08
:1025D0001CA90AA80CF058F8011EB1DD236C3200CA
:1025E0003432200098470500ADE71DF069FF1DF06B
:1025F00067FFF0B5DE4657464E464546E0B5A3B008
:102600000F0003929B462D9B0A21425E13920C21E0
:10261000425E14920E21425E05921021425E0A92A1
:102620000221425E15920421425E1692026B1092C4
:10263000426B0E923A68042A00D080E05A46126833
:10264000042A7ED12F9A12680092042A7BD13A681C
:10265000002A7ADD052A7ADD7A6812682F990968DE
:10266000002976DD052976DD2F99496809689142B0
:1026700074D121922F990968002971DD052971DD36
:102680002F994968096820918A426EDC21AA126854
:1026900017923A68032A6ADD052A6ADD7A68D268E9
:1026A00059460968032966DD052966DD59464968EA
:1026B000C968914264D11F9259460968032961DDB6
:1026C000052961DD59464968C9681E918A425EDC68
:1026D0001FAA126802925A461268002A59DD052A7A
:1026E00059DD5A46526812682F990968032955DD49
:1026F000052955DD2F994968C968914253D11D922A
:102700002F990968032950DD052950DD2F99496863
:10271000C9681C918A424DDC1DAA12680F922E9A3C
:10272000002A4ED01868052846DD5B68002201218A
:10273000904243DD9400E45861430132F8E71DF014
:10274000BFFE1DF0BDFE1DF0BBFE1DF0B9FE7A6898
:1027500084E71DF0B5FE2F99496888E71DF0B0FEAB
:102760001DF0AEFE2F9949688DE720AA8FE71DF076
:10277000A7FE3A6994E71DF0A3FE5946096998E758
:102780001DF09EFE1DF09CFE594609699DE71EAA9C
:102790009FE71DF095FE5A465268A5E71DF090FE92
:1027A0002F990969A9E71DF08BFE1DF089FE2F996D
:1027B0000969AEE71CAAB0E70433B7E70F9B8B4269
:1027C0003AD13B68012B39DD052B39DD7B685B682D
:1027D00008933B68022B36DD052B36DD7B689B6852
:1027E00007935B461B68012B32DD052B32DD5B4610
:1027F0005B685B6809935B461B68022B2EDD052B2B
:102800002EDD5B465B689B6804932F9B1B68012B46
:102810002ADD052B2ADD2F9B5B685B6812932F9BBB
:102820001B68022B26DD052B26DD2F9B5B689B6832
:102830001193002300933DE11DF042FE1DF040FE88
:10284000BB680893C5E71DF03BFEFB680793C8E72C
:102850001DF036FE5B469B680993CCE71DF030FE09
:102860005B46DB680493D0E71DF02AFE2F9B9B6834
:102870001293D4E71DF024FE2F9BDB681193D8E759
:102880001DF01EFE1DF01CFE1DF01AFE1DF018FEB0
:102890001DF016FE1DF014FE1DF012FE1DF010FEC0
:1028A0001DF00EFE1DF00CFE4346B046AB461E006A
:1028B0000136049B9E4266DA059D7543069BED1822
:1028C000F6D4079B9D42F3DA4B46002BF0DB089BC6
:1028D0009945EDDA0024320046465B46AB461D00C2
:1028E0009046029B9C42DFDA3B68042BC8D1009BD8
:1028F000002BC7DB7A689342C4DA4B46002BC3DB5C
:10290000BB689945C0DA5A46002ABFDBF9688B4597
:10291000BCDA002CBCDB3A699442B9DA0098434334
:102920004B444B435B445343E3189B00039A985832
:102930002B68042BAED1002EAEDB6B689E42ABDA67
:102940005346002BAADBAB689A45A7DA4246002A19
:10295000A6DBE9688845A3DA002CA3DB2A69944248
:10296000A0DA734353444B4343445343E3189B005F
:102970002C9A995813F001FA011C019813F0E2F90E
:1029800001900134ADE701239C46E244099B9A453E
:1029900007DA0A9B524653430B9A91469944002604
:1029A00087E72E9B002B54D043469B002E9AD1588C
:1029B000019813F0C7F92F9B1B680193042B4AD190
:1029C000009B002B49DB2F9A52680192934244DA14
:1029D0000C9B002B43DB2F9A9568AB423FDA0D9B93
:1029E000002B3EDB2F9AD1688B423ADA4346002B0C
:1029F00039DB2F9B1A69904535DA009B5D430C9BB0
:102A00009C4665444D430D9B9C4665445543454457
:102A1000AD00309B9C466544199010991A910E9B0D
:102A20001B9313F0E3F900281FD119AC21680E980D
:102A300013F0DCF900281AD123682B6001239C468F
:102A4000E0440F9B984514DA00239A460023019333
:102A50009CE70021ACE71DF033FD1DF031FD1DF0BA
:102A60002FFD1DF02DFD1DF02BFD1AACDEE71BAC7C
:102A7000E2E70D9B01330D930D9A119B9A4207DA01
:102A8000139B5343159A9B1A069300239846D8E745
:102A90000C9B01330C930C9A129B9A4207DA149BFD
:102AA0005343169A9B1A0B9300230D93E4E7009B64
:102AB00001330093009B179A934202DA00230C9390
:102AC000E9E723B0F0BCBB46B246A946A046F0BD3C
:102AD00030B5044B020032CB32C232CB32C212CB01
:102AE00012C230BDC8910210F0B5DE4657464E46C0
:102AF0004546E0B5B7B015001E00107B16AA17A911
:102B0000FFF726FB2B78012B02D0022B00D00023ED
:102B100008AC2370336863807368A3806B6863813B
:102B2000AB68A3812B69E3816B692382179B1493A4
:102B3000169B1593409918A808F04FFB4098FFF793
:102B4000BDFA814641991EA808F047FB4198FFF75E
:102B5000B5FA824624AD4299280008F03EFB42981F
:102B6000FFF7ACFA83462AAE4599300008F035FBF2
:102B70004598FFF7AAFA804630AF4399380008F02D
:102B80002CFB4398FFF7A1FA069005974346049360
:102B900003965B4602930195534600931EAB4A464B
:102BA00018A92000FFF725FD309B052B13DC2A9B7D
:102BB000052B12DC249B052B11DC1E9B052B10DC46
:102BC000189B052B0FDC002037B0F0BCBB46B2468B
:102BD000A946A046F0BD1DF073FC1DF071FC1DF070
:102BE0006FFC1DF06DFC1DF06BFC0000F0B5DE46C7
:102BF00057464E464546E0B5A7B0139114921E00C5
:102C0000319D339B426902920A21425E17920C2148
:102C1000425E18920E21425E04921021425E099299
:102C20000221425E19920421425E1A92C2691292F6
:102C3000816A1F91C26A1E92914276DC3268042A30
:102C400075D12A68042A74D1359A12680092042A30
:102C500071D13268002A70DD052A70DD7268126851
:102C60003599096800296CDD05296CDD35994968BD
:102C7000096891426AD1259235990968002967DD72
:102C8000052967DD35994968096824918A4264DC21
:102C900025AA12681B923268032A60DD052A60DDCE
:102CA0007268D268296803295DDD05295DDD6968E0
:102CB000C96891425BD123922968032959DD05290E
:102CC00059DD6968C96822918A4256DC23AA1268D4
:102CD00001922A68002A52DD052A52DD6A681268CC
:102CE0003599096803294EDD05294EDD3599496876
:102CF000C96891424CD1219235990968032949DD6F
:102D0000052949DD35994968C96820918A4246DC20
:102D100021AA12681192349A002A4DD01868052809
:102D20003FDD5B680022012141E01DF0C9FB1DF081
:102D3000C7FB1DF0C5FB1DF0C3FB1DF0C1FB726896
:102D40008EE71DF0BDFB3599496892E71DF0B8FB91
:102D50001DF0B6FB3599496897E724AA99E71DF05D
:102D6000AFFB32699EE71DF0ABFB2969A1E71DF0BF
:102D7000A7FB1DF0A5FB2969A5E722AAA7E71DF07F
:102D80009FFB6A68ACE71DF09BFB35990969B0E7CA
:102D90001DF096FB1DF094FB35990969B5E720AA53
:102DA000B7E70433BEE79400E45861430132904230
:102DB000F9DC119B8B4238D13368012B37DD052BB1
:102DC00037DD73685B6807933368022B34DD052BAE
:102DD00034DD73689B6806932B68012B31DD052B6E
:102DE00031DD6B685B6808932B68022B2EDD052BA9
:102DF0002EDD6B689B680393359B1B68012B2ADDD6
:102E0000052B2ADD359B5B685B681693359B1B6839
:102E1000022B26DD052B26DD359B5B689B68159311
:102E2000002733003E001F00D6E11DF049FB1DF0D6
:102E300047FBB3680793C7E71DF042FBF3680693AF
:102E4000CAE71DF03DFBAB680893CDE71DF038FBEA
:102E5000EB680393D0E71DF033FB359B9B6816931B
:102E6000D4E71DF02DFB359BDB681593D8E71DF0EB
:102E700027FB1DF025FB1DF023FB1DF021FB1DF0A2
:102E80001FFB1DF01DFB1DF01BFB1DF019FB1DF0B2
:102E900017FB1DF015FBB146464680466046009B79
:102EA0009C460130039B98426BDA04994143059B91
:102EB000C918F6D4069B9942F3DA002EF1DB079B82
:102EC0009E42EEDA00220B006146009184464046A5
:102ED000B0464E469946019B9A42DCDA3B68042B89
:102EE000C5D100990029C4DB7B689942C1DA434609
:102EF000002BC0DBBB689845BDDA4C46002CBCDB20
:102F0000FC68A246A145B8DA002AB8DB3C69A242B7
:102F1000B5DA00994B43434451464B434B4463431A
:102F2000D3183099CC562B68042BAAD10028AADBE1
:102F30006B689842A7DA002EA7DBAB689E42A4DA42
:102F400061460029A3DBE9688B468C459FDA002A9D
:102F50009FDB29698A468A429BDA4343F318594624
:102F60004B43634451464B43D3183299CB56029995
:102F70008A4654445C431D9B9A4654441D94013236
:102F8000A9E701239A46D144089B994507DA099E8F
:102F90004B465E430E9B9A465644002082E76646A7
:102FA00044463195349B002B06D0A300349A9B589D
:102FB0001D9A944663441D931D98A300139AD258FA
:102FC0001499CB58191E00DAB1E0002B00DCB0E0F8
:102FD00000239A468840824200D1ADE00023984603
:102FE000C117D31712F08CFE02000B1E00DAADE001
:102FF0008021C9050A91C9170B910A980B991218DB
:103000004B41D917490049080C9100210D910C98AA
:103010000D9912184B4111005B00CA0F13439946DA
:103020004346002B00D093E05346002B00DA92E099
:103030001F2B00DD96E0012098400138FFF75FF874
:1030400080460020FFF75BF800900120FFF757F85B
:10305000834641464846FFF753F8050001214046A4
:10306000FFF750F8804600994846FFF758F8594650
:10307000FFF746F801004046FFF746F88046514604
:103080004846FFF73FF8814641462800FFF750F8D1
:103090005946FFF735F801004846FFF735F81D900F
:1030A000129B9C4660441D901F9B984261DB1DABA8
:1030B0001B681D931E9A93425DDC1DAB1A681D921E
:1030C000359B1B680093042B57D1002E57DB359B93
:1030D0005B6800939E4252DA0F99002951DB359BC1
:1030E0009B6899424DDA109900294CDB3598C068ED
:1030F000814248DA002C48DB359909698C4244DA70
:1031000073430F9DAC466344434310988446634425
:103110004B43E3183699CA540134119B9C4236DA6A
:1031200000231D939946B446A046319D2CE700210B
:103130004BE75B429A464DE780231B06984202D03C
:10314000002398464CE70123984649E7294951E76F
:10315000294B994668E7B321284B294A4900294859
:1031600010F05CFC6821284B254AFF31254810F0FF
:1031700055FC1FAB9CE71EABA0E71DF0A1F91DF0AD
:103180009FF91DF09DF91DF09BF91DF099F9B346CB
:10319000319D109B01331093109A159B9A4209DAC6
:1031A000179B5343199A9B1A059300235E461C00F4
:1031B0003195B2E75E460F9B01330F930F9A169B32
:1031C0009A4208DA189B53431A9A9B1A0E930023CB
:1031D0001093B346E0E701361B9B9E4202DA0023C0
:1031E0000F93EBE727B0F0BCBB46B246A946A0461A
:1031F000F0BDC046010000C0FFFFFF7F1890021025
:103200002890021084900210E8900210F0B5DE467B
:1032100057464E464546E0B5E7B004001D005369E9
:10322000459316694496012B01D1012E63D02B6979
:103230005B4230AC6361AB69E3619368A38153681F
:103240006381536923821369E3816B68A3802B68D0
:103250006380EB6AA3622B6BE3626B6A9A46AB6A8C
:103260009B46709948A807F0B8FF7098FEF731FFA9
:1032700009904EAF7199380007F0AFFF7198FEF7D3
:1032800028FF804654AD7299280007F0A6FF729877
:10329000FEF757FF81465AAE7399300007F09DFF45
:1032A0007398FEF71DFF069005964B460493039511
:1032B000434602930197099B009348AB5A465146F7
:1032C0002000FFF793FC5A9B052B00DD87E1549B00
:1032D000052B00DD85E14E9B052B00DD83E1489B3E
:1032E000052B00DD81E1002067B0F0BCBB46B24693
:1032F000A946A046F0BD2B695B423E93AB693F9364
:10330000936841935368099340936B6843932B6888
:103310004293EB6A46932B6B47936B6A0A93AB6AB3
:103320000B9371991EA807F058FF709924A807F015
:1033300054FF73992AA807F050FF729930A807F03C
:103340004CFF469A479B9A426BDC249B042B6AD124
:103350001E9B042B69D12A9B042B68D1249B002B34
:1033600067DD052B67DD259B1B682A9A002A64DD33
:10337000052A64DD2B9A12689A4262D165932A9AD3
:10338000002A60DD052A60DD2B9A12686492934260
:103390005DDC65AB1B689846249B032B59DD052B30
:1033A00059DD259BDB681E9A032A56DD052A56DD6A
:1033B0001F9AD2689A4254D163931E9A032A52DD0F
:1033C000052A52DD1F9AD268629293424FDC63ABAA
:1033D0001B6899461E9B002B4BDD052B4BDD1F9B6D
:1033E0001B682A9A032A48DD052A48DD2B9AD268F1
:1033F0009A4246D161932A9A032A44DD052A44DD84
:103400002B9AD2686092934241DC61AB1F6872983C
:10341000FEF75FFE002847D03099052939DD319845
:1034200038E01DF04DF81DF04BF81DF049F81DF087
:1034300047F81DF045F8259B97E71DF041F82B9ABA
:103440009AE71DF03DF81DF03BF82B9A9EE764AB20
:10345000A0E71DF035F8289BA5E71DF031F8229A6A
:10346000A8E71DF02DF81DF02BF8229AACE762AB0F
:10347000AEE71DF025F81F9BB3E71DF021F82E9A4B
:10348000B6E71DF01DF81DF01BF82E9ABAE760ABE9
:10349000BCE731A8002303E09A00125856430133D9
:1034A0009942F9DCB74278D143460E93249B012B15
:1034B00075DD052B75DD259B5B680F93249B022B27
:1034C00071DD052B71DD259B9B6810934B46119395
:1034D00012971E9B012B6ADD052B6ADD1F9B5B6823
:1034E00013931E9B022B66DD052B66DD1F9B9B68DD
:1034F00014934B461593012316931793189319971A
:1035000043461A932A9B012B59DD052B59DD2B9B32
:103510005B681B932A9B022B55DD052B55DD2B9BEE
:103520009B681C931D9700230C930D93696B0029D6
:1035300003DB636C200098470C907098FEF7C9FD80
:1035400004007198FEF7C5FD05007298FEF7F9FDBD
:1035500006007398FEF7C4FD06901AAB0593049617
:1035600016AB0393029512AB019300940EAB0AAA1B
:103570003EA90CA80BF032F8002828D1309B052B6F
:1035800027DC2A9B052B26DC249B052B25DC1E9B98
:10359000052B00DCA7E61CF093FF1CF091FF1CF04C
:1035A0008FFF269B89E71CF08BFF279B8DE71CF084
:1035B00087FF209B94E71CF083FF219B98E71CF07A
:1035C0007FFF2C9BA5E71CF07BFF2D9BA9E71CF040
:1035D00077FF1CF075FF1CF073FF1CF071FF1CF0EF
:1035E0006FFF1CF06DFF1CF06BFF1CF069FF00000B
:1035F000F0B5DE4657464E464546E0B5ABB00E0048
:1036000005921D00359B0A21425E1B920C21425EF1
:103610001C920E21425E07921021425E0C92022102
:10362000425E1D920421425E1E92426903928269AB
:103630000492C2691892026A1492426A1592816ACF
:103640002391C26A2292914276DC3268042A75D1B3
:103650002A68042A74D1379A12680192042A71D117
:103660003268002A70DD052A70DD726812683799A9
:10367000096800296CDD05296CDD379949680968FE
:1036800091426AD1299237990968002967DD052995
:1036900067DD37994968096828918A4264DC29AA5C
:1036A00012681F923268032A60DD052A60DD7268A5
:1036B000D268296803295DDD05295DDD6968C9686F
:1036C00091425BD127922968032959DD052959DDEB
:1036D0006968C96826918A4256DC27AA1268029254
:1036E0002A68002A52DD052A52DD6A681268379975
:1036F000096803294EDD05294EDD37994968C968F7
:1037000091424CD1259237990968032949DD052951
:1037100049DD37994968C96824918A4246DC25AA5F
:1037200012681792369A002A4DD0186805283FDD96
:103730005B680022012141E01CF0C2FE1CF0C0FECB
:103740001CF0BEFE1CF0BCFE1CF0BAFE72688EE7D8
:103750001CF0B6FE3799496892E71CF0B1FE1CF0E8
:10376000AFFE3799496897E728AA99E71CF0A8FEA9
:1037700032699EE71CF0A4FE2969A1E71CF0A0FEB7
:103780001CF09EFE2969A5E726AAA7E71CF098FE73
:103790006A68ACE71CF094FE37990969B0E71CF041
:1037A0008FFE1CF08DFE37990969B5E724AAB7E7AB
:1037B0000433BEE79400E458614301329042F9DCDF
:1037C000179B8B4238D13368012B37DD052B37DD52
:1037D00073685B680A933368022B34DD052B34DD94
:1037E00073689B6809932B68012B31DD052B31DD54
:1037F0006B685B680B932B68022B2EDD052B2EDD8F
:103800006B689B680693379B1B68012B2ADD052B91
:103810002ADD379B5B685B681A93379B1B68022B1A
:1038200026DD052B26DD379B5B689B6819930027F7
:1038300033003E001F00D8E11CF042FE1CF040FEA9
:10384000B3680A93C7E71CF03BFEF3680993CAE725
:103850001CF036FEAB680B93CDE71CF031FEEB6835
:103860000693D0E71CF02CFE379B9B681A93D4E795
:103870001CF026FE379BDB681993D8E71CF020FE6E
:103880001CF01EFE1CF01CFE1CF01AFE1CF018FEA4
:103890001CF016FE1CF014FE1CF012FE1CF010FEB4
:1038A0001CF00EFEB146464680466046019B9C4693
:1038B0000130069B98426EDA07994143089BC9186C
:1038C000F6D4099B9942F3DA002EF1DB0A9B9E4263
:1038D000EEDA00220B006146019184464046B04674
:1038E0004E469946029B9A42DCDA3B68042BC5D1CE
:1038F00001990029C4DB7B689942C1DA4346002B59
:10390000C0DBBB689845BDDA4C46002CBCDBFC68CC
:10391000A246A145B8DA002AB8DB3C69A242B5DA72
:1039200001994B43434451464B434B446343D318A3
:103930000599CC5C2B68042BAAD10028AADB6B6804
:103940009842A7DA002EA7DBAB689E42A4DA614654
:103950000029A3DBE9688B468C459FDA002A9FDBB0
:1039600029698A468A429BDA4343F31859464B43F6
:10397000634451464B43D3183499CB5C04998A462F
:10398000534403998A4654445C43219B9A465444C9
:1039900021940132A6E701239A46D1440B9B994515
:1039A00007DA0C9E4B465E430D9B9A465644002018
:1039B0007FE7664644460195369B002B06D0A30060
:1039C000369A9B58219A9446634421932198159ADC
:1039D000131E00DAB4E0159A002A00DCB2E00022DF
:1039E00092469840149B834200D1AEE00023984653
:1039F000C117149AD31712F083F902000B1E00DAD4
:103A0000ADE08021C9050E91C9170F910E980F994D
:103A100012184B41D9174900490810910021119102
:103A20001098119912184B4111005B00CA0F1343F3
:103A300099464346002B00D093E05346002B00DA12
:103A400092E01F2B00DD96E0012098400138FEF740
:103A500056FB80460020FEF752FB16900120FEF731
:103A60004EFB834641464846FEF74AFB05000121CE
:103A70004046FEF747FB804616994846FEF74FFB47
:103A80005946FEF73DFB01004046FEF73DFB8046F0
:103A900051464846FEF736FB814641462800FEF770
:103AA00047FB5946FEF72CFB01004846FEF72CFB6E
:103AB0002190189B9C4660442190239B984261DB97
:103AC00021AB1B682193229A93425DDC21AB1A68DB
:103AD0002192379B1B681693042B57D1002E57DB7E
:103AE000379B5B6816939E4252DA1299002951DB8C
:103AF000379B9B6899424DDA139900294CDB379824
:103B0000C068814248DA002C48DB379909698C4249
:103B100044DA7343129DAC4663444343139884468E
:103B200063444B43E3183899CA540134179B9C42B1
:103B300036DA002321939946B446A046019D2DE72D
:103B4000002348E7524292464BE780231B069842E7
:103B500002D0002398464BE70123984648E72949BD
:103B600051E7294B994668E7B321284B284A490079
:103B700028480FF053FF6821274B254AFF3125487D
:103B80000FF04CFF23AB9CE722ABA0E71CF098FCA6
:103B90001CF096FC1CF094FC1CF092FC1CF090FCB9
:103BA000B346019D139B01331393139A199B9A42B9
:103BB00009DA1B9B53431D9A9B1A089300235E4608
:103BC0001C000195B2E75E46129B01331293129AD4
:103BD0001A9B9A4208DA1C9B53431E9A9B1A0D9318
:103BE00000231393B346E0E701361F9B9E4202DA9F
:103BF00000231293EBE72BB0F0BCBB46B246A946BC
:103C0000A046F0BD010000C0FFFFFF7F189002102A
:103C10002890021084900210E8900210F0B5DE4661
:103C200057464E464546E0B5B5B019694D4259690B
:103C300048429E691178012902D0022900D0002152
:103C400008AC2170196861805968A1805168618150
:103C50009168A1811169E181526922820D950E90CE
:103C60000F96DA6910921A6A52421192DA6A129227
:103C70001B6B13933E9916A807F0AFFA3E98FEF718
:103C800033FA81463F991CA807F0A7FA3F98FEF740
:103C90002BFA824622AD4099280007F09EFA409800
:103CA000FEF74FFA834628AE4399300007F095FAA5
:103CB0004398FEF720FA80462EAF4199380007F06E
:103CC0008CFA4198FEF717FA0023079306900597A0
:103CD0004346049303965B46029301955346009333
:103CE0001CAB4A4616A92000FFF782FC2E9B052B31
:103CF00013DC289B052B12DC229B052B11DC1C9B63
:103D0000052B10DC169B052B0FDC002035B0F0BC1A
:103D1000BB46B246A946A046F0BD1CF0D1FB1CF044
:103D2000CFFB1CF0CDFB1CF0CBFB1CF0C9FB000053
:103D3000F0B5CE46474680B587B004000D00CB688D
:103D40009946002839D0002939D00B685968436D4D
:103D500098470600002C34D0002D34D02B68996889
:103D60002000636D984707002B681B68032B2CD03D
:103D700000239846002C37D0002D37D06B68596847
:103D80002000636D9847AB68002B31D0327A017AFE
:103D90008A422FD06569D32303910292374A019258
:103DA000374A00925B00374A37492000A847012074
:103DB00007B0C0BCB946B046F0BD1CF081FB1CF09A
:103DC0007FFB1CF07DFB1CF07BFB002C08D0002D42
:103DD00008D02B68D9682000636D98478046C9E7F2
:103DE0001CF06EFB1CF06CFB1CF06AFB1CF068FB0B
:103DF0001CF066FB397A8A4205D0636923492000AA
:103E000098470120D4E7032A2AD0092A1BD0012A87
:103E10000AD065691000FCF7C1FF0200337A1C4923
:103E20002000A8470120C3E70590002204920392D6
:103E300042460292019700964A4629002000FEF76A
:103E400053FE0020B4E700220492039042460292FF
:103E5000019700964A4629002000FFF7D7F9A7E707
:103E60000590002204920392424602920197009626
:103E70004A4629002000FFF7D1FE99E7F89002108A
:103E800008910210788F02100C8E0210149102100B
:103E9000AC91021010B5836B002B02D038219847EB
:103EA00010BD1CF00DFB0000F0B5DE4657464E4637
:103EB0004546E0B591B005000C0016000B931DAB14
:103EC0001B7898460B681B68032B0AD0022B08D07E
:103ED00044695F4B009349235E4A5F49A047012034
:103EE00011E063681B68012B14D06C6901220392F6
:103EF00002935A4B01935A4B00934A23554A59490E
:103F00002800A047012011B0F0BCBB46B246A9462C
:103F1000A046F0BD01235B421E9A5363B3689B46E3
:103F200073689A463778012F34D0022F3AD0002395
:103F30009946012F3FD0022F45D00023013B5A461E
:103F400053431C9A944663441A9A9B1A44D4012101
:103F50001940DA0FD3185B100D930F9148460138C2
:103F6000534658431B9B9C4660440B9BC71A35D451
:103F700001213940FB0FDF197F100CAA0C970E911D
:103F80001E9B83CA83C312681A604346012B27D144
:103F90000020B8E70B9850440138190010F0E2FEF9
:103FA0008146C6E70B9850441B9BC01A514610F03F
:103FB000D9FE8146BDE71A9858440138594610F099
:103FC000D1FE0300BAE71A9858441C9BC01A594600
:103FD00010F0C8FE0300B1E70023B8E70027C7E7E9
:103FE000002221002800FDF73DFE8046012221002D
:103FF0002800FDF737FE0700022221002800FDF708
:104000006DFE8146002221002800FDF749FE7B69F4
:104010001B6910361E9A926A0B92089307921E9B98
:104020005B6A0B9306931E9B303305931E9B2C33C8
:1040300004931E9B203303931E9C1C340294019610
:1040400000904B463A0041462800FDF70DFF5AE725
:10405000E08F0210E891021038840210BC97021021
:10406000049002100C8E0210F0B5DE4657464E4604
:104070004546E0B5BBB004000D008F68002F56D058
:10408000CB689A46002B54D00022FDF7EBFD0600CA
:10409000012229002000FDF7E5FD804600222900CD
:1040A0002000FDF7FDFD0A90337F9B467369DA68B7
:1040B00006929B68079343465B69DA6808929A68A0
:1040C00009925A46092A36D01B699B009946190065
:1040D0002000A36B9847786249462000A36B98475D
:1040E000B86204975B460393099B0293089B019374
:1040F000079B0093069B524629002000FFF7D4FE41
:10410000814600280BD1F3683B614346DB687B6145
:104110000A9BDB680B93BB61337F092B65D0484654
:104120003BB0F0BCBB46B246A946A046F0BD1CF071
:10413000C7F91CF0C5F9424612789146012A0FD002
:104140006569012303930292C34B0193C34B009310
:104150008023C34AC3492000A84701239946DEE7CC
:1041600042465268002A14D0116800291AD05068BB
:10417000002820D00A68012A26D019698A4223D053
:104180006569B94B00938A23B54AB8492000A8470E
:10419000C5E76569B64B00938723B14AB349200050
:1041A000A847BCE76569B34B00938823AC4AAF4985
:1041B0002000A847B3E76569AF4B00938923A84A5D
:1041C000AA492000A847AAE701688A4200D17BE7F4
:1041D000656903910292A94B0193A94B00938E2329
:1041E0009F4AA0492000A84799E7002E00D1D3E0BC
:1041F000716904C9002319931992052A00DDCEE0E4
:10420000199B052B00DCCCE01A98920011F08AFF74
:104210000A9B002B00D1C6E00A9B596904C9002300
:104220001F931F92052A00DDBFE01F9B052B00DCBA
:10423000BDE02098920011F075FF4346002B00D19D
:10424000B7E0596904C9002325932592052A00DDAA
:10425000B1E0259B052B00DCAFE02698920011F021
:1042600061FF199B042B00D0A9E0259B042B00D0F3
:10427000A7E01F9B042B00D0A5E0199B002B00DCBE
:10428000A3E0052B00DCA2E01A9B1B681F9A002A02
:1042900000DC9EE0052A00DC9DE0209A12689A422C
:1042A00000D09AE039931F9A002A00DC97E0052A93
:1042B00000DC96E0209A12683892934200DD92E08A
:1042C00039AB1B681F9A032A00DC8EE0052A00DC4C
:1042D0008DE0209AD2682599032900DC89E0052920
:1042E00000DC88E02699C968914200D085E03792C9
:1042F0002599032900DC82E0052900DC81E026996C
:10430000C96836918A427EDC37AA1268012B7CD1BB
:104310000D9307990E9106990F911999032976DD4E
:10432000052976DD1A99C968109101211191099921
:10433000129108991391149215931F9B012B6ADD1A
:10434000052B6ADD209B5B6816931F9B022B66DDA5
:10435000052B66DD209B9B68179318927B68319331
:104360003B68309315AB11AA0DA92BA80BF0FDFBF0
:10437000011E5EDD236C3A0034322000984700288D
:104380005AD0259B052B4EDC1F9B052B4DDC199B22
:10439000052B4CDC8146C2E60023199338E71CF05C
:1043A0008FF81AA831E71F9347E71CF089F820A877
:1043B00040E7259355E71CF083F826A84EE71CF04C
:1043C0007FF81CF07DF81CF07BF81CF079F81A9B44
:1043D0005CE71CF075F8209A61E71CF071F81CF09E
:1043E0006FF8209A68E738AB6BE71CF069F8239AFE
:1043F00071E71CF065F8299976E71CF061F81CF06C
:104400005FF829997DE736AA7FE71CF059F81CF080
:1044100057F81D9988E71CF053F8219B94E71CF08E
:104420004FF8229B98E71CF04BF81CF049F81CF061
:1044300047F801235B427B63259B052B08DC1F9B10
:10444000052B07DC199B052B00DC68E61CF038F80F
:104450001CF036F81CF034F8288E0210608E021022
:10446000E89102100C8E021078920210388402102B
:104470007C8E0210908E021058920210FC92021054
:10448000148F0210F0B5DE4657464E464546E0B55D
:10449000A3B088460A929A462D9B0A21425E119249
:1044A0000C21425E12920E21425E93461021425E22
:1044B00000920221425E13920421425E1492122164
:1044C000425E10920F92026B1592426B0E92424620
:1044D0001268042A00D0B9E052461268042A00D0BB
:1044E000B6E02F9A12680192042A00D0B2E0424648
:1044F0001268002A00DCAFE0052A00DCAEE042468C
:10450000526812682F990968002900DCA9E0052982
:1045100000DCA8E02F9949680968914200D0A5E025
:1045200021922F990968002900DCA1E0052900DC0F
:10453000A0E02F994968096820918A4200DD9CE03B
:1045400021AA1268199252461268032A00DC96E0EA
:10455000052A00DC95E052465268D2682F99096816
:10456000032900DC90E0052900DC8FE02F994968E1
:10457000C968914200D08CE01F922F9909680329E5
:1045800000DC88E0052900DC87E02F994968C968CC
:104590001E918A4200DD83E01FAA15684246126818
:1045A000012A7FDD052A7FDD424652685268029269
:1045B00042461268022A7BDD052A7BDD42465268AC
:1045C0009268019242461268032A77DD052A77DD58
:1045D00042465268D268169252461268012A73DD2A
:1045E000052A73DD52465268526806925246126896
:1045F000022A6FDD052A6FDD5246526892689146A5
:104600002F9A1268012A6BDD052A6BDD2F9A5268FA
:10461000526818922F9A1268022A67DD052A67DD10
:104620002F9A526892681792169A10994A43AA4292
:1046300062D11868052861DD5B6800220121904283
:104640005EDD9400E45861430132F8E71BF038FF67
:104650001BF036FF1BF034FF1BF032FF424652685E
:1046600050E71BF02DFF2F99496856E71BF028FFF4
:104670001BF026FF2F9949685EE720AA61E71BF02F
:104680001FFF5246126969E71BF01AFF2F9909694B
:104690006FE71BF015FF1BF013FF2F99096977E7F0
:1046A0001EAA7AE71BF00CFF4246926802927FE74F
:1046B0001BF006FF4246D268019283E71BF000FF21
:1046C00042461269169287E71BF0FAFE524692683C
:1046D00006928BE71BF0F4FE5246D26891468FE7B4
:1046E0001BF0EEFE2F9A9268189293E71BF0E8FEFB
:1046F0002F9AD268179297E71BF0E2FE04339CE7EB
:104700008D4206D1002304935346CA46D9469B46A0
:104710002CE11BF0D5FE1BF0D3FE1BF0D1FE1BF0ED
:10472000CFFE1BF0CDFE1BF0CBFE1BF0C9FE1BF035
:10473000C7FE1BF0C5FE1BF0C3FE1BF0C1FE01341B
:10474000BC426BDA009A72434244534663435B199E
:10475000F5D401998B42F2DA002AF0DB02998A4201
:10476000EDDA494609680429D5D104990029D4DB3A
:10477000484640688142D0DA002AD0DB4946896841
:104780008C468A42CBDA002BCBDB4946C9680891BC
:104790008B42C6DA07980028C5DB494609690991AA
:1047A0008842C0DA604604994843844662440899C6
:1047B0004A439B18099A5343079A944663449B00C3
:1047C0000A9A98585B461B68042BAED15B465B681F
:1047D000002BACDD002EACDB5B469B689E42A8DA6A
:1047E000002CA8DB5B46DB689C42A4DA0399002915
:1047F000A3DB5A46126991429FDA7343E31853438D
:10480000039A944663449B002C9A995811F0B5FA88
:10481000011C059811F096FA059090E70136069B69
:104820009E4201DA00248BE72E9B002B67D0039B6E
:104830009B002E9AD158059811F084FA2F9B1B6883
:104840000593042B5DD1049B002B5CDB2F9A5268EF
:104850000592934257DA0B9B002B56DB2F9A9468F4
:10486000A34252DA0C9B002B51DB2F9AD1688B426A
:104870004DDA039B002B4CDB2F9A1269934248DAE6
:10488000049B5C430B9B9C4664444C430C9B9C46A2
:1048900064445443039B9C466444A400309B9C4660
:1048A00064441B9015991C910E9B1D9311F09EFA68
:1048B000002830D11BAD29680E9811F097FA002816
:1048C0002BD12B6823600D9B01330D930D9A0F9B09
:1048D0009A4224DA109B07994B439446634403930E
:1048E000119D0C9B5D43139BED1A129B0B9A534336
:1048F000149A9B1A98460026002305938FE70021FF
:1049000099E71BF0DDFD1BF0DBFD1BF0D9FD1BF073
:10491000D7FD1BF0D5FD1CADCDE71DADD1E7079B45
:1049200001330793079B169A934202DA00230D93F3
:10493000CCE70C9B01330C930C9B179A934202DA41
:1049400000230793EEE7C846D146BA460B9B0133D6
:104950000B930B9B189A934205DA00230C9357464E
:10496000CA46C146E8E7049B01330493049B199AA5
:10497000934202DA00230B93EBE723B0F0BCBB4673
:10498000B246A946A046F0BD30B5044B020032CB7A
:1049900032C232CB32C212CB12C230BD24930210CB
:1049A000F0B5CE46474680B5B1B015001E00107C6C
:1049B00016AA17A9FDF7CCFB06AC012323703368B8
:1049C00063807368A3806B686381AB68A3816B6944
:1049D000E381AB692382EB686382179B1293169B7A
:1049E0001393389918A806F0F8FB3898FDF766FB82
:1049F000804639991EA806F0F0FB3998FDF75EFB5A
:104A0000814624AD3A99280006F0E7FB3A98FDF775
:104A100055FB07002AAE3B99300006F0DEFB3B98C1
:104A2000FDF753FB04900396029701954B460093C4
:104A30001EAB424618A92000FFF724FD2A9B052B38
:104A40000DDC249B052B0CDC1E9B052B0BDC189B23
:104A5000052B0ADC31B0C0BCB946B046F0BD1BF036
:104A60002FFD1BF02DFD1BF02BFD1BF029FD000081
:104A7000F0B5DE4657464E464546E0B5A9B0199119
:104A80001A929B46339B9A46359B0A21425E1492AA
:104A90000C21425E15920E22875E1022855E022155
:104AA000425E16920421425E17921221425E1392D8
:104AB000129242690A92C2691892816A2391C26A6B
:104AC000229258460068042800D0BEE05046006894
:104AD000042800D0BBE0379800680190042800D07B
:104AE000B7E0914200DDB6E05A461268002A00DCC9
:104AF000B3E0052A00DCB2E05A46526812683799E2
:104B00000968002900DCADE0052900DCACE037993C
:104B100049680968914200D0A9E02792379909684D
:104B2000002900DCA5E0052900DCA4E037994968EC
:104B3000096826918A4200DDA0E027AA12681F9228
:104B400052461268032A00DC9AE0052A00DC99E04C
:104B500052465268D26837990968032900DC94E00C
:104B6000052900DC93E037994968C968914200D073
:104B700090E0259237990968032900DC8CE005292B
:104B800000DC8BE037994968C96824918A4200DDCE
:104B900087E025AA126894465A461268012A00DC6A
:104BA00081E0052A00DC80E05A465268526805928E
:104BB0005A461268022A7CDD052A7CDD5A46526874
:104BC000926890465A461268032A78DD052A78DDF5
:104BD0005A465268D2681B9252461268012A74DD06
:104BE000052A74DD5246526852680792524612688E
:104BF000022A70DD052A70DD524652689668379A9F
:104C00001268012A6CDD052A6CDD379A52685268F9
:104C10001D92379A1268022A68DD052A68DD379AE4
:104C2000526892681C921B9A13994A43624563D159
:104C30001868052862DD5B680022012190425FDD73
:104C40009400E45861430132F8E71BF039FC1BF093
:104C500037FC1BF035FC1BF033FC1BF031FC5A46D3
:104C600052684CE71BF02CFC3799496852E71BF05F
:104C700027FC1BF025FC379949685AE726AA5DE70F
:104C80001BF01EFC5246126965E71BF019FC3799B0
:104C900009696BE71BF014FC1BF012FC37990969DA
:104CA00073E724AA76E71BF00BFC5A46926805923C
:104CB0007EE71BF005FC5A46D268904682E71BF05F
:104CC000FFFB5A4612691B9286E71BF0F9FB52461E
:104CD000926807928AE71BF0F3FB5246D6688EE78C
:104CE0001BF0EEFB379A92681D9292E71BF0E8FBEF
:104CF000379AD2681C9296E71BF0E2FB04339BE7DD
:104D00008C4513D1002306932C003D00C146D846A4
:104D1000D346B246069B1F9A934200DBF3E1002381
:104D20000B935B463393C3469846D8E11BF0C8FB10
:104D30001BF0C6FB1BF0C4FB1BF0C2FB1BF0C0FB4F
:104D40001BF0BEFB1BF0BCFB1BF0BAFB1BF0B8FB5F
:104D50001BF0B6FB1BF0B4FB0132AA426CDA39003F
:104D600061434144019B534302981B18F4D45345BB
:104D7000F2DA0029F0DB05988142EDDA5846006846
:104D80000428D5D106980028D4DB5E467668B04268
:104D9000D0DA0029D0DB5846806881468142CBDAE0
:104DA000002BCBDB5846C06808908342C6DA0398D4
:104DB0000028C5DB58460069060009900398B042F8
:104DC000BEDA4846069E70438146494408984143EE
:104DD0005B1809994B43039989464B443299C9564C
:104DE00063461B68042BADD163465B68002BABDDCB
:104DF000002CABDB63469B689C42A7DA002AA7DB4A
:104E00006346DB689A42A3DA04980028A2DB664670
:104E10003669B0429EDA6343D318734304988146DF
:104E20004B443498C3560A98814649445943219BC0
:104E30009946494421918FE7019E02980134079BCE
:104E40009C4203DA00220196029086E72C0035008E
:104E50003E005B46D34667469A46369B002B07D0FA
:104E6000049B9B00369A9B58219A94466344219355
:104E70002198049B9B00199AD2581A99CB58191E55
:104E800000DAD4E0002B00DCD3E000239846884011
:104E9000824200D1D0E000230193C117D31710F054
:104EA0002FFF02000B1E00DAD0E08021C9050E9111
:104EB000C9170F910E980F9912184B41D917490035
:104EC00049081091002111911098119912184B4125
:104ED00011005B00CA0F13439946019B002B00D0C1
:104EE000B6E04346002B00DAB5E01F2B00DDB9E049
:104EF000012098400138FDF702F901900020FDF7EC
:104F0000FEF808900120FDF7FAF802900199484652
:104F1000FDF7F6F8099001210198FDF7F3F80190EB
:104F200008994846FDF7FBF80299FDF7E9F80100FA
:104F30000198FDF7E9F8019041464846FDF7E2F88F
:104F4000804601990998FDF7F3F80299FDF7D8F822
:104F500001004046FDF7D8F82190189B9C4660441C
:104F60002190239B984200DA83E021AB1B682193B8
:104F7000229A93427FDC21AB19682191379B1B68F1
:104F80000193042B79D1069B002B78DB379A52686A
:104F90000192934273DA0B9A002A72DB379B9B686B
:104FA0009A426EDA0C9A002A6DDB3798C068844604
:104FB000824268DA049A002A67DB379800698242E5
:104FC00063DA069A53430B9A90464344624653432E
:104FD0000C9A944663444343049A94466344389A33
:104FE000D1540D9B01330D930D9A129B9A424EDAC8
:104FF000139B03994B4394466344049314980C9B6E
:105000005843169BC01A159B0B9A5343179A9B1A29
:105010009846002321939C465346DA46339737003F
:105020002E0025006446339A94469B4607E70021EC
:1050300028E75B4298462AE780231B06984202D065
:105040000023019329E70123019326E731492EE745
:10505000314B994645E7B321304B314A490031483D
:105060000EF0DCFC6821304B2D4AFF312D480EF04C
:10507000D5FC23AB7AE722AB7EE71BF021FA1BF0CD
:105080001FFA1BF01DFA1BF01BFA1BF019FAD3468E
:10509000B246B846039B01330393039B1B9A93428A
:1050A00007DA00230D935646DA461E9B9B46474679
:1050B0009AE7A1462C000C9B01330C930C9B1C9A85
:1050C000934204DA0023039325004C46E5E72500CC
:1050D0005446CA461E9B99460B9B01330B930B9B70
:1050E0001D9A934207DA00230C934B461E93D14638
:1050F000A2462C00E2E743463393D8469B46069BE4
:105100000133069306E629B0F0BCBB46B246A94679
:10511000A046F0BD010000C0FFFFFF7F1890021005
:105120002890021084900210E8900210F0B5DE463C
:1051300057464E464546E0B5E9B004001D00936968
:10514000499356694896012B01D1012E68D031ACA4
:10515000012323702B6863806B68A380536863818D
:105160009368A381E68193692382D36863822B6964
:105170005B4263610023A361AB69E36180235B420F
:10518000A362FF33E3626B6A9A46AB6A9B467299ED
:105190004CA806F022F87298FCF79BFF099052AFDA
:1051A0007399380006F019F87398FCF792FF80465F
:1051B00058AD7499280006F010F87498FCF7C1FFF8
:1051C00081465EAE7599300006F007F87598FCF7D9
:1051D00087FF069005964B4604930395434602933A
:1051E0000197099B00934CAB5A4651462000FFF7AC
:1051F0003FFC5E9B052B00DD63E1589B052B00DD2A
:1052000061E1529B052B00DD5FE14C9B052B00DD2E
:105210005DE169B0F0BCBB46B246A946A046F0BD10
:105220002B695B424193AB69429393684593536802
:1052300044936B6847932B68469380235B424A9361
:10524000FF334B93D368099343936B6A0B93AB6A19
:105250000C9373991FA805F0C0FF729925A805F05B
:10526000BCFF75992BA805F0B8FF749931A805F01B
:10527000B4FF4A9A4B9B9A4244DC259B002B43DDAA
:10528000052B43DD269B1B682B9A002A40DD052A4F
:1052900040DD2C9A12689A423ED167932B9A002ADD
:1052A0003CDD052A3CDD2C9A12686692934239DC7B
:1052B00067AB1B6898461F9B032B35DD052B35DD3F
:1052C000209BDB682B9A032A32DD052A32DD2C9ADB
:1052D000D2689A4230D165932B9A032A2EDD052A93
:1052E0002EDD2C9AD268649293422BDC65AB1F684A
:1052F0007498FCF7EEFE002832D03199052923DDA1
:10530000329822E01BF0DCF81BF0DAF8269BBBE7B2
:105310001BF0D6F82C9ABEE71BF0D2F81BF0D0F8A1
:105320002C9AC2E766ABC4E71BF0CAF8239BC9E717
:105330001BF0C6F82F9ACCE71BF0C2F81BF0C0F8A0
:105340002F9AD0E764ABD2E732A8002303E09A009B
:105350001258564301339942F9DCB74200D086E037
:1053600043460F93259B012B00DC82E0052B00DCDC
:1053700081E0269B5B681093259B022B7DDD052B2E
:105380007DDD269B9B681193259B032B79DD052BE7
:1053900079DD269BDB6812931F9B002B75DD052BA7
:1053A00075DD209B1B6813931F9B012B71DD052B63
:1053B00071DD209B5B6814931F9B022B6DDD052B19
:1053C0006DDD209B9B681593169701231793189307
:1053D00019931A9743461B932B9B012B61DD052BD9
:1053E00061DD2C9B5B681C932B9B022B5DDD052BE9
:1053F0005DDD2C9B9B681D931E9700230D930E93E0
:10540000696B002903DB636C200098470D9072984C
:10541000FCF75FFE04007398FCF75BFE05007498D0
:10542000FCF78FFE06007598FCF75AFE06901BAB42
:105430000593049617AB0393029513AB0193009465
:105440000FAB0BAA41A90DA80AF04FFB002830D1E1
:10545000319B052B2FDC2B9B052B2EDC259B052B55
:105460002DDC1F9B052B00DCD3E61BF029F81BF07D
:1054700027F81BF025F8279B7DE71BF021F8289BD8
:1054800081E71BF01DF8299B85E71BF019F8209B8D
:1054900089E71BF015F8219B8DE71BF011F8229B83
:1054A00091E71BF00DF82D9B9DE71BF009F82E9B53
:1054B000A1E71BF005F81BF003F81BF001F81AF048
:1054C000FFFF1AF0FDFF1AF0FBFF1AF0F9FF1AF0C8
:1054D000F7FF0000F0B5DE4657464E464546E0B5BC
:1054E000ABB08B460C929A46359B0A21425E1892CD
:1054F0000C21425E19920E22875E1022855E0221E7
:10550000425E1A920421425E1B921221425E179261
:105510001692816A2591C26A249244690A94846928
:105520000B94C4691C94046A1494406A15905846FC
:105530000068042800D0BEE050460068042800D06F
:10554000BBE0379800680190042800D0B7E0914292
:1055500000DDB6E05A461268002A00DCB3E0052AF6
:1055600000DCB2E05A46526812683799096800298F
:1055700000DCADE0052900DCACE03799496809683A
:10558000914200D0A9E0299237990968002900DCEE
:10559000A5E0052900DCA4E037994968096828914D
:1055A0008A4200DDA0E029AA1268219252461268C0
:1055B000032A00DC9AE0052A00DC99E05246526892
:1055C000D26837990968032900DC94E0052900DCDA
:1055D00093E037994968C968914200D090E02792DA
:1055E00037990968032900DC8CE0052900DC8BE091
:1055F00037994968C96826918A4200DD87E027AA61
:10560000126894465A461268012A00DC81E0052A95
:1056100000DC80E05A465268526804925A4612688A
:10562000022A7CDD052A7CDD5A4652689268904643
:105630005A461268032A78DD052A78DD5A465268F0
:10564000D2681D9252461268012A74DD052A74DD63
:10565000524652685268079252461268022A70DD1A
:10566000052A70DD524652689668379A1268012AF8
:105670006CDD052A6CDD379A526852681F92379AA2
:105680001268022A68DD052A68DD379A5268926836
:105690001E921D9A17994A43624563D118680528DE
:1056A00062DD5B680022012190425FDD9400E458D6
:1056B00061430132F8E71AF003FF1AF001FF1AF014
:1056C000FFFE1AF0FDFE1AF0FBFE5A4652684CE748
:1056D0001AF0F6FE3799496852E71AF0F1FE1AF00F
:1056E000EFFE379949685AE728AA5DE71AF0E8FE05
:1056F0005246126965E71AF0E3FE379909696BE7CC
:105700001AF0DEFE1AF0DCFE3799096973E726AA63
:1057100076E71AF0D5FE5A46926804927EE71AF0B0
:10572000CFFE5A46D268904682E71AF0C9FE5A4622
:1057300012691D9286E71AF0C3FE524692680792DC
:105740008AE71AF0BDFE5246D6688EE71AF0B8FE18
:10575000379A92681F9292E71AF0B2FE379AD2688F
:105760001E9296E71AF0ACFE04339BE78C450ED1EF
:10577000002306932C003D00C146D046B246069B4E
:10578000219A934200DBEBE100230D93D8E11AF05C
:1057900097FE1AF095FE1AF093FE1AF091FE1AF099
:1057A0008FFE1AF08DFE1AF08BFE1AF089FE1AF0A9
:1057B00087FE1AF085FE1AF083FE0132AA426FDAE4
:1057C000390061434144019B534302981B18F4D4B0
:1057D0005345F2DA0029F0DB04988142EDDA5846AD
:1057E00000680428D5D106980028D4DB5E46766888
:1057F000B042D0DA0029D0DB584680688146814229
:10580000CBDA002BCBDB5846C06808908342C6DA5F
:1058100003980028C5DB58460069060009900398E4
:10582000B042BEDA4846069E704381464944089815
:1058300041435B1809994B43039989464B440C99A2
:10584000C95C63461B68042BADD163465B68002BC3
:10585000ABDD002CABDB63469B689C42A7DA002AD9
:10586000A7DB6346DB689A42A3DA05980028A2DB2F
:1058700066463669B0429EDA6343D318734305988F
:1058800081464B443498C35C0B9881464B440A983C
:10589000814649445943239B9946494423918CE7C7
:1058A000019E02980134079B9C4203DA0022019674
:1058B000029083E72C0035003E005B46D3466746E6
:1058C0009A46369B002B07D0059B9B00369A9B5827
:1058D000239A9446634423932398159A131E00DA5F
:1058E000D6E0159A002A00DCD4E0002290469840C9
:1058F000149B834200D1D0E000230193C117149A76
:10590000D31710F0FDF902000B1E00DACFE0802162
:10591000C9051091C91711911098119912184B418E
:10592000D91749004908129100211391129813992F
:1059300012184B4111005B00CA0F13439946019B9B
:10594000002B00D0B5E04346002B00DAB4E01F2B5B
:1059500000DDB8E0012098400138FCF7D0FB019051
:105960000020FCF7CCFB08900120FCF7C8FB02905C
:1059700001994846FCF7C4FB099001210198FCF706
:10598000C1FB019008994846FCF7C9FB0299FCF756
:10599000B7FB01000198FCF7B7FB01904146484670
:1059A000FCF7B0FB804601990998FCF7C1FB02990E
:1059B000FCF7A6FB01004046FCF7A6FB23901C9BCE
:1059C0009C4660442390259B984200DA82E023ABFA
:1059D0001B682393249A93427EDC23AB196823919E
:1059E000379B1B680193042B78D1069B002B77DB38
:1059F000379A52680192934272DA0D9A002A71DB4B
:105A0000379B9B689A426DDA0E9A002A6CDB3798B6
:105A1000C0688446824267DA059A002A66DB3798B6
:105A20000069824262DA069A53430D9A90464344D3
:105A3000624653430E9A944663444343059A944600
:105A40006344389AD1540F9B01330F930F9A169BDE
:105A50009A424DDA179B03994B439446634405934E
:105A600018980E9B58431A9BC01A199B0D9A5343C2
:105A70001B9A9B1A9846002323939C465346DA466A
:105A80003A0037002E002500644694469B460AE7FC
:105A9000002326E75242904629E780231B069842BE
:105AA00002D00023019329E70123019326E730491F
:105AB0002FE7304B994646E7B3212F4B2F4A490039
:105AC0002F480DF0ABFF68212E4B2C4AFF312C489C
:105AD0000DF0A4FF25AB7BE724AB7FE71AF0F0FCC9
