:020000041000EA
:1000000000B5324B212058609868022188439860DF
:10001000D860186158612E4B002199600221596106
:100020000121F02299502B49196001219960352056
:1000300000F044F80222904214D00621196600F024
:1000400034F8196E01211966002018661A6600F04E
:100050002CF8196E196E196E052000F02FF8012189
:100060000842F9D1002199601B49196000215960AB
:100070001A491B48016001219960EB211966A021F2
:10008000196600F012F800219960164914480160C1
:100090000121996001BC002800D000471248134993
:1000A000086003C880F30888084703B5996A0420EC
:1000B0000142FBD001200142F8D103BD02B5186610
:1000C0001866FFF7F2FF186E186E02BD00000240BE
:1000D000000000180000070000035F00212200005C
:1000E000F4000018222000A00001001008ED00E03C
:1000F00000000000000000000000000074B24E7A12
:1001000000200420F7010010C3010010C5010010F9
:10011000C1010010C1010010C1010010C101001097
:10012000C1010010C1010010C1010010C701001081
:10013000C1010010C1010010C9010010CB01001065
:10014000CD010010CD010010CD010010CD01001037
:10015000CD010010CD010010CD010010CD01001027
:10016000CD010010CD010010CD010010CD01001017
:10017000CD010010CD010010CD010010CD01001007
:10018000CD010010CD010010CD010010CD010010F7
:10019000CD010010CD010010CD010010CD010010E7
:1001A000CD010010CD010010CD010010CD010010D7
:1001B000CD010010CD010010CD010010CD010010C7
:1001C00000BE00BE00BE00BE00BE00BEEFF3058054
:1001D000103800BEF2EB8871487A03106C7A031075
:1001E0003402001090A31AE700201F49086006C8D7
:1001F00081F3088810471D48006800282FD10DA4FE
:100200000ECC002902D000F012F8F9E71849194A7B
:10021000002000E001C19142FCD1174988471749ED
:1002200088471749884700BEFDE701C901C29A42C5
:10023000FBD370476C7A0310C00000201C250020FF
:10024000C89E03100000042000000420C89E031074
:10025000001004200010042000000000704709482E
:1002600014F084FE0047000008ED00E0000000D01C
:1002700020250020CC830020B93C0110E5060010A9
:10028000773C01105756000006005250ABB3605344
:1002900008C1021006005250861C030218C1021049
:1002A000060052505422A29D30C102100500525047
:1002B000DE65F468C89E0310F8B5C04610B5064C5C
:1002C0002378002B07D1054B002B02D0044800E017
:1002D00000BF0123237010BD28260020000000006D
:1002E00008360210044B10B5002B03D00349044814
:1002F00000E000BF10BDC046000000002C2600201A
:1003000008360210F0B5CE46474680B585B00023CA
:1003100003930293019301AA02A903A819F0ECF830
:10032000041E29D0039B80221206944663449946FA
:10033000144F3D686E1C3E601349029815F04DFE47
:10034000124B9846AD005851751C3D600E49484609
:1003500015F043FEB600434698516E1C3E600A49B4
:10036000019815F03AFEAD004346585196239B0084
:100370009E4201DB00223A60200005B0C0BCB946B5
:10038000B046F0BD2872002000007A441C7800209E
:1003900070B5040016F0C8F92049214818F050FE45
:1003A0000321042011F0B8FB0321052011F0B4FB58
:1003B00000220121042011F0C7FB002201210520A9
:1003C00011F0C2FBFA20800012F050FD18F04AFF35
:1003D00041280FD0134B00221A70134D280019F03A
:1003E0002DFA2B78012B12D11049200000F030FE9D
:1003F000002070BD0B4B01221A7018F038FF002846
:10040000F2D10B49200000F023FE0120F1E708495A
:10041000200000F01DFE0120EBE7C046801A060018
:10042000801C0020BC830020C583002024360210DD
:1004300008360210F0B5DE4657464E464546E0B552
:1004400083B00D001400674B1B78012B01D00027EF
:100450009CE02E2018F0EAFE634E30702F2018F03A
:10046000E5FE0200614B1870307800021043604BCB
:10047000188008D10027380003B0F0BCBB46B24654
:10048000A946A046F0BD18F036FF594B19885948C7
:1004900018F052FF0026002704E00133564A13608B
:1004A0000136B6B2524B1B88DB08B34272D9F30057
:1004B0005A1C5049885C00029A1C8A5C024312B2A2
:1004C00091464E4A48461080DA1C885C00021A1D8C
:1004D0008A5C024312B24A480280581D085C00023E
:1004E00080460633C85C4346184303B29846454BE2
:1004F00041461980404B1B68042BCED1504215F069
:10050000B9FD071C484615F0B5FD834643465842E1
:1005100015F0B0FD019080231B06F8183A4B994660
:100520001F687B1C98464B4642461A60374915F0B7
:1005300054FD374B9A46BF00D85143465F1C4B468B
:100540001F603249584615F048FD43469B0052460D
:10055000D0507B1C98464B4642461A602B49019866
:1005600015F03BFDBF005346D851234B01221A60C2
:1005700096239B00984504DB4B4600221A60012716
:100580008EE701278CE7FFF7BDFE070018F00AFF92
:100590000028F8D1002F00D16CE71E4B1B68002B00
:1005A00006D0194B1B68C72B02DD1A4B00221A60BC
:1005B000184B1A68002A0BD000275CE796218900A7
:1005C0008C46634491009B0011481B586B500132CC
:1005D000A24200DB4FE70C4B1B68D3181B1BF1D565
:1005E000ECE7C046BC830020C3830020C483002006
:1005F000B283002044260020A41B0020B4830020E6
:10060000B6830020B88300202872002000007A44BE
:100610001C780020A01B0020F8B50022032A0ADC69
:100620002B4B196893001C589B185B189B00294999
:100630005C500132F2E7264A136801331360042B41
:1006400002DD130000221A600026002401277F42E9
:100650001BE0B3009B195B199B001E4A995815F0CB
:10066000A1FC0135042DF4DD1B4915F0A0FC051C8F
:100670007B1C07D0011C201C15F0E8FC002809D1C8
:10068000251C00E0370001362C1C032E04DC00255D
:100690000020E7E73700F6E7104B1B68002B02DD70
:1006A000013B0E4A1360032F0CD00D49201C15F09E
:1006B000CDFC002808D1094B1B68002B06DC074B3A
:1006C00019221A603800F8BD0327FBE70327F9E772
:1006D000006C0020B06B00200000A040046C0020E3
:1006E0006666263F10B516F01FF800F0FBF800F024
:1006F0009BF8FCE70023036043608360704710B5FC
:1007000003685B69984710BD10B503689B699847FB
:1007100010BD0000024B034A1A60034A1A6070477A
:10072000A81B0020C4AC021020840210034B044A12
:100730001A60044A1A60044A1A6070472C6C002040
:1007400078840210508402103484021010B5040022
:1007500020290CD00022A423E358934209D9530145
:10076000E318181D9B698B4204D00132F3E7002087
:1007700000E0002010BD0000034B0360034B03604A
:10078000034B03607047C046788402105084021007
:1007900034840210034B0360034B0360034B03607C
:1007A0007047C046788402105084021034840210CE
:1007B00010B502480CF003FF10BDC046F86C0020D5
:1007C00010B5C423C458052C01D8002302E020F042
:1007D00067FF01339C4208D9C218A83212788A42B6
:1007E000F7D12C339B00185800E0002010BDF8B55D
:1007F00005000E00002400E00134A423EB58A342BE
:100800000ED96301EB181F1D9B69202BF4D16301E6
:10081000EB18D869310021F09FFF0028ECD100E0EF
:1008200000273800F8BD000010B5194B1A68194BA5
:100830001B681969184B1868FFF7FCFD002800D1E8
:1008400010BDD0231B06802292045A61134B1868F6
:100850000DF0A8FA002812D1104B186800210DF0F5
:100860002DF80069FFF7D8FE01000B4B186800F067
:10087000ADFAD0231B06802292049A61E0E7084B70
:100880001A68054B1868074900F0E2FBD8E7C04634
:10089000642E0020602E0020AC6B00205C2E002017
:1008A00028720020D8820210704710B50068FFF748
:1008B000FBFF10BD704710B50068FFF7FBFF10BDD0
:1008C000704710B50088FFF7FBFF10BD10B504009E
:1008D0000068FFF7E9FF201810BD10B5FFF7F6FF1D
:1008E00010BD0000F0B58DB019F0BCF8BB4B009303
:1008F000A02350220021002019F069F9B84B1B7881
:10090000BFF35B8FDB0722D5B64BB74A1A60B748F7
:10091000FFF7E3FF0400B64B1860FFF7CCFF251A82
:100920002800FFF7CEFF04281DD9281DFFF7C9FFB7
:1009300000281AD02018FFF7B8FF0200032A16D0AB
:100940000323AC49A84800F083FB0DB0F0BDA448D8
:1009500019F0B4F90028D7D0A74820F0A9FEA04884
:1009600019F0C8F9D0E70020E2E70022E6E7A34B40
:100970001B78BFF35B8FDB0713D504A802F0BEF929
:100980009F4803685B6903219847002823D09C4A4D
:10099000C823D058002840D003229A4900F058FBC1
:1009A0003BE0964819F08AF90028E6D0944B964A25
:1009B0001A60964A1A60964A1A600022A4215A5078
:1009C00020315A5004315A50924820F071FE8B4821
:1009D00019F090F9D1E78A4AA423D158042930D8D4
:1009E00087484C010419251D04AB2A00E0CBE0C266
:1009F000E0CBE0C260CB60C20325A5610131A42336
:100A0000C150C4214358C218A83215701A002C32A4
:100A10009200814C14500133435004A804F0CAF8EA
:100A2000774803685B6904219847002813D0744A0B
:100A3000C823D058002833D00422724900F008FBA4
:100A40002EE02433D0580028E7D0C33B032273495B
:100A500000F0FEFAE1E76A4AA423D158042933D80A
:100A600067484C0104239C460419251D04AB2A0049
:100A7000E0CBE0C2E0CBE0C260CB60C26346A361E2
:100A80000131A033C150C4214358C218A832644672
:100A900014701A002C329200614C145001334350F0
:100AA00004A805F0B7FC564803685B69092198471C
:100AB000002813D0524AC823D058002830D0092229
:100AC000504900F0C5FA2BE02433D0580028E7D075
:100AD000C33B0422514900F0BBFAE1E7484AA42392
:100AE000D158042930D846484C010419251D04ABBF
:100AF0002A00E0CBE0C2E0CBE0C260CB60C20925B7
:100B0000A5610131A423C150C4214358C218A832A1
:100B100015701A002C329200424C1450013343508D
:100B200004A807F0CFFD364803685B691121984798
:100B3000002813D0324AC823D058002830D01122C0
:100B4000304900F085FA2BE02433D0580028E7D054
:100B5000C33B0922314900F07BFAE1E7284AA4238C
:100B6000D158042930D826484C010419251D04AB5E
:100B70002A00E0CBE0C2E0CBE0C260CB60C211252E
:100B8000A5610131A423C150C4214358C218A83221
:100B900015701A002C329200234C1450013343502C
:100BA00004A808F015FD164803685B6919219847E9
:100BB00000283BD0124AC823D058002858D0192208
:100BC000104900F045FA53E02433D0580028E7D00C
:100BD000C33B1122114900F03BFAE1E7DCF60210B9
:100BE0004C2E0020AC6B0020A81B002038360210D1
:100BF000086C0020F482021015070010442E00201B
:100C00002C6C00203C8302103484021050840210AB
:100C1000788402102D070010991500108C830210A3
:100C20007D110010C5130010A9170010544AA42309
:100C3000D158042943D852484C010419251D04AB4E
:100C40002A00E0CBE0C2E0CBE0C260CB60C2192555
:100C5000A5610131A423C150C4214358C218A83250
:100C600015701A002C329200464C14500133435038
:100C7000454B1B78BFF35B8FDB072AD5434C4448B9
:100C800020600CF0A9FF206800210CF059FD414BB9
:100C9000186043691A68042A0BD15A68012A08D1DE
:100CA0009A68802A05D1DB68032B02D1037F012BD0
:100CB00029D0394B1868394900F0CAF945E6243380
:100CC000D0580028D4D0C33B1922354900F0C0F9D0
:100CD000CEE72D4818F0F2FF0028CFD0314B19682D
:100CE000002302932C4B1B6801932F4B00932F4B37
:100CF000234A27480CF0F6FC2D4820F0D9FC224866
:100D000018F0F8FFBAE783699B082A4A1360224B60
:100D10001868FFF73DFB00282BD1FC25ED002800CB
:100D200018F04AFF244B0093282350220021002072
:100D300018F04DFF214C0295002601966368009340
:100D400023681F4A2D21052018F0A6FE0295019662
:100D50006368009323681B4A41211E2018F09CFE03
:100D6000192010F00BFFD0231B06802292045A6238
:100D7000EBE5094B1868144900F06AF9CDE7C04665
:100D80002C6C0020C5190010482E00205C2E00207D
:100D9000F86C0020602E0020AC6B0020D083021085
:100DA0008C830210086C0020343D0000682E002067
:100DB000B1070010642E0020DCDD0210881C00202A
:100DC0000884021010840210F8830210F0B5C646A1
:100DD00000B584B0002908D001293ED0022900D1F5
:100DE0008AE004B080BCB846F0BD644900F030F938
:100DF000FC25ED000095462350225A21002018F0D2
:100E00008DFE5F4B0295002601965A6800921B6882
:100E10005C4A5A21052018F03FFE5B4C0295019672
:100E2000636800932368594A78210A2018F034FE39
:100E300002950196636800932368554A82210A202F
:100E400018F02AFE02950196636800932368514AC0
:100E50008C210A2018F020FEC3E74F4900F0F8F873
:100E6000FC25ED000095462350225A21002018F061
:100E700055FE434B0295002601965A6800921B6866
:100E8000464A5A21052018F007FE3F4C444F029570
:100E900001966368009323683A0078210A2018F0CD
:100EA000FBFD3C4B984602950196636800932368CE
:100EB00042467D210A2018F0EFFD029501966368F5
:100EC00000932368374A87210A2018F0E5FD029530
:100ED0000196636800932368424691210A2018F026
:100EE000DBFD029501966368009323683A00962122
:100EF0000A2018F0D1FD74E72B4900F0A9F8FC2571
:100F0000ED000095462350225A21002018F006FEDD
:100F10001B4B0295002601965A6800921B68234AD3
:100F20005A21052018F0B8FD174C02950196636808
:100F3000009323681E4A78210A2018F0ADFD02951F
:100F400001966368009323681A4A82210A2018F0E8
:100F5000A3FD02950196636800932368164A8C21CD
:100F60000A2018F099FD02950196636800932368A2
:100F7000124A96210A2018F08FFD32E79884021059
:100F8000881C00201C850210901C00202485021063
:100F9000308502103C85021044850210C085021085
:100FA000C8850210D0850210DC8502103086021040
:100FB000D485021040850210388602103C8602104B
:100FC00001308000704700000D281DD88000104BB4
:100FD0001B589F460F4870470F48FCE70F48FAE739
:100FE0000F48F8E70F48F6E70F48F4E70F48F2E735
:100FF0000F48F0E70F48EEE70F48ECE70F48EAE745
:101000000F48E8E70F48E6E70F48E4E70F48E2E754
:10101000D0860210C8860210608602106886021010
:101020007086021078860210808602108886021070
:101030009086021098860210A4860210B0860210D4
:10104000B8860210C0860210488602105886021028
:101050000EB400B582B003AA02CA019203689B686D
:10106000984702B008BC03B018470CB400B583B071
:1010700004AA02CA019203689B68984703B008BC9F
:1010800002B01847052803D88300024AD3589F4668
:101090000020704708870210002803D0012803D1E0
:1010A000013070470120FCE70020FAE710B5002866
:1010B00006D0002906D0002A06D0002B06D010BD8D
:1010C00020F0EEFA20F0ECFA20F0EAFA20F0E8FA4C
:1010D00010B513000C2836D883001F4AD3589F46FA
:1010E0000A230B70002010BD01230B70FBE70B23BC
:1010F0000B700020F7E707230B700020F3E70223B3
:101100000B700020EFE703230B700020EBE70923AF
:101110000B700020E7E704230B700020E3E70D23AA
:101120000B700020DFE705230B700020DBE70623B0
:101130000B700020D7E708230B700020D3E70C23A7
:101140000B700020CFE700220A700200034918004C
:10115000FFF77EFF0120C6E74487021020870210B8
:10116000704710B50078FFF7FBFF10BD704710B552
:10117000007840B2FFF7FAFF10BD0000F0B5C64698
:1011800000B584B00400884615001E00FFF78EFFEE
:101190002B681B6804221C212800984707001C228A
:1011A000002115F0E1F802950397002F0DD02000E3
:1011B000FFF781FB251A2800FFF783FB0A2810D9C7
:1011C00028000A30FFF77DFB0CE07A4B01937A4B45
:1011D00000937A4B7A4A41464046FFF746FF012486
:1011E000BDE00020002803D02018FFF7BAFF00E080
:1011F0000020022818D12000FFF75DFB251A2800E7
:10120000FFF75FFB0C2804D928000C30FFF759FBCF
:1012100000E000202418002804D02000FFF745FB40
:10122000241802E0002400E00024002C00D191E00A
:1012300025002000FFF73FFB241A2000FFF741FBA9
:10124000042800D899E0201DFFF73BFB002800D1BF
:1012500095E02818FFF78BFFC0B2FFF71DFF38702D
:10126000039F2800FFF727FB2C1A2000FFF729FB1C
:10127000062800D885E0A01DFFF723FB002800D139
:1012800081E02818FFF717FB7860039C2800FFF720
:1012900012FB2F1A3800FFF714FB082800D874E05F
:1012A00038000830FFF70DFB002800D16FE0281848
:1012B000FFF701FBA0602800FFF7FDFA2F1A3800A6
:1012C000FFF7FFFA0A2864D938000A30FFF7F9FA65
:1012D000002860D02818FFF7EEFAE0602800FFF73A
:1012E000EAFA2F1A3800FFF7ECFA0C2855D9380023
:1012F0000C30FFF7E6FA002851D02818FFF737FF27
:10130000C0B2FFF7BFFE20742800FFF7D4FA2F1AEF
:101310003800FFF7D6FA0E2843D938000E30FFF711
:10132000D0FA00283FD02818FFF7C5FA60612800DE
:10133000FFF7C1FA2F1A3800FFF7C3FA102834D983
:1013400038001030FFF7BDFA002830D02818FFF71A
:10135000B2FAA061039B3360002303930024039936
:10136000002903D0029803685B6898470023039321
:10137000200004B080BCB846F0BD002066E7002025
:101380006AE700207AE700207EE700208CE7002053
:1013900090E700209CE700209FE70020ABE70020BB
:1013A000AEE70020BDE70120C0E70020CCE7012028
:1013B000CFE7C046FC8702102304000078870210A4
:1013C000E4870210F0B5C64600B584B00400884634
:1013D00015001E00FFF76AFE2B681B68012204211E
:1013E0002800984707000422002114F0BDFF029551
:1013F00003973D1E28D02000FFF75DFA271A38001A
:10140000FFF75FFA0A282BD938000A30FFF759FA9C
:10141000002827D02018FFF7A4FE082828D1200094
:10142000FFF749FA271A3800FFF74BFA0C281BD9A7
:1014300038000C30FFF745FA2418002816D0200099
:10144000FFF733FA241814E04E4B01934E4B0093F0
:101450004E4B4F4A41464046FFF707FE01247FE0CE
:101460000020D5E70020D8E70020E5E7002400E0D1
:101470000024002C6FD027002000FFF71CFA241A4C
:101480002000FFF71EFA042852D9201DFFF719FA91
:1014900000284FD03818FFF76AFEC0B2FFF7F2FD00
:1014A0002870039D3800FFF706FA3C1A2000FFF76A
:1014B00008FA082840D920000830FFF702FA00286F
:1014C0003CD03818FFF74DFE431E9841A870039D8D
:1014D0003800FFF7F0F93C1A2000FFF7F2F90A286C
:1014E0002ED920000A30FFF7ECF900282AD038184E
:1014F000FFF737FE431E9841E8703800FFF7DBF92D
:101500003C1A2000FFF7DDF906281DD9A01DFFF7C2
:10151000D8F900281AD03818FFF729FE002817D06C
:1015200001282BD01B494046FFF792FD012417E00C
:101530000020ADE70020B0E70020C0E70020C3E7AF
:101540000020D2E70020D5E70020E2E70020E5E711
:101550000023039A5370039B3360002303930024FA
:101560000399002903D0029803685B689847002319
:101570000393200004B080BCB846F0BD0123039A59
:101580005370E8E7FC8702106704000078870210B8
:10159000E487021010880210F0B5C64600B584B08A
:1015A0000400884615001E00FFF780FD2B681B68AD
:1015B000042218212800984707001822002114F05F
:1015C000D3FE02950397002F0DD02000FFF773F98B
:1015D000251A2800FFF775F90A2810D928000A30C3
:1015E000FFF76FF90CE06C4B01936C4B00936C4B65
:1015F0006C4A41464046FFF738FD0124A6E0002032
:10160000002803D02018FFF7ACFD00E000200128DF
:1016100018D12000FFF74FF9251A2800FFF751F9DC
:101620000C2804D928000C30FFF74BF900E000200B
:101630002418002804D02000FFF737F9241802E00E
:10164000002400E00024002C7BD025002000FFF7C0
:1016500032F9241A2000FFF734F9042800D883E077
:10166000201DFFF72EF9002800D17FE02818FFF792
:101670007EFDC0B2FFF710FD3870039F2800FFF712
:101680001AF92C1A2000FFF71CF9062800D86FE081
:10169000A01DFFF716F900286CD02818FFF70BF9EA
:1016A0007860039F2800FFF706F92C1A2000FFF747
:1016B00008F9082860D920000830FFF702F900284F
:1016C0005CD02818FFF7F7F8B8602800FFF7F3F8A8
:1016D0002C1A2000FFF7F5F80A2851D920000A300B
:1016E000FFF7EFF800284DD02818FFF740FDC0B2F3
:1016F000FFF7C8FC38732800FFF7DDF82C1A20002C
:10170000FFF7DFF80C283FD920000C30FFF7D9F89D
:1017100000283BD02818FFF7CEF838612800FFF7E3
:10172000CAF82C1A2000FFF7CCF80E2830D9200078
:101730000E30FFF7C6F800282CD02818FFF7BBF8AA
:101740007861039B336000230393002403990029ED
:1017500003D0029803685B68984700230393200036
:1017600004B080BCB846F0BD00207CE7002080E7D4
:10177000002090E7002093E70020A0E70020A3E7E7
:101780000020AFE70020B2E70020C1E70120C4E756
:101790000020D0E70120D3E7FC870210F903000006
:1017A00078870210E4870210F0B5C64600B584B011
:1017B0000400884615001E00FFF778FC2B681B68A4
:1017C000042228212800984707002822002114F02D
:1017D000CBFD02950397002F0DD02000FFF76BF88B
:1017E000251A2800FFF76DF80A2810D928000A30BA
:1017F000FFF767F80CE06C4B01936C4B00936C4B5C
:101800006C4A41464046FFF730FC0124A6E0002028
:10181000002803D02018FFF7A4FC00E000200528D2
:1018200018D12000FFF747F8251A2800FFF749F8DC
:101830000C2804D928000C30FFF743F800E0002002
:101840002418002804D02000FFF72FF8241802E005
:10185000002400E00024002C7BD025002000FFF7AE
:101860002AF8241A2000FFF72CF8042800D883E077
:10187000201DFFF726F8002800D17FE02818FFF789
:1018800076FCC0B2FFF708FC3870039F2800FFF712
:1018900012F82C1A2000FFF714F8062800D86FE081
:1018A000A01DFFF70EF800286CD02818FFF703F8EA
:1018B0007860039F2800FEF7FEFF2C1A2000FFF738
:1018C00000F8082860D920000830FEF7FAFF002849
:1018D0005CD02818FEF7EFFFB8602800FEF7EBFF9A
:1018E0002C1A2000FEF7EDFF0A2851D920000A30FB
:1018F000FEF7E7FF00284DD02818FEF7DCFFF86060
:101900002800FEF7D8FF2C1A2000FEF7DAFF0C287B
:1019100042D920000C30FEF7D4FF00283ED0281812
:10192000FEF7C9FF38612800FEF7C5FF2C1A20001A
:10193000FEF7C7FF0E2833D920000E30FEF7C1FF97
:1019400000282FD02818FFF712FCC0B2FFF79AFB2F
:101950003875039B33600023039300240399002907
:1019600003D0029803685B68984700230393200024
:1019700004B080BCB846F0BD00207CE7002080E7C2
:10198000002090E7002093E70020A0E70020A3E7D5
:101990000020AFE70020B2E70020BEE70020C1E74B
:1019A0000020CDE70020D0E7FC8702105E05000094
:1019B00078870210E4870210704710B50068FFF7BF
:1019C000FBFF10BDF0B5C64600B584B004008846E4
:1019D00015001E00FFF76AFB2B681B680422042118
:1019E000280098470023036002950390071E0DD03E
:1019F0002000FEF760FF251A2800FEF762FF0A2884
:101A000010D928000A30FEF75CFF0CE02D4B019343
:101A10002D4B00932D4B2E4A41464046FFF725FBA8
:101A200001243DE00020002803D02018FFF799FB97
:101A300000E00020092818D12000FEF73CFF251AFD
:101A40002800FEF73EFF0C2804D928000C30FEF7D2
:101A500038FF00E000202418002804D02000FEF702
:101A600024FF241802E0002400E00024002C12D0FF
:101A700025002000FEF71FFF241A2000FEF721FF9B
:101A800004281BD9201DFEF71CFF002818D0281899
:101A9000FFF793FF3860039B336000230393002418
:101AA0000399002903D0029803685B6898470023D4
:101AB0000393200004B080BCB846F0BD0020E4E7EA
:101AC0000020E7E7FC87021041060000788702103B
:101AD000E4870210F0B5CE4600B582B004000D00D8
:101AE00001921F0000233B600CF09FFC0090060059
:101AF0002000FEF7E0FE231A99461800FEF7E1FEEB
:101B0000082804D948460830FEF7DBFE00E0002034
:101B1000002804D02018FEF7CEFE814601E0012304
:101B20009946832E0FD8202E1FD02B681B684A465B
:101B3000009928009847386000280BD0002002B098
:101B400080BCB946F0BD009A1E490198FFF780FAA3
:101B50000120F4E7009B9E001B4B9A594B461B4902
:101B60000198FFF775FA0120E9E72000FEF7A3FED0
:101B7000261A3000FEF7A5FE062816D9B01DFEF77E
:101B8000A0FE2418002812D02000FEF78EFE241894
:101B9000002C0ED0211D2B685B684A462800984710
:101BA000386000280BD00020C9E70020E9E70024B6
:101BB000EEE707490198FFF74BFA0120BFE7012044
:101BC000BDE7C0463C880210FC8E021090880210CF
:101BD000C8880210F0B583B004000D0017001E0085
:101BE0000022002313F0C4FC002804D000233B6033
:101BF000336003B0F0BD32002000290021F0B4FCB6
:101C000000221D4B13F071FC13F0D8FD13F03AFDC8
:101C100004000D1E14DC00290ED080231B069C42FC
:101C200010D0002D26DC21D033681F3302DA0023C8
:101C3000336000243C60DCE780231B069842ECD92B
:101C40001FF02EFD002DECD1EA0F002312196B417D
:101C50001C001300E10700930194520811430C008B
:101C6000019B5D10336801333360DAE780231B0684
:101C70009C42D9D31FF014FD0000E041F8B50600E6
:101C80000F0015001C000022094B13F08FFC0028E8
:101C900009D023002A0030003900FFF79BFF23689A
:101CA000002B02DBF8BD1FF0FBFC1FF0F9FCC04667
:101CB0000000F03F30B585B013F017FC04000D00B4
:101CC00080200006089BD84013F088FC22002B00DF
:101CD00013F00BFC00900191094A0A4B0292039306
:101CE00013F064FC002808D16B46186859680A9BF9
:101CF000099AFFF7C3FF05B030BD02ABF5E7C04658
:101D00000000C0FFFFFFDF41F0B5C64600B503008D
:101D10000C00012098400138D21A20235B42D318CE
:101D20002BD401259D4001239340984613F056FC87
:101D300006000F004046290013F098FC02000B003B
:101D40003000390013F0D1FB06000F0020235B4266
:101D5000E31817D4012199400120A04013F086FC1C
:101D600002000B003000390013F0A1FB13F074FDEA
:101D700013F04CFC80BCB846F0BD20239B1A012513
:101D8000DD40D0E720231B1B0121D940E4E7000000
:101D900030B58BB0019100929D68DC680395049486
:101DA00001280AD0032820D0022845D00E9B019A92
:101DB0001A600F9B009A1A6013E0291C002014F08F
:101DC000F6F814F043FA14F077F924180594019BFF
:101DD000A34208DB01AB1B680E9A13600F9B009AAD
:101DE0001A600BB030BD05ABF5E7291C002014F0DC
:101DF000DEF814F02BFA14F05FF920180690019B1E
:101E0000834215DB01AB1B680E9A1360291C1E4828
:101E100014F0CDF814F01AFA14F04EF924180794BF
:101E2000009BA34206DC6B461B680F9A1360D8E741
:101E300006ABE8E707ABF7E7291C144814F0B7F83E
:101E400014F004FA14F038F920180890019B83422A
:101E500016DB01AB1B680E9A1360291CFE2080055F
:101E600014F0A5F814F0F2F914F026F924180994E6
:101E7000009BA34206DC6B461B680F9A1360B0E719
:101E800008ABE7E709ABF7E70000C040000080BF00
:101E900010B50B6802CB002A10DB8A4210DA9200E0
:101EA00099584B1C0ED000290EDB8368002B02D002
:101EB0004801181810BD036D9847FBE70020F9E7AB
:101EC0000020F7E70020F5E70020F3E710B54B68A6
:101ED00002CB002A10DB914210DD920099584B1C76
:101EE0000ED000290EDB8368002B02D048011818A1
:101EF00010BD036D9847FBE70020F9E70020F7E7E6
:101F00000020F5E70020F3E710B5FFF7C1FF10BD93
:101F1000F0B5C64600B582B080461D00886891685D
:101F200014F05BF8041C14F001F906000F00002106
:101F3000201C14F091F8002810D0A86814F0F6F8CE
:101F400002000B003000390013F0B1FA089B186052
:101F50005960002002B080BCB846F0BD43465C69C1
:101F6000A123044A00925B00034A04494046A0476B
:101F70000120EFE77091021010910210E487021027
:101F8000F0B5C64600B584B080460D0016001C00B2
:101F90000A9F886814F0CAF802900391B06814F0A0
:101FA000C5F802000B000298039913F09EFA029004
:101FB0000391002C1AD0A06814F0B8F802000B00AE
:101FC0000298039913F061FA02904C006408B86813
:101FD00014F0ACF802000B000298210013F067FA2D
:101FE0000E4A0F4B13F0D2FA00280BD00B9B009334
:101FF0003B00320029004046FFF78AFF04B080BC56
:10200000B846F0BD43465C693623064A0092FF336A
:10201000054A06494046A0470120EFE77B14AE473A
:10202000E17A943F8C91021010910210E487021023
:1020300030B583B00D001400127F032A0DD0092A99
:102040000ED0072A19D0446976230D4A0092FF3337
:102050000C4A0D49A04701200DE0FF22002102E0BB
:102060007F22802149420698019000932300280096
:10207000FFF78EFE002003B030BD044A0449F2E7AA
:10208000B091021010910210E4870210FF7F00004F
:102090000080FFFFF0B5DE4657464E464546E0B5A8
:1020A0008DB004000D00049205930E78012E14D01B
:1020B00045690123039302967D4B01937D4B009369
:1020C000D1237D4A7D49A847012630000DB0F0BCE0
:1020D000BB46B246A946A046F0BD049B1F78012F1F
:1020E0000CD04569012303930297714B0193744B04
:1020F0000093D323704A7149A847E6E7049B5B68C5
:10210000002B15D01A689146002A1AD012689346FF
:10211000012A5DDD0A7F092A1CD0072A1AD04569E9
:10212000684B0093E323644A6749A8473E00CCE725
:102130004569664B0093DE235F4A6349A8473E002A
:10214000C3E74569624B0093DF235B4A5E49A847BA
:102150003E00BAE7049A127F092A0ED06569092366
:10216000039302925B4B01935B4B0093E523524A2E
:1021700052492000A8473E00A7E71E9A93450ED07B
:10218000656903925B460293544B0193544B009351
:10219000E623494A49492000A8473E0095E7049AAA
:1021A000526906929B689B00944663445B681E9A42
:1021B00093420DD06569039302924A4B0193474BBA
:1021C0000093E7233C4A3D492000A8473E007CE7B6
:1021D000AB680693169B9B689A464B46043307935D
:1021E00000235F461E00A346A84623E04B465868DE
:1021F00013F09CFF04000D00069813F097FF2200D7
:102200002B0013F072F904000D00504613F08EFFFE
:1022100002000B002000290013F049F90AAB09AABB
:10222000FFF7D8FCB3001C9A0999D1501D9A0A995E
:10223000D15001361E9B9E4205DA012FD6DDB30038
:10224000079AD058D4E75C4645462B7F032B08D02D
:102250002B7F092B21D0032B1FD0072B1DD000264D
:1022600033E7002200230A920B930AAB0193169BDB
:102270000093059B049A41465846FFF781FE061ECF
:1022800000D022E709AB189A0A980B99FFF7A2FC35
:10229000099B5B42199A1360DAE7179B19781B9B1D
:1022A00000931A9B169A2000FFF7C2FE06000CE767
:1022B000D4910210F091021010910210B891021006
:1022C0000C92021058920210E48702102892021019
:1022D0003C92021094920210A0920210B09202104E
:1022E000C0920210E492021010B5002801D00068DC
:1022F00010BD1FF0D5F9002800D00068704710B558
:10230000002801D0006810BD1FF0CAF9002800D0D5
:102310000068704710B5002801D0006810BD1FF09C
:10232000BFF9002800D00068704770470840704728
:102330000841704740187047C043704710B50028E7
:1023400002D00020FFF7F8FF10BD10B5012388422E
:1023500000DB00231800FFF7F1FF10BD10B50123CB
:10236000884200DC00231800FFF7E8FF10BD10B51D
:10237000002801D0006810BD1FF092F9012808D094
:1023800003280BD002280ED00A4B0B600A4B1360B7
:1023900003E000230B60084B1360704700230B60C1
:1023A000064B1360F9E7064B0B60FE239B05136099
:1023B000F3E7C046FFFF7FFFFFFF7F7F0000C040C5
:1023C000000080BF10B5836B002B02D038219847E6
:1023D00010BD1FF065F90000F0B5DE4657464E46C9
:1023E0004546E0B593B005000C0016001F0021AB78
:1023F0001B780B930B681B68032B0AD0022B08D0A9
:102400004469664B00935723654A6649A0470120FB
:1024100011E063681B68012B14D06C6901220392E0
:102420000293614B0193614B009358235C4A6049CE
:102430002800A047012013B0F0BCBB46B246A94615
:10244000A046F0BD33789846B3689A4673689946BB
:1024500073699B4633690D931D9A501E5843013092
:102460004346012B3FD0022B45D000230C931E9BEB
:10247000581E5B46584301304346012B43D0022B84
:1024800048D000201E9B013B5A465343013301387C
:10249000524650431B181C9A9B1A42D401211940E2
:1024A000DA0FD3185B100F9311911D9B013B0D9A0E
:1024B000534301330C9801384A4650431B18DB1B29
:1024C00031D401211940DA0FD3185B100EAA0E93F4
:1024D0001091229B83CA83C312681A600B9B012B45
:1024E00023D10020A7E7380048440138494612F0BC
:1024F00069FD0C90BBE73B004B44181A494612F0AB
:1025000061FD0C90B3E71C9850440138514612F01D
:1025100059FDB7E71C9B5344181A514612F052FD5F
:10252000B0E70023BAE70023CBE700222100280010
:10253000FFF7AEFC8046012221002800FFF7A8FC2F
:102540000700022221002800FFF7DEFC814600225E
:1025500021002800FFF7BAFC7B695B680C36229AE1
:10256000926A0B9208930792229B5B6A0B930693E5
:10257000229B30330593229B2C330493229B2033E0
:102580000393229C1C340294019600904B463A001F
:1025900041462800FFF77EFD4DE7C0468C930210B0
:1025A00024930210E4870210689B0210B09302107B
:1025B000B8910210F0B5DE4657464E464546E0B5A6
:1025C000AFB004000D008E68002E21D0CB689A4673
:1025D000002B1FD00022FFF75BFC0700012229001F
:1025E0002000FFF755FC8146002229002000FFF75C
:1025F0006DFC8046002F0FD0796904C90023269313
:102600002692052A0BDC269B052B0ADD279809E07C
:102610001FF046F81FF044F80023269305E01FF052
:102620003FF827A8920013F0A5FE4346002B0BD0DD
:10263000596904C9002320932092052A06DC209BB7
:10264000052B05DD219804E0209305E01FF028F814
:1026500021A8920013F08EFE269B002B00DC96E052
:10266000052B00DC95E0279B1B68209A002A00DCE4
:1026700091E0052A00DC90E0219A12689A4200D08D
:102680008DE02D93209A002A00DC8AE0052A00DCE8
:1026900089E0219A12682C92934200DD85E02DABEF
:1026A00019681C917B699A681D92DB6808931E93D8
:1026B000269B032B00DC7AE0052B00DC79E0279BCE
:1026C000DA681F92209B032B00DC74E0052B00DCF2
:1026D00073E0219BDB6818934B465B6998681990FF
:1026E000D8681A901B9214914246526991681591CC
:1026F000D26808921692209A032A60DD052A60DDCE
:10270000219AD26817925B689B009B4619002000B3
:10271000A36B9847706259462000A36B9847B0623C
:102720001E9B08931D9A09921A9A19991698159B3F
:102730009C463B7F06960593634604930390029163
:102740000192099A0092089B524629002000FFF747
:1027500043FE051E0DD1FB6833614B46DB68736198
:102760004346DB68B3613A7F092A2CD001235B42E0
:102770007363209B052B4EDC269B052B4DDC28002C
:102780002FB0F0BCBB46B246A946A046F0BD1EF035
:1027900087FF279B69E71EF083FF219A6EE71EF0F3
:1027A0007FFF1EF07DFF219A75E72CAB78E71EF0C6
:1027B00077FF2A9A85E71EF073FF249B8BE71EF0B4
:1027C0006FFF249A9EE7FA6852420A920B9353468F
:1027D0009B680D9353465B680C9353465B6911935A
:1027E00053461B690893109373680F9333680E93D5
:1027F000F36A1293336B139314AB18AA1CA90AA89B
:102800000CF058F8011EB1DD236C32003432200088
:1028100098470500ADE71EF043FF1EF041FFF0B5FD
:10282000DE4657464E464546E0B5A3B00F0003923C
:102830009B462D9B0A21425E13920C21425E14920C
:102840000E21425E05921021425E0A920221425EF2
:1028500015920421425E1692026B1092426B0E9208
:102860003A68042A00D080E05A461268042A7ED1D1
:102870002F9A12680092042A7BD13A68002A7ADDE6
:10288000052A7ADD7A6812682F990968002976DDB1
:10289000052976DD2F9949680968914274D1219202
:1028A0002F990968002971DD052971DD2F99496883
:1028B000096820918A426EDC21AA126817923A6850
:1028C000032A6ADD052A6ADD7A68D26859460968F2
:1028D000032966DD052966DD59464968C9689142C4
:1028E00064D11F9259460968032961DD052961DD1C
:1028F00059464968C9681E918A425EDC1FAA12685F
:1029000002925A461268002A59DD052A59DD5A46B4
:10291000526812682F990968032955DD052955DD8C
:102920002F994968C968914253D11D922F9909681E
:10293000032950DD052950DD2F994968C9681C918C
:102940008A424DDC1DAA12680F922E9A002A4ED0A0
:102950001868052846DD5B6800220121904243DDAE
:102960009400E45861430132F8E71EF099FE1EF02E
:1029700097FE1EF095FE1EF093FE7A6884E71EF027
:102980008FFE2F99496888E71EF08AFE1EF088FEA8
:102990002F9949688DE720AA8FE71EF081FE3A69DA
:1029A00094E71EF07DFE5946096998E71EF078FE0F
:1029B0001EF076FE594609699DE71EAA9FE71EF0A4
:1029C0006FFE5A465268A5E71EF06AFE2F99096904
:1029D000A9E71EF065FE1EF063FE2F990969AEE7B8
:1029E0001CAAB0E70433B7E70F9B8B423AD13B6890
:1029F000012B39DD052B39DD7B685B6808933B686B
:102A0000022B36DD052B36DD7B689B6807935B4622
:102A10001B68012B32DD052B32DD5B465B685B6892
:102A200009935B461B68022B2EDD052B2EDD5B46D2
:102A30005B689B6804932F9B1B68012B2ADD052B89
:102A40002ADD2F9B5B685B6812932F9B1B68022B10
:102A500026DD052B26DD2F9B5B689B6811930023E9
:102A600000933DE11EF01CFE1EF01AFEBB680893A9
:102A7000C5E71EF015FEFB680793C8E71EF010FEC1
:102A80005B469B680993CCE71EF00AFE5B46DB6859
:102A90000493D0E71EF004FE2F9B9B681293D4E7AB
:102AA0001EF0FEFD2F9BDB681193D8E71EF0F8FDAA
:102AB0001EF0F6FD1EF0F4FD1EF0F2FD1EF0F0FD1E
:102AC0001EF0EEFD1EF0ECFD1EF0EAFD1EF0E8FD2E
:102AD0001EF0E6FD4346B046AB461E000136049BA1
:102AE0009E4266DA059D7543069BED18F6D4079B5A
:102AF0009D42F3DA4B46002BF0DB089B9945EDDA5B
:102B00000024320046465B46AB461D009046029BC1
:102B10009C42DFDA3B68042BC8D1009B002BC7DB4B
:102B20007A689342C4DA4B46002BC3DBBB689945F5
:102B3000C0DA5A46002ABFDBF9688B45BCDA002CA4
:102B4000BCDB3A699442B9DA009843434B444B43A7
:102B50005B445343E3189B00039A98582B68042B5B
:102B6000AED1002EAEDB6B689E42ABDA5346002B33
:102B7000AADBAB689A45A7DA4246002AA6DBE968D9
:102B80008845A3DA002CA3DB2A699442A0DA7343B8
:102B900053444B4343445343E3189B002C9A9958A6
:102BA00013F01BFA011C019813F0FCF90190013499
:102BB000ADE701239C46E244099B9A4507DA0A9B4C
:102BC000524653430B9A91469944002687E72E9B21
:102BD000002B54D043469B002E9AD158019813F0F5
:102BE000E1F92F9B1B680193042B4AD1009B002B1A
:102BF00049DB2F9A52680192934244DA0C9B002BD6
:102C000043DB2F9A9568AB423FDA0D9B002B3EDBEE
:102C10002F9AD1688B423ADA4346002B39DB2F9B3F
:102C20001A69904535DA009B5D430C9B9C466544D0
:102C30004D430D9B9C46654455434544AD00309B38
:102C40009C466544199010991A910E9B1B9313F0A2
:102C5000FDF900281FD119AC21680E9813F0F6F980
:102C600000281AD123682B6001239C46E0440F9B67
:102C7000984514DA00239A46002301939CE700212B
:102C8000ACE71EF00DFD1EF00BFD1EF009FD1EF061
:102C900007FD1EF005FD1AACDEE71BACE2E70D9B5D
:102CA00001330D930D9A119B9A4207DA139B5343FC
:102CB000159A9B1A069300239846D8E70C9B01337C
:102CC0000C930C9A129B9A4207DA149B5343169A60
:102CD0009B1A0B9300230D93E4E7009B01330093B1
:102CE000009B179A934202DA00230C93E9E723B082
:102CF000F0BCBB46B246A946A046F0BD30B5044B79
:102D0000020032CB32C232CB32C212CB12C230BD41
:102D100074950210F0B5DE4657464E464546E0B57E
:102D2000B7B015001E00107B16AA17A9FFF726FBE7
:102D30002B78012B02D0022B00D0002308AC23708B
:102D4000336863807368A3806B686381AB68A38119
:102D50002B69E3816B692382179B1493169B159350
:102D6000409918A808F04FFB4098FFF7BDFA81463C
:102D700041991EA808F047FB4198FFF7B5FA824633
:102D800024AD4299280008F03EFB4298FFF7ACFAC8
:102D900083462AAE4599300008F035FB4598FFF789
:102DA000AAFA804630AF4399380008F02CFB4398CC
:102DB000FFF7A1FA069005974346049303965B46F6
:102DC00002930195534600931EAB4A4618A9200072
:102DD000FFF725FD309B052B13DC2A9B052B12DC0E
:102DE000249B052B11DC1E9B052B10DC189B052B4F
:102DF0000FDC002037B0F0BCBB46B246A946A04667
:102E0000F0BD1EF04DFC1EF04BFC1EF049FC1EF008
:102E100047FC1EF045FC0000F0B5DE4657464E4626
:102E20004546E0B5A7B0139114921E00319D339B27
:102E3000426902920A21425E17920C21425E189268
:102E40000E21425E04921021425E09920221425EEE
:102E500019920421425E1A92C2691292816A1F91EC
:102E6000C26A1E92914276DC3268042A75D12A68C1
:102E7000042A74D1359A12680092042A71D13268FA
:102E8000002A70DD052A70DD7268126835990968BC
:102E900000296CDD05296CDD359949680968914286
:102EA0006AD1259235990968002967DD052967DD12
:102EB00035994968096824918A4264DC25AA126818
:102EC0001B923268032A60DD052A60DD7268D268D1
:102ED000296803295DDD05295DDD6968C9689142BE
:102EE0005BD123922968032959DD052959DD6968D9
:102EF000C96822918A4256DC23AA126801922A6884
:102F0000002A52DD052A52DD6A681268359909687F
:102F100003294EDD05294EDD35994968C96891427E
:102F20004CD1219235990968032949DD052949DDEC
:102F300035994968C96820918A4246DC21AA1268FD
:102F40001192349A002A4DD0186805283FDD5B683D
:102F50000022012141E01EF0A3FB1EF0A1FB1EF0A8
:102F60009FFB1EF09DFB1EF09BFB72688EE71EF020
:102F700097FB3599496892E71EF092FB1EF090FB93
:102F80003599496897E724AA99E71EF089FB3269C9
:102F90009EE71EF085FB2969A1E71EF081FB1EF06C
:102FA0007FFB2969A5E722AAA7E71EF079FB6A68DB
:102FB000ACE71EF075FB35990969B0E71EF070FBB0
:102FC0001EF06EFB35990969B5E720AAB7E704330F
:102FD000BEE79400E458614301329042F9DC119B52
:102FE0008B4238D13368012B37DD052B37DD736811
:102FF0005B6807933368022B34DD052B34DD73687F
:103000009B6806932B68012B31DD052B31DD6B6846
:103010005B6808932B68022B2EDD052B2EDD6B6879
:103020009B680393359B1B68012B2ADD052B2ADD4A
:10303000359B5B685B681693359B1B68022B26DD0E
:10304000052B26DD359B5B689B68159300273300B5
:103050003E001F00D6E11EF023FB1EF021FBB368EB
:103060000793C7E71EF01CFBF3680693CAE71EF040
:1030700017FBAB680893CDE71EF012FBEB680393D8
:10308000D0E71EF00DFB359B9B681693D4E71EF02E
:1030900007FB359BDB681593D8E71EF001FB1EF09C
:1030A000FFFA1EF0FDFA1EF0FBFA1EF0F9FA1EF010
:1030B000F7FA1EF0F5FA1EF0F3FA1EF0F1FA1EF020
:1030C000EFFAB146464680466046009B9C4601307A
:1030D000039B98426BDA04994143059BC918F6D4C7
:1030E000069B9942F3DA002EF1DB079B9E42EEDA53
:1030F00000220B006146009184464046B0464E4691
:103100009946019B9A42DCDA3B68042BC5D10099B1
:103110000029C4DB7B689942C1DA4346002BC0DB3F
:10312000BB689845BDDA4C46002CBCDBFC68A24667
:10313000A145B8DA002AB8DB3C69A242B5DA0099A9
:103140004B43434451464B434B446343D31830995C
:10315000CC562B68042BAAD10028AADB6B689842B6
:10316000A7DA002EA7DBAB689E42A4DA61460029ED
:10317000A3DBE9688B468C459FDA002A9FDB29692F
:103180008A468A429BDA4343F31859464B436344C9
:1031900051464B43D3183299CB5602998A46544430
:1031A0005C431D9B9A4654441D940132A9E70123B8
:1031B0009A46D144089B994507DA099E4B465E43DF
:1031C0000E9B9A465644002082E766464446319557
:1031D000349B002B06D0A300349A9B581D9A94462A
:1031E00063441D931D98A300139AD2581499CB5889
:1031F000191E00DAB1E0002B00DCB0E000239A4693
:103200008840824200D1ADE000239846C117D31711
:1032100012F0A6FE02000B1E00DAADE08021C90507
:103220000A91C9170B910A980B9912184B41D9179B
:10323000490049080C9100210D910C980D99121824
:103240004B4111005B00CA0F134399464346002BC4
:1032500000D093E05346002B00DA92E01F2B00DDF4
:1032600096E0012098400138FFF75FF88046002083
:10327000FFF75BF800900120FFF757F883464146BF
:103280004846FFF753F8050001214046FFF750F884
:10329000804600994846FFF758F85946FFF746F828
:1032A00001004046FFF746F8804651464846FFF782
:1032B0003FF8814641462800FFF750F85946FFF78E
:1032C00035F801004846FFF735F81D90129B9C46E3
:1032D00060441D901F9B984261DB1DAB1B681D93D2
:1032E0001E9A93425DDC1DAB1A681D92359B1B68CC
:1032F0000093042B57D1002E57DB359B5B6800935E
:103300009E4252DA0F99002951DB359B9B68994206
:103310004DDA109900294CDB3598C068814248DAB3
:10332000002C48DB359909698C4244DA73430F9DC0
:10333000AC46634443431098844663444B43E318CC
:103340003699CA540134119B9C4236DA00231D93EE
:103350009946B446A046319D2CE700214BE75B42DD
:103360009A464DE780231B06984202D000239846D8
:103370004CE70123984649E7294951E7294B9946EB
:1033800068E7B321284B294A4900294810F076FC08
:103390006821284B254AFF31254810F06FFC1FABF0
:1033A0009CE71EABA0E71EF07BF91EF079F91EF03A
:1033B00077F91EF075F91EF073F9B346319D109B35
:1033C00001331093109A159B9A4209DA179B5343C5
:1033D000199A9B1A059300235E461C003195B2E7AB
:1033E0005E460F9B01330F930F9A169B9A4208DAA1
:1033F000189B53431A9A9B1A0E9300231093B346BB
:10340000E0E701361B9B9E4202DA00230F93EBE7B5
:1034100027B0F0BCBB46B246A946A046F0BDC046A8
:10342000010000C0FFFFFF7FC4930210D49302107D
:103430003094021094940210F0B5DE4657464E4682
:103440004546E0B5E7B004001D0053694593166991
:103450004496012B01D1012E63D02B695B4230AC25
:103460006361AB69E3619368A381536863815369C6
:1034700023821369E3816B68A3802B686380EB6A06
:10348000A3622B6BE3626B6A9A46AB6A9B467099A8
:1034900048A807F0B8FF7098FEF731FF09904EAFCB
:1034A0007199380007F0AFFF7198FEF728FF80464A
:1034B00054AD7299280007F0A6FF7298FEF757FFE7
:1034C00081465AAE7399300007F09DFF7398FEF75E
:1034D0001DFF069005964B460493039543460293C1
:1034E0000197099B009348AB5A4651462000FFF7CD
:1034F00093FC5A9B052B00DD87E1549B052B00DDD7
:1035000085E14E9B052B00DD83E1489B052B00DD0B
:1035100081E1002067B0F0BCBB46B246A946A04698
:10352000F0BD2B695B423E93AB693F939368419337
:103530005368099340936B6843932B684293EB6AFB
:1035400046932B6B47936B6A0A93AB6A0B93719903
:103550001EA807F058FF709924A807F054FF73992C
:103560002AA807F050FF729930A807F04CFF469A3E
:10357000479B9A426BDC249B042B6AD11E9B042B35
:1035800069D12A9B042B68D1249B002B67DD052B76
:1035900067DD259B1B682A9A002A64DD052A64DD05
:1035A0002B9A12689A4262D165932A9A002A60DDAA
:1035B000052A60DD2B9A1268649293425DDC65AB4C
:1035C0001B689846249B032B59DD052B59DD259B51
:1035D000DB681E9A032A56DD052A56DD1F9AD2683B
:1035E0009A4254D163931E9A032A52DD052A52DD72
:1035F0001F9AD268629293424FDC63AB1B68994674
:103600001E9B002B4BDD052B4BDD1F9B1B682A9A55
:10361000032A48DD052A48DD2B9AD2689A4246D112
:1036200061932A9A032A44DD052A44DD2B9AD26845
:103630006092934241DC61AB1F687298FEF75FFEB7
:10364000002847D03099052939DD319838E01EF03F
:1036500027F81EF025F81EF023F81EF021F81EF0C2
:103660001FF8259B97E71EF01BF82B9A9AE71EF090
:1036700017F81EF015F82B9A9EE764ABA0E71EF032
:103680000FF8289BA5E71EF00BF8229AA8E71EF07A
:1036900007F81EF005F8229AACE762ABAEE71DF022
:1036A000FFFF1F9BB3E71DF0FBFF2E9AB6E71DF04F
:1036B000F7FF1DF0F5FF2E9ABAE760ABBCE731A823
:1036C000002303E09A001258564301339942F9DC73
:1036D000B74278D143460E93249B012B75DD052B11
:1036E00075DD259B5B680F93249B022B71DD052BF9
:1036F00071DD259B9B6810934B46119312971E9B7F
:10370000012B6ADD052B6ADD1F9B5B6813931E9BF3
:10371000022B66DD052B66DD1F9B9B6814934B46D1
:1037200015930123169317931893199743461A93E9
:103730002A9B012B59DD052B59DD2B9B5B681B93C5
:103740002A9B022B55DD052B55DD2B9B9B681C937B
:103750001D9700230C930D93696B002903DB636CA9
:10376000200098470C907098FEF7C9FD04007198EE
:10377000FEF7C5FD05007298FEF7F9FD0600739887
:10378000FEF7C4FD06901AAB0593049616AB03939F
:10379000029512AB019300940EAB0AAA3EA90CA8A5
:1037A0000BF032F8002828D1309B052B27DC2A9B10
:1037B000052B26DC249B052B25DC1E9B052B00DC22
:1037C000A7E61DF06DFF1DF06BFF1DF069FF269B46
:1037D00089E71DF065FF279B8DE71DF061FF209BAA
:1037E00094E71DF05DFF219B98E71DF059FF2C9B8E
:1037F000A5E71DF055FF2D9BA9E71DF051FF1DF01A
:103800004FFF1DF04DFF1DF04BFF1DF049FF1DF058
:1038100047FF1DF045FF1DF043FF0000F0B5DE46F9
:1038200057464E464546E0B5ABB00E0005921D002A
:10383000359B0A21425E1B920C21425E1C920E2196
:10384000425E07921021425E0C920221425E1D925E
:103850000421425E1E924269039282690492C26907
:103860001892026A1492426A1592816A2391C26A7E
:103870002292914276DC3268042A75D12A68042AA1
:1038800074D1379A12680192042A71D13268002AE1
:1038900070DD052A70DD72681268379909680029A1
:1038A0006CDD05296CDD37994968096891426AD158
:1038B000299237990968002967DD052967DD37995D
:1038C0004968096828918A4264DC29AA12681F9213
:1038D0003268032A60DD052A60DD7268D2682968D3
:1038E00003295DDD05295DDD6968C96891425BD109
:1038F00027922968032959DD052959DD6968C968B6
:1039000026918A4256DC27AA126802922A68002A67
:1039100052DD052A52DD6A68126837990968032961
:103920004EDD05294EDD37994968C96891424CD171
:10393000259237990968032949DD052949DD379919
:103940004968C96824918A4246DC25AA1268179200
:10395000369A002A4DD0186805283FDD5B680022A2
:10396000012141E01DF09CFE1DF09AFE1DF098FE25
:103970001DF096FE1DF094FE72688EE71DF090FE1D
:103980003799496892E71DF08BFE1DF089FE379943
:10399000496897E728AA99E71DF082FE32699EE7F9
:1039A0001DF07EFE2969A1E71DF07AFE1DF078FE6C
:1039B0002969A5E726AAA7E71DF072FE6A68ACE7A9
:1039C0001DF06EFE37990969B0E71DF069FE1DF024
:1039D00067FE37990969B5E724AAB7E70433BEE75C
:1039E0009400E458614301329042F9DC179B8B420A
:1039F00038D13368012B37DD052B37DD73685B6801
:103A00000A933368022B34DD052B34DD73689B6821
:103A100009932B68012B31DD052B31DD6B685B6869
:103A20000B932B68022B2EDD052B2EDD6B689B681C
:103A30000693379B1B68012B2ADD052B2ADD379B5C
:103A40005B685B681A93379B1B68022B26DD052B8E
:103A500026DD379B5B689B681993002733003E0087
:103A60001F00D8E11DF01CFE1DF01AFEB3680A937A
:103A7000C7E71DF015FEF3680993CAE71DF010FEB5
:103A8000AB680B93CDE71DF00BFEEB680693D0E718
:103A90001DF006FE379B9B681A93D4E71DF000FECD
:103AA000379BDB681993D8E71DF0FAFD1DF0F8FD90
:103AB0001DF0F6FD1DF0F4FD1DF0F2FD1DF0F0FD12
:103AC0001DF0EEFD1DF0ECFD1DF0EAFD1DF0E8FD22
:103AD000B146464680466046019B9C460130069BA7
:103AE00098426EDA07994143089BC918F6D4099B9E
:103AF0009942F3DA002EF1DB0A9B9E42EEDA0022B5
:103B00000B006146019184464046B0464E469946B8
:103B1000029B9A42DCDA3B68042BC5D1019900294B
:103B2000C4DB7B689942C1DA4346002BC0DBBB682B
:103B30009845BDDA4C46002CBCDBFC68A246A1458A
:103B4000B8DA002AB8DB3C69A242B5DA01994B43E6
:103B5000434451464B434B446343D3180599CC5CD3
:103B60002B68042BAAD10028AADB6B689842A7DA3D
:103B7000002EA7DBAB689E42A4DA61460029A3DBD6
:103B8000E9688B468C459FDA002A9FDB29698A46C3
:103B90008A429BDA4343F31859464B4363445146E8
:103BA0004B43D3183499CB5C04998A465344039908
:103BB0008A4654445C43219B9A46544421940132E2
:103BC000A6E701239A46D1440B9B994507DA0C9E40
:103BD0004B465E430D9B9A46564400207FE766465F
:103BE00044460195369B002B06D0A300369A9B587D
:103BF000219A9446634421932198159A131E00DA62
:103C0000B4E0159A002A00DCB2E000229246984007
:103C1000149B834200D1AEE000239846C117149A4A
:103C2000D31712F09DF902000B1E00DAADE08021DF
:103C3000C9050E91C9170F910E980F9912184B4193
:103C4000D917490049081091002111911098119934
:103C500012184B4111005B00CA0F134399464346AB
:103C6000002B00D093E05346002B00DA92E01F2B8C
:103C700000DD96E0012098400138FEF756FB8046B3
:103C80000020FEF752FB16900120FEF74EFB834604
:103C900041464846FEF74AFB050001214046FEF733
:103CA00047FB804616994846FEF74FFB5946FEF7FC
:103CB0003DFB01004046FEF73DFB8046514648462D
:103CC000FEF736FB814641462800FEF747FB594682
:103CD000FEF72CFB01004846FEF72CFB2190189BB9
:103CE0009C4660442190239B984261DB21AB1B687A
:103CF0002193229A93425DDC21AB1A682192379B73
:103D00001B681693042B57D1002E57DB379B5B683B
:103D100016939E4252DA1299002951DB379B9B6819
:103D200099424DDA139900294CDB3798C0688142DB
:103D300048DA002C48DB379909698C4244DA73432E
:103D4000129DAC46634443431398844663444B43FB
:103D5000E3183899CA540134179B9C4236DA002381
:103D600021939946B446A046019D2DE7002348E7DC
:103D7000524292464BE780231B06984202D0002312
:103D800098464BE70123984648E7294951E7294BD4
:103D9000994668E7B321284B284A490028480FF084
:103DA0006DFF6821274B254AFF3125480FF066FF3C
:103DB00023AB9CE722ABA0E71DF072FC1DF070FC6A
:103DC0001DF06EFC1DF06CFC1DF06AFCB346019DFD
:103DD000139B01331393139A199B9A4209DA1B9B85
:103DE00053431D9A9B1A089300235E461C000195BD
:103DF000B2E75E46129B01331293129A1A9B9A42C3
:103E000008DA1C9B53431E9A9B1A0D9300231393AD
:103E1000B346E0E701361F9B9E4202DA002312936D
:103E2000EBE72BB0F0BCBB46B246A946A046F0BDBE
:103E3000010000C0FFFFFF7FC4930210D493021063
:103E40003094021094940210F0B5DE4657464E4668
:103E50004546E0B5B5B019694D42596948429E6979
:103E60001178012902D0022900D0002108AC21706C
:103E7000196861805968A180516861819168A18148
:103E80001169E181526922820D950E900F96DA69CF
:103E900010921A6A52421192DA6A12921B6B1393B1
:103EA0003E9916A807F0AFFA3E98FEF733FA81461E
:103EB0003F991CA807F0A7FA3F98FEF72BFA824615
:103EC00022AD4099280007F09EFA4098FEF74FFA7D
:103ED000834628AE4399300007F095FA4398FEF7E1
:103EE00020FA80462EAF4199380007F08CFA4198AD
:103EF000FEF717FA002307930690059743460493AD
:103F000003965B4602930195534600931CAB4A46C9
:103F100016A92000FFF782FC2E9B052B13DC289BA3
:103F2000052B12DC229B052B11DC1C9B052B10DCC6
:103F3000169B052B0FDC002035B0F0BCBB46B2460B
:103F4000A946A046F0BD1DF0ABFB1DF0A9FB1DF07E
:103F5000A7FB1DF0A5FB1DF0A3FB0000F0B5CE46AE
:103F6000474680B587B004000D00CB68994600280D
:103F700039D0002939D00B685968436D984706003D
:103F8000002C34D0002D34D02B6899682000636D4C
:103F9000984707002B681B68032B2CD000239846FA
:103FA000002C37D0002D37D06B6859682000636D26
:103FB0009847AB68002B31D0327A017A8A422FD0F1
:103FC0006569D32303910292374A0192374A0092DE
:103FD0005B00374A37492000A847012007B0C0BC22
:103FE000B946B046F0BD1DF05BFB1DF059FB1DF05E
:103FF00057FB1DF055FB002C08D0002D08D02B6876
:10400000D9682000636D98478046C9E71DF048FBDA
:104010001DF046FB1DF044FB1DF042FB1DF040FB74
:10402000397A8A4205D063692349200098470120E4
:10403000D4E7032A2AD0092A1BD0012A0AD06569AD
:104040001000FCF7C1FF0200337A1C492000A8478A
:104050000120C3E705900022049203924246029297
:10406000019700964A4629002000FEF753FE0020E3
:10407000B4E7002204920390424602920197009610
:104080004A4629002000FFF7D7F9A7E7059000224C
:104090000492039242460292019700964A462900F2
:1040A0002000FFF7D1FE99E7A4940210B494021007
:1040B00024930210B8910210C09402105895021077
:1040C00010B5836B002B02D03821984710BD1DF02E
:1040D000E7FA0000F0B5DE4657464E464546E0B5E5
:1040E00091B005000C0016000B931DAB1B78984691
:1040F0000B681B68032B0AD0022B08D044695F4B66
:10410000009349235E4A5F49A047012011E063689C
:104110001B68012B14D06C690122039202935A4B45
:1041200001935A4B00934A23554A59492800A04706
:10413000012011B0F0BCBB46B246A946A046F0BD76
:1041400001235B421E9A5363B3689B4673689A4689
:104150003778012F34D0022F3AD000239946012F0F
:104160003FD0022F45D00023013B5A4653431C9AAF
:10417000944663441A9A9B1A44D401211940DA0FD9
:10418000D3185B100D930F9148460138534658439E
:104190001B9B9C4660440B9BC71A35D401213940B8
:1041A000FB0FDF197F100CAA0C970E911E9B83CA80
:1041B00083C312681A604346012B27D10020B8E759
:1041C0000B9850440138190010F0FCFE8146C6E7F8
:1041D0000B9850441B9BC01A514610F0F3FE8146C9
:1041E000BDE71A9858440138594610F0EBFE030019
:1041F000BAE71A9858441C9BC01A594610F0E2FEC0
:104200000300B1E70023B8E70027C7E70022210039
:104210002800FDF73DFE8046012221002800FDF721
:1042200037FE0700022221002800FDF76DFE8146BF
:10423000002221002800FDF749FE7B691B6910362A
:104240001E9A926A0B92089307921E9B5B6A0B93CD
:1042500006931E9B303305931E9B2C3304931E9BA9
:10426000203303931E9C1C340294019600904B460D
:104270003A0041462800FDF70DFF5AE78C930210E3
:1042800094950210E4870210689B0210B09302100C
:10429000B8910210F0B5DE4657464E464546E0B5A9
:1042A000BBB004000D008F68002F56D0CB689A4633
:1042B000002B54D00022FDF7EBFD0600012229005F
:1042C0002000FDF7E5FD8046002229002000FDF7D3
:1042D000FDFD0A90337F9B467369DA6806929B68FE
:1042E000079343465B69DA6808929A6809925A46CE
:1042F000092A36D01B699B00994619002000A36B40
:104300009847786249462000A36B9847B8620497A3
:104310005B460393099B0293089B0193079B0093C1
:10432000069B524629002000FFF7D4FE8146002854
:104330000BD1F3683B614346DB687B610A9BDB681A
:104340000B93BB61337F092B65D048463BB0F0BC73
:10435000BB46B246A946A046F0BD1DF0A1F91DF02E
:104360009FF9424612789146012A0FD065690123D0
:1043700003930292C34B0193C34B00938023C34A20
:10438000C3492000A84701239946DEE74246526808
:10439000002A14D0116800291AD05068002820D0B3
:1043A0000A68012A26D019698A4223D06569B94B67
:1043B00000938A23B54AB8492000A847C5E7656934
:1043C000B64B00938723B14AB3492000A847BCE706
:1043D0006569B34B00938823AC4AAF492000A847D6
:1043E000B3E76569AF4B00938923A84AAA49200027
:1043F000A847AAE701688A4200D17BE76569039173
:104400000292A94B0193A94B00938E239F4AA04986
:104410002000A84799E7002E00D1D3E0716904C9B4
:10442000002319931992052A00DDCEE0199B052B74
:1044300000DCCCE01A98920011F09CFF0A9B002B44
:1044400000D1C6E00A9B596904C900231F931F923B
:10445000052A00DDBFE01F9B052B00DCBDE0209896
:10446000920011F087FF4346002B00D1B7E0596955
:1044700004C9002325932592052A00DDB1E0259B80
:10448000052B00DCAFE02698920011F073FF199B1A
:10449000042B00D0A9E0259B042B00D0A7E01F9B94
:1044A000042B00D0A5E0199B002B00DCA3E0052B1A
:1044B00000DCA2E01A9B1B681F9A002A00DC9EE029
:1044C000052A00DC9DE0209A12689A4200D09AE00A
:1044D00039931F9A002A00DC97E0052A00DC96E059
:1044E000209A12683892934200DD92E039AB1B6843
:1044F0001F9A032A00DC8EE0052A00DC8DE0209A5A
:10450000D2682599032900DC89E0052900DC88E0D0
:104510002699C968914200D085E0379225990329F0
:1045200000DC82E0052900DC81E02699C96836912B
:104530008A427EDC37AA1268012B7CD10D93079941
:104540000E9106990F911999032976DD052976DDDB
:104550001A99C9681091012111910999129108992C
:104560001391149215931F9B012B6ADD052B6ADDB5
:10457000209B5B6816931F9B022B66DD052B66DD77
:10458000209B9B68179318927B6831933B6830930C
:1045900015AB11AA0DA92BA80BF0FDFB011E5EDDCA
:1045A000236C3A0034322000984700285AD0259BCB
:1045B000052B4EDC1F9B052B4DDC199B052B4CDC82
:1045C0008146C2E60023199338E71DF069F81AA85E
:1045D00031E71F9347E71DF063F820A840E72593D4
:1045E00055E71DF05DF826A84EE71DF059F81DF0BF
:1045F00057F81DF055F81DF053F81A9B5CE71DF0B5
:104600004FF8209A61E71DF04BF81DF049F8209A09
:1046100068E738AB6BE71DF043F8239A71E71DF0AC
:104620003FF8299976E71DF03BF81DF039F82999F4
:104630007DE736AA7FE71DF033F81DF031F81D99AC
:1046400088E71DF02DF8219B94E71DF029F8229BA7
:1046500098E71DF025F81DF023F81DF021F801233F
:104660005B427B63259B052B08DC1F9B052B07DC2E
:10467000199B052B00DC68E61DF012F81DF010F800
:104680001DF00EF8D49102100C92021094950210B5
:10469000B891021024960210E487021028920210AA
:1046A0003C92021004960210A8960210C0920210CA
:1046B000F0B5DE4657464E464546E0B5A3B08846BF
:1046C0000A929A462D9B0A21425E11920C21425E6B
:1046D00012920E21425E93461021425E0092022108
:1046E000425E13920421425E14921221425E1092A5
:1046F0000F92026B1592426B0E9242461268042A88
:1047000000D0B9E052461268042A00D0B6E02F9AD1
:1047100012680192042A00D0B2E042461268002AD0
:1047200000DCAFE0052A00DCAEE0424652681268C9
:104730002F990968002900DCA9E0052900DCA8E020
:104740002F9949680968914200D0A5E021922F99DC
:104750000968002900DCA1E0052900DCA0E02F9910
:104760004968096820918A4200DD9CE021AA12680C
:10477000199252461268032A00DC96E0052A00DCF2
:1047800095E052465268D2682F990968032900DCE7
:1047900090E0052900DC8FE02F994968C9689142B3
:1047A00000D08CE01F922F990968032900DC88E073
:1047B000052900DC87E02F994968C9681E918A4263
:1047C00000DD83E01FAA156842461268012A7FDDDA
:1047D000052A7FDD424652685268029242461268BC
:1047E000022A7BDD052A7BDD4246526892680192EF
:1047F00042461268032A77DD052A77DD4246526871
:10480000D268169252461268012A73DD052A73DDBA
:10481000524652685268069252461268022A6FDD6A
:10482000052A6FDD52465268926891462F9A1268A7
:10483000012A6BDD052A6BDD2F9A526852681892A7
:104840002F9A1268022A67DD052A67DD2F9A5268BF
:1048500092681792169A10994A43AA4262D1186830
:10486000052861DD5B680022012190425EDD940035
:10487000E45861430132F8E71CF012FF1CF010FF0E
:104880001CF00EFF1CF00CFF4246526850E71CF073
:1048900007FF2F99496856E71CF002FF1CF000FF44
:1048A0002F9949685EE720AA61E71CF0F9FE52469D
:1048B000126969E71CF0F4FE2F9909696FE71CF093
:1048C000EFFE1CF0EDFE2F99096977E71EAA7AE743
:1048D0001CF0E6FE4246926802927FE71CF0E0FE82
:1048E0004246D268019283E71CF0DAFE4246126922
:1048F000169287E71CF0D4FE5246926806928BE728
:104900001CF0CEFE5246D26891468FE71CF0C8FEDE
:104910002F9A9268189293E71CF0C2FE2F9AD268E1
:10492000179297E71CF0BCFE04339CE78D4206D13A
:10493000002304935346CA46D9469B462CE11CF0FB
:10494000AFFE1CF0ADFE1CF0ABFE1CF0A9FE1CF08F
:10495000A7FE1CF0A5FE1CF0A3FE1CF0A1FE1CF09F
:104960009FFE1CF09DFE1CF09BFE0134BC426BDAE6
:10497000009A72434244534663435B19F5D401994C
:104980008B42F2DA002AF0DB02998A42EDDA4946DC
:1049900009680429D5D104990029D4DB4846406828
:1049A0008142D0DA002AD0DB494689688C468A42A7
:1049B000CBDA002BCBDB4946C96808918B42C6DABB
:1049C00007980028C5DB4946096909918842C0DA81
:1049D0006046049948438446624408994A439B18B8
:1049E000099A5343079A944663449B000A9A98583D
:1049F0005B461B68042BAED15B465B68002BACDDCD
:104A0000002EACDB5B469B689E42A8DA002CA8DB3C
:104A10005B46DB689C42A4DA03990029A3DB5A4673
:104A2000126991429FDA7343E3185343039A944601
:104A300063449B002C9A995811F0CFFA011C0598F9
:104A400011F0B0FA059090E70136069B9E4201DA1C
:104A500000248BE72E9B002B67D0039B9B002E9A94
:104A6000D158059811F09EFA2F9B1B680593042BD3
:104A70005DD1049B002B5CDB2F9A52680592934218
:104A800057DA0B9B002B56DB2F9A9468A34252DA1D
:104A90000C9B002B51DB2F9AD1688B424DDA039B84
:104AA000002B4CDB2F9A1269934248DA049B5C433B
:104AB0000B9B9C4664444C430C9B9C46644454436F
:104AC000039B9C466444A400309B9C4664441B901A
:104AD00015991C910E9B1D9311F0B8FA002830D146
:104AE0001BAD29680E9811F0B1FA00282BD12B6864
:104AF00023600D9B01330D930D9A0F9B9A4224DA8C
:104B0000109B07994B43944663440393119D0C9B60
:104B10005D43139BED1A129B0B9A5343149A9B1AF5
:104B200098460026002305938FE7002199E71CF0A3
:104B3000B7FD1CF0B5FD1CF0B3FD1CF0B1FD1CF081
:104B4000AFFD1CADCDE71DADD1E7079B013307934A
:104B5000079B169A934202DA00230D93CCE70C9B35
:104B600001330C930C9B179A934202DA00230793AC
:104B7000EEE7C846D146BA460B9B01330B930B9B1D
:104B8000189A934205DA00230C935746CA46C14649
:104B9000E8E7049B01330493049B199A934202DAD9
:104BA00000230B93EBE723B0F0BCBB46B246A9460B
:104BB000A046F0BD30B5044B020032CB32C232CB3E
:104BC00032C212CB12C230BDD0960210F0B5CE4622
:104BD000474680B5B1B015001E00107C16AA17A973
:104BE000FDF7CCFB06AC0123237033686380736848
:104BF000A3806B686381AB68A3816B69E381AB6958
:104C00002382EB686382179B1293169B1393389948
:104C100018A806F0F8FB3898FDF766FB804639992E
:104C20001EA806F0F0FB3998FDF75EFB814624AD27
:104C30003A99280006F0E7FB3A98FDF755FB070084
:104C40002AAE3B99300006F0DEFB3B98FDF753FBA4
:104C500004900396029701954B4600931EAB424683
:104C600018A92000FFF724FD2A9B052B0DDC249BAF
:104C7000052B0CDC1E9B052B0BDC189B052B0ADC83
:104C800031B0C0BCB946B046F0BD1CF009FD1CF007
:104C900007FD1CF005FD1CF003FD0000F0B5DE462D
:104CA00057464E464546E0B5A9B019911A929B4623
:104CB000339B9A46359B0A21425E14920C21425E38
:104CC00015920E22875E1022855E0221425E1692A8
:104CD0000421425E17921221425E1392129242699F
:104CE0000A92C2691892816A2391C26A2292584636
:104CF0000068042800D0BEE050460068042800D0B8
:104D0000BBE0379800680190042800D0B7E09142DA
:104D100000DDB6E05A461268002A00DCB3E0052A3E
:104D200000DCB2E05A4652681268379909680029D7
:104D300000DCADE0052900DCACE037994968096882
:104D4000914200D0A9E0279237990968002900DC38
:104D5000A5E0052900DCA4E0379949680968269197
:104D60008A4200DDA0E027AA12681F92524612680C
:104D7000032A00DC9AE0052A00DC99E052465268DA
:104D8000D26837990968032900DC94E0052900DC22
:104D900093E037994968C968914200D090E0259224
:104DA00037990968032900DC8CE0052900DC8BE0D9
:104DB00037994968C96824918A4200DD87E025AAAD
:104DC000126894465A461268012A00DC81E0052ADE
:104DD00000DC80E05A465268526805925A461268D2
:104DE000022A7CDD052A7CDD5A465268926890468C
:104DF0005A461268032A78DD052A78DD5A46526839
:104E0000D2681B9252461268012A74DD052A74DDAD
:104E1000524652685268079252461268022A70DD62
:104E2000052A70DD524652689668379A1268012A40
:104E30006CDD052A6CDD379A526852681D92379AEC
:104E40001268022A68DD052A68DD379A526892687E
:104E50001C921B9A13994A43624563D1186805282E
:104E600062DD5B680022012190425FDD9400E4581E
:104E700061430132F8E71CF013FC1CF011FC1CF03C
:104E80000FFC1CF00DFC1CF00BFC5A4652684CE762
:104E90001CF006FC3799496852E71CF001FC1CF035
:104EA000FFFB379949685AE726AA5DE71CF0F8FB33
:104EB0005246126965E71CF0F3FB379909696BE705
:104EC0001CF0EEFB1CF0ECFB3799096973E724AA90
:104ED00076E71CF0E5FB5A46926805927EE71CF0E7
:104EE000DFFB5A46D268904682E71CF0D9FB5A464F
:104EF00012691B9286E71CF0D3FB52469268079218
:104F00008AE71CF0CDFB5246D6688EE71CF0C8FB42
:104F1000379A92681D9292E71CF0C2FB379AD268CA
:104F20001C9296E71CF0BCFB04339BE78C4513D125
:104F3000002306932C003D00C146D846D346B24616
:104F4000069B1F9A934200DBF3E100230B935B4621
:104F50003393C3469846D8E11CF0A2FB1CF0A0FB9B
:104F60001CF09EFB1CF09CFB1CF09AFB1CF098FBB9
:104F70001CF096FB1CF094FB1CF092FB1CF090FBC9
:104F80001CF08EFB0132AA426CDA390061434144C5
:104F9000019B534302981B18F4D45345F2DA0029BD
:104FA000F0DB05988142EDDA584600680428D5D137
:104FB00006980028D4DB5E467668B042D0DA002935
:104FC000D0DB5846806881468142CBDA002BCBDBB0
:104FD0005846C06808908342C6DA03980028C5DBAB
:104FE00058460069060009900398B042BEDA484668
:104FF000069E704381464944089841435B180999CD
:105000004B43039989464B443299C95663461B6802
:10501000042BADD163465B68002BABDD002CABDB12
:1050200063469B689C42A7DA002AA7DB6346DB68DD
:105030009A42A3DA04980028A2DB66463669B04299
:105040009EDA6343D3187343049881464B443498E3
:10505000C3560A98814649445943219B994649447D
:1050600021918FE7019E02980134079B9C4203DA4D
:1050700000220196029086E72C0035003E005B4638
:10508000D34667469A46369B002B07D0049B9B006D
:10509000369A9B58219A9446634421932198049B05
:1050A0009B00199AD2581A99CB58191E00DAD4E0ED
:1050B000002B00DCD3E0002398468840824200D1D8
:1050C000D0E000230193C117D31710F049FF02006D
:1050D0000B1E00DAD0E08021C9050E91C9170F918F
:1050E0000E980F9912184B41D91749004908109191
:1050F000002111911098119912184B4111005B0079
:10510000CA0F13439946019B002B00D0B6E04346DB
:10511000002B00DAB5E01F2B00DDB9E0012098403C
:105120000138FDF702F901900020FDF7FEF8089024
:105130000120FDF7FAF8029001994846FDF7F6F8CC
:10514000099001210198FDF7F3F80190089948466C
:10515000FDF7FBF80299FDF7E9F801000198FDF76A
:10516000E9F8019041464846FDF7E2F8804601998A
:105170000998FDF7F3F80299FDF7D8F801004046C9
:10518000FDF7D8F82190189B9C4660442190239B02
:10519000984200DA83E021AB1B682193229A934264
:1051A0007FDC21AB19682191379B1B680193042B8D
:1051B00079D1069B002B78DB379A52680192934293
:1051C00073DA0B9A002A72DB379B9B689A426EDA7D
:1051D0000C9A002A6DDB3798C0688446824268DAF0
:1051E000049A002A67DB37980069824263DA069ADC
:1051F00053430B9A90464344624653430C9A944659
:1052000063444343049A94466344389AD1540D9BB3
:1052100001330D930D9A129B9A424EDA139B039918
:105220004B4394466344049314980C9B5843169B39
:10523000C01A159B0B9A5343179A9B1A9846002342
:1052400021939C465346DA46339737002E002500BB
:105250006446339A94469B4607E7002128E75B4261
:1052600098462AE780231B06984202D00023019328
:1052700029E70123019326E731492EE7314B99466F
:1052800045E7B321304B314A490031480EF0F6FC76
:105290006821304B2D4AFF312D480EF0EFFC23AB37
:1052A0007AE722AB7EE71CF0FBF91CF0F9F91CF061
:1052B000F7F91CF0F5F91CF0F3F9D346B246B846FD
:1052C000039B01330393039B1B9A934207DA00234A
:1052D0000D935646DA461E9B9B4647469AE7A146E3
:1052E0002C000C9B01330C930C9B1C9A934204DA08
:1052F0000023039325004C46E5E725005446CA46A3
:105300001E9B99460B9B01330B930B9B1D9A93425B
:1053100007DA00230C934B461E93D146A2462C007D
:10532000E2E743463393D8469B46069B01330693F8
:1053300006E629B0F0BCBB46B246A946A046F0BD81
:10534000010000C0FFFFFF7FC4930210D49302103E
:105350003094021094940210F0B5DE4657464E4643
:105360004546E0B5E9B004001D00936949935669CC
:105370004896012B01D1012E68D031AC0123237056
:105380002B6863806B68A380536863819368A381F3
:10539000E68193692382D36863822B695B426361F0
:1053A0000023A361AB69E36180235B42A362FF3307
:1053B000E3626B6A9A46AB6A9B4672994CA806F008
:1053C00022F87298FCF79BFF099052AF739938004E
:1053D00006F019F87398FCF792FF804658AD74995F
:1053E000280006F010F87498FCF7C1FF81465EAE05
:1053F0007599300006F007F87598FCF787FF06905E
:1054000005964B4604930395434602930197099BE7
:1054100000934CAB5A4651462000FFF73FFC5E9B81
:10542000052B00DD63E1589B052B00DD61E1529BFC
:10543000052B00DD5FE14C9B052B00DD5DE169B0D4
:10544000F0BCBB46B246A946A046F0BD2B695B4204
:105450004193AB69429393684593536844936B6857
:1054600047932B68469380235B424A93FF334B93C9
:10547000D368099343936B6A0B93AB6A0C9373994C
:105480001FA805F0C0FF729925A805F0BCFF75990B
:105490002BA805F0B8FF749931A805F0B4FF4A9A1B
:1054A0004B9B9A4244DC259B002B43DD052B43DDBF
:1054B000269B1B682B9A002A40DD052A40DD2C9A8A
:1054C00012689A423ED167932B9A002A3CDD052A46
:1054D0003CDD2C9A12686692934239DC67AB1B68FC
:1054E00098461F9B032B35DD052B35DD209BDB68A4
:1054F0002B9A032A32DD052A32DD2C9AD2689A4291
:1055000030D165932B9A032A2EDD052A2EDD2C9AA5
:10551000D268649293422BDC65AB1F687498FCF7E9
:10552000EEFE002832D03199052923DD329822E0A1
:105530001CF0B6F81CF0B4F8269BBBE71CF0B0F8E2
:105540002C9ABEE71CF0ACF81CF0AAF82C9AC2E723
:1055500066ABC4E71CF0A4F8239BC9E71CF0A0F8D5
:105560002F9ACCE71CF09CF81CF09AF82F9AD0E701
:1055700064ABD2E732A8002303E09A0012585643E6
:1055800001339942F9DCB74200D086E043460F93DD
:10559000259B012B00DC82E0052B00DC81E0269BB3
:1055A0005B681093259B022B7DDD052B7DDD269B03
:1055B0009B681193259B032B79DD052B79DD269BB9
:1055C000DB6812931F9B002B75DD052B75DD209B7F
:1055D0001B6813931F9B012B71DD052B71DD209B35
:1055E0005B6814931F9B022B6DDD052B6DDD209BEB
:1055F0009B681593169701231793189319931A977D
:1056000043461B932B9B012B61DD052B61DD2C9BFE
:105610005B681C932B9B022B5DDD052B5DDD2C9BBA
:105620009B681D931E9700230D930E93696B0029B1
:1056300003DB636C200098470D907298FCF75FFEC7
:1056400004007398FCF75BFE05007498FCF78FFE6E
:1056500006007598FCF75AFE06901BAB059304965E
:1056600017AB0393029513AB019300940FAB0BAAF6
:1056700041A90DA80AF04FFB002830D1319B052B22
:105680002FDC2B9B052B2EDC259B052B2DDC1F9B5C
:10569000052B00DCD3E61CF003F81CF001F81BF02E
:1056A000FFFF279B7DE71BF0FBFF289B81E71BF09B
:1056B000F7FF299B85E71BF0F3FF209B89E71BF091
:1056C000EFFF219B8DE71BF0EBFF229B91E71BF087
:1056D000E7FF2D9B9DE71BF0E3FF2E9BA1E71BF04F
:1056E000DFFF1BF0DDFF1BF0DBFF1BF0D9FF1BF022
:1056F000D7FF1BF0D5FF1BF0D3FF1BF0D1FF00003D
:10570000F0B5DE4657464E464546E0B5ABB08B4653
:105710000C929A46359B0A21425E18920C21425EF9
:1057200019920E22875E1022855E0221425E1A9235
:105730000421425E1B921221425E17921692816AE8
:105740002591C26A249244690A9484690B94C469BD
:105750001C94046A1494406A159058460068042802
:1057600000D0BEE050460068042800D0BBE0379867
:1057700000680190042800D0B7E0914200DDB6E057
:105780005A461268002A00DCB3E0052A00DCB2E0C9
:105790005A465268126837990968002900DCADE062
:1057A000052900DCACE0379949680968914200D0CE
:1057B000A9E0299237990968002900DCA5E00529AC
:1057C00000DCA4E037994968096828918A4200DD25
:1057D000A0E029AA1268219252461268032A00DC2E
:1057E0009AE0052A00DC99E052465268D26837995F
:1057F0000968032900DC94E0052900DC93E037996F
:105800004968C968914200D090E0279237990968A9
:10581000032900DC8CE0052900DC8BE0379949681E
:10582000C96826918A4200DD87E027AA126894465B
:105830005A461268012A00DC81E0052A00DC80E07B
:105840005A465268526804925A461268022A7CDD0F
:10585000052A7CDD5A465268926890465A4612687C
:10586000032A78DD052A78DD5A465268D2681D92EF
:1058700052461268012A74DD052A74DD52465268C8
:105880005268079252461268022A70DD052A70DDBE
:10589000524652689668379A1268012A6CDD052ACA
:1058A0006CDD379A526852681F92379A1268022A42
:1058B00068DD052A68DD379A526892681E921D9A43
:1058C00017994A43624563D11868052862DD5B6811
:1058D0000022012190425FDD9400E45861430132CF
:1058E000F8E71BF0DDFE1BF0DBFE1BF0D9FE1BF022
:1058F000D7FE1BF0D5FE5A4652684CE71BF0D0FE8F
:105900003799496852E71BF0CBFE1BF0C9FE379967
:1059100049685AE728AA5DE71BF0C2FE52461269A1
:1059200065E71BF0BDFE379909696BE71BF0B8FE10
:105930001BF0B6FE3799096973E726AA76E71BF0D4
:10594000AFFE5A46926804927EE71BF0A9FE5A46C3
:10595000D268904682E71BF0A3FE5A4612691D9258
:1059600086E71BF09DFE5246926807928AE71BF07D
:1059700097FE5246D6688EE71BF092FE379A9268E1
:105980001F9292E71BF08CFE379AD2681E9296E720
:105990001BF086FE04339BE78C450ED10023069353
:1059A0002C003D00C146D046B246069B219A934248
:1059B00000DBEBE100230D93D8E11BF071FE1BF03F
:1059C0006FFE1BF06DFE1BF06BFE1BF069FE1BF003
:1059D00067FE1BF065FE1BF063FE1BF061FE1BF013
:1059E0005FFE1BF05DFE0132AA426FDA39006143AF
:1059F0004144019B534302981B18F4D45345F2DAF7
:105A00000029F0DB04988142EDDA5846006804284A
:105A1000D5D106980028D4DB5E467668B042D0DA4D
:105A20000029D0DB5846806881468142CBDA002BC2
:105A3000CBDB5846C06808908342C6DA039800283A
:105A4000C5DB58460069060009900398B042BEDAEB
:105A50004846069E704381464944089841435B1876
:105A600009994B43039989464B440C99C95C634699
:105A70001B68042BADD163465B68002BABDD002CAB
:105A8000ABDB63469B689C42A7DA002AA7DB634630
:105A9000DB689A42A3DA05980028A2DB66463669DD
:105AA000B0429EDA6343D3187343059881464B4452
:105AB0003498C35C0B9881464B440A98814649440C
:105AC0005943239B9946494423918CE7019E0298B0
:105AD0000134079B9C4203DA00220196029083E77F
