:020000041000EA
:1000000000B5324B212058609868022188439860DF
:10001000D860186158612E4B002199600221596106
:100020000121F02299502B49196001219960352056
:1000300000F044F80222904214D00621196600F024
:1000400034F8196E01211966002018661A6600F04E
:100050002CF8196E196E196E052000F02FF8012189
:100060000842F9D1002199601B49196000215960AB
:100070001A491B48016001219960EB211966A021F2
:10008000196600F012F800219960164914480160C1
:100090000121996001BC002800D000471248134993
:1000A000086003C880F30888084703B5996A0420EC
:1000B0000142FBD001200142F8D103BD02B5186610
:1000C0001866FFF7F2FF186E186E02BD00000240BE
:1000D000000000180000070000035F00212200005C
:1000E000F4000018222000A00001001008ED00E03C
:1000F00000000000000000000000000074B24E7A12
:1001000000200420F7010010C3010010C5010010F9
:10011000C1010010C1010010C1010010C101001097
:10012000C1010010C1010010C1010010C701001081
:10013000C1010010C1010010C9010010CB01001065
:10014000CD010010CD010010CD010010CD01001037
:10015000CD010010CD010010CD010010CD01001027
:10016000CD010010CD010010CD010010CD01001017
:10017000CD010010CD010010CD010010CD01001007
:10018000CD010010CD010010CD010010CD010010F7
:10019000CD010010CD010010CD010010CD010010E7
:1001A000CD010010CD010010CD010010CD010010D7
:1001B000CD010010CD010010CD010010CD010010C7
:1001C00000BE00BE00BE00BE00BE00BEEFF3058054
:1001D000103800BEF2EB887124140110481401108D
:1001E0003402001090A31AE700201F49086006C8D7
:1001F00081F3088810471D48006800282FD10DA4FE
:100200000ECC002902D000F012F8F9E71849194A7B
:10021000002000E001C19142FCD1174988471749ED
:1002200088471749884700BEFDE701C901C29A42C5
:10023000FBD3704748140110C0000020A01A002012
:10024000282E01100000042000000420282E011098
:10025000001004200010042000000000704709482E
:1002600003F052FA0047000008ED00E0000000D063
:10027000A01A0020EC1E0020612400105103001081
:100280001F2400105756000006005250ABB36053B5
:1002900070F4001006005250861C030280F4001017
:1002A000060052505422A29DA0F4001005005250A6
:1002B000DE65F468282E0110F8B5C04610B5064C6E
:1002C0002378002B07D1054B002B02D0044800E017
:1002D00000BF0123237010BDA01B00200000000000
:1002E000A0E30010044B10B5002B03D003490448D1
:1002F00000E000BF10BDC04600000000A41B0020AD
:10030000A0E3001030B583B00D00140013000A0004
:100310000D4900F095F801AA00230193553313709D
:10032000663353709570D4700021032909D8074BA8
:100330009B699B06FBD41078044B18600131013295
:10034000F3E703B030BDC046A0E300100040034017
:1003500010B582B000242F4B1C602F4B1C6001A8ED
:100360002E4B01932E4B18602E4900F069F82E4B4E
:100370001C702E4B1C7007E0012321E00023264A4D
:1003800011688C4663441360274B1B78002B20D1E7
:10039000224C00946421642249426846FFF7B2FF70
:1003A000322264216846FFF7ADFF0094204B009392
:1003B0001D4B01221A701D4B1A78002ADCD0002335
:1003C00014490868844663440B60002AD6D0012390
:1003D000D5E7104B1A68104C2368D31810490868E9
:1003E000144900F02DF82468002C0BD112490C4B55
:1003F000186800F025F8094B01930D4B019320007C
:1004000002B010BD0D49064B186800F019F8012420
:10041000F1E7C046CC1B0020C81B002044E40010BC
:10042000D01B0020C4E30010E51E0020E41E0020C5
:100430002CE40010DCE30010F0E3001008E40010EE
:100440000EB400B582B003AA02CA019203689B6889
:10045000984702B008BC03B018470000024B0833AD
:100460000360024B036070473CE400102CE4001072
:10047000024B08330360024B036070473CE40010FA
:100480002CE4001000B5C1B0130080200A00410028
:10049000684600F02BF9684600F0D2F9024800F0F7
:1004A000CFF9002041B000BD38E4001010B501398B
:1004B000030005E01A780C781C700A7001390133CA
:1004C0008B42F7D310BD10B504000378002B01D088
:1004D0000130FAE70139611802E00370013001329E
:1004E0001378002B01D08842F7D30023037010BD8E
:1004F000F0B5C64600B582B00500019116000F00A8
:100500000CE0CBB23033DBB27C1C3B7031002800F6
:1005100003F04EF9A8450CD827000500B04631007D
:10052000280003F045F90929EBDDC9B25731CBB2F8
:10053000EAE70023237021000198FFF7B7FF2000AE
:1005400002B080BCB846F0BD10B5002803DB0A221B
:10055000FFF7CEFF10BD2D220A7040420131F6E7B1
:1005600030B58DB004000D0010006946FFF7ECFFB8
:100570006A4629002000FFF7A6FF0DB030BD30B558
:100580008DB004000D0010001A006946FFF7B0FF9F
:100590006A4629002000FFF796FF0DB030BD00002D
:1005A000F0B5C64600B584B0041C08000F002F3714
:1005B0002300E20DFF2616407F2252429046B044AF
:1005C0006402640A002B0DDB002303704346802B7A
:1005D0000CD06A46304B62CB62C21B78137022008B
:1005E000002317E02D230B700130EDE7002C05D11F
:1005F000391A2A4AFFF767FF040048E0391A284AE7
:10060000FFF761FF040042E06946CD562100E94052
:10061000521801330C2BF7DD31230370033B437079
:10062000841C00238370391B072930DD0133062B1E
:1006300003DC3020E0540133F9E70A232000FFF700
:100640009EFF011B07235D1A302202708B420CD0E3
:1006500000238B4206DA01380278425530220270BC
:100660000133F6E7073000E01800431E1B78302BFB
:1006700002D1431EA342F7D800230370391A094A56
:10068000FFF721FF391A4246FFF76AFF04002000F6
:1006900004B080BCB846F0BD5CE4001050E400102B
:1006A00054E4001058E4001010B5040008002100C4
:1006B000FFF74AFF001B10BD10B5040008000A2216
:1006C0002100FFF715FF001B10BD10B50400080046
:1006D00010222100FFF70CFF001B10BD10B5040015
:1006E000081C2100FFF75CFF001B10BDF0B583B0B4
:1006F0000700150001934E1E00247AE00D0078E0FB
:100700000D0076E00D0074E00D0072E0331B0A2B43
:1007100009DD019B1A1D019219683819FFF7C4FF02
:100720002418023565E0601C3C190023237080E02A
:10073000331B0A2B09DD019B1A1D01921968381918
:10074000FFF7BAFF2418023553E0601C3C19002360
:1007500023706EE0331B092B0FDD631C30223A55EA
:1007600002344832FA54019B1A1D01921968381953
:10077000FFF7ABFF241802353BE0601C3C19002357
:10078000237056E0301B03F0B7FE2B4903F0AEFE9A
:10079000002811D1019B0733072293431A00083226
:1007A00001921868596803F027FB011C3819FFF7FC
:1007B00095FF241802351CE0601C3C1900232370AF
:1007C00037E002353B55013413E0019B1A1D0192BD
:1007D00019680023E218B24206DACA5C002A03D084
:1007E00001333A550134F5E7023502E001353B5556
:1007F00001342B78002B18D0B44216DA252BF5D112
:10080000691C6B78252BDCD000D277E7782B00D9D8
:1008100076E7642B00D275E7643BDAB2142A00D97C
:1008200072E79300054AD3589F46601C3C19002389
:10083000237003B0F0BDC046000060416CE40010BE
:1008400010B50400074B1B78002B04D0210006488C
:1008500004F010F910BD00F009F8024B01221A70E3
:10086000F4E7C046E61E0020C0E4001010B504F016
:1008700003FA10BD10B58300084A944663441C680F
:1008800040226240C02414408022520113431C6065
:10089000C000034B9C466044416010BD04C0014051
:1008A00000400140034B1B6802201840431E984142
:1008B000C0B2704700C00640EFF3108072B6034B21
:1008C0001B68002BFBD0BFF35F8F70472C0100D05B
:1008D000BFF35F8F024B00221A6080F310887047CD
:1008E0002C0100D0F8B506000C001500FFF7E4FF5E
:1008F000E308F718F15C07222240012393400B42E2
:1009000005D1DBB20B433B70FFF7E2FFF8BD2100DE
:10091000280001F021FE0000002307E0054A9A1894
:100920009200BFF35F8F0021116001331F2BF5D9B7
:100930007047C04640000034054A1078431CDBB2C3
:100940001370172B02D9130010221A707047C0467B
:1009500088110020074B9B68103080001950BFF3AE
:100960005F8FBFF35F8F044B0021196082F3108803
:100970007047C04600ED00E0240100D010B5091A10
:10098000081F0A4B9C466144094A914208D8C30794
:1009900006D440104005400D064B184380B210BDF0
:1009A000054B064AA321064801F03CFDFC07000068
:1009B000FE0F000000E0FFFFC4E4001034E7001069
:1009C000F4E4001010B5091A04394C08090B08D1D9
:1009D0004905490D064A11430180064B23434380D4
:1009E00010BD054B054AAB21054801F01BFDC04673
:1009F00000F0FFFF00F8FFFF50E5001008E70010CF
:100A0000F4E4001001238340034A10681840431E99
:100A10009841C0B27047C04600E100E0002904D010
:100A2000034B1860034B18607047034B1860FBE7DB
:100A300080E200E000E100E080E100E010B5012389
:100A400083401800FFF7EAFF10BD0000024B9B68CF
:100A500010308000C058704700ED00E070B5040011
:100A60000D00EFF3108672B60C4B1B68002BFBD009
:100A7000BFF35F8F2000FFF7E9FF094B984201D0D9
:100A8000A84205D1320029002000FFF763FF70BDA6
:100A9000044B054A8621054801F0C4FC240100D01E
:100AA000CD01001060E5001050E70010F4E40010E4
:100AB000F0B5CE46474680B583B006000D00EFF393
:100AC000108872B6564B1B68002BFBD0BFF35F8FAC
:100AD000544B9A6834001034A300D758524B9F42AD
:100AE00007D0AF4200D198E00197504BFB1A2F2B53
:100AF00009D9424639003000FFF72CFF03B0C0BCD3
:100B0000B946B046F0BD3000FFF77CFF81460021BA
:100B10003000FFF793FFBFF35F8FEFF305810029EC
:100B200001D08C4211D10123019C9C430022A36877
:100B3000AB4212D00622A256002A0DDB53009B18AE
:100B40009B002200394CE418F1E73621384B394A32
:100B5000FF31394801F066FC2200AB4256D1062530
:100B60006557002D38DB6B005B199A002F4B9B18E3
:100B70009A68A260DA79E27106229A56A2719B798C
:100B80005BB2002B0FDA2D48A0806B005B199B0035
:100B9000264AD3182A4A11789971157049463000AF
:100BA000FFF74CFFA5E7201D6B005B199B001F4A58
:100BB0009B181A1D9B88D90A1C2907D15B055B1558
:100BC000023359005118FFF7D9FEDDE71D4B1E4ACD
:100BD000B121194801F026FC002912D1002A0ED0BB
:100BE000FF239371194B9380154A1378A371184B07
:100BF0000E49641A644163431B0D1370CEE70A4F1C
:100C0000F2E7201D1349FFF7DDFEC7E76A21124B0B
:100C1000084AFF31084801F005FC034F69E7C04668
:100C2000240100D000ED00E0CD0100108C11002067
:100C300074E6001020E70010F4E4001001BD00008D
:100C4000E91E00205CE6001040E7001001BDFFFF38
:100C5000AAAA0000C6110020A8E6001070B5012164
:100C600001432E4BCB1A2F2B28D8EFF30583002BF3
:100C70002BD0EFF3108C72B6294A1268002AFBD0F1
:100C8000BFF35F8F274A0400244D641B6441624315
:100C9000120D54B2244A92689B00D2588A421BD04B
:100CA0000022032A32D853009B189B001B49CB1803
:100CB0009B795BB2A3421FD00132F2E7C7211B4BE5
:100CC0001B4A49001B4801F0ADFB92211A4B184A00
:100CD000FF31184801F0A6FB134A92681749D1501A
:100CE000174B1A7882711C70BFF35F8F0C4B002278
:100CF0001A608CF3108870BD0D005300991889009C
:100D00006918FF268E710F4A8A80E9E7D1210E4BC0
:100D1000074A4900074801F085FBC0468C110020B6
:100D2000240100D0AAAA000000ED00E0B0E6001007
:100D3000ECE60010F4E40010D8E60010CD0100103D
:100D4000E91E002001BDFFFFE4E600100022044B75
:100D500002E0044902C30132072AFAD97047C046AB
:100D600000E400E080808080024B9C466144890062
:100D7000016070474000003410B50400FFF7DCFD4F
:100D800001002000FFF7F0FFFF232371BFF35F8F07
:100D900010BD10B50400FFF7CFFD01002000FFF7E4
:100DA000E3FFFF23237100236371BFF35F8F10BD47
:100DB00070B505000C00080000F04AFE094920004B
:100DC00000F08AFDFFF7B8FD074B9C4660448000A9
:100DD00068602C75D0231B061B786B75A400034B31
:100DE000E55070BDF510001040000034B41C002028
:100DF0000A4B1A68EFF3108172B61368002BFCD00F
:100E0000BFF35F8F054B1B68BFF35F8F00221A6033
:100E100081F3108840BF002000217047C81E0020C9
:100E200010B5002922D003681B7B99421ED8174BAE
:100E30009C466144090183689C4661440C6849688A
:100E4000002A19D003681B7B9A4215D883680F4883
:100E50008446624412019A18106853680200012007
:100E60008B4201D80ED00020C0B210BD084B094AF9
:100E70003C21094801F0D6FA054B064A3C210648B8
:100E800001F0D0FAA242EFD8EDE7C046FFFFFF0F16
:100E900020E9001050EB0010CCE8001010B500293C
:100EA0001ED0037B99421BD84B005B18033B0468A0
:100EB000A4466344002919D0002A1DD0914221D0B4
:100EC000002A25D0047BA24222D804685000801852
:100ED000033820188170197800291FD11A7010BDAD
:100EE000104B114A6821114801F09CFA104B114A2D
:100EF0006F310E4801F096FA0F4B0E4A70210B48E5
:100F000001F090FA0D4B0B4A7121084801F08AFA62
:100F1000044B054A6821054801F084FA41701A70B3
:100F2000DDE7C04644E90010BCEB001060E90010AA
:100F3000C8E9001098EB0010D4E90010E0E90010B7
:100F400070B506000D001400002914D0002A14D03A
:100F5000806873689847002806D022002900300076
:100F6000FFF79CFF280007E02A0021003000FFF770
:100F700095FF200000E0100070BD0800FCE70000B5
:100F8000F0B583B00500009201930AAB1C780BAB5F
:100F90001F78002C26D003685A7B944207D1012386
:100FA000002B19D1002C3BD1200003B0F0BD002C48
:100FB0000CD01A7B944209D81A6863001B19033BB2
:100FC000D3189B78002BEBD00123E9E73E4B3F4A37
:100FD00068213F4801F026FA3E4B3F4A67213F48CF
:100FE00001F020FA03689C7B002CDBD012D01A7B26
:100FF00094420FD862001219033A19688C46624471
:1010000051789973002900D1D973002393705370DC
:101010001370C7E72C4B2D4A68212D4801F002FAC6
:10102000002C3AD02B681B7B9C4236D82C4BE31803
:101030001B01AA6894466344009A1A60019A5A6098
:10104000089A9A60099ADA602E68002C2BD030D06A
:10105000337B9C422DD863001B19033B32689446B6
:10106000634400229A705A701A70717B220030001B
:10107000FFF766FF7073844200D095E7287D009AE1
:10108000019B00F071FC061E01D0002F17D00C9BB5
:10109000002B00D188E71E7086E7124B124A3C21D4
:1010A0000E4801F0BFF9114B114AA521084801F083
:1010B000B9F9054B054A6821054801F0B3F92868DC
:1010C000210000F089FEE2E744E90010BCEB0010CB
:1010D00060E90010F8E90010C8EB0010CCE800103F
:1010E000FFFFFF0F20E9001050EB0010C8E80010D0
:1010F000ACEB0010F0B5DE4657464E464546E0B52F
:101100008BB00990002308938200B54BD658370066
:1011100052E0B44BB44A3F21B44801F083F9B44BD8
:10112000B44A3C21B44801F07DF9002901D10028DE
:1011300069D10021404600F045FEA04219D12A683D
:101140006B6806920793AB689846EB689A464346ED
:10115000002B14D0002C18D03B681B7B9C4214D869
:10116000631EFA68D35C08931B02184338610020A1
:1011700015E0A24BA24A8E219F4801F053F9A14BE2
:101180009F4A92219C4801F04DF9994B9E4A41217A
:10119000994801F047F900239A46984600207B6859
:1011A000BFF35F8F00221A6086F310884346002B3E
:1011B00032D1002800D10CE100F04AFB02000B1EE6
:1011C000A7DB00200021069007917868EFF31086D6
:1011D00072B601680029FCD0BFF35F8F396888467A
:1011E0004C7B002CD7D09AD0097B8C4297D887496A
:1011F00065182D01B9688C46654428686968801AAD
:101200009941002991DD2A686B68099800F0ACFBD0
:1012100000239A469846C2E7089B1B02234399463F
:1012200051461800C04705000E007A68EFF3108B96
:1012300072B6136859424B41D9B2002BF9D1BFF3B2
:101240005F8F002E1EDB002E46DD3B69002B47D052
:101250004B456DD100F0FCFA02000B1E6EDB5219FB
:101260007341002B70DB002B72DB002104910131F4
:101270000391029451460191414600913800FFF7D5
:101280007FFE4CE03B69002BDDD04B4514D1069A24
:10129000079B521BB341002B14DB002B16DB0021F4
:1012A000049101310391029451460191414600910C
:1012B0003800FFF765FE32E0554B514AA1214E48F8
:1012C00001F0B0F801225242524BE6E7454B464A44
:1012D0003F21464801F0A6F8002E01D1002DB4D1DF
:1012E0003B68002C50D05A7B944237D10121002911
:1012F0004AD1DA7B002A4DD19A7B002A03D1DA7BCE
:10130000002A5AD19C73DC73002C5CD03B681B7B99
:101310009C4258D8FA68013C135D013313550023F1
:101320003B617A68BFF35F8F13608BF3108843E7EC
:10133000374B334AA421304801F074F8294B2A4A2C
:101340003F212A4801F06EF801225242314B8AE7D0
:10135000244B254A3F21254801F064F8002C0DD08C
:101360001A7B94420AD862001219033A186884461C
:1013700062449278002ABAD00121B8E7264B274A66
:101380006821274801F04EF8264B274AF6212448C9
:1013900001F048F8002A0AD0197B8A4207D8510088
:1013A0008A18033A19688C4662445470A4E71A4BB1
:1013B0001A4A68211A4801F035F81C4B1A4AFB21D9
:1013C000174801F02FF80A4B0F4A41210A4801F053
:1013D00029F80BB0F0BCBB46B246A946A046F0BD0A
:1013E000B41C0020DCE700101CEB0010F8E7001034
:1013F00020E9001050EB0010CCE8001020EA0010AB
:1014000034EB001038EA001074EB0010FFFFFF0F00
:1014100044EA0010FFFFFF7F44E90010BCEB00101E
:1014200060E9001080EA001088EB0010A4EA0010C8
:1014300010B50C4B5B68002B04D00A210A48FFF75B
:1014400093FC10BD074C2300084A1021206800F0CF
:10145000C9FB032000F0F0F903212000FFF7A8FCEE
:10146000EBE7C046D4110020C81E0020210E00105A
:1014700010B5064B5B68002B01D0044810BD044B2F
:10148000044A5E21044800F0CDFFC046D41100207C
:10149000B8EA00105CEB0010CCE80010F0B5DE46B6
:1014A00057464E464546E0B58BB0804616001F00B5
:1014B000149B9A46159B994616AB1B789B461F2397
:1014C00002AA9446634400221A702BE0002809D037
:1014D00042461268127B904204D8421E4146C968B7
:1014E0008A5C41E0404B414A4121414800F09AFF6B
:1014F00007984CE0361BAF41002F07DB002F11DAB5
:101500003C4B3D4A3F213D4800F08CFF012676428E
:101510003B4FF3E7374B384A3F21384800F082FF12
:10152000002F4FDB43465A68EFF3108472B61368FE
:1015300059424B41D9B20791002BF8D1BFF35F8FCD
:101540001F3302AA94466344049300230393029337
:101550004B4601935346009332003B004046FFF751
:101560000FFD031EB2D1020041464968BFF35F8FF1
:1015700000250D6084F31088002B29D01F2302A9B9
:101580008C4663441B78002BB2D112021043002B0F
:1015900020D05B46002B1DD04946D04704000D00EB
:1015A00003000B431DD00029A4DB00F051F9060015
:1015B0000F1EAFDB36196F41002FB1DA01267642DC
:1015C0000F4FADE70B4B0C4A3F210C4800F02AFFB0
:1015D000012040420BB0F0BCBB46B246A946A04633
:1015E000F0BD0798F6E7C04620E9001074EB001044
:1015F000CCE80010DCE700101CEB0010F8E700104E
:10160000FFFFFF7FF8B50400002900D162E04268C7
:10161000EFF3108572B6136858424341D8B2002BDD
:10162000F9D1BFF35F8FCBB22268567BB3421BD197
:101630000120002848D0206988422BD0090AC9B26D
:10164000002B2ED02068007B83422AD8581EE668E3
:10165000305C88422BD000206368BFF35F8F00228C
:101660001A6085F31088F8BD002B0DD0167BB342AD
:101670000AD85E00F618033E1768BC466644B67882
:10168000002ED6D00120D4E7134B144A6821144809
:1016900000F0C8FE2C21134B134AFF31134800F011
:1016A000C1FE134B134A4121104800F0BBFE190044
:1016B000100000F091FB0028CED199210E4B0A4A70
:1016C00049000A4800F0AEFE23698B42C4D10023D2
:1016D0002361C1E70020C6E744E90010BCEB00101D
:1016E00060E90010DCEA001004EB0010CCE8001008
:1016F00020E9001074EB001000EB001070B584B00E
:1017000005000C00EFF30583002B1ED1FFF7B0FEA0
:10171000002302930193224B00932A002300FFF73A
:10172000BDFE061E23DD20BFFFF7A2FE3100FFF73E
:1017300069FF1C4B5B6A9C422DD81A4A926AAA42E6
:101740002CD29C4225D0012026E0164B5B6A9942A0
:1017500009D8144A926A824207D2994201D00120E4
:101760001AE0002018E0002016E0012014E00D4BE4
:101770005B6A9C4209D80B4A926AAA4207D29C42F1
:1017800001D0012008E0002006E0002004E0012054
:1017900002E0002000E0002004B070BD0120FBE763
:1017A000F10D00100040054070B5EFF305801038D2
:1017B000EFF3108C72B61A4B1B68002BFBD0BFF3F3
:1017C0005F8F01221300834016494B6316490B605B
:1017D000164909780C00C440224214D0114A546AB8
:1017E0008200134D5259944206D38200114C125973
:1017F00099430E4B197007E00A4A031D9B00995844
:101800009950002200E00022BFF35F8F044B0021BB
:1018100019608CF31088002A00D0904770BDC04634
:10182000280100D0004005403C700540EA1E002021
:10183000CC1E0020241C002010B50100024A0348E1
:10184000FFF750F810BDC046E8EB0010E81E00207E
:10185000044B5B6A034A906A1900536A9942F9D1B2
:101860007047C04600400540084B5B6A01E0074BEB
:101870005B6A8B42FBD301E0044B5B6A8B4203D172
:10188000024B9B6A8342F7D37047C0460040054035
:1018900070B504000D00FFF7DBFF02000B00200015
:1018A0002900801859418B4202D804D1824202D9C2
:1018B00001204042C117002902DBFFF7D5FF70BDB0
:1018C000024B034A3F21034800F0ACFDDCE7001067
:1018D000ACEC0010F8E7001070B504000D00EFF359
:1018E000108672B61B4B1B68002BFBD0BFF35F8FBB
:1018F000002D1CD02000FFF7A9F8174B83420BD016
:1019000019002000FFF7AAF801212000FFF796F840
:101910000123A340114A1360A400114BE550BFF30B
:101920005F8F0C4B00221A6086F3108870BDA200F6
:101930000B4B0021D1500122A2400A490B7893435E
:101940000B7005492000FFF7B3F800212000FFF7D6
:1019500075F8E4E7280100D0A917001038600540A9
:10196000241C0020EA1E0020F0B5DE4600B584B03D
:101970000400150001921E000293FFF769FF039512
:101980008E4202D84ED185424CD9EFF3108B72B6FD
:10199000274B1B68002BFBD0BFF35F8F254A1778BE
:1019A0000125A540EBB23B431370234B5D63221D21
:1019B00092000199D150A2002049029850501B6A10
:1019C0002B4212D11C4B1B6C2B4208D00020BFF3C2
:1019D0005F8F174B00221A608BF3108823E0184B9F
:1019E000184AC521184800F01DFDFFF731FF8E424F
:1019F00014D802D1039B834210D80E4B1B78BB42F4
:101A00000ED00D4B1D625D631F2004400123A340D7
:101A10000E4A1360074B1F701E38D8E70020D6E728
:101A20000120D4E7012004B080BCBB46F0BDC04615
:101A3000280100D0EA1E002000400540CC1E0020F6
:101A40000CEC001090EC001030EC001080E200E094
:101A5000EFF3108C72B60B4B1B68002BFBD0BFF35F
:101A60005F8F01238340084A136208490A789A432A
:101A70000A70BFF35F8F034B00221A608CF310884B
:101A80007047C046280100D000400540EA1E0020F3
:101A900010B500291ED0037B99421BD84B005B1860
:101AA000033B0468A4466344002919D0002A1DD0D2
:101AB000914221D0002A25D0047BA24222D804687A
:101AC00050008018033820188170197800291FD120
:101AD0001A7010BD104B114A6821114800F0A2FC89
:101AE000104B114A6F310E4800F09CFC0F4B0E4A10
:101AF00070210B4800F096FC0D4B0B4A71210848F1
:101B000000F090FC044B054A6821054800F08AFC6F
:101B100041701A70DDE7C04644E90010CCED0010BA
:101B200060E90010C8E90010B8ED0010D4E9001019
:101B3000E0E9001070B506000D001400002914D073
:101B4000002A14D0806873689847002806D02200C5
:101B500029003000FFF79CFF280007E02A00210041
:101B60003000FFF795FF200000E0100070BD080076
:101B7000FCE7000010B50023437301338373037B3C
:101B8000C3730123027B9A4214D9002B0CD0027B31
:101B9000934209D85A00D218033A01688C4662442D
:101BA0000133DBB25370EDE70B4B0C4A68210C4854
:101BB00000F038FC002A09D0924207D8016853008F
:101BC0009A18033A8A180023537010BD024B034A37
:101BD0006821034800F026FC44E90010CCED001019
:101BE00060E9001010B5017342608360FFF7C2FF27
:101BF00010BD000070B50400081E00D170BD0029A2
:101C000034D0237B994231D84B005B18033B2268C8
:101C1000944663445A78002AF0D02DD0237B9A4210
:101C20002AD853009B18033B21688C4663445D7897
:101C300000215970002825D0237B984222D84300E8
:101C40001B18033B21688C46634400215970010036
:101C50002000FFF76FFF060029002000FFF7CAFFF2
:101C6000020031002000FFF765FFC7E7084B094A73
:101C70006821094800F0D6FB054B064A6821064852
:101C800000F0D0FB024B034A6821034800F0CAFB76
:101C900044E90010CCED001060E9001070B50500BB
:101CA0000C00160000292FD034D0037B994231D884
:101CB0004B005B18033B0268944663445A78002A41
:101CC0002ED19A78002A31D11978FFF793FF0300BB
:101CD000002E0AD0EA7B002A2ED1AA7B002A03D14B
:101CE000EA7B002A3BD1AC73EC73002B3DD1002C76
:101CF0004FD02B7B9C424CD82B6861000C19033CC5
:101D00001C190023637070BD254B264A38212648D4
:101D100000F088FB254B264A6821264800F082FB0C
:101D2000254B204A3A21204800F07CFB234B1D4ADA
:101D30003B211D4800F076FB002A0AD0297B8A420D
:101D400007D851008A18033A29688C4662445470B7
:101D5000C3E7164B164A6821164800F063FB184B80
:101D6000104A4221104800F05DFB002B0BD02A7B6B
:101D7000934208D843001B18033B2A6894466344E7
:101D800000229A70B3E7094B094A6821094800F01C
:101D900049FB064B064A6821064800F043FBC04653
:101DA000C4EC0010A4ED0010CCEC001044E90010CD
:101DB000CCED001060E9001020ED001048ED00109F
:101DC000A4EA001070B504000A00457B2900FFF763
:101DD00065FF6073280070BD70B50400002967D0EE
:101DE000437B8B420ED0002911D0037B99420ED841
:101DF0004B005B18033B0268D0188378002B0CD192
:101E0000002056E00121FFF7DDFF012051E0294BC2
:101E1000294A6821294800F005FB002B20D0227BAD
:101E200093421DD85A00D318033B2268D218256864
:101E3000EB5C8B421AD0002B1BD0227B934218D82C
:101E40005A00D318033B2268D21853788B4216D01D
:101E5000002BF0D11A4B1B4A6B211B4800F0E2FA11
:101E6000144B154A6821154800F0DCFA43781370CA
:101E700007E0104B104A6821104800F0D3FA43786D
:101E8000537000238370437001222000FFF706FF88
:101E90000200617B814205D02000FFF74BFE60739A
:101EA000012006E0094B074A7121074800F0BAFA01
:101EB000002070BD44E90010CCED001060E9001076
:101EC000E4E600108CED0010CCEC00106CED00107E
:101ED00070B5046BE30701D4200070BD02003032FE
:101EE000C0239B0113430A4A1A60456A826AAD0106
:101EF000AD18AD02062000F0BDF9064901F058FC0E
:101F00000100280001F054FC0021FFF7C1FCE3E7C9
:101F1000010300004E0E000070B504000E00150015
:101F2000FFF7D6FF22002C32E16A4E403540802375
:101F30005B0113431D60206370BD000070B5050098
:101F40000C00062000F096F9C000210001F030FCE2
:101F5000C60908D00E4B9E4216D87F231840013088
:101F60003400460800E001246C62AE6200220021C9
:101F70002800FFF7D1FF062000F07CF98000A101C6
:101F8000891901F015FC70BD0026024CECE7C04633
:101F9000FEFF0000FFFF000010B505394901013ABE
:101FA000D2001143002B09D002220A43012B07D093
:101FB000002111436E22FFF7AFFF10BD0022F4E7AE
:101FC0000421F6E7002909D00A22064B9C4660440A
:101FD000434258414000044BC25270478022520095
:101FE000F3E7C0460080FCBFDC1E002070B5050092
:101FF0000C00062000F03EF9061E27D0164B9D422D
:1020000026D08022D203154B1A60154B1A60154B4F
:102010009B6811009943FAD100212800FFF7D2FFF5
:1020200021002800FFF78AFF060000230122082173
:102030002800FFF7B1FF2A002C3280239B011343B5
:1020400010221A60084B2B630323AB64300070BD71
:1020500080221204D7E7C0460080034000E0004021
:1020600000F0004000C0004001030000F8B5DE466B
:1020700057464E464546E0B505000F0092460A9A7F
:10208000934250D31A0E91461E020A9A0023300042
:10209000494601F0CBFB80466C006419A400304B2C
:1020A0009C4664446368834200D260602B1FDBB2AD
:1020B0009B46012B3DD9C0239B0123438022120163
:1020C0001A60AB00274A9958002907D0506901F0DF
:1020D0006FFB431C5800C0180338FDD253465A0109
:1020E00023685A40E0231A4080235B0123431A608F
:1020F0005A46012A28D980239B01234380221201BA
:102100001A6043466360424600233000494601F0AE
:102110008DFBAD00134B58510120F0BCBB46B246BD
:10212000A946A046F8BD104B104A3321104800F0D4
:1021300079F9012FBFD1C0239B01234303221A60E9
:10214000A368DB07FCD5C9E72168794003220A4070
:102150001A60A2680123BB401342FAD0CBE7C04605
:10216000008000403C1C0020D8ED00104CEE001018
:10217000ECED001030B583B00C2000F011F9FEF743
:1021800091FB00280DD0002304E099002D4A2E4831
:1021900088500133092BF8D92A4B2C4A5A6203B0D4
:1021A00030BD2B4B00229A6700F002F9294B012227
:1021B0001A60274B5B6C012BFBD1274B03221A6063
:1021C000234B9B6B012BFBD1013300930433234A38
:1021D0000121234800F054F805230093214A0121EE
:1021E000214800F04DF8214B0093002202210420E9
:1021F000FFF73CFF1E4D00952B000022012105201A
:10220000FFF734FF104C0094230000220021072028
:10221000FFF72CFF00942300002200210820FFF785
:1022200025FF0A4B00932300002200210920FFF71D
:102230001DFF00952B00002200210620FFF716FF4E
:10224000ADE7C0463C1C0020006CDC021BB7000060
:10225000008000403CB0004030B00040002F685982
:1022600000800240008C864700C00240001BB7007F
:10227000405973078000014BC05870473C1C002038
:10228000F0B5C64600B504000E0017001D00374823
:1022900001F08EFA8046364BFA18364B9A4239D8FE
:1022A0000100380001F084FA0200103A98235B0024
:1022B0009A4235D86B1E062B38D8069B013B062B5D
:1022C00034D83F09474537D32D04069B1A031543DD
:1022D0002368002B36DB284B9C4244D080225201DD
:1022E000264B1A60264B1A60264B9B6811009943B7
:1022F000FAD12660A060231DC02292011A43212337
:1023000013602368002BFCDAE5600823136080BCAF
:10231000B846F0BD1C4B1D4A11211D4800F082F843
:102320001C4B1A4A19211A4800F07CF81A4B174A1C
:102330001C21174800F076F8184B144A2321144842
:1023400000F070F822683F231340B342C3D1A36862
:102350001B051B0D8342BED1E368EE22D20213405F
:10236000AB42B8D1D3E780229201B9E7001BB70096
:1023700080E84BD380F8A93200C0024000E0004062
:1023800000F0004000C000405CEE00109CEF001028
:10239000BCEE001018EF001034EF001080EF0010BA
:1023A00080239B000343014AD362704700800540AD
:1023B000064BAA2212011A602F22DA60044B054A4A
:1023C0001A60024B5B68002BFBDA7047004002404A
:1023D0000060024000B0FA0000BEFDE703000A4AB8
:1023E0001268002A08D0084A1068C318074A9A429F
:1023F00006D3054A13607047034A05491160F2E7A6
:1024000001204042F7E7C046B01C00200000042035
:10241000EC1E00200020704701204042704710B59C
:10242000FFF7DAFF10B582B00C001900002A0CD0BB
:10243000084B002A0BD001920093230002000648AB
:1024400002F018FB0120FFF7C7FF044BF1E7034A36
:10245000F1E7C046A8EF0010B8EF001020E400102C
:1024600070B52B4B2B4A1A602B4B2C4A1A602C4B05
:102470009A682A4B9343FAD12A4C01E008CC98473A
:10248000294B9C42FAD3FFF775FE234B274A1A606B
:10249000234B9B68DB43DB01FAD1254B40229A6733
:1024A0005A671A67DA66234C09E0234B234A8721CF
:1024B0002348FFF7B7FF2000FEF75EFC0834214BEE
:1024C0009C4209D22368002BF5D0012BEDD12000CE
:1024D000FEF75FFC0834F2E71B4CA1681B4DC022DD
:1024E000280002F0F9F8A560EFF30583002B00D077
:1024F00000BEFEF711FAFEF729FCFEF799FF144C17
:1025000001E008CC9847134B9C42FAD370BDC046FB
:1025100000E00040BFCDFBFE00F00040FE7F3C002D
:1025200000C00040881A0020981A0020FFFFFF0119
:1025300000F00140801A0020E8EF001078F0001051
:1025400008F00010881A002000ED00E000000020D4
:10255000981A0020A01A00200FB400B583B00848D4
:1025600002F058FA049B002B07D005A9019118002E
:1025700002F060FA034802F04DFA0120FFF72CFF49
:1025800068F0001088F700109A4200D28854704713
:10259000704710B5002802D00B684968984710BDF5
:1025A0000100002007E083001B185B00501C08603E
:1025B0001078C01830380A681378303BDBB2092B2A
:1025C000F1D97047F0B5DE4657464E464546E0B570
:1025D00083B093461F000C9B9A460D9C0E9B994618
:1025E0000F9B9B0703D0B8460F00060022E0019224
:1025F000A34688464E46B9460700B44207D2551C4A
:102600004B4641462020B84701342A00F5E73D00FB
:102610004F465C46019B9B46B1464646B84637004E
:102620002E0007E0013C551C5346185D4346390017
:10263000B0472A00002CF5D135003E0047460F9BDD
:102640009B0707D4100003B0F0BCBB46B246A946B6
:10265000A046F0BDB0464E46B9462F005D46531B1E
:10266000B342EFD2541C4B4641462020B8472200CB
:10267000F5E7F0B5CE46474680B585B09446984616
:102680000C9D0D9C0EAB1B789946109A119B129EC7
:10269000B7071CD4002B0CD0F7070AD54F46002FE4
:1026A00002D10C37374204D0013B02E030272F55CE
:1026B0000134944201D21F2CF8D9F70707D59C4268
:1026C00005D21F2C03D830272F550134F5E7F70624
:1026D00015D5770505D4002C03D0944224D09C4214
:1026E00022D00F9A102A2BD00F9A102A30D00F9A8E
:1026F000022A35D01F2C02D830222A5501341F2C33
:1027000005D84A46002A31D02D222A550134039695
:1027100002930194009543466246FFF753FF05B0CC
:10272000C0BCB946B046F0BD621E012C06D00F9F5A
:10273000102F01D01400D4E7023CD2E71400D0E7F8
:10274000B206D1D41F2CCFD878222A550134D1E734
:10275000B206CCD51F2CCAD858222A550134C9E755
:102760001F2CC7D860322A550134C3E7720703D53E
:102770002B222A550134CAE73207C8D520222A5510
:102780000134C4E7F0B5DE4657464E464546E0B54F
:1027900093B081468A46089209931CAB10CB1B78F4
:1027A0009B461E9D219B9846002C03D11023424638
:1027B0009A4390468023DB0046461E4042461A421A
:1027C00012D0002C22D000260EE03033D9B2771C74
:1027D0000AAB99552900200000F0EAFFAC4216D35D
:1027E0001F2F14D83E0004002900200000F0E0FF55
:1027F000CBB2092BE9D94246920605D54121C91829
:10280000C9B20A39C9B2E2E76121F8E727004346B5
:102810000693209B05931F9B049303955B460293AD
:1028200001970AAB0093099B089A51464846FFF767
:1028300020FF13B0F0BCBB46B246A946A046F0BD8F
:10284000F0B5DE4657464E464546E0B595B0089091
:1028500009910A920B931E9E1F9C20AB1B789B46EE
:10286000229B9946239D269B9A463300234303D1FE
:10287000103352469A4392468023DB0057461F404E
:1028800052461A4219D0330023432DD0002714E0BA
:102890003033DAB27B1C98460CABDA554A462B0033
:1028A0003000210000F0C2FFA5421FD819D04346D6
:1028B0001F2B1BD8474606000C004A462B00300051
:1028C000210000F0B3FFD3B2092BE1D952469206A2
:1028D00005D54122D218D2B20A3AD2B2DAE7612241
:1028E000F8E7B145E3D901E0002398465346069343
:1028F000259B0593249B04934B4603935B460293CD
:10290000434601930CAB00930B9B0A9A09990898D4
:10291000FFF7AFFE15B0F0BCBB46B246A946A046D5
:10292000F0BD0000F0B5DE4657464E464546E0B5E0
:1029300091B083468A460C9298461A9C08941B9D37
:10294000099522002B002000290001F0FAF9002847
:1029500000D0E5E001225242D74B2000290001F0CF
:10296000EBF9002800D0DBE001225242D34B2000DB
:10297000290001F0CBF9002800D0D1E0002200238B
:10298000089E3000099D290001F0C0F9002800D000
:10299000DDE008980999069007918023DB001E9AD4
:1029A0001A400D921E9A1A4201D106231C930698D2
:1029B000079904000D000A000600024300D1D1E08F
:1029C000080D4005400DBE4CA44660440A03120B9E
:1029D000BC4B13431F0001F0C7F9BB4ABB4B01F0CE
:1029E00052F9BB4ABB4B01F027F904000D0000224D
:1029F000B94B3000390001F016F9B84AB84B01F074
:102A000042F902000B002000290001F015F901F045
:102A1000C3F9814601F0A8F904000D00B14AB24B98
:102A200001F031F90022B14B01F006F901F0B4F9DF
:102A30000600AF4AAF4B2000290001F024F9040042
:102A40000D00300001F090F9AB4AAC4B01F01BF9DE
:102A500002000B002000290001F0E5F804000D0041
:102A600002000B0001F00FF90A900B91A44BF31830
:102A700000261F0522002B002000290001F0DCF8B1
:102A80000E900F9122002B0000208021C90501F03B
:102A9000CAF804000D0000229A4B0A980B9901F025
:102AA000D4F80022984B01F0C7F802000B000A98F6
:102AB0000B9901F0CAF80022944B01F0BDF8020016
:102AC0000B000A980B9901F0C0F802000B002000DF
:102AD000290001F0B1F802000B000E980F9901F0E7
:102AE000B4F80022774B01F0A7F832003B0001F068
:102AF000CAF806000F0004000D00069A079B01F0BB
:102B00001BF9002830D001235B429C46E14400229F
:102B10007D4B3000390001F098F804000D0023E0EF
:102B20001E9B04931D9B03931C9B0293089A099B75
:102B30000092019343460C9A5146584600F0FCF827
:102B400011B0F0BCBB46B246A946A046F0BD00237A
:102B5000002406930794069680231B069C46654432
:102B600007951AE7002399464B466333C62B1ED8B8
:102B700004261E9B1B0526D52B0023430FD0644A39
:102B8000644B0698079901F0CFF8002879D000220D
:102B9000614B0698079901F0B9F8002871D01C9B89
:102BA0004B4506DD4A46981A431E1C9303E0052652
:102BB000DFE700231C938023DB001E9A1A431E923A
:102BC0000026002399461D9B9E4264D29F1B022330
:102BD0001E9A1A400A921E9A134202D0002E00D06A
:102BE00000274B46002B07D022002B0006980799A0
:102BF00001F02BF80690079100220023089809990C
:102C000001F084F8002848D1444B1E9A13400493E5
:102C100003971C9B0293069B079C009301944346D9
:102C20000C9A5146584600F087F8002E00D187E7ED
:102C30001E9B9B063DD54525441C4346020051463C
:102C40002800D8474B46DA179B18534005220592B7
:102C5000013E0496002203920A3202924A46D00FA5
:102C6000019000934346220051465846FFF78AFDE3
:102C70000A9B002B00D163E702005F460C9E1D9D5E
:102C800054E01C9B002B9ED00D9B002B9BD01C9BCB
:102C9000013B1C9397E7002799E7069C079D2200BC
:102CA000290080200006844661440B0006920793A9
:102CB000AAE76525C0E7C046FFFFEF7FFFFFEFFFF4
:102CC00001FCFFFF0000F03FFB799F501344D33F0E
:102CD000B3C8608B288AC63F0000F83F61436F632A
:102CE000A787D23F71A379094F930A400000E03FC4
:102CF0001655B5BBB16B0240EF39FAFE422EE63FE6
:102D0000FF03000000002C40000024400000184099
:102D10002D431CEBE2361A3F80842E41FFF7FFFF64
:102D2000541C434651462020B8472200931BAB4217
:102D3000F6D3100004E7C046F0B5DE4657464E46CF
:102D40004546E0B595B00690079193469946209F79
:102D50001E9A1F9B1000190000F0F3FF002831D1CC
:102D600001225242BF4B1E981F9900F0CFFF00284E
:102D700037D101225242BC4B1E981F9900F0DCFF54
:102D800000283DD10022B94B1E981F9900F0D4FFB6
:102D9000002850D10022B64B1E981F9900F0B6FFB4
:102DA000002848D1002200231E981F9900F0AEFF92
:102DB000002850D100239846229B5B0500D4B6E042
:102DC000002458E0229B0393219B02930323019349
:102DD000A84B00934B465A4607990698FFF7F2FB1B
:102DE0000EE1229B0393219B029304230193A24BA8
:102DF00000934B465A4607990698FFF7E3FBFFE01E
:102E00000423229A1A4022990B4210D09B4B002A8D
:102E10000FD00422229903912199029101920093EB
:102E20004B465A4607990698FFF7CCFBE8E0944BCF
:102E3000EDE70322EEE7229B0493219B0393029785
:102E40001E9B1F9C009301944B465A460799069877
:102E5000FFF768FDD4E01E9A1F9B0020002100F0C0
:102E6000E2FE1E901F9101239846A5E70CAB30228D
:102E70001A55013F01341F2C01D8092FF6D81E988E
:102E80001F9900F089FF050000F06EFF02000B00A3
:102E90001E981F9900F0C7FEFA007A4B9B181A681B
:102EA0005B680A920B9300F0EEFE0890099100F027
:102EB00097FF060000F054FF02000B0008980999E4
:102EC00000F0B1FE0890099100226F4B00F034FF32
:102ED00000282ED00136300000F042FF02000B0027
:102EE0000A980B9900F018FF002801D00135002640
:102EF000002F2CD1280000F037FF02000B001E9895
:102F00001F9900F090FE06000F0000225E4B00F0BB
:102F1000FDFE002846D100225B4B3000390000F056
:102F20000BFF00283ED1EB073CD501353AE00627E0
:102F300046E70022544B0898099900F0E7FE002864
:102F4000D6D1002E01D0F307D2D50136D0E7AA465C
:102F50001F2C11D8013F0A21300000F029FC651C0C
:102F600030310CAB19550A21300000F021FC092E3C
:102F70000ED906002C00EBE755461F2C0CD87B1E03
:102F8000002F09D00CAA302111551F000134F4E79D
:102F90002B0055461C00F0E71F2C03D80CAB2E224B
:102FA0001A5501341F2C10D80A21280000F0D8FB34
:102FB000661C30310CAB19550A21280000F0D0FBFB
:102FC000051E01D03400EDE734000323229A13409C
:102FD000012B1CD01F2C06D84346002B32D00CAB43
:102FE0002D221A550134229B0393219B02930194B5
:102FF0000CAB00934B465A4607990698FFF7E2FA46
:1030000015B0F0BCBB46B246A946A046F0BD219B18
:10301000002B13D04346002B02D10C3313420FD0A8
:10302000219B013B2193190003E00CAB30221A5580
:1030300001348C42CED21F2CF7D9CBE72199F8E787
:103040002199F6E7229B5B0704D50CAB2B221A557E
:103050000134C8E7229B1B07C5D50CAB20221A55AB
:103060000134C0E7FFFFEFFFFFFFEF7F65CDCD41EC
:1030700065CDCDC194F0001098F000108CF00010D8
:1030800088F0001080F200100000E03FF0B5DE464E
:1030900057464E464546E0B593B082468B4690462D
:1030A0001193002900D1EBE200275546119B1878B7
:1030B000002800D1E7E2252809D07C1C43463A00CD
:1030C0005946A847119B013311932700EEE70133BE
:1030D00011930024119A11780B00203BD8B21028CC
:1030E00003D88300D048C3589F460B00303BDBB267
:1030F000092B2CD92A292FD000230A93119B1A7847
:103100002E2A39D000239A46119A1378683BD9B2F7
:10311000122976D88B00C549CB589F4601231C4302
:1031200001321192D6E702231C4301321192D1E7FA
:1031300004231C4301321192CCE708231C430132C3
:103140001192C7E710231C4301321192C2E711A864
:10315000FFF726FA0A90D1E71C9B1A1D1C921868EB
:10316000002804DB0A90119B01331193C6E7022368
:103170001C4343420A93F6E78022D20014435A1CB0
:1031800011925A781300303BDBB2092B04D92A2A5A
:1031900007D000239A46B7E711A8FFF701FA824645
:1031A000B2E71C9B1A1D1C921868002804DB82469B
:1031B000119B01331193A7E70020F8E780235B0000
:1031C0002343511C119152786C2A01D01C0018E045
:1031D000C0239B001C430131119112E08023234343
:1031E000511C11915278682A01D01C0009E0C023BB
:1031F0001C430131119104E080235B001C43013228
:103200001192119B18780300253BDAB2532A00D99A
:103210002CE29300864AD3589F4680239B001C4390
:1032200001321192EDE780235B001C4301321192C1
:10323000E7E7782809D0582838D06F2838D0622896
:1032400038D010239C430A2600E01026582833D09B
:10325000692803D0642801D00C229443630501D56A
:103260000122944369282AD0642828D0A30500D5D8
:103270009FE0E30500D5B8E0630600D4CAE01C9ADD
:10328000111D1C911168FF220A4005940A9B0493AA
:1032900053460393029600230193009243463A005B
:1032A00059462800FFF76EFA070027E01026CDE701
:1032B0000826CBE70226C9E720221443C8E7A30566
:1032C00020D4E30550D4630666D51C9A111D1C91C9
:1032D0001168FF220A40D317D118594005940A9B60
:1032E0000493534603930296D20F019200914346F2
:1032F0003A0059462800FFF745FA0700119B0133B1
:103300001193D3E61C9BDA1D07218A431100083173
:103310001C91116853689C46DB170C930D930C9A13
:103320000D9B100048400E90624653400F930E983C
:103330000F990C9A0D9B801A99410E900F91089449
:103340000A9B07935346069304960023059363460E
:10335000DA0F02920090019143463A005946280044
:10336000FFF76EFA0700C9E71C9A111D1C9112683D
:10337000D317D118594005940A9B049353460393DD
:103380000296D20F0192009143463A005946280016
:10339000FFF7F8F90700B1E7230605D51C9A111DC0
:1033A0001C910023D25E96E71C9A111D1C91126895
:1033B00091E71C9BDA1D07218A43110008311C91FB
:1033C00008940A9B0793534606930496002305939B
:1033D0000293136854680093019443463A00594697
:1033E0002800FFF72DFA070088E71C9A111D1C9191
:1033F00005940A9B0493534603930296002301937A
:103400001368009343463A0059462800FFF7BAF97B
:10341000070073E723060DD51C9A111D1C91126835
:103420001204120C31E7C046A0F00010E4F00010C6
:1034300030F100101C9A111D1C91126825E74628D6
:103440001AD01C9B0733072293431A0008321C92A0
:1034500004940A9A0392524602925C681B68009395
:10346000019443463A0059462800FFF765FC0700DF
:10347000119B0133119319E620231C43E1E76728D0
:1034800001D0472802D180231B011C43452801D0CD
:10349000472801D120231C431C9B07330722934359
:1034A0001A0008321C9204940A9A0392524602921D
:1034B0005C681B680093019443463A005946280013
:1034C000FFF730FA0700119B01331193EEE5022359
:1034D0001A002240924623421FD001241C9B1A1D31
:1034E0001C927A1C9146187843463A005946A847E0
:1034F0005346002B16D1119B013311934F46D5E54E
:10350000561C434659462020B847230032005C1C15
:103510009D42F5D83D001700E0E701233A002F0057
:103520000A9DF4E74A46A9460A9D06E0571C434611
:1035300059462020C84734003A00661CA542F5D8F9
:103540004D469146D7E71C9B1A1D1C921B68994655
:103550005346002B00D1013B4E4601E001361300DB
:103560003278002A02D05A1E002BF7D14B46F21AAD
:1035700010928023DB0026001E401C4203D05245DF
:1035800001D95346109302231A0022400B92234282
:1035900005D03A0037004C46A946554620E03A008F
:1035A000109B5F46B3462E0006E0551C434639008B
:1035B0002020B04723002A005C1C0A999942F4D8C5
:1035C00035005E46BB46109437004C46A94655462A
:1035D00006E01D000134561C43465946C8473200D8
:1035E0002078002804D0002FF4D06B1E002DF0D1DD
:1035F00017004D460B9B002B03D1119B01331193F8
:1036000054E50A9F109B06E0561C4346594620206D
:10361000A847230032005C1C9F42F5D81700ECE756
:1036200021231C431C9B1A1D1C921B6800930594AC
:10363000082304935346039310230293002301931A
:1036400043463A0059462800FFF79CF80700119BB3
:10365000013311932AE57C1C43463A005946252044
:10366000A847119B0133119327001FE57C1C43469B
:103670003A005946A847119B01331193270015E5DD
:103680000A4B9A4610E5AA46474502D343465A1EBE
:1036900000E03A00434659460020D047380013B0B6
:1036A000F0BCBB46B246A946A046F0BD912500102D
:1036B0000EB410B585B0010007AC08CC039401220C
:1036C000009452420348FFF7E1FC05B010BC08BC6F
:1036D00003B018478925001000B585B0029003910A
:1036E0000121009313004A4202A90248FFF7CEFCD1
:1036F00005B000BD9325001001480421014B184777
:10370000001200202937001010B5010018231B8873
:1037100014221088984710BD10B5010018231B888B
:1037200016221088984710BDF0B5C64600B50700B0
:103730000E0000250123984600E00135B5420AD26B
:10374000AC003C192068FFF7DFFF20600028F4D1AF
:1037500000239846F1E7404680BCB846F0BD000023
:10376000124A936F9B0815D29066D166002905D046
:10377000FFE7FFE7FFE7516F106F704704B5802147
:103780000906C2175140002800D0C8430AF0C0FD06
:10379000002104BDF0B5146E556E576F166FFFF71C
:1037A000E3FF1466556657671667F0BD000000D04A
:1037B000114A936F9B0813D210665166002905D0F9
:1037C000FFE7FFE7FFE7516F106F704704B5002870
:1037D00001D00020C0430AF09BFD002104BDC0467B
:1037E000F0B5146E556E576F166FFFF7E5FF146650
:1037F000556657671667F0BD000000D094464A4AE8
:10380000926F9208624601D228E0C046F0B5464E5B
:10381000346E756E776F366F00F020F89446424A2A
:1038200014665566576716676246F0BD94463E4A71
:10383000926F9208624601D254E0C046F0B53A4E0B
:10384000346E756E776F366F00F04CF89446364ADA
:1038500014665566576716676246F0BD002B24DB79
:1038600011D000293EDA00B5C943404200D10131F0
:1038700000F038F8C943404200D10131DB435242E5
:1038800000D1013300BD002AEBD1002801D100296D
:1038900005D00020C90FC90701D1C043410800B5B8
:1038A0000AF00EFD0022002300BD00B500290ADB4E
:1038B000DB43524200D1013300F014F8C9434042C7
:1038C00000D1013100BDC943404200D10131DB4389
:1038D000524200D1013300F005F8DB43524200D1DF
:1038E000013300BD002923D1002B18D1002A0CD0B0
:1038F000BC460D4F38667A6600210023FFE7FFE7DC
:10390000FFE77A6F386F67467047002801D0074895
:10391000010000B50AF0D4FC0022002300BD020023
:103920000B00002000217047000000D0FFFFFFFFC8
:10393000002B00D0BFE0130C28D1002AE7D080B4C0
:10394000114F39667A66FFE7FFE730B4040C7B6FEE
:10395000396F1B0423433B667A66FFE7FFE7FFE707
:10396000C04684B27B6F3D6F1B0423433B667A667F
:10397000FFE7FFE7C04600232C042D0C7A6F386F59
:1039800000196941B0BC7047000000D0F0B5944602
:103990000025140E01D112020835140F01D11201B5
:1039A0000435940F01D192000235D40F01D1520099
:1039B0000135D40B0134254F7C66254C3C660E0C3A
:1039C00093B2FFE7FFE7FFE73C6F6643360C7703F0
:1039D000BE467343DF0B5B04C01AB941130C73433B
:1039E000DB18C91ACE086643360CB64493B273434B
:1039F0001F0F1B01C01AB941130C73431F0B1B058A
:103A0000C01AB941860D8F023E436643360C092D1C
:103A100024DB520A7243801A7703460A6643360C47
:103A200016235B1BDE40DF40BF1964466643821BE2
:103A30007046043506330100D940A840C01900D3B0
:103A40000131A24206D20023F0BD0000000000D0E8
:103A5000FFFFFFFF121B0130F3D3F1E709277F1BA4
:103A6000FE406446A2B27243801A00D20139220C91
:103A70007243130C1204821A99410B0070460435EC
:103A800013370100F940A840801900D30131002B01
:103A900002D1A2420AD2F0BD013000D30131121B83
:103AA000FAD2013BF8D1A24200D2F0BD013000D3DE
:103AB0000131121BF7E7F0B51C0C00D080E00CB40C
:103AC00000251C0A04D11B02160E334312020835CE
:103AD0001C0B04D11B01160F3343120104359C0B40
:103AE00004D19B00960F334392000235DC0B02D1C8
:103AF00092185B4101351C00971864410134464F10
:103B00007C66464C3C660E0CFFE7FFE7FFE7C046CD
:103B10003C6F6643360C7703BE4697B27743C01BB3
:103B200000D20139C01B00D201399FB27743C91BB3
:103B3000C91B170C77437E04FF0B801BB941CE08CD
:103B40006643360C0C2D33DBB644120B1F053A438B
:103B50001B0B97B27743C01B00D201399FB277434A
:103B6000C91B170C77433E043F0C801BB941860DDF
:103B70008F023E43664329277F1BFE400C3D77465C
:103B8000AF40BF1930BCA2B2ABB272437343801ACC
:103B90009941220C7243130C1204801A99410200BD
:103BA0000B000137001BA941F9D2781E0021F0BD9E
:103BB0000C277F1BFE4077467F0BAF40FF19E0E7E5
:103BC00000245D1C07D0144F7D663966FFE7FFE7D0
:103BD000FFE7FFE73C6F95B29EB265436643401B2B
:103BE000B141150C1E0C6543664336042F0C3E4351
:103BF0002D04401BB141994204D202000B00200069
:103C00000021F0BD01D19042F7D3801A99410134CF
:103C10009942F2D3F6E70000000000D0FFFFFFFF5B
:103C200048404140484018B41B4B5B68FC46019338
:103C300008BD04DF133F001018B4174B1B68FC4687
:103C4000019308BD00DF1D3F00109446134A926F98
:103C5000920809D2624618B40F4BDB68FC46019308
:103C600008BD0CDFD54100100C4AF0B5146E556E3E
:103C7000576F166F6246FFF7EEFF084A14665566E7
:103C800057671667F0BD18B4034B9B68FC46019359
:103C900008BD08DF79400010C41C0020000000D0DF
:103CA000FFB550404240504059404B40594000E021
:103CB000FFB5154F4C00640D03D0BC4204D10C037A
:103CC00014D80020090D09055C00640D03D0BC4226
:103CD00004D11C030AD800221B0D1B0501264B40F2
:103CE00009D44B4003D58B4200D18242FFBD99429B
:103CF000FCD19042FFBD0B43DB1803431343F5D0C7
:103D0000C9434918FFBD0000FF07000000B5FFF7D9
:103D1000CFFF804100BDC04600B5FFF7C9FF01D904
:103D2000002000BD012000BD00B5FFF7B9FF01D99B
:103D3000002000BD012000BD00B5FFF7B1FF8041AC
:103D400000BD012040054A00121804D85A0012187C
:103D500001D8002070470120704700207047000004
:103D60000021002805D17047C1174840401AFAD0F9
:103D7000C90713B5064B1B6898470CBC441CA240EE
:103D80001005120B0349091B09051943114310BD06
:103D9000C41D00201F04000010B54C00620D8023DC
:103DA000D218DB00D21A5B057E2A10DD9E3A13DAA8
:103DB000CC170903490819435242D1406400013429
:103DC0001532202A05DAD0400843604310BD002098
:103DD00010BD0846604310BDC80FC018013810BDA3
:103DE00018B4044B5B6AFC46019308BD24DF85438D
:103DF00000100000C41C002018B4044BDB6FFC460C
:103E0000019308BD7CDF054400100000C41C0020A5
:103E100070B513231C78012C14D0012C14DC022C57
:103E200002DC1F4A1F4B9A641F48FFF76DFC1F4BB3
:103E3000186070BD99001A481A4A885001331F2B28
:103E4000F8D9EAE70023FAE71948FFF765FC05000F
:103E50001848FFF761FC023803789B007F2B19DDBF
:103E6000802229000F4800F037FC022CD7D1124BDA
:103E70001A88B5231B029A4209D1104B1A88104B9D
:103E80009A4204D10F4B1A880F4B9A42C7D0002098
:103E9000FEF762FB0D4B0E4A32210E48FEF7C2FAC6
:103EA000D93E0010C41C00204C330000C41D00206B
:103EB000534400005346000054380000D838000036
:103EC000494600009C38000059460000D0F200101E
:103ED00088F3001024F3001007B56046002800D1D5
:103EE00000BE01880A0A0230DF2AFAD1C9B282086C
:103EF00004D3028840880004104300E00068024AAE
:103F00005050039007BD0000C41C00200FB403BC38
:103F10000CBCF0B50124E407634000E0F0B50C0DE3
:103F2000CF0F661E3605891B640503D3C943404283
:103F300000D30131640D03D0661CF60A07D0E41BE0
:103F400000207F00791C89078912803C24031D0D05
:103F5000DF0F6E1E36059B1B6D0503D3DB435242FC
:103F600000D301336D0D03D06E1CF60A07D0ED1B94
:103F700000227F007B1C9B079B12803D2D032F1B83
:103F8000661B58D4A446202E46DA20371400BC40C5
:103F90001D00BD40F24033412A4380185941CB0FE8
:103FA00005D0C943C043002264425041514162469A
:103FB0004D0D28D10D0D07D100281FD024194041E7
:103FC0004941013A0D0DF9D0640006D3013000D308
:103FD0000131002C01D140084000013A0BD4941C5F
:103FE000E40A04D112051144DB071944F0BDD907D6
:103FF000204B194300E0D9070020F0BD0029DDD196
:10400000002CDBD1F0BD0132C6074008CD072843A4
:104010004908002EE1D0D9E73C2E29DA203E40376E
:104020001400BC4000D00124F24014431A00BB40ED
:104030001C43D317ACE7AC46202F08DA2036040027
:10404000B4400D00B540F84039412843A5E73C2F66
:104050000CDA203F40360400B44000D00124F84080
:1040600004430800B1400C43C117EAE710001900EF
:10407000002494E70000F07FF0B50C0D661E3605B5
:10408000891BE60A6405640D02D0651CED0A04D0A4
:10409000002001210905803C2403A4461C0D671E55
:1040A0003F05DB1BE70A6405640D02D0651CED0AC1
:1040B00004D0002201231B05803C24037740644484
:1040C00097B484B296B27443070C7E43150C6F43C9
:1040D00080B26843361802D3012000043F18300430
:1040E000350C00197D41844688B29AB250430C0CBD
:1040F00062431F0C7C438EB27E43921902D3012689
:104100003604A4191604170C3618674101BC81B295
:104110009AB25143040C62431B0C5C4380B2584377
:10412000121802D30120000424181004130C4018A4
:1041300063412D185E410020474106BC88B293B20E
:1041400058430C0C6343120C544389B251435B181F
:1041500002D301210904641819041A0C09186241D8
:104160006D1856410020474118BCF902720D1143E9
:10417000F0026A0D1043ED020A0D03D16D194041A2
:104180004941013B124E9B1B7600B3420ED26D009B
:1041900007D30130002671416646354301D14008FE
:1041A00040001B05C918E4072144F0BD0BDA0133B8
:1041B00006D1013004D101314F0D01D04908F2E799
:1041C000E1070020F0BD013631050020EBE70000DB
:1041D000FF030000F0B51C0D671E3F05DB1BE70A5F
:1041E0006405640D02D0661CF60A04D00022012387
:1041F0001B05803C2403D0252D060026F6432E66A1
:104200001E096E66CE0FF619B44649004F0D02D056
:104210007E1CF60A03D000200021403F3F033E1BD6
:10422000B600B444013F7F05C91B49082E6F013613
:1042300076089C02950D25437543ED137543AD1328
:1042400001356D10F603761B0CB4CC02450D2C43E2
:10425000A2B2B3B25A43270C7B43350C6F43A4B2CE
:104260006C431B1902D3012424043F191C041D0CA8
:10427000A4187D4124196D41009A91B2ACB26143FA
:10428000170C7C432B0C5F4392B25A43A41802D301
:1042900001221204BF182204230C52187B41019CF6
:1042A0006C431B19520ED9010A434401A01A81B272
:1042B000B2B2514303145A43360C734387B2774367
:1042C000D617D21900277E4136049B191704160C05
:1042D0007F185E417316ED18F30100268033754197
:1042E000A90F06D16400690AE8055B0A184309D2E0
:1042F0002FE00422944480337541A90AA8059B0A43
:10430000184326D3404149412404009A019B0D00E3
:104310005543641B4343E41A95B286B27543170CA8
:104320007E43030C5F4392B25A43B61802D3012274
:104330001204BF183204330C52197B4152429C4183
:10434000002C02D40022013051414008CA0710431A
:10435000490802B06246D7079210084BD218084BA2
:104360009A4203D212058918C919F0BD0020002A0B
:1043700001DC3900F0BD01331905F5E7FD0300004C
:10438000FE070000002200B5203200F004F808000B
:1043900000BD000000220B150AD410B5944600F0B1
:1043A0005FF81414013400DA0021CB17144C2047B5
:1043B0000020002170476244343A0CD40C2A07DAFA
:1043C00004009140904052422032D440214310BD1D
:1043D000D843D94310BD203207D40C4694405242F2
:1043E00020321141D040204310BD0800C9172032AF
:1043F00003D452422032104110BD1800190010BDE4
:10440000B74300104A00520D144BD21A13DDFF2A95
:104410001EDAD205CB0FDB071A43C300400F090396
:10442000490A084310435B0001D301D001307047B3
:104430004308FBD2704702D0C80FC00770470A0379
:1044400012130132F8D1420F072AF5D1012200E000
:10445000FF22C80F00028018C005704780030000CB
:104460000A0DCC0F531E1B05C91A520503D3C943AD
:10447000404200D30131520D03D0531CDB0A07D058
:10448000121B00206400611C89078912803A120304
:10449000014BD21A70470000FF03000007B54840E7
:1044A0004140484001E0C04607B54200120E03D02B
:1044B000FF2A03D1420218D8C00DC0054A00120ECF
:1044C00003D0FF2A03D14A020FD8C90DC905012222
:1044D000414005D4414001D5814207BD884207BD16
:1044E0000143491801D0C043001807BD00B5FFF7CC
:1044F000DBFF804100BDC046C10FC90700D5404267
:10450000002817D0F44603B40B4B1B68984706BC31
:1045100081409E384042803107D20B0607D04900C7
:10452000490AC0051043084360470130F8E7490ACB
:104530008902F5E770470000C41D002070B5132301
:104540001D782A48FFF7E8F80400012D11D0012D4D
:1045500009DDA31E1B789B007F2B40DD80222100FC
:10456000234800F0B9F82348FFF7CEF8224B186033
:1045700070BD542201001E4800F0AEF81F4B1A888F
:104580001F4B9A421CD1A7239B011A881D4B9A42AC
:1045900016D11D4B1A881D4B9A4211D11C4B1A88FB
:1045A00094239B019A420BD11A4B1A881A4B9A42B8
:1045B00006D11A4B1A681A4B9A4201D1152307E00B
:1045C0001848FDF7C9FF99001748094A8850013378
:1045D0001F2BF8D9144A064B1A62DA61B7E7134B5E
:1045E000134A42211348FDF71DFFC0465346000001
:1045F000C81D00204C330000C41D0020EE2900001F
:10460000C40F0000C20D0000962B0000C0B50000D2
:10461000182B0000CC2A000010B50000FC2C000074
:1046200051ED876420E40010394600109CF300101F
:1046300034F40010D0F3001007B56046002800D114
:1046400000BE01880A0A0230DF2AFAD1C9B2820804
:1046500004D3028840880004104300E00068024A46
:104660005050039007BD0000C81D002010B5040085
:1046700008F030FA002804D00419034B9C4200D8FB
:1046800010BD0248FDF768FF0000042048F4001048
:1046900010B50C0008F0F2FD002804D00419034BFB
:1046A0009C4200D810BD0248FDF756FF00000420D0
:1046B00048F4001010B508F017FA10BD01480421A5
:1046C000014B18471012002029370010014B1B68BE
:1046D0001847000010120020014B5B6818470000CB
:1046E0001012002010B5FFF7E5FF10BD10B5030054
:1046F000080011001B68984710BD0000F8B50700BE
:104700000D001600437D002B02D0002400200CE099
:1047100003681100280098472DE03B7D10E002213E
:1047200015483B689847601C0134B44214DA002CE9
:10473000F3DD2B19013B1B780D3B5A425341DBB291
:104740002A5D0A2AF0D1002BEED1A042E7DA211A25
:1047500028183B689847E2E7B04203DA311A281874
:104760003B689847002E06DDAD19013D2B780D3BC7
:104770005A4253413B75F8BDE8F4001070B505008E
:104780000368002B16D00C4B1C6805E0290004C9F7
:104790002000FFF7B3FF2469002C09D02368002B09
:1047A000F9D0064B1B68002BF0D0A342F3D1EDE704
:1047B00000232B6070BDC046A41C0020AC1C002050
:1047C00070B505000C000B68802B05D021684B1CD0
:1047D00023606418257170BD0800FFF7CFFFF5E76F
:1047E000F0B583B007000E000092019328E0A368A3
:1047F000002B04D0310038009847002827DC2469BA
:10480000002C06D0134B1D68002DF0D0A542F6D128
:10481000EDE70099019A104B5B6A9A4209D80E485D
:10482000806A88420FD29A4201D0012302E000231D
:1048300000E00023002B08D101200021FDF728F81B
:10484000064B1C68DCE70123F4E70120404203B07B
:10485000F0BDC046AC1C002000400540A41C002058
:1048600010B5FCF7F5FF02000B1E0BDB0D48002115
:1048700012184B41002B0BDB002B0DDB0A4809F013
:1048800067FD10BD094B0A4A3F210A48FDF7CAFDE2
:1048900001225242084BEFE7044B054A3F210548ED
:1048A000FDF7C0FD40420F00801A0020DCE7001039
:1048B000D0F40010F8E70010FFFFFF7F10B50248AA
:1048C00009F0F6FC10BDC046801A0020F0B5CE46B7
:1048D000474680B583B006000D0090461C00FFF7E8
:1048E000BFFF81466B1C05D0002C08D0194F1A4B16
:1048F0001C6807E0300008F015FF0500F4E7174FCB
:10490000F5E72469002C17D02368002BF9D0144B4D
:104910001B68002B01D0A342F3D12A0031002000F4
:10492000B8474346002BECD06B46D91D0A230B70C9
:1049300001222000B847E4E74B46002B07D16B1E4D
:104940009D41E8B203B0C0BCB946B046F0BDFFF728
:10495000B5FFF4E7ED460010A41C0020FD46001052
:10496000AC1C002010B5030008001100002B05D17D
:10497000044B1A685B68FFF733FF10BD012040420B
:10498000FBE7C046E0EB001010B503000800140080
:10499000013B012B06D8002300222100FFF796FFE0
:1049A000200010BD01204042FBE70120404270473B
:1049B0000120404270470120404270470300002020
:1049C00002229A4240417047094A01E010331A001E
:1049D0001368002B08D08342F8D1002907D103695E
:1049E00013600023036102E0002900D010607047CB
:1049F000A41C002010B5064B1C6801E098472469F0
:104A0000002C03D06368002BF8D1F8E710BDC04636
:104A1000A41C002070B5050008F084FE04000023EB
:104A2000012201002800FFF751FFFFF7E3FF2000FC
:104A300070BD000070B5A2B004000E00FFF710FFBB
:104A40000500002301933300220001A90848FEF766
:104A500043FE040001A8FFF791FEFFF7CBFF002DF6
:104A600002D1200022B070BDFFF728FFF9E7C04651
:104A7000C14700100FB400B583B004A901C901916A
:104A8000FFF7D8FF03B008BC04B01847F0B583B0F7
:104A900005000E0000240FE06B46D91D0D230B709E
:104AA0000020002816D193699B06FCD40B78136074
:104AB00001300131F5E70134B44219DA0D4B1A68BF
:104AC0002F5D0D4BD31859424B415B000B495B5E88
:104AD000BB42E1D06B46D91D0F7000200028EAD1FF
:104AE00093699B06FCD40B78136001300131F5E724
:104AF00003B0F0BDE01E00200080FCBFDC1E0020E3
:104B0000F0B583B006000F00002504E06B460733C4
:104B10001B782B702500BD4215DA174B1A68936974
:104B20001024210019401C420DD16C1C75196B46D4
:104B3000D81D0029EAD19369DB06FCD41368037001
:104B400001310130F5E70D4B1B68002B0CD00A4BEF
:104B50001A685023936311003431536B38221A4082
:104B600080235B010B431A60002D02D0280003B0A4
:104B7000F0BD033DFAE7C046E01E0020341C0020D3
:104B800010B5064B1B68002B06D0054A12680021A1
:104B90009163044A1068984710BDC046341C002039
:104BA000E01E0020381C002070B504000E001C4BD5
:104BB0001B681C4A98184242504114300500002CD2
:104BC00003D0194A1268002A06D0002C19D0164BBF
:104BD0001C60164B1E6070BD1549FBF73FFF01219D
:104BE0002800FBF72BFF0E4B1A685023936311002C
:104BF0003431536B38221A4080235B010B431A6017
:104C0000E5E7094A1268002AE1D000229A630021F0
:104C10002800FBF713FF06492800FBF749FFD6E7FA
:104C2000E01E00200080FCBF341C0020381C002047
:104C3000814B001070B50D001C000D4B1860002A50
:104C40000BDA002C0EDA0A4B18682900FDF7CEF9B2
:104C500001210848FFF7B8FE70BD02211000FBF7E4
:104C600009FEEEE702212000FBF704FEEBE7C04659
:104C7000E01E00202012002010B5064B1B78064BCA
:104C80001B78E1210123002249020448FFF7D2FFEB
:104C900010BDC046401401104414011000400340F0
:104CA0001B2210B50249022008F0A4FD00F034FEDA
:104CB0002CF5001010B50400034B0833036000F01E
:104CC000D1F8200010BDC0467CF5001010B50400DE
:104CD000054B0833036000F0C5F820000C2100F0FC
:104CE0001DF9200010BDC0467CF50010F0B583B062
:104CF0001E00089B05000F00140093420AD0A8680C
:104D0000089A036800921D6A220033003900A84700
:104D100003B0F0BD310000F069F80028EFD00620A4
:104D2000F6E7C046F0B5C64600B50D0084B01900E0
:104D3000060090461F0000F059F8041E18D10A9B87
:104D40000C9A934231D00D9AB068290003680392FF
:104D50000C9A02920B9A01920A9A0092DC694246DE
:104D60003B00A0470400200004B080BCB846F0BD62
:104D70000D9B0A9A1A6042461A71002D0EDB0A9B9F
:104D800000249C460C9B65445D1B6B425D410523E2
:104D90006D421D400D9B01359D71E4E70024AB1C65
:104DA000E1D101230D9A9371DDE730000B9900F0FA
:104DB0001DF80028C7D042460D9B5A71D3E7C04664
:104DC000F8B507000C0015001E0000F087F8002859
:104DD00006D1B8682A00036821009F693300B847EC
:104DE000F8BDC0467047C0460020704710B58142EC
:104DF00011D0406803782A2B0BD049680B782A3BE6
:104E00005A425341C91808F049FC43425841C0B2C4
:104E100010BD0020FCE70120FAE7C046002330B5B2
:104E20001400102285B0009301930393036802924B
:104E30009D6922686B46A8476B461A7906230020B5
:104E40001340062B02D1009B0130236005B030BD1A
:104E5000009B981A431E9841042340429843063011
:104E60007047C04610B50400034B08330360FFF7DA
:104E7000B9FF200010BDC046F0F5001010B50400C9
:104E8000054B08330360FFF7ADFF2000082100F059
:104E900045F8200010BDC046F0F5001070B51600B2
:104EA0001D00069A049B040093420ED029002000A6
:104EB000FFF79CFF002806D0079B049A1E711A601A
:104EC0000123079A9371002070BD0599FFF78EFFAB
:104ED0000028EBD0079B5E71F5E7C04670B5150062
:104EE0001C00FFF783FF002804D00823E360023B87
:104EF0002560237170BDC046F8B505000C00170091
:104F00001E00FFF773FF002807D1032E05D8236882
:104F10003A00290020005B699847F8BD10B5FFF7FB
:104F2000E1FB10BD70B51C4C08386368002B27D01E
:104F300006688519AB4223D81DD05A680434002A6C
:104F400006D10EE051681C1D00291FD013000A0075
:104F50009542F7D304D12A6894466A6866445A6039
:104F600023681A68991888420DD05B680660436010
:104F70002368586006E01A685B68944666440660D9
:104F80004360606070BD92191A60FBE75B681A6845
:104F900099188842E9D1F6E7D41B0020020010B529
:104FA0000832083000D30822072310490732486826
:104FB0009A43002813D0043103E0011D4068002803
:104FC0000DD003689A42F8D89C1A072C08D9831888
:104FD00040681C605860086802600B60083010BDB3
:104FE0000360436808300B60F9E7C046D41B00201B
:104FF00070B580300500FFF739FB041E07D0802212
:1050000000212000FFF762FB2000803070BD2800E7
:10501000FFF7C4FF041EF2D100F07EFC074A80387F
:10502000936810B5984203D9D2689B18984202D36E
:10503000FFF740FB10BDFFF775FFFBE7D41B002017
:1050400070B59E25084C2D012800E560FFF70EFB8A
:10505000A060002804D0002360600560436070BD3C
:10506000E0606060FBE7C046D41B00201EB400F087
:1050700093F81EBC09F054F9F0B5C64600B51E0001
:1050800003780C0082B0472B1DD00023284D0193DC
:105090002B6828009B6898470127002803D0019BB4
:1050A00001371B680193236829001B69200098467B
:1050B00001AA0123C047002824D10027380002B0EC
:1050C00080BCB846F0BD43784E2BDED18378552B9B
:1050D000DBD1C378432BD8D10379462B1CD003797D
:1050E000432BD2D143792B2BCFD183792B2BCCD10E
:1050F000C379012BC9D808D003005830203B1D6864
:105100000190C5E7019B3360D8E7203800680300B1
:10511000783B1D680190BBE743794F2BDFD1837942
:10512000522BDCD1C379002BD9D1024D0193AFE7CB
:1051300038F6001030F6001010B5040000F076F8D4
:1051400023002278203B472A05D08268002A20D1FC
:105150008360012010BD62784E2AF6D1A278552ACC
:10516000F3D1E278432AF0D12279432AEDD1627952
:105170002B2AEAD1A2792B2AE7D1E279012AE4D8B5
:10518000DA690132DA61012AE3D182689A618360C7
:10519000DFE700F0C1FBC04610B500F047F88368B8
:1051A000002B2ED020229A5C472A04D00022826055
:1051B0002033180010BD263A9A5C4E2AF6D12C3ABC
:1051C0009A5C552AF2D1323A9A5C432AEED11F3AC0
:1051D0009A5C432AEAD11E3A9A5C2B2AE6D1053A18
:1051E0009A5C2B2AE2D1043A9A5C012ADED8DA6969
:1051F000013ADA61002ADBD19A69826000229A6161
:10520000D6E700F089FBC0467047C04600487047AB
:105210001CF6001010B504000421FFF77FFE2000EB
:1052200010BDC04600487047BC1B002000487047B6
:10523000BC1B0020F8B5DE46454657464E468B4619
:10524000E0B50500502825D00F2028400C2800D9B3
:1052500076E03C4C80002058874650781678000253
:1052600094780643D0782404000634430443101D88
:10527000002C08D070262E40102E00D193466DB21F
:105280005C44002D0CDB1C60F0BCBB46B246A9465A
:10529000A046F8BD032103328A43100010C8F2E78C
:1052A0002468F0E750781678000294780643D078A6
:1052B000240400063443044310000830D8E754782F
:1052C000107824020443901CD2E754781678240204
:1052D000344324042414901CCAE77F219046002400
:1052E0000027894646463178701C4E460E40BE4027
:1052F00034434EB280460737002EF3DB1F2FB7D85A
:105300004906B5D50126BE4076423443B2E70021B6
:1053100088467F311700002489463E0031780137E6
:105320008A464946564631404646B1400C4307211D
:105330008C4651464EB23800E044002EEDDB97E734
:1053400007F058F9D0F60010020010B50800FF2A47
:1053500015D070231340302B17D004D8202B07D141
:1053600008F09EFF03E0402B0BD108F0E9FF10BDD1
:10537000202B02D86023134201D007F03BF9002014
:10538000F5E70020502BF2D0F7E708F0B9FFEEE781
:10539000F8B505000E0014000020002D02D02800F2
:1053A00008F0CEFF2060771C3678FF2E29D1606090
:1053B0003B78781C2375FF2B33D010230025002168
:1053C0007F2623753200037801301A408A405BB291
:1053D00015430731002BF5DB4519E5600025002258
:1053E0007F2603780130637531000378013019405E
:1053F00091405BB20D430732002BF5DB4519256167
:10540000F8BD29003000FFF79FFF3A000100231D7F
:105410003000FFF70FFF07003B78781C2375FF2B48
:10542000CBD10023E360D9E7F0B5DE4645465746C9
:105430004E460023E0B593B0089303338B46904665
:105440000340012B16D0022B0FD14146584608F0DD
:1054500047FF0924002800D10824200013B0F0BC25
:10546000BB46B246A946A046F0BD002B00D190E055
:1054700007F0C0F808231A000240034200D19AE066
:1054800002231A4302920C910CAD00230C2200213E
:105490004046009508F01CFF404608F079FF039055
:1054A0000028D2D02A0003994046FFF771FF4146F9
:1054B0000600287DFFF748FF0BABA8600F22009382
:1054C0009A4600210023404608F04AFF01220B9B28
:1054D0009343013B99462B699E4263D27F276C7DA3
:1054E00000212000FFF730FF3200010009AB20004F
:1054F000FFF7A0FE6C7D060000212000FFF724FFCF
:10550000320001000AAB2000FFF794FE6C7D06001C
:1055100000212000FFF718FF534601003200200051
:10552000FFF788FE0024002103003A001B780130B9
:105530001A408A405BB2060014430731002BF3DBAC
:10554000099A2B68944663444B4519D9029BDB07A3
:105550002BD500230024049353460D2200930021F1
:1055600000234046089D08F0FBFE5B460B9A9C62B8
:105570001A62039A0624DA62049A5D621A636CE77F
:105580000A9A944663444B456FD82B698342A6D848
:10559000DCE7030700D558E701230CAD02935B4617
:1055A0000C9372E7029B1A42D3D10823029A13424A
:1055B00058D000F0B1F90CAD0C6A00230D22002187
:1055C0004046009508F0CCFE0C9B9C4202D0022382
:1055D0000293E4E75B460C220C9300210023404633
:1055E000009508F075FE5B461B6B0493002B39D0C9
:1055F0005B469C6ADB6A03930BAB9A460326002C3E
:1056000056DB5B460B935346002200210093404635
:10561000002308F05DFE534601220021009340461E
:1056200000230B9408F054FE53460F2200210093F0
:105630004046002308F094FE01230B9A00211340FA
:10564000049A404613430B9353460F2200930023C2
:1056500008F03EFE0724022E00D0FEE65846FFF773
:105660006BFDFAE6584606F0A3FE0B9B002B00D11B
:10567000EBE66A68944663440493002C37D1002B10
:1056800000D1E2E6029BDB0700D5DEE60823029AA2
:10569000134200D122E100240226B2E7079B5446C0
:1056A000AB469846B2464D46029BDB0700D553E712
:1056B0002A0003994046FFF76BFE4146287DFFF71D
:1056C00043FEE343E9689B00A860C9180B68002B00
:1056D00005D0002301339A008A58002AFAD15A468D
:1056E000936204230326D0621363516389E72A6916
:1056F000631E9446049A6344002A00D1A5E6002B59
:1057000000D1E0E0029908220800104006900A4209
:1057100000D1CDE059463F320A7007324A70073255
:105720008A70123ACA7003320A7109324A7103321E
:105730008A710022CA710022059242467F27A9463B
:105740000792002400211A0010783A0002408A4093
:105750000133144342B21D000731002AF3DB1F2935
:1057600006D84022024203D03F3A8A4052421443B4
:10577000002600213A001878013302408A4016437F
:1057800042B20731002AF5DB1F2906D84023034225
:1057900003D03F3B8B405B421E43002C11D013DCF7
:1057A0005B46002B02D0069B002B4AD04A46E343BF
:1057B000D2689B009B58002B2CD0002E6DD0AB19CB
:1057C000BFE701230593F8E74B46187DFF2862D019
:1057D00007230340022B5BD02DD9032B2ED0042BA3
:1057E00000D045E6E20052424B46DB6849469C4603
:1057F000896853466244FFF71DFD0B99002909D0C3
:105800005B46002BD9D00022584608ABFFF734FC8A
:105810000028D2D0079B4D469846029BDB0700D557
:105820009AE6069B002B00D1E8E60326002C00DB5D
:10583000E7E600F07DF8002B00D019E6A200524206
:10584000D2E7089B0F9A0B93E34390469B00984442
:1058500043461968002943D05B465246AB46A246F0
:105860001D004446B046160004E061680434002977
:1058700000D113E73300002228006118FFF7FCFB7A
:105880000028F2D02B00B2465D4646469B4694E780
:1058900062005242A8E70022A6E7079B9846059BB4
:1058A000002B00D1D1E5029BDB0700D5CDE5F2E668
:1058B0005A46D1795832012901D008923BE7783A0B
:1058C0001268089237E7029BDB0700D5BDE5029A14
:1058D000082314001C401A4200D0DCE6022690E6A1
:1058E000079B4D469846DFE606F0F2FD61E6C046AE
:1058F00070B5804706F07EFE06F0EAFD06F07AFEFF
:105900000D00040006F01EFE6B1C02D1200006F004
:105910005FFDFFF7ABFBC046024B10B51868FFF701
:10592000E7FFC0463C12002010B58047FFF7F4FFA8
:10593000024B10B51868FFF7F7FFC0463812002079
:10594000014B18687047C0463C120020014B186894
:105950007047C0463812002010B5012812D80B003D
:10596000283B1A68501E1860012A00D010BDDB6861
:1059700058310C00002B01D0080098472000FFF799
:105980004DFBF3E728394869FFF7B2FF70B5050012
:105990000026803DEA602E60A9600400FFF7D6FF74
:1059A0002861FFF7CDFF23004722583B68611A703A
:1059B00007325A7007329A7022004323553A137007
:1059C0005370183B9370D370024B513C28002670E3
:1059D0002B6370BD5959001070B504000D001600FE
:1059E000FFF724FC436832000133290043602000A4
:1059F000FFF7CCFF012303602830040008F0C0FC4F
:105A0000200006F065FDFFF787FFC04610B5FFF7E1
:105A10000DFC4368046801334360002C0CD0202344
:105A2000E35C472B0AD0002303602034200008F0F9
:105A30009FFC200006F04CFDFFF76EFF263BE35C69
:105A40004E2BF0D12C3BE35C552BECD1323BE35C8D
:105A5000432BE8D11F3BE35C432BE4D11E3BE35CCB
:105A60002B2BE0D1053BE35C2B2BDCD1043BE35C2F
:105A7000012BD8D863695B426361D6E770B53D4BB3
:105A800082B01A78002A44D101221A7006F0A2FDD1
:105A9000002834D04468002123782A3B5A425341DD
:105AA000E41801235B4200220193200001AB06F0C1
:105AB000E7FB314D06002B683022DB6801212F48BF
:105AC00006F0F0FF019B002B13D02B682000D96853
:105AD00006F00AFE2B680222DB680121284806F046
