:020000041000EA
:1000000000B5324B212058609868022188439860DF
:10001000D860186158612E4B002199600221596106
:100020000121F02299502B49196001219960352056
:1000300000F044F80222904214D00621196600F024
:1000400034F8196E01211966002018661A6600F04E
:100050002CF8196E196E196E052000F02FF8012189
:100060000842F9D1002199601B49196000215960AB
:100070001A491B48016001219960EB211966A021F2
:10008000196600F012F800219960164914480160C1
:100090000121996001BC002800D000471248134993
:1000A000086003C880F30888084703B5996A0420EC
:1000B0000142FBD001200142F8D103BD02B5186610
:1000C0001866FFF7F2FF186E186E02BD00000240BE
:1000D000000000180000070000035F00212200005C
:1000E000F4000018222000A00001001008ED00E03C
:1000F00000000000000000000000000074B24E7A12
:1001000000200420F7010010C3010010C5010010F9
:10011000C1010010C1010010C1010010C101001097
:10012000C1010010C1010010C1010010C701001081
:10013000C1010010C1010010C9010010CB01001065
:10014000CD010010CD010010CD010010CD01001037
:10015000CD010010CD010010CD010010CD01001027
:10016000CD010010CD010010CD010010CD01001017
:10017000CD010010CD010010CD010010CD01001007
:10018000CD010010CD010010CD010010CD010010F7
:10019000CD010010CD010010CD010010CD010010E7
:1001A000CD010010CD010010CD010010CD010010D7
:1001B000CD010010CD010010CD010010CD010010C7
:1001C00000BE00BE00BE00BE00BE00BEEFF3058054
:1001D000103800BEF2EB8871E0CE061004CF061096
:1001E0003402001090A31AE700201F49086006C8D7
:1001F00081F3088810471D48006800282FD10DA4FE
:100200000ECC002902D000F012F8F9E71849194A7B
:10021000002000E001C19142FCD1174988471749ED
:1002200088471749884700BEFDE701C901C29A42C5
:10023000FBD3704704CF0610C0000020F01B002045
:1002400034EA0610000004200000042034EA0610FE
:10025000001004200010042000000000704709482E
:100260003EF0BAFD0047000008ED00E0000000D0BD
:10027000F01B00208C4F022025DB03106D040010C2
:10028000E3DA03105756000006005250ABB3605338
:1002900050AE061006005250861C030260AE0610D7
:1002A000060052505422A29D7CAE0610050052500A
:1002B000DE65F46834EA0610F8B5C04610B5064CA1
:1002C0002378002B07D1054B002B02D0044800E017
:1002D00000BF0123237010BDF03802200000000091
:1002E000F8A50410044B10B5002B03D003490448B3
:1002F00000E000BF10BDC04600000000F43802203E
:10030000F8A50410704770B50C000C30002137F0D0
:1003100009FA002803D005698169002304E005007B
:10032000FAE7E256EA5401338B42FADB70BD000073
:1003300070B50C4B18680C49FFF7E5FF002400E08E
:100340000134092C0CDC074B1D6828000C3037F0F9
:100350005BFC0028F4D0A868044900F0E9F9EFE755
:1003600070BDC04628390220101A0610F8A50410E6
:1003700070B50C4B18680C49FFF7C5FF002400E06E
:100380000134092C0CDC074B1D6828000C3037F0B9
:100390003BFC0028F4D0A868044900F0C9F9EFE755
:1003A00070BDC04628390220F0A60410F8A504103C
:1003B00010B504000C3037F027FC002800D110BD28
:1003C000A068024900F0B4F9F9E7C046F8A50410A6
:1003D00010B504000068FFF795FF201810BD10B598
:1003E000FFF7F6FF10BD000070B584B0114E30006D
:1003F00002F0D8FE1048FFF7F2FF01000F4C20601A
:100400000F4B63600F4B6360231DA36025000C3509
:1004100000220292019387239B0200930A4B320031
:10042000280037F051F9280037F008FB074B1C6013
:1004300004B070BD2C390220F0CA0410BC4B02205D
:10044000E4A604107C9B0610F01B00202839022033
:1004500010B5FFF7C9FF034B18680349FFF753FFB7
:1004600010BDC04628390220101A061030B585B0DC
:100470006A4B039303AA6A4B1A6037F04BFE0028BD
:1004800000D185E037F04AFE0400FFF7E1FF37F0C6
:1004900045FE041B634B9C4200DC85E037F03AFECE
:1004A000FA2189003EF0C4FC010020003EF0C0FCAF
:1004B000009023005C4A5D495948006800F038F913
:1004C00037F028FE002800D178E037F027FE04003E
:1004D000574B1868FFF76CFF37F020FE041B514B99
:1004E0009C4200DC70E037F015FEFA2189003EF0F6
:1004F0009FFC010020003EF09BFC009023004D4A31
:100500004A494748006800F013F937F003FE002815
:1005100064D037F003FE0400FFF70AFF37F0FEFD5A
:10052000041B404B9C425FDD37F0F4FDFA2189004B
:100530003EF07EFC010020003EF07AFC009023009B
:100540003D4A3A493648006800F0F2F837F0E2FDDB
:10055000002853D037F0E2FD0400FFF709FF37F021
:10056000DDFD041B2F4B9C424EDD37F0D3FDFA21FD
:1005700089003EF05DFC010020003EF059FC009037
:1005800023002E4A29492648006800F0D1F804E0EB
:100590002B49234B186800F0CBF8204B0393294BD1
:1005A0000393002005B030BDFA25AD00654337F058
:1005B000B1FD010028003EF03BFC79E72049184BD3
:1005C000186800F0B5F8E8E7FA25AD00654337F0A4
:1005D000A1FD010028003EF02BFC8EE71849104BCE
:1005E000186800F0A5F8D8E7FA25AD00654337F0A4
:1005F00091FD010028003EF01BFC9FE71049084BCD
:10060000186800F095F8C8E7FA25AD00654337F0A3
:1006100081FD010028003EF00BFCB0E77C9B06103A
:10062000604C02209BC4200028A6041044A604109D
:100630002839022060A6041088A60410B0A6041071
:1006400008A60410E4A6041001308000704730B5FD
:1006500000280DD005688D420FD100239D420ADD90
:1006600099004418646889588C4208D10133F5E731
:100670004842484102E0012000E0002030BD002057
:10068000FCE710B5884208D0002808D0002908D01F
:100690000A0002CAFFF7DBFF10BD0120FCE70020C3
:1006A000FAE70020F8E700000D281DD88000104B65
:1006B0001B589F460F4870470F48FCE70F48FAE762
:1006C0000F48F8E70F48F6E70F48F4E70F48F2E75E
:1006D0000F48F0E70F48EEE70F48ECE70F48EAE76E
:1006E0000F48E8E70F48E6E70F48E4E70F48E2E77E
:1006F000983E0610903E0610283E0610303E06102A
:10070000383E0610403E0610483E0610503E061089
:10071000583E0610603E06106C3E0610783E0610ED
:10072000803E0610883E0610103E0610203E061041
:100730000EB400B582B003AA02CA019203689B6896
:10074000984702B008BC03B018470CB400B583B09A
:1007500004AA02CA019203689B68984703B008BCC8
:1007600002B01847052803D88300024AD3589F4691
:1007700000207047D03E0610002803D0012803D186
:10078000013070470120FCE70020FAE710B500288F
:1007900006D0002906D0002A06D0002B06D010BDB6
:1007A00047F046FE47F044FE47F042FE47F040FE69
:1007B00010B513000C2836D883001F4AD3589F4623
:1007C0000A230B70002010BD01230B70FBE70B23E5
:1007D0000B700020F7E707230B700020F3E70223DC
:1007E0000B700020EFE703230B700020EBE70923D9
:1007F0000B700020E7E704230B700020E3E70D23D4
:100800000B700020DFE705230B700020DBE70623D9
:100810000B700020D7E708230B700020D3E70C23D0
:100820000B700020CFE700220A7002000349180075
:10083000FFF77EFF0120C6E70C3F0610E83E0610DA
:10084000002070470020704700207047002070474C
:10085000002070470020704700207047002070473C
:10086000002070470020704700207047002070472C
:10087000002070470020704700207047002070471C
:10088000002070470020704700207047002070470C
:1008900000207047002070470020704700207047FC
:1008A00000207047002070470020704700207047EC
:1008B00000207047002070470020704700207047DC
:1008C00010B50068FFF71EFD10BD704710B5006839
:1008D000FFF7FBFF10BD0000F0B5C64600B582B0C3
:1008E00004000D001700019300291AD00868FFF7D3
:1008F00009FD0600A008B0421AD30024B44225D254
:10090000A3009846B8442868FFF7FCFC844216D23E
:100910002B1DA2009858FFF7D8FF434618600134FA
:10092000ECE7089A0C491800FFF702FF01200EE0DF
:10093000089A0A490198FFF7FBFE012007E083218E
:10094000074B084A490008483DF0CEF8002002B0A5
:1009500080BCB846F0BDC046403F0610703F061050
:10096000B43F0610C03F061090400610704710B507
:100970000088FFF7FBFF10BD704710B50078FFF748
:10098000FBFF10BDF0B5C64600B584B00400884634
:1009900015001E00FFF7FAFE2B681B6804220421D5
:1009A000280098470023036002950390071E0DD08E
:1009B0002000FFF78BFF251A2800FFF7D8FF0A2831
:1009C00010D928000A30FFF7D2FF0CE02D4B01931D
:1009D0002D4B00932D4B2E4A41464046FFF7B5FE66
:1009E00001243DE00020002803D02018FFF7C5FFB8
:1009F00000E00020232818D12000FFF767FF251A08
:100A00002800FFF7B4FF0C2804D928000C30FFF7AA
:100A1000AEFF00E000202418002804D02000FFF7DB
:100A20004FFF241802E0002400E00024002C12D024
:100A300025002000FFF74AFF241A2000FFF797FF48
:100A400004281BD9201DFFF792FF002818D0281872
:100A5000FFF73CFF3860039B3360002303930024BF
:100A60000399002903D0029803685B689847002324
:100A70000393200004B080BCB846F0BD0020E4E73A
:100A80000020E7E7844106105906000000410610E7
:100A90006C410610F0B5C64600B584B00400884627
:100AA00015001E00FFF772FE2B681B68042204214C
:100AB000280098470023036002950390071E0DD07D
:100AC0002000FFF703FF251A2800FFF750FF0A2830
:100AD00010D928000A30FFF74AFF0CE02D4B019394
:100AE0002D4B00932D4B2E4A41464046FFF72DFEDD
:100AF00001243DE00020002803D02018FFF73DFF2F
:100B000000E000204F2818D12000FFF7DFFE251A53
:100B10002800FFF72CFF0C2804D928000C30FFF721
:100B200026FF00E000202418002804D02000FFF752
:100B3000C7FE241802E0002400E00024002C12D09C
:100B400025002000FFF7C2FE241A2000FFF70FFF48
:100B500004281BD9201DFFF70AFF002818D02818E9
:100B6000FFF7B4FE3860039B336000230393002437
:100B70000399002903D0029803685B689847002313
:100B80000393200004B080BCB846F0BD0020E4E729
:100B90000020E7E7844106107106000000410610BE
:100BA0006C410610F0B5C64600B584B004000F00D5
:100BB00015001E00FFF7EAFD2B681B6804222421A4
:100BC000280098478046242200213FF09DFC029592
:100BD000434603934546002B0ED02000FFF776FED8
:100BE000231A98461800FFF7C2FE0A2811D940467A
:100BF0000A30FFF7BCFE0DE0384B0193B723DB0052
:100C00000093374B374A39003800FFF79EFD013516
:100C100051E00020002803D02018FFF7AEFE00E0CE
:100C20000020112819D12000FFF750FE231A984602
:100C30001800FFF79CFE0C2804D940460C30FFF743
:100C400096FE00E000202418002804D02000FFF7C2
:100C500037FE241802E0002400E00024002C25D0F8
:100C6000A0462000FFF732FE241A2000FFF77FFE87
:100C700004282ED9201DFFF77AFE43461C180028B1
:100C800029D02000FFF71CFE2418002C0ED0164B94
:100C900000933B002A0021002020FFF71DFE051EC7
:100CA00009D12068FFF72EFB039B1862039B33607A
:100CB0000023039300250399002903D002980368B9
:100CC0005B68984700230393280004B080BCB846B3
:100CD000F0BD0020D1E70024D7E7C04684410610CC
:100CE000004106106C41061098410610F0B5C6464A
:100CF00000B584B00400884615001E00FFF746FDCD
:100D00002B681B68042208212800984700230360F1
:100D1000436002950390071E0DD02000FFF7D6FD1B
:100D2000251A2800FFF723FE0A2810D928000A30C8
:100D3000FFF71DFE0CE0394B0193394B0093394B03
:100D4000394A41464046FFF700FD012450E00020AB
:100D5000002803D02018FFF710FE00E000204028F4
:100D600018D12000FFF7B2FD251A2800FFF7FFFD7C
:100D70000C2804D928000C30FFF7F9FD00E0002012
:100D80002418002804D02000FFF79AFD241802E060
:100D9000002400E00024002C25D025002000FFF7CF
:100DA00095FD241A2000FFF7E2FD04282ED9201D0E
:100DB000FFF7DDFD00282BD02818FFF787FD3860EE
:100DC000039F2800FFF782FD2C1A2000FFF7CFFDBC
:100DD00006281FD9A01DFFF7CAFD00281CD028181F
:100DE000FFF774FD7860039B3360002303930024B6
:100DF0000399002903D0029803685B689847002391
:100E00000393200004B080BCB846F0BD0020D1E7B9
:100E10000020D4E70020E0E70020E3E7844106104B
:100E2000F4060000004106106C410610F0B5C646FD
:100E300000B584B00400884615001E00FFF7A6FC2C
:100E40002B681B68042208212800984700230360B0
:100E5000436002950390071E0DD02000FFF736FD7A
:100E6000251A2800FFF783FD0A2810D928000A3028
:100E7000FFF77DFD0CE0394B0193394B0093394B63
:100E8000394A41464046FFF760FC012450E000200B
:100E9000002803D02018FFF770FD00E000203B2859
:100EA00018D12000FFF712FD251A2800FFF75FFD7B
:100EB0000C2804D928000C30FFF759FD00E0002071
:100EC0002418002804D02000FFF7FAFC241802E0C0
:100ED000002400E00024002C25D025002000FFF78E
:100EE000F5FC241A2000FFF742FD04282ED9201D0E
:100EF000FFF73DFD00282BD02818FFF7E7FC3860EE
:100F0000039F2800FFF7E2FC2C1A2000FFF72FFDBB
:100F100006281FD9A01DFFF72AFD00281CD028187D
:100F2000FFF7D4FC7860039B336000230393002415
:100F30000399002903D0029803685B68984700234F
:100F40000393200004B080BCB846F0BD0020D1E778
:100F50000020D4E70020E0E70020E3E7844106100A
:100F600035050000004106106C410610F0B5C6467C
:100F700000B584B00400884615001E00FFF706FC8B
:100F80002B681B6801220121280098470023037069
:100F900002950390071E0DD02000FFF797FC251A3D
:100FA0002800FFF7E4FC0A2810D928000A30FFF7D0
:100FB000DEFC0CE02E4B01932E4B00932E4B2F4A60
:100FC00041464046FFF7C1FB01243FE000200028D6
:100FD00003D02018FFF7D1FC00E000201B2818D117
:100FE0002000FFF773FC251A2800FFF7C0FC0C282F
:100FF00004D928000C30FFF7BAFC00E000202418C8
:10100000002804D02000FFF75BFC241802E0002435
:1010100000E00024002C14D025002000FFF756FC2F
:10102000241A2000FFF7A3FC04281DD9201DFFF778
:101030009EFC00281AD02818FFF79FFC431E9841F9
:101040003870039B33600023039300240399002925
:1010500003D0029803685B6898470023039320003D
:1010600004B080BCB846F0BD0020E2E70020E5E710
:10107000844106108E050000004106106C410610E8
:10108000F0B5C64600B584B00400884615001E00C1
:10109000FFF77CFB2B681B68012202212800984780
:1010A00000230370437002950390071E0DD02000AB
:1010B000FFF70CFC251A2800FFF759FC0A2811D964
:1010C00028000A30FFF753FC0DE03E4B0193BF238D
:1010D000DB0000933C4B3D4A41464046FFF735FB61
:1010E000012454E00020002803D02018FFF745FC1D
:1010F00000E000204A2818D12000FFF7E7FB251A5E
:101100002800FFF734FC0C2804D928000C30FFF726
:101110002EFC00E000202418002804D02000FFF757
:10112000CFFB241802E0002400E00024002C44D06F
:1011300025002000FFF7CAFB241A2000FFF717FC48
:10114000042832D9201DFFF712FC00282FD02818C0
:10115000FFF713FC431E98413870039F2800FFF7E8
:10116000B5FB2C1A2000FFF702FC062821D9A01D90
:10117000FFF7FDFB00281ED02818FFF7FEFB431EDB
:1011800098417870039B33600023039300240399F4
:10119000002903D0029803685B68984700230393F3
:1011A000200004B080BCB846F0BD0020CDE7002090
:1011B000D0E70020DEE70020E1E700233B70039A40
:1011C0005370DFE784410610004106106C410610A1
:1011D000F0B5C64600B584B00400884615001E0070
:1011E000FFF7D4FA2B681B680422142128009847C3
:1011F0000700142200213FF087F902950397002F82
:101200000DD02000FFF762FB251A2800FFF7AFFB87
:101210000A2810D928000A30FFF7A9FB0CE05C4B24
:1012200001935C4B00935C4B5C4A41464046FFF7A0
:101230008CFA01248AE00020002803D02018FFF750
:101240009CFB00E00020202818D12000FFF73EFB87
:10125000251A2800FFF78BFB0C2804D928000C3036
:10126000FFF785FB00E000202418002804D02000B0
:10127000FFF726FB241802E0002400E00024002CE5
:101280005FD025002000FFF721FB241A2000FFF784
:101290006EFB042868D9201DFFF769FB002865D084
:1012A0002818FFF713FB3860039F2800FFF70EFB99
:1012B0002C1A2000FFF75BFB062859D9A01DFFF769
:1012C00056FB002856D02818FFF700FB7860039FD4
:1012D0002800FFF7FBFA2C1A2000FFF748FB08282C
:1012E0004AD920000830FFF742FB002846D02818D2
:1012F000FFF7ECFAB8602800FFF7E8FA2C1A200094
:10130000FFF735FB0A283BD920000A30FFF72FFBF7
:10131000002837D02818FFF7D9FAF8602800FFF71F
:10132000D5FA2C1A2000FFF722FB0C282CD920001C
:101330000C30FFF71CFB002828D02818FFF7C6FA4E
:101340003861039B33600023039300240399002931
:1013500003D0029803685B6898470023039320003A
:1013600004B080BCB846F0BD002097E700209AE7A3
:101370000020A6E70020A9E70020B6E70020B9E793
:101380000020C5E70020C8E70020D4E70020D7E709
:10139000844106109B060000004106106C410610B7
:1013A000704710B5007840B2FFF7FAFF10BD00009B
:1013B000F0B5C64600B584B00400884615001E008E
:1013C000FFF7E4F92B681B680122012128009847E8
:1013D0000023037002950390071E0DD02000FFF735
:1013E00075FA251A2800FFF7C2FA0A2810D9280032
:1013F0000A30FFF7BCFA0CE02F4B01932F4B009300
:101400002F4B304A41464046FFF79FF9012440E008
:101410000020002803D02018FFF7AFFA00E00020DA
:101420000C2818D12000FFF751FA251A2800FFF7E1
:101430009EFA0C2804D928000C30FFF798FA00E037
:1014400000202418002804D02000FFF739FA2418BF
:1014500002E0002400E00024002C15D0250020002C
:10146000FFF734FA241A2000FFF781FA04281ED966
:10147000201DFFF77CFA00281BD02818FFF791FFEA
:10148000C0B2FFF76FF93870039B336000230393FA
:1014900000240399002903D0029803685B689847E9
:1014A00000230393200004B080BCB846F0BD0020A8
:1014B000E1E70020E4E7C04684410610AC040000E8
:1014C000004106106C410610F0B5C64600B584B068
:1014D0000400884615001E00FFF758F92B681B68AA
:1014E00001220121280098470023037002950390F0
:1014F000071E0DD02000FFF7E9F9251A2800FFF795
:1015000036FA0A2810D928000A30FFF730FA0CE022
:101510002F4B01932F4B00932F4B304A41464046AF
:10152000FFF713F9012440E00020002803D0201821
:10153000FFF723FA00E00020152818D12000FFF75C
:10154000C5F9251A2800FFF712FA0C2804D928003B
:101550000C30FFF70CFA00E000202418002804D01B
:101560002000FFF7ADF9241802E0002400E0002479
:10157000002C15D025002000FFF7A8F9241A200020
:10158000FFF7F5F904281ED9201DFFF7F0F9002810
:101590001BD02818FFF705FFC0B2FFF7E3F838703B
:1015A000039B33600023039300240399002903D095
:1015B000029803685B68984700230393200004B0F7
:1015C00080BCB846F0BD0020E1E70020E4E7C0465B
:1015D000844106100C050000004106106C41061005
:1015E000F0B5C64600B584B00400884615001E005C
:1015F000FFF7CCF82B681B680422082128009847C5
:1016000000230360037102950390071E0DD0200094
:10161000FFF75CF9251A2800FFF7A9F90A2810D965
:1016200028000A30FFF7A3F90CE03B4B01933B4B3A
:1016300000933B4B3B4A41464046FFF786F8012466
:1016400053E00020002803D02018FFF796F900E0AF
:1016500000200A2818D12000FFF738F9251A2800A1
:10166000FFF785F90C2804D928000C30FFF77FF923
:1016700000E000202418002804D02000FFF720F903
:10168000241802E0002400E00024002C28D02500CB
:101690002000FFF71BF9241A2000FFF768F906283D
:1016A00031D9A01DFFF763F900282ED02818FFF7C5
:1016B00078FEC0B2FFF756F83871039F2800FFF795
:1016C00005F92C1A2000FFF752F904281FD9201D14
:1016D000FFF74DF900281CD02818FFF7F7F83860FD
:1016E000039B33600023039300240399002903D054
:1016F000029803685B68984700230393200004B0B6
:1017000080BCB846F0BD0020CEE70020D1E7002025
:10171000E0E70020E3E7C04684410610DE03000056
:10172000004106106C410610F0B5C64600B584B005
:101730000400884615001E00FFF728F82B681B6878
:10174000012202212800984700230370437002956C
:101750000390071E0DD02000FFF7B8F8251A2800C7
:10176000FFF705F90A2811D928000A30FFF7FFF81A
:101770000DE03C4B0193E2239B0000933A4B3B4A24
:1017800041464046FEF7E1FF012455E000200028D5
:1017900003D02018FFF7F1F800E000200B2818D143
:1017A0002000FFF793F8251A2800FFF7E0F80C282F
:1017B00004D928000C30FFF7DAF800E000202418E4
:1017C000002804D02000FFF77BF8241802E0002452
:1017D00000E00024002C2AD025002000FFF776F836
:1017E000241A2000FFF7C3F8042833D9201DFFF77F
:1017F000BEF8002830D02818FFF7D3FDC0B2FEF79E
:10180000B1FF3870039F2800FFF760F82C1A200002
:10181000FFF7ADF8062821D9A01DFFF7A8F800288A
:101820001ED02818FFF7A9F8431E98417870039B33
:1018300033600023039300240399002903D0029806
:1018400003685B68984700230393200004B080BCC2
:10185000B846F0BD0020CCE70020CFE70020DEE74F
:101860000120E1E784410610004106106C4106109A
:10187000F0B5C64600B584B00400884615001E00C9
:10188000FEF784FF2B681B6801220221280098477D
:1018900000230370437002950390071E0DD02000B3
:1018A000FFF714F8251A2800FFF761F80A2810D965
:1018B00028000A30FFF75BF80CE03C4B01933C4BEF
:1018C00000933C4B3C4A41464046FEF73EFF012414
:1018D00055E00020002803D02018FFF74EF800E064
:1018E00000201C2818D12000FEF7F0FF251A280040
:1018F000FFF73DF80C2804D928000C30FFF737F823
:1019000000E000202418002804D02000FEF7D8FFB3
:10191000241802E0002400E00024002C2AD0250036
:101920002000FEF7D3FF241A2000FFF720F8042838
:1019300033D9201DFFF71BF8002830D02818FFF7F7
:1019400030FDC0B2FEF70EFF3870039F2800FEF78F
:10195000BDFF2C1A2000FFF70AF8062821D9A01D88
:10196000FFF705F800281ED02818FFF706F8431ED9
:1019700098417870039B33600023039300240399FC
:10198000002903D0029803685B68984700230393FB
:10199000200004B080BCB846F0BD0020CCE7002099
:1019A000CFE70020DEE70120E1E7C04684410610D2
:1019B000B7060000004106106C410610F0B5C6469F
:1019C00000B584B00400884616001D00FEF7DEFE58
:1019D00033681B6804220821300098470023036005
:1019E0000371437102960390071E0DD02000FEF78D
:1019F0006DFF261A3000FEF7BAFF0A2810D9300012
:101A00000A30FEF7B4FF0CE0474B0193474B0093BD
:101A1000474B484A41464046FEF797FE012468E09E
:101A20000020002803D02018FEF7A7FF00E00020C8
:101A3000062818D12000FEF749FF261A3000FEF7CD
:101A400096FF0C2804D930000C30FEF790FF00E020
:101A500000202418002804D02000FEF731FF2418AD
:101A600002E0002400E00024002C3DD026002000ED
:101A7000FEF72CFF241A2000FEF779FF042846D930
:101A8000201DFEF774FF002843D03018FEF71EFF1C
:101A900038603000FEF71AFF341A2000FEF767FFA7
:101AA000062838D9A01DFEF762FF002835D030186F
:101AB000FFF777FCC0B2039FFEF754FE3871300089
:101AC000FEF704FF341A2000FEF751FF082826D93C
:101AD00020000830FEF74BFF002822D03018FEF718
:101AE0004CFF431E98417871039B2B6000230393A6
:101AF00000240399002903D0029803685B68984783
:101B000000230393200004B080BCB846F0BD002041
:101B1000B9E70020BCE70020C7E70020CAE70020A3
:101B2000DAE70020DDE7C04684410610D106000058
:101B3000004106106C410610F0B587B00400039117
:101B400016001F0013681B6801220121300098470E
:101B50000023037004960590051E0DD02000FEF7AB
:101B6000B5FE261A3000FEF702FF0A2810D9300011
:101B70000A30FEF7FCFE0CE02F4B01932F4B009335
:101B80002F4B304A03990800FEF7DFFD012443E0A4
:101B90000020002803D02018FEF7EFFE00E0002010
:101BA000372818D12000FEF791FE261A3000FEF7E4
:101BB000DEFE0C2804D930000C30FEF7D8FE00E021
:101BC00000202418002804D02000FEF779FE2418F5
:101BD00002E0002400E00024002C18D026002000A1
:101BE000FEF774FE241A2000FEF7C1FE04281FD958
:101BF000201DFEF7BCFE00281CD03018FFF7D1FBDB
:101C0000C0B2039A2900FEF7D3FD041E04D1059B40
:101C10003B600023059300240599002903D0049814
:101C200003685B68984700230593200007B0F0BD68
:101C30000020E0E70020E3E7844106101F060000D3
:101C4000004106106C410610F0B5C64600B584B0E0
:101C500004000F0016001D00FEF798FD33681B6896
:101C6000012201213000984700230370029603905F
:101C7000804600280DD02000FEF728FE261A3000EE
:101C8000FEF775FE0A2810D930000A30FEF76FFE05
:101C90000CE0314B0193314B0093314B314A390009
:101CA0003800FEF752FD012443E00020002803D055
:101CB0002018FEF762FE00E00020282818D120003E
:101CC000FEF704FE261A3000FEF751FE0C2804D958
:101CD00030000C30FEF74BFE00E0002024180028F6
:101CE00004D02000FEF7ECFD241802E0002400E000
:101CF0000024002C18D026002000FEF7E7FD241A4F
:101D00002000FEF734FE042821D9201DFEF72FFE07
:101D100000281ED03018FFF744FBC0B23A004146FD
:101D2000FEF746FD041E04D1039B2B6000230393A2
:101D300000240399002903D0029803685B68984740
:101D400000230393200004B080BCB846F0BD0020FF
:101D5000DEE70020E1E7C04684410610A203000050
:101D6000004106106C410610F0B5C64600B584B0BF
:101D700004000F0016001D00FEF708FD33681B6805
:101D8000012201213000984700230370029603903E
:101D9000804600280DD02000FEF798FD261A30005E
:101DA000FEF7E5FD0A2810D930000A30FEF7DFFD06
:101DB0000CE0314B0193314B0093314B314A3900E8
:101DC0003800FEF7C2FC012443E00020002803D0C5
:101DD0002018FEF7D2FD00E00020392818D120009D
:101DE000FEF774FD261A3000FEF7C1FD0C2804D959
:101DF00030000C30FEF7BBFD00E000202418002866
:101E000004D02000FEF75CFD241802E0002400E06E
:101E10000024002C18D026002000FEF757FD241ABD
:101E20002000FEF7A4FD042821D9201DFEF79FFD08
:101E300000281ED03018FFF7B4FAC0B23A0041466D
:101E4000FEF7B6FC041E04D1039B2B600023039312
:101E500000240399002903D0029803685B6898471F
:101E600000230393200004B080BCB846F0BD0020DE
:101E7000DEE70020E1E7C04684410610BB03000016
:101E8000004106106C410610F0B5C64600B584B09E
:101E90000400884615001E00FEF778FC2B681B68BE
:101EA00004221C212800984707001C2200213EF034
:101EB0002BFB02950397002F0DD02000FEF706FDA7
:101EC000251A2800FEF753FD0A2810D928000A30E9
:101ED000FEF74DFD0CE07A4B01937A4B00937A4B61
:101EE0007A4A41464046FEF730FC0124BDE000201E
:101EF000002803D02018FEF740FD00E00020022853
:101F000018D12000FEF7E2FC251A2800FEF72FFD6D
:101F10000C2804D928000C30FEF729FD00E0002031
:101F20002418002804D02000FEF7CAFC241802E080
:101F3000002400E00024002C00D191E025002000C6
:101F4000FEF7C4FC241A2000FEF711FD042800D877
:101F500099E0201DFEF70BFD002800D195E0281820
:101F6000FFF71FFAC0B2FEF707FC3870039F280086
:101F7000FEF7ACFC2C1A2000FEF7F9FC062800D86E
:101F800085E0A01DFEF7F3FC002800D181E02818B1
:101F9000FEF79CFC7860039C2800FEF797FC2F1A44
:101FA0003800FEF7E4FC082800D874E03800083058
:101FB000FEF7DDFC002800D16FE02818FEF786FC54
:101FC000A0602800FEF782FC2F1A3800FEF7CFFC35
:101FD0000A2864D938000A30FEF7C9FC002860D00E
:101FE0002818FEF773FCE0602800FEF76FFC2F1A3C
:101FF0003800FEF7BCFC0C2855D938000C30FEF731
:10200000B6FC002851D02818FFF7CBF9C0B2FEF774
:10201000A9FB20742800FEF759FC2F1A3800FEF7A0
:10202000A6FC0E2843D938000E30FEF7A0FC00288D
:102030003FD02818FEF74AFC60612800FEF746FCF6
:102040002F1A3800FEF793FC102834D938001030CE
:10205000FEF78DFC002830D02818FEF737FCA06171
:10206000039B33600023039300240399002903D0CA
:10207000029803685B68984700230393200004B02C
:1020800080BCB846F0BD002066E700206AE700206B
:102090007AE700207EE700208CE7002090E7002010
:1020A0009CE700209FE70020ABE70020AEE7002080
:1020B000BDE70120C0E70020CCE70120CFE7C04604
:1020C0008441061023040000004106106C410610F4
:1020D000F0B5C64600B584B00400884615001E0061
:1020E000FEF754FB2B681B68012204212800984747
:1020F0000700042200213EF007FA029503973D1ED7
:1021000028D02000FEF7E2FB271A3800FEF72FFC4C
:102110000A282BD938000A30FEF729FC002827D0DE
:102120002018FEF72AFC082828D12000FEF7CEFB55
:10213000271A3800FEF71BFC0C281BD938000C307E
:10214000FEF715FC2418002816D02000FEF7B8FB77
:10215000241814E04E4B01934E4B00934E4B4F4AC4
:1021600041464046FEF7F1FA01247FE00020D5E722
:102170000020D8E70020E5E7002400E00024002C40
:102180006FD027002000FEF7A1FB241A2000FEF7E5
:10219000EEFB042852D9201DFEF7E9FB00284FD0A2
:1021A0003818FFF7FEF8C0B2FEF7DCFA2870039D7E
:1021B0003800FEF78BFB3C1A2000FEF7D8FB0828FE
:1021C00040D920000830FEF7D2FB00283CD0381858
:1021D000FEF7D3FB431E9841A870039D3800FEF71D
:1021E00075FB3C1A2000FEF7C2FB0A282ED92000FE
:1021F0000A30FEF7BCFB00282AD03818FEF7BDFBDA
:10220000431E9841E8703800FEF760FB3C1A20003E
:10221000FEF7ADFB06281DD9A01DFEF7A8FB002880
:102220001AD03818FFF7BDF8002817D001282BD096
:102230001B494046FEF77CFA012417E00020ADE779
:102240000020B0E70020C0E70020C3E70020D2E76D
:102250000020D5E70020E2E70020E5E70023039A0D
:102260005370039B336000230393002403990029D8
:1022700003D0029803685B6898470023039320000B
:1022800004B080BCB846F0BD0123039A5370E8E760
:102290008441061067040000004106106C410610DE
:1022A000A0410610F0B5C64600B584B004008846CB
:1022B00015001E00FEF76AFA2B681B68042218211D
:1022C000280098470700182200213EF01DF90295CA
:1022D0000397002F0DD02000FEF7F8FA251A2800EA
:1022E000FEF745FB0A2810D928000A30FEF73FFB0D
:1022F0000CE06C4B01936C4B00936C4B6C4A414669
:102300004046FEF722FA0124A6E00020002803D070
:102310002018FEF732FB00E00020012818D1200031
:10232000FEF7D4FA251A2800FEF721FB0C2804D961
:1023300028000C30FEF71BFB00E0002024180028CA
:1023400004D02000FEF7BCFA241802E0002400E0CC
:102350000024002C7BD025002000FEF7B7FA241AB9
:102360002000FEF704FB042800D883E0201DFEF7C0
:10237000FEFA002800D17FE02818FFF712F8C0B25B
:10238000FEF7FAF93870039F2800FEF79FFA2C1A1F
:102390002000FEF7ECFA062800D86FE0A01DFEF73B
:1023A000E6FA00286CD02818FEF790FA7860039FB0
:1023B0002800FEF78BFA2C1A2000FEF7D8FA08281E
:1023C00060D920000830FEF7D2FA00285CD0281827
:1023D000FEF77CFAB8602800FEF778FA2C1A200085
:1023E000FEF7C5FA0A2851D920000A30FEF7BFFAD5
:1023F00000284DD02818FEF7D4FFC0B2FEF7B2F97E
:1024000038732800FEF762FA2C1A2000FEF7AFFAA4
:102410000C283FD920000C30FEF7A9FA00283BD049
:102420002818FEF753FA38612800FEF74FFA2C1AE5
:102430002000FEF79CFA0E2830D920000E30FEF75F
:1024400096FA00282CD02818FEF740FA7861039BF2
:1024500033600023039300240399002903D00298DA
:1024600003685B68984700230393200004B080BC96
:10247000B846F0BD00207CE7002080E7002090E710
:10248000002093E70020A0E70020A3E70020AFE7AB
:102490000020B2E70020C1E70120C4E70020D0E718
:1024A0000120D3E784410610F90300000041061023
:1024B0006C410610F0B5C64600B584B004008846ED
:1024C00015001E00FEF762F92B681B680422282104
:1024D000280098470700282200213EF015F80295B1
:1024E0000397002F0DD02000FEF7F0F9251A2800E1
:1024F000FEF73DFA0A2810D928000A30FEF737FA0D
:102500000CE06C4B01936C4B00936C4B6C4A414656
:102510004046FEF71AF90124A6E00020002803D067
:102520002018FEF72AFA00E00020052818D1200024
:10253000FEF7CCF9251A2800FEF719FA0C2804D961
:1025400028000C30FEF713FA00E0002024180028C1
:1025500004D02000FEF7B4F9241802E0002400E0C3
:102560000024002C7BD025002000FEF7AFF9241AB0
:102570002000FEF7FCF9042800D883E0201DFEF7B8
:10258000F6F9002800D17FE02818FEF70AFFC0B254
:10259000FEF7F2F83870039F2800FEF797F92C1A1F
:1025A0002000FEF7E4F9062800D86FE0A01DFEF732
:1025B000DEF900286CD02818FEF788F97860039FB0
:1025C0002800FEF783F92C1A2000FEF7D0F908281E
:1025D00060D920000830FEF7CAF900285CD028181E
:1025E000FEF774F9B8602800FEF770F92C1A200085
:1025F000FEF7BDF90A2851D920000A30FEF7B7F9D5
:1026000000284DD02818FEF761F9F8602800FEF781
:102610005DF92C1A2000FEF7AAF90C2842D92000F7
:102620000C30FEF7A4F900283ED02818FEF74EF92A
:1026300038612800FEF74AF92C1A2000FEF797F9B6
:102640000E2833D920000E30FEF791F900282FD044
:102650002818FEF7A6FEC0B2FEF784F83875039B73
:1026600033600023039300240399002903D00298C8
:1026700003685B68984700230393200004B080BC84
:10268000B846F0BD00207CE7002080E7002090E7FE
:10269000002093E70020A0E70020A3E70020AFE799
:1026A0000020B2E70020BEE70020C1E70020CDE710
:1026B0000020D0E7844106105E05000000410610AE
:1026C0006C410610704710B50068FFF7FBFF10BDA6
:1026D000F0B5C64600B584B00400884615001E005B
:1026E000FEF754F82B681B68042204212800984741
:1026F0000023036002950390071E0DD02000FEF713
:10270000E5F8251A2800FEF732F90A2810D9280022
:102710000A30FEF72CF90CE02D4B01932D4B009362
:102720002D4B2E4A41464046FEF70FF801243DE06E
:102730000020002803D02018FEF71FF900E0002039
:10274000092818D12000FEF7C1F8251A2800FEF745
:102750000EF90C2804D928000C30FEF708F900E027
:1027600000202418002804D02000FEF7A9F824181F
:1027700002E0002400E00024002C12D025002000FC
:10278000FEF7A4F8241A2000FEF7F1F804281BD95C
:10279000201DFEF7ECF8002818D02818FFF793FF4B
:1027A0003860039B336000230393002403990029BE
:1027B00003D0029803685B689847002303932000C6
:1027C00004B080BCB846F0BD0020E4E70020E7E795
:1027D0008441061041060000004106106C410610BD
:1027E000F0B5CE4600B582B004000D0001921F0086
:1027F00000233B6035F063FD009006002000FEF7EB
:1028000065F8231A99461800FEF7B1F8082804D98C
:1028100048460830FEF7ABF800E00020002804D05E
:102820002018FEF753F8814601E001239946832ED4
:102830000FD8202E1FD02B681B684A46009928000D
:102840009847386000280BD0002002B080BCB94601
:10285000F0BD009A1E490198FDF76AFF0120F4E7D8
:10286000009B9E001B4B9A594B461B490198FDF754
:102870005FFF0120E9E72000FEF728F8261A300064
:10288000FEF775F8062816D9B01DFEF770F8241863
:10289000002812D02000FEF713F82418002C0ED0C8
:1028A000211D2B685B684A4628009847386000283D
:1028B0000BD00020C9E70020E9E70024EEE7074934
:1028C0000198FDF735FF0120BFE70120BDE7C046B5
:1028D000CC4106108C4806102042061058420610C3
:1028E000F0B583B004000D0017001E000022002385
:1028F0003CF074FD002804D000233B60336003B03B
:10290000F0BD32002000290047F036FE00221D4BAA
:102910003CF021FD3CF0A0FE3CF0F6FD04000D1E55
:1029200014DC00290ED080231B069C4210D0002D01
:1029300026DC21D033681F3302DA00233360002401
:102940003C60DCE780231B069842ECD945F070FD23
:10295000002DECD1EA0F002312196B411C0013006B
:10296000E10700930194520811430C00019B5D1094
:10297000336801333360DAE780231B069C42D9D3E6
:1029800045F056FD0000E041F8B506000F001500C7
:102990001C000022094B3CF03FFD002809D0230019
:1029A0002A0030003900FFF79BFF2368002B02DB71
:1029B000F8BD45F03DFD45F03BFDC0460000F03F51
:1029C000F0B583B004000D0017001E0000220F4B6D
:1029D0003CF00CFD002813D0002200232000290029
:1029E0003CF01AFD00280DD001AB3A002000290070
:1029F000FFF776FF019B002B06DC336003B0F0BDD0
:102A000045F016FD45F014FD45F012FD0000F03FC5
:102A100030B585B03CF09FFC04000D00802000061E
:102A2000089BD8403CF010FD22002B003CF093FCAA
:102A300000900191094A0A4B029203933CF0ECFC8E
:102A4000002808D16B46186859680A9B099AFFF755
:102A50009BFF05B030BD02ABF5E7C0460000C0FFEC
:102A6000FFFFDF41F0B5C64600B503000C000120B2
:102A700098400138D21A20235B42D3182BD4012569
:102A80009D400123934098463CF0DEFC06000F0079
:102A9000404629003CF020FD02000B0030003900C8
:102AA0003CF059FC06000F0020235B42E31817D4CA
:102AB000012199400120A0403CF00EFD02000B00D6
:102AC000300039003CF029FC3CF014FE3CF0D4FC12
:102AD00080BCB846F0BD20239B1A0125DD40D0E71D
:102AE00020231B1B0121D940E4E7000030B58BB047
:102AF000019100929D68DC680395049401280AD036
:102B0000032820D0022845D00E9B019A1A600F9B03
:102B1000009A1A6013E0291C00203DF096F93DF060
:102B200079FB3DF023FA24180594019BA34208DBAE
:102B300001AB1B680E9A13600F9B009A1A600BB0D2
:102B400030BD05ABF5E7291C00203DF07EF93DF0D6
:102B500061FB3DF00BFA20180690019B834215DBC8
:102B600001AB1B680E9A1360291C1E483DF06DF9DD
:102B70003DF050FB3DF0FAF924180794009BA34266
:102B800006DC6B461B680F9A1360D8E706ABE8E7D4
:102B900007ABF7E7291C14483DF057F93DF03AFB25
:102BA0003DF0E4F920180890019B834216DB01AB4D
:102BB0001B680E9A1360291CFE2080053DF045F924
:102BC0003DF028FB3DF0D2F924180994009BA34264
:102BD00006DC6B461B680F9A1360B0E708ABE7E7AB
:102BE00009ABF7E70000C040000080BF10B50B68DC
:102BF00002CB002A10DB8A4210DA920099584B1C53
:102C00000ED000290EDB8368002B02D04801181873
:102C100010BD036D9847FBE70020F9E70020F7E7B8
:102C20000020F5E70020F3E710B54B6802CB002A3F
:102C300010DB914210DD920099584B1C0ED00029F8
:102C40000EDB8368002B02D04801181810BD036DFD
:102C50009847FBE70020F9E70020F7E70020F5E7B9
:102C60000020F3E710B5FFF7C1FF10BDF0B5C64671
:102C700000B582B080461D00886891683DF0FBF881
:102C8000041C3DF0B5F906000F000021201C3DF0AA
:102C900039F9002810D0A8683DF0AAF902000B000D
:102CA000300039003CF039FB089B18605960002067
:102CB00002B080BCB846F0BD43465C69A123044A1B
:102CC00000925B00034A04494046A0470120EFE719
:102CD000004B0610A04A06106C410610F0B5C6461F
:102CE00000B584B080460D0016001C000A9F88685D
:102CF0003DF07EF902900391B0683DF079F9020051
:102D00000B00029803993CF026FB02900391002CE3
:102D10001AD0A0683DF06CF902000B0002980399EC
:102D20003CF0E9FA02904C006408B8683DF060F9A4
:102D300002000B00029821003CF0EFFA0E4A0F4B04
:102D40003CF05AFB00280BD00B9B00933B00320059
:102D500029004046FFF78AFF04B080BCB846F0BDAA
:102D600043465C693623064A0092FF33054A06490A
:102D70004046A0470120EFE77B14AE47E17A943F3D
:102D80001C4B0610A04A06106C41061030B583B0EB
:102D90000D001400127F032A0DD0092A0ED0072A35
:102DA00019D0446976230D4A0092FF330C4A0D492D
:102DB000A04701200DE0FF22002102E07F228021B8
:102DC000494206980190009323002800FFF78EFEE9
:102DD000002003B030BD044A0449F2E7404B06101E
:102DE000A04A06106C410610FF7F00000080FFFF24
:102DF000F0B5DE4657464E464546E0B58DB0040078
:102E00000D00049205930E78012E14D0456901231C
:102E1000039302967D4B01937D4B0093D1237D4A12
:102E20007D49A847012630000DB0F0BCBB46B24634
:102E3000A946A046F0BD049B1F78012F0CD0456920
:102E4000012303930297714B0193744B0093D32397
:102E5000704A7149A847E6E7049B5B68002B15D0D0
:102E60001A689146002A1AD012689346012A5DDD3D
:102E70000A7F092A1CD0072A1AD04569684B00939B
:102E8000E323644A6749A8473E00CCE74569664B9F
:102E90000093DE235F4A6349A8473E00C3E74569C4
:102EA000624B0093DF235B4A5E49A8473E00BAE7C6
:102EB000049A127F092A0ED06569092303930292AE
:102EC0005B4B01935B4B0093E523524A5249200030
:102ED000A8473E00A7E71E9A93450ED06569039266
:102EE0005B460293544B0193544B0093E623494AAB
:102EF00049492000A8473E0095E7049A5269069286
:102F00009B689B00944663445B681E9A93420DD075
:102F10006569039302924A4B0193474B0093E72361
:102F20003C4A3D492000A8473E007CE7AB68069339
:102F3000169B9B689A464B460433079300235F46D3
:102F40001E00A346A84623E04B4658683DF050F8C3
:102F500004000D0006983DF04BF822002B003CF0D9
:102F6000FAF904000D0050463DF042F802000B0053
:102F7000200029003CF0D1F90AAB09AAFFF7B0FC08
:102F8000B3001C9A0999D1501D9A0A99D150013663
:102F90001E9B9E4205DA012FD6DDB300079AD0585A
:102FA000D4E75C4645462B7F032B08D02B7F092BAB
:102FB00021D0032B1FD0072B1DD0002633E7002282
:102FC00000230A920B930AAB0193169B0093059B77
:102FD000049A41465846FFF781FE061E00D022E7BC
:102FE00009AB189A0A980B99FFF77AFC099B5B4288
:102FF000199A1360DAE7179B19781B9B00931A9BA9
:10300000169A2000FFF7C2FE06000CE7644B06107C
:10301000804B0610A04A0610484B06109C4B061029
:10302000E84B06106C410610B84B0610CC4B06104E
:10303000405C0610244C0610344C0610444C06101C
:10304000684C061010B540694969FDF71AFB431E2C
:103050009841C0B210BD0023036043608360704795
:1030600010B503685B69984710BD10B503689B698C
:10307000984710BD034B0360034B0360034B036091
:103080007047C046384E0610104E0610F44D06101C
:10309000034B0360034B0360034B03607047C04660
:1030A000384E0610104E0610F44D061010B50400F0
:1030B00020290CD00022084BE358934209D9530130
:1030C000E318181D9B698B4204D00132F3E70020FE
:1030D00000E0002010BDC04604100000044B036057
:1030E000044B0360044B0360044B03607047C0460D
:1030F000604E0610384E0610104E0610F44D0610A5
:10310000044B0360044B0360044B0360044B0360F7
:103110007047C046604E0610384E0610104E06101E
:10312000F44D061070B50D4BC458802C01D8002307
:1031300002E045F07DF901339C420CD9C218084DDC
:10314000AC46624412788A42F5D1064A94466344FA
:103150009B00185800E0002070BDC0468812000097
:103160000810000022040000F8B505000E0000243D
:1031700000E001340A4BEB58A3420ED96301EB186F
:103180001F1D9B69202BF4D16301EB18D869310016
:1031900046F0D4F90028ECD100E000273800F8BD53
:1031A00004100000F0B5C64600B588B00400CE4B50
:1031B0000360CE4B0360CE4B03600023CD4A8350A7
:1031C000CD4A8350CD4A8350CD4B036068461EF0F4
:1031D0002FFD23685B69652120009847002808D0EF
:1031E000C64BE058002826D06522C649FDF7A0FA54
:1031F00021E0C04BE1587F2930D848012018051D37
:103200006B462A00E0CBE0C2E0CBE0C260CB60C2FC
:10321000652585610131B74BE150B7496358E21824
:10322000B948844662441570B84A9A189200B84862
:10323000A05001336350684604F002F823685B69CC
:10324000002120009847002812D0AC4BE0580028FD
:1032500030D00022AB49FDF76BFA2BE0A74BE058CA
:103260000028E8D080236522AA49FDF761FAE2E749
:10327000A04BE1587F2930D848012018051D6B4626
:103280002A00E0CBE0C2E0CBE0C260CB60C2002508
:1032900085610131974BE15097496358E2189A488C
:1032A000844662441570994A9A1892009A48A05030
:1032B00001336350684602F067FD23685B6938217B
:1032C00020009847002812D08C4BE058002830D0BE
:1032D00038228C49FDF72CFA2BE0884BE058002867
:1032E000E8D0802300228B49FDF722FAE2E7814BE8
:1032F000E1587F2930D848012018051D6B462A0067
:10330000E0CBE0C2E0CBE0C260CB60C23825856193
:103310000131784BE15078496358E2187A48844685
:1033200062441570794A9A1892007C48A050013383
:103330006350684602F034FD23685B694F2120002A
:103340009847002812D06D4BE058002830D04F220B
:103350006C49FDF7EDF92BE0684BE0580028E8D008
:10336000802338226B49FDF7E3F9E2E7614BE1582E
:103370007F2930D848012018051D6B462A00E0CB74
:10338000E0C2E0CBE0C260CB60C24F258561013175
:10339000584BE15058496358E2185B4884466244F0
:1033A00015705A4A9A1892005D48A0500133635034
:1033B00068460DF0F5F823685B6901212000984705
:1033C000002812D04D4BE058002830D001224D4942
:1033D000FDF7AEF92BE0494BE0580028E8D08023F8
:1033E0004F224C49FDF7A4F9E2E7424BE1587F290F
:1033F00030D848012018051D6B462A00E0CBE0C2FA
:10340000E0CBE0C260CB60C2012585610131394B60
:10341000E15039496358E2183B48844662441570CC
:103420003A4A9A1892003F48A050013363506846C8
:1034300003F07CFB23685B69682120009847002823
:1034400012D02E4BE058002830D068222D49FDF7CD
:103450006FF92BE0294BE0580028E8D080230122A7
:103460002C49FDF765F9E2E7224BE1587F2930D876
:1034700048012018051D6B462A00E0CBE0C2E0CBD6
:10348000E0C260CB60C2682585610131194BE15013
:1034900019496358E2181C488446624415701B4A57
:1034A0009A1892002048A0500133635068461AF0E1
:1034B0003BFB23685B69022120009847002835D038
:1034C0000E4BE058002853D002220E49FDF730F988
:1034D0004EE00A4BE0580028E8D0802368220D49CE
:1034E000FDF726F9E2E7C046F44D0610104E06102F
:1034F000384E061004100000881200008C120000E4
:10350000604E0610A84C06100810000022040000AF
:1035100041080010F84C061029170010491C001033
:10352000691D0010B524001045080010D64BE15865
:103530007F2930D848012018051D6B462A00E0CBB2
:10354000E0C2E0CBE0C260CB60C202258561013100
:10355000CD4BE150CD496358E218CD4884466244D2
:103560001570CC4A9A189200CB48A0500133635092
:10357000684606F09FF823685B690321200098479E
:10358000002812D0C54BE058002830D00322C4498F
:10359000FDF7CEF82BE0C14BE0580028E8D080239F
:1035A0000222C049FDF7C4F8E2E7B74BE1587F2992
:1035B00030D848012018051D6B462A00E0CBE0C238
:1035C000E0CBE0C260CB60C2032585610131AE4B28
:1035D000E150AE496358E218AD4884466244157024
:1035E000AC4A9A189200B048A05001336350684624
:1035F0001EF038FB23685B696C2120009847002887
:1036000012D0A64BE058002830D06C22A449FDF718
:103610008FF82BE0A14BE0580028E8D0802303224C
:10362000A049FDF785F8E2E7974BE1587F2930D8AC
:1036300048012018051D6B462A00E0CBE0C2E0CB14
:10364000E0C260CB60C26C25856101318E4BE150D8
:103650008E496358E2188E488446624415708D4A3C
:103660009A1892009148A05001336350684607F0C1
:103670007DFF23685B69042120009847002812D051
:10368000864BE058002833D004228549FDF750F8D6
:103690002EE0824BE0580028E8D080236C2281493C
:1036A000FDF746F8E2E7784BE1587F2933D8480127
:1036B000042398462018051D6B462A00E0CBE0C283
:1036C000E0CBE0C260CB60C24346836101316E4B08
:1036D000E1506E496358E2186D48844662444046A2
:1036E00010706C4A9A1892007148A05001336350D0
:1036F00068461BF0C3FB23685B69062120009847DE
:10370000002812D0654BE058002830D006226449CA
:10371000FDF70EF82BE0614BE0580028E8D080233D
:1037200004226049FDF704F8E2E7574BE1587F298E
:1037300034D848012018051D6B462A00E0CBE0C2B2
:10374000E0CBE0C260CB60C20625856101314E4B03
:10375000E1504E496358E2184D4884466244157062
:103760004C4A9A1892005348A050013363501CF001
:1037700023FA0500444BE3587F2B19D823689B6933
:103780004D492000984700281CD0444BE0580028A1
:103790002AD0494A4949FCF7CBFF25E03F4BE05886
:1037A0000028E4D0802306223E49FCF7C1FFDEE773
:1037B0003A4BE058002817D080233F4A4049FCF795
:1037C000B7FF11E0304BE258511CE1505201A218F2
:1037D000111D0B0043CD43C343CD43C303CD03C3EE
:1037E00020239361344BD361684610F057FE236861
:1037F0005B69472120009847002808D0274BE058F4
:10380000002826D047222649FCF792FF21E01E4BD4
:10381000E1587F2958D848012018051D6B462A0019
:10382000E0CBE0C2E0CBE0C260CB60C2472585615F
:103830000131154BE15015496358E218144884468C
:1038400062441570134A9A1892001E48A050013322
:1038500063501EF047FD051E5BD01EF045FD0600BF
:10386000094BE3587F2B39D823689B69010020005E
:10387000984700283CD0094BE058002849D0320036
:103880000E49FCF755FF44E00410000088120000C8
:103890000810000022040000E11500108C12000046
:1038A000A84C0610F84C0610A5220010490800107C
:1038B000891E00104D0800103C4D0610A04D06104A
:1038C0005C4D061051080010D84BE0580028C0D0BD
:1038D00080234722D649FCF72BFFBAE7D34BE058A9
:1038E000002816D080233200D249FCF721FF10E0D7
:1038F000D14BE258511CE1505201A218111D0B008E
:1039000083CD83C383CD83C303CD03C320239361BE
:10391000D66168461EF0ECFC23685B690821200034
:103920009847002808D0C14BE058002826D008222C
:10393000C249FCF7FDFE21E0BF4BE1587F2930D89A
:1039400048012018051D6B462A00E0CBE0C2E0CB01
:10395000E0C260CB60C2082585610131B64BE15001
:10396000B7496358E218B748844662441570B64AAE
:103970009A189200B548A05001336350684609F088
:1039800025FA23685B69092120009847002812D096
:10399000A64BE058002830D00922A849FCF7C8FE01
:1039A0002BE0A24BE0580028E8D080230822A04951
:1039B000FCF7BEFEE2E7A04BE1587F2930D8480172
:1039C0002018051D6B462A00E0CBE0C2E0CBE0C228
:1039D00060CB60C2092585610131974BE150984960
:1039E0006358E2189748844662441570964A9A18BC
:1039F00092009748A05001336350684610F068FD6C
:103A000023685B693D2120009847002812D0874B2E
:103A1000E058002830D03D228849FCF789FE2BE091
:103A2000824BE0580028E8D0802309228049FCF727
:103A30007FFEE2E7804BE1587F2930D8480120180B
:103A4000051D6B462A00E0CBE0C2E0CBE0C260CBB4
:103A500060C23D2585610131774BE150784963585B
:103A6000E2187848844662441570774A9A189200A2
:103A70007848A05001336350684610F037FD236842
:103A80005B693E2120009847002812D0674BE05820
:103A9000002830D03E226949FCF74AFE2BE0634BF8
:103AA000E0580028E8D080233D226149FCF740FE21
:103AB000E2E7614BE1587F2930D848012018051D05
:103AC0006B462A00E0CBE0C2E0CBE0C260CB60C234
:103AD0003E2585610131584BE15059496358E21840
:103AE0005848844662441570574A9A1892005A48BA
:103AF000A0500133635068461EF0A2FD23685B6945
:103B0000752120009847002812D0484BE058002823
:103B100030D075224949FCF70BFE2BE0434BE058AF
:103B20000028E8D080233E224149FCF701FEE2E76D
:103B3000414BE1587F2930D848012018051D6B46BC
:103B40002A00E0CBE0C2E0CBE0C260CB60C27525CA
:103B500085610131384BE15039496358E2183948E1
:103B6000844662441570384A9A1892003B48A05027
:103B70000133635068461FF03BFB23685B690B21F0
:103B800020009847002812D0284BE058002830D059
:103B90000B222A49FCF7CCFD2BE0244BE0580028EF
:103BA000E8D0802375222249FCF7C2FDE2E7224BD0
:103BB000E1587F2930D848012018051D6B462A009E
:103BC000E0CBE0C2E0CBE0C260CB60C20B258561F8
:103BD0000131194BE1501A496358E21819488446DB
:103BE00062441570184A9A1892001D48A05001337B
:103BF0006350684610F088FC23685B693A21200016
:103C0000984700282ED0094BE05800284CD03A2283
:103C10000A49FCF78DFD47E0044BE0580028E8D046
:103C200080230B220249FCF783FDE2E78C1200009F
:103C3000F84C06105C4D061004100000A84C06104D
:103C4000881200000810000022040000550800102F
:103C5000D1200010590800105D0800106108001004
:103C6000B1130010D74BE1587F2930D848012018F4
:103C7000051D6B462A00E0CBE0C2E0CBE0C260CB82
:103C800060C23A2585610131CE4BE150CE4963587F
:103C9000E218CE48844662441570CD4A9A189200C4
:103CA000CC48A05001336350684610F039FC2368BB
:103CB0005B693F2120009847002812D0C64BE0588E
:103CC000002830D03F22C549FCF732FD2BE0C24B23
:103CD000E0580028E8D080233A22C149FCF728FDAB
:103CE000E2E7B84BE1587F2930D848012018051D7C
:103CF0006B462A00E0CBE0C2E0CBE0C260CB60C202
:103D00003F2585610131AF4BE150AF496358E2185F
:103D1000AE48844662441570AD4A9A189200B14884
:103D2000A0500133635068461DF0AAFF23685B6909
:103D3000492120009847002812D0A74BE0580028BE
:103D400030D04922A549FCF7F3FC2BE0A24BE05808
:103D50000028E8D080233F22A149FCF7E9FCE2E7F4
:103D6000984BE1587F2930D848012018051D6B4633
:103D70002A00E0CBE0C2E0CBE0C260CB60C24925C4
:103D8000856101318F4BE1508F496358E2188F48AC
:103D90008446624415708E4A9A1892009248A05048
:103DA00001336350684620F08FF823685B69562121
:103DB00020009847002812D0874BE058002830D0C8
:103DC00056228649FCF7B4FC2BE0834BE0580028D0
:103DD000E8D0802349228249FCF7AAFCE2E7794B2C
:103DE000E1587F2930D848012018051D6B462A006C
:103DF000E0CBE0C2E0CBE0C260CB60C2562585617B
:103E00000131704BE15070496358E2186F488446A5
:103E1000624415706E4A9A1892007448A05001339B
:103E2000635068461DF062FF23685B6957212000DC
:103E30009847002812D0684BE058002830D057220D
:103E40006649FCF775FC2BE0634BE0580028E8D08E
:103E5000802356226249FCF76BFCE2E7594BE1589C
:103E60007F2930D848012018051D6B462A00E0CB79
:103E7000E0C2E0CBE0C260CB60C257258561013172
:103E8000504BE15050496358E21850488446624410
:103E900015704F4A9A1892005548A050013363504C
:103EA000684620F005F823685B6954212000984794
:103EB000002812D0484BE058002830D054224749FF
:103EC000FCF736FC2BE0444BE0580028E8D0802378
:103ED00057224349FCF72CFCE2E73A4BE1587F2993
:103EE00030D848012018051D6B462A00E0CBE0C2FF
:103EF000E0CBE0C260CB60C2542585610131314B1B
:103F0000E15031496358E2183048844662441570E4
:103F10002F4A9A1892003748A050013363506846E0
:103F200020F016FC23685B690E21200098470028CA
:103F300012D0294BE058002830D00E222749FCF738
:103F4000F7FB2BE0244BE0580028E8D080235422D4
:103F50002349FCF7EDFBE2E71A4BE1587F294DD8E6
:103F600048012018051D6B462A00E0CBE0C2E0CBDB
:103F7000E0C260CB60C20E2585610131114BE1507A
:103F800011496358E2181148844662441570104A7A
:103F90009A1892001848A05001336350684621F0E7
:103FA00035F923685B6937212000984700282FD016
:103FB000094BE05800284DD037220849FCF7B8FBE0
:103FC00048E0C046041000008812000008100000FD
:103FD00022040000650800108C120000A84C061096
:103FE000F84C0610690800106D08001071080010E8
:103FF00075080010790800107D080010C14BE058CA
:104000000028CBD080230E22BF49FCF791FBC5E7E7
:10401000BE4BE1587F2930D848012018051D6B465A
:104020002A00E0CBE0C2E0CBE0C260CB60C2372523
:1040300085610131B54BE150B5496358E218B54887
:10404000844662441570B44A9A189200B348A0504E
:104050000133635068460CF0AFFA23685B691121A5
:1040600020009847002812D0A64BE058002830D0F6
:104070001122AB49FCF75CFB2BE0A24BE058002877
:10408000E8D080233722A049FCF752FBE2E79F4BA0
:10409000E1587F2930D848012018051D6B462A00B9
:1040A000E0CBE0C2E0CBE0C260CB60C2112585610D
:1040B0000131964BE15096496358E2189548844681
:1040C00062441570944A9A1892009648A0500133A1
:1040D0006350684626F05EFB23685B692821200058
:1040E0009847002812D0874BE058002830D028226B
:1040F0008B49FCF71DFB2BE0824BE0580028E8D0F1
:10410000802311228049FCF713FBE2E77F4BE15843
:104110007F2930D848012018051D6B462A00E0CBC6
:10412000E0C2E0CBE0C260CB60C2282585610131EE
:10413000764BE15076496358E218764884466244EB
:104140001570754A9A1892007748A0500133635051
:10415000684621F067F823685B6939212000984799
:10416000002812D0674BE058002830D039226C4923
:10417000FCF7DEFA2BE0634BE0580028E8D0802300
:1041800028226149FCF7D4FAE2E7604BE1587F2925
:1041900030D848012018051D6B462A00E0CBE0C24C
:1041A000E0CBE0C260CB60C2392585610131574B5D
:1041B000E15057496358E2185648844662441570E6
:1041C000554A9A1892005948A050013363506846E6
:1041D00009F028FF23685B69122120009847002816
:1041E00012D0484BE058002830D012224C49FCF73E
:1041F0009FFA2BE0434BE0580028E8D08023392277
:104200004149FCF795FAE2E7404BE1587F2930D865
:1042100048012018051D6B462A00E0CBE0C2E0CB28
:10422000E0C260CB60C2122585610131374BE1509D
:1042300037496358E2183748844662441570364A55
:104240009A1892003A48A05001336350684622F011
:1042500015FD23685B693B2120009847002812D098
:10426000284BE058002830D03B222D49FCF760FA5B
:104270002BE0244BE0580028E8D08023122222496A
:10428000FCF756FAE2E7214BE1587F2930D8480184
:104290002018051D6B462A00E0CBE0C2E0CBE0C24F
:1042A00060CB60C23B2585610131184BE150184954
:1042B0006358E2181748844662441570164A9A18E3
:1042C00092001C48A05001336350684610F0F2F889
:1042D00023685B6948212000984700282CD0094BAF
:1042E000E05800284AD048220D49FCF721FA45E061
:1042F000044BE0580028E8D080233B220249FCF719
:1043000017FAE2E78C120000F84C061004100000C7
:10431000881200000810000022040000810800102C
:10432000A84C0610B52400106D0F00108508001071
:10433000C914001089080010D74BE1587F2930D8E4
:1043400048012018051D6B462A00E0CBE0C2E0CBF7
:10435000E0C260CB60C2482585610131CE4BE1509F
:10436000CE496358E218CE48844662441570CD4A5F
:104370009A189200CC48A05001336350684622F04E
:1043800023FD23685B69532120009847002812D041
:10439000C64BE058002830D05322C549FCF7C8F975
:1043A0002BE0C24BE0580028E8D080234822C149C6
:1043B000FCF7BEF9E2E7B84BE1587F2930D8480155
:1043C0002018051D6B462A00E0CBE0C2E0CBE0C21E
:1043D00060CB60C2532585610131AF4BE150AF49DD
:1043E0006358E218AE48844662441570AD4A9A1884
:1043F0009200B148A05001336350684623F0DCFAC4
:1044000023685B69222120009847002812D0A74B1F
:10441000E058002830D02222A549FCF789F92BE08A
:10442000A24BE0580028E8D080235322A149FCF792
:104430007FF9E2E7984BE1587F2930D848012018EE
:10444000051D6B462A00E0CBE0C2E0CBE0C260CBAA
:1044500060C22225856101318F4BE1508F4963583D
:10446000E2188F488446624415708E4A9A1892006A
:104470009248A05001336350684623F0A9FA23689C
:104480005B693C2120009847002812D0874BE058F8
:10449000002830D03C228649FCF74AF92BE0834BB8
:1044A000E0580028E8D0802322228249FCF740F916
:1044B000E2E7794BE1587F2930D848012018051DE3
:1044C0006B462A00E0CBE0C2E0CBE0C260CB60C22A
:1044D0003C2585610131704BE15070496358E21809
:1044E0006F488446624415706E4A9A189200744868
:1044F000A05001336350684624F03CFA23685B699E
:10450000362120009847002812D0684BE058002838
:1045100030D036226649FCF70BF92BE0634BE058AC
:104520000028E8D080233C226249FCF701F9E2E749
:10453000594BE1587F2930D848012018051D6B469A
:104540002A00E0CBE0C2E0CBE0C260CB60C23625FF
:1045500085610131504BE15050496358E218504891
:104560008446624415704F4A9A1892005548A050EC
:1045700001336350684625F09DFA23685B69722118
:1045800020009847002812D0484BE058002830D02F
:1045900072224749FCF7CCF82BE0444BE058002846
:1045A000E8D0802336224349FCF7C2F8E2E73A4BD1
:1045B000E1587F2930D848012018051D6B462A0094
:1045C000E0CBE0C2E0CBE0C260CB60C27225856187
:1045D0000131314BE15031496358E218304884468B
:1045E000624415702F4A9A1892003748A050013340
:1045F0006350684626F0DAF823685B695221200090
:104600009847002812D0294BE058002830D0522279
:104610002749FCF78DF82BE0244BE0580028E8D020
:10462000802372222349FCF783F8E2E71A4BE15812
:104630007F294DD848012018051D6B462A00E0CB84
:10464000E0C2E0CBE0C260CB60C25225856101319F
:10465000114BE15011496358E218114884466244F5
:104660001570104A9A1892001848A05001336350F0
:10467000684600F0FDFD23685B6913212000984720
:1046800000282FD0094BE05800284DD013220849AC
:10469000FCF74EF848E0C046041000008812000005
:1046A00008100000220400008D0800108C12000089
:1046B000A84C0610F84C06102D0E001091080010A2
:1046C00095080010990800109D0800106D0F00104B
:1046D000C14BE0580028CBD080235222BF49FCF7C1
:1046E00027F8C5E7BE4BE1587F2930D8480120188C
:1046F000051D6B462A00E0CBE0C2E0CBE0C260CBF8
:1047000060C2132585610131B54BE150B54963584D
:10471000E218B548844662441570B44A9A1892006B
:10472000B348A05001336350684600F0ADFD2368E4
:104730005B69152120009847002812D0A64BE0584D
:10474000002830D01522AB49FBF7F2FF2BE0A24B3B
:10475000E0580028E8D080231322A049FBF7E8FFA7
:10476000E2E79F4BE1587F2930D848012018051D0A
:104770006B462A00E0CBE0C2E0CBE0C260CB60C277
:10478000152585610131964BE15096496358E21831
:104790009548844662441570944A9A189200964847
:1047A000A05001336350684628F00CFC23685B6915
:1047B000162120009847002812D0874BE058002887
:1047C00030D016228B49FBF7B3FF2BE0824BE05829
:1047D0000028E8D0802315228049FBF7A9FFE2E7F3
:1047E0007F4BE1587F2930D848012018051D6B46C2
:1047F0002A00E0CBE0C2E0CBE0C260CB60C216256D
:1048000085610131764BE15076496358E21876486C
:10481000844662441570754A9A1892007748A050F1
:1048200001336350684628F083FC23685B6961218B
:1048300020009847002812D0674BE058002830D05D
:1048400061226C49FBF774FF2BE0634BE0580028B2
:10485000E8D0802316226149FBF76AFFE2E7604B4C
:10486000E1587F2930D848012018051D6B462A00E1
:10487000E0CBE0C2E0CBE0C260CB60C261258561E5
:104880000131574BE15057496358E2185648844666
:1048900062441570554A9A1892005948A050013345
:1048A0006350684629F0C6FC23685B6974212000C8
:1048B0009847002812D0484BE058002830D0742286
:1048C0004C49FBF735FF2BE0434BE0580028E8D07C
:1048D000802361224149FBF72BFFE2E7404BE1587F
:1048E0007F2930D848012018051D6B462A00E0CBEF
:1048F000E0C2E0CBE0C260CB60C2742585610131CB
:10490000374BE15037496358E218374884466244D0
:104910001570364A9A1892003A48A05001336350F5
:1049200068461DF0C7F923685B694C212000984751
:10493000002812D0284BE058002830D04C222D49B6
:10494000FBF7F6FE2BE0244BE0580028E8D080234C
:1049500074222249FBF7ECFEE2E7214BE1587F2964
:1049600030D848012018051D6B462A00E0CBE0C274
:10497000E0CBE0C260CB60C24C2585610131184BB1
:10498000E15018496358E21817488446624415708C
:10499000164A9A1892001C48A0500133635068468A
:1049A00029F04CFD23685B694D21200098470028C1
:1049B0002CD0094BE05800284AD04D220D49FBF776
:1049C000B7FE45E0044BE0580028E8D080234C2295
:1049D0000249FBF7ADFEE2E78C120000F84C06102E
:1049E00004100000881200000810000022040000DB
:1049F000A1080010A84C0610A5080010A50B001077
:104A000081100010A9080010AD080010D74BE15824
:104A10007F2930D848012018051D6B462A00E0CBBD
:104A2000E0C2E0CBE0C260CB60C24D2585610131C0
:104A3000CE4BE150CE496358E218CE4884466244DA
:104A40001570CD4A9A189200CC48A050013363509B
:104A500068461DF0F9F823685B69422120009847F9
:104A6000002812D0C64BE058002830D04222C54959
:104A7000FBF75EFE2BE0C24BE0580028E8D0802315
:104A80004D22C149FBF754FEE2E7B84BE1587F29BC
:104A900030D848012018051D6B462A00E0CBE0C243
:104AA000E0CBE0C260CB60C2422585610131AF4BF3
:104AB000E150AF496358E218AE488446624415702D
:104AC000AD4A9A189200B148A0500133635068462D
:104AD0000CF0F8FC23685B69192120009847002836
:104AE00012D0A74BE058002830D01922A549FBF777
:104AF0001FFE2BE0A24BE0580028E8D08023422282
:104B0000A149FBF715FEE2E7984BE1587F2930D821
:104B100048012018051D6B462A00E0CBE0C2E0CB1F
:104B2000E0C260CB60C21925856101318F4BE15035
:104B30008F496358E2188F488446624415708E4A44
:104B40009A1892009248A05001336350684629F0A9
:104B5000DDFC23685B69312120009847002812D0D2
:104B6000874BE058002830D031228649FBF7E0FD22
:104B70002BE0834BE0580028E8D08023192282499B
:104B8000FBF7D6FDE2E7794BE1587F2930D84801A1
:104B90002018051D6B462A00E0CBE0C2E0CBE0C246
:104BA00060CB60C2312585610131704BE1507049A5
:104BB0006358E2186F488446624415706E4A9A182A
:104BC00092007448A0500133635068462AF0FCF804
:104BD00023685B69662120009847002812D0684B43
:104BE000E058002830D066226649FBF7A1FD2BE093
:104BF000634BE0580028E8D0802331226249FBF75C
:104C000097FDE2E7594BE1587F2930D84801201839
:104C1000051D6B462A00E0CBE0C2E0CBE0C260CBD2
:104C200060C2662585610131504BE150504963589F
:104C3000E21850488446624415704F4A9A18920010
:104C40005548A0500133635068461DF027F823688B
:104C50005B694B2120009847002812D0484BE05850
:104C6000002830D04B224749FBF762FD2BE0444B34
:104C7000E0580028E8D0802366224349FBF758FD1E
:104C8000E2E73A4BE1587F2930D848012018051D4A
:104C90006B462A00E0CBE0C2E0CBE0C260CB60C252
:104CA0004B2585610131314BE15031496358E218A0
:104CB00030488446624415702F4A9A18920037484B
:104CC000A0500133635068461DF002F823685B6909
:104CD0005C2120009847002812D0294BE05800287A
:104CE00030D05C222749FBF723FD2BE0244BE05812
:104CF0000028E8D080234B222349FBF719FDE2E787
:104D00001A4BE1587F294DD848012018051D6B46E4
:104D10002A00E0CBE0C2E0CBE0C260CB60C25C2501
:104D200085610131114BE15011496358E218114876
:104D3000844662441570104A9A1892001848A05090
:104D40000133635068462AF07DFE23685B692D219C
:104D50002000984700282FD0094BE05800284DD05C
:104D60002D220849FBF7E4FC48E0C046041000008F
:104D7000881200000810000022040000391B0010F7
:104D80008C120000A84C0610F84C0610B108001058
:104D9000D126001085090010950A0010B5080010F2
:104DA000B90800109B4BE0580028CBD080235C2230
:104DB0009949FBF7BDFCC5E7984BE1587F2930D8EE
:104DC00048012018051D6B462A00E0CBE0C2E0CB6D
:104DD000E0C260CB60C22D25856101318F4BE1506F
:104DE0008F496358E2188F488446624415708E4A92
:104DF0009A1892008D48A0500133635068462CF0F9
:104E0000F9FD23685B69292120009847002812D00A
:104E1000804BE058002830D029228549FBF788FCD8
:104E20002BE07C4BE0580028E8D080232D227A49E3
:104E3000FBF77EFCE2E7794BE1587F2930D8480147
:104E40002018051D6B462A00E0CBE0C2E0CBE0C293
:104E500060CB60C2292585610131704BE1507049FA
:104E60006358E2186F488446624415706E4A9A1877
:104E700092007048A0500133635068460EF0B4FEB3
:104E800023685B691B2120009847002812D0614BE2
:104E9000E058002830D01B226549FBF749FC2BE085
:104EA0005C4BE0580028E8D0802329225A49FBF7C0
:104EB0003FFCE2E7594BE1587F2930D848012018E0
:104EC000051D6B462A00E0CBE0C2E0CBE0C260CB20
:104ED00060C21B2585610131504BE1505049635838
:104EE000E21850488446624415704F4A9A1892005E
:104EF0005148A0500133635068462EF09DFC236852
:104F00005B691C2120009847002812D0414BE058D3
:104F1000002830D01C224649FBF70AFC2BE03D4B11
:104F2000E0580028E8D080231B223B49FBF700FC17
:104F3000E2E73A4BE1587F2930D848012018051D97
:104F40006B462A00E0CBE0C2E0CBE0C260CB60C29F
:104F50001C2585610131314BE15031496358E2181C
:104F600030488446624415702F4A9A18920033489C
:104F7000A0500133635068462FF03CFF23685B6903
:104F8000582120009847002812D0224BE0580028D2
:104F900030D058222649FBF7CBFB2BE01D4BE058C5
:104FA0000028E8D080231C221B49FBF7C1FBE2E765
:104FB0001A4BE1587F2922D848012018051D6B465D
:104FC0002A00E0CBE0C2E0CBE0C260CB60C2582553
:104FD00085610131114BE15011496358E2181148C4
:104FE000844662441570104A9A1892001448A050E2
:104FF00001336350200008B080BCB846F0BD054BBB
:10500000E0580028F6D0802358220349FBF790FB94
:10501000F0E7C0468C120000F84C061004100000A7
:10502000881200000810000022040000D1110010B6
:10503000A84C061071180010BD190010BD08001012
:10504000ED0C001010B5836B002B02D01C2198478B
:1050500010BD43F0EDF910B5836B002B02D0042195
:10506000984710BD43F0E4F9F0B595B005000C0089
:105070008E68002E14D00022FDF7B8FD071E11D057
:10508000002221002800FDF7CFFD041E14D03B7F35
:10509000092B1BD0032B00D17DE0002015B0F0BD03
:1050A00043F0C6F96C696E4B00938E236D4A6E49CE
:1050B0002800A0470120F1E76C696C4B0093902316
:1050C000684A69492800A0470120E7E78168B86875
:1050D0003AF0BBFE3AF08CFF02900391002F46D0CD
:1050E000796904C9002304930492052A42DC049BD5
:1050F000052B41DD059892003BF00CFA002C3DD0C9
:10510000616904C900230A930A92052A39DC0A9BC3
:10511000052B38DD0B9892003BF0FCF93300183377
:105120003200143202980399FDF7DAFB80235B42C8
:105130001193E568A16800203AF087FE3BF06AF819
:105140003AF014FF281810907F301EDA11AB1B685C
:1051500073607F23B360FB68F360E36833610A9B8D
:10516000052B14DC049B052B13DC002096E70023A1
:105170000493C3E743F05CF905A8BCE700230A9356
:10518000CCE743F055F90BA8C5E710ABDFE743F0D8
:105190004FF943F04DF98168B8683AF056FE3AF09D
:1051A00027FF02900391002F45D0796904C900239D
:1051B00004930492052A41DC049B052B40DD0598ED
:1051C00092003BF0A7F9002C3CD0616904C9002390
:1051D0000A930A92052A38DC0A9B052B37DD0B98C7
:1051E00092003BF097F933001833320014320298E2
:1051F0000399FDF775FB00231393E568A168002070
:105200003AF023FE3BF006F83AF0B0FE2818129070
:1052100000281EDC13AB1B687360FF23B360FB68C0
:10522000F360E36833610A9B052B14DC049B052BB8
:1052300013DC002032E700230493C4E743F0F8F8BE
:1052400005A8BDE700230A93CDE743F0F1F80BA8CA
:10525000C6E712ABDFE743F0EBF843F0E9F8C046EE
:10526000E44E0610804E06106C410610F84E0610F3
:1052700030B5044B020032CB32C232CB32C212CB39
:1052800012C230BD1850061030B5054B2033020055
:1052900032CB32C232CB32C212CB12C230BDC04688
:1052A0001850061010B5002801D0006810BD43F05A
:1052B000BFF8002800D00068704710B5002801D062
:1052C000006810BD43F0B4F8002800D000687047B3
:1052D00010B5002801D0006810BD43F0A9F80028DF
:1052E00000D0006870470000F0B5D6464F464646ED
:1052F000C0B5A4B004000D008B689946002B24D0E3
:10530000002824D0002924D00B685968436D9847A1
:105310000700002C1FD0002D1FD06B68596820009B
:10532000636D98478246387A032800D10FE1092837
:1053300000D192E0012812D06569FBF7B5F90200AF
:10534000B9492000A84701207DE043F071F843F0FF
:105350006FF843F06DF843F06BF843F069F83900EB
:1053600068461DF044FE3800FFF79CFF804651461A
:1053700006A81DF03CFE5046FFF79BFF81460098B3
:10538000069B984201D1002315E043F051F843F009
:105390004FF843F04DF89A006A44516817E043F023
:1053A00047F843F045F89A0006ACA44662445268B8
:1053B0008A4217D10133984216DD002BE7DB009AB1
:1053C0009342E6DA052AE6DD9A0001998958002B16
:1053D000E5DB069A9342E4DA052AE4DD9A00079CAD
:1053E000A258E5E743F024F80099052903DD019868
:1053F0000023012605E001A8FAE79A001258564357
:1054000001339942F9DC002403E0884D4B46DD511D
:105410000134B44210DAA7004346DD598349281C01
:105420003AF078FD0028F0D10021281C3AF05CFD0C
:105430000028EBD00025E9E7069B052B09DC009B43
:10544000052B08DC002024B0E0BCBA46B146A846D3
:10545000F0BD42F0EDFF42F0EBFF4B465B785BB2F4
:1054600098464B4600241C5739000CA81DF0BFFD80
:105470003800FFF722FF0500514612A81DF0B7FDC6
:105480005046FFF721FF0C9F129B9F4201D1002342
:1054900017E042F0CDFF42F0CBFF42F0C9FF9A0087
:1054A0000CA98C466244516817E042F0C1FF42F0FB
:1054B000BFFF9A0012AEB446624452688A4217D1C6
:1054C00001339F4216DD002BE5DB0C9A9342E4DAB0
:1054D000052AE4DD9A000D998958002BE5DB129A24
:1054E0009342E4DA052AE4DD9A00139EB258E5E718
:1054F00042F09EFF0C9F052F04DD0D9B9C46002370
:10550000012107E00DAB9C46F9E79A0066469259E7
:10551000514301339F42F8DC002302E02200C255D0
:1055200001338B4207DA1F00EA569442F6DB9045BE
:10553000F5DD4246F3E7129B052B04DC0C9B052BA3
:1055400003DC00207FE742F073FF42F071FF4B461F
:10555000DB7898464B469C78390018A81DF047FD2B
:105560003800FFF7B5FE050051461EA81DF03FFDAF
:105570005046FFF7B4FE189F1E9B9F4201D10023A7
:1055800017E042F055FF42F053FF42F051FF9A00FE
:1055900018A98C466244516817E042F049FF42F076
:1055A00047FF9A001EAEB446624452688A4217D141
:1055B00001339F4216DD002BE5DB189A9342E4DAB3
:1055C000052AE4DD9A0019998958002BE5DB1E9A1B
:1055D0009342E4DA052AE4DD9A001F9EB258E5E71B
:1055E00042F026FF189F052F04DD199B9C460023DF
:1055F000012107E019AB9C46F9E79A0066469259EB
:10560000514301339F42F8DC002302E02200C255DF
:1056100001338B420CDA1F00EA5C9442F6D39045CA
:10562000F5D94246F3E7C0460C4F06100000C040D3
:105630001E9B052B04DC189B052B03DC002002E7D6
:1056400042F0F6FE42F0F4FE70B584B016003AF077
:10565000FCFB3AF0CDFC39F0FFFF04000D003000F8
:1056600039F0F2FE22002B0039F04EFE39F004FF33
:10567000019080235B4202937F300CDA02AB1B68FF
:1056800001937F2203927E2B07DD03AB1868019004
:1056900040B204B070BD01ABF1E701ABF6E770B505
:1056A00084B016003AF0D1FB3AF0A2FC39F0D4FFF6
:1056B00004000D00300039F0C7FE22002B0039F045
:1056C00023FE39F0D9FE01900023029300280CDC60
:1056D00002AB1B680193FF220392FE2B07DD03AB95
:1056E00018680190C0B204B070BD01ABF1E701AB26
:1056F000F6E7000070B582B005008E68002E0CD071
:105700000022FDF773FA041E09D0037F092B10D085
:10571000032B18D0002002B070BD42F089FE6C69E6
:105720000E4B0093CD230E4A0E492800A0470120BE
:10573000F1E7C26881680C48FFF786FF3070E368C4
:1057400073700020E7E7C26881680748FFF7A7FF8A
:10575000B070E368F3700020DDE7C046E44E061049
:10576000804E06106C4106100000C0407047084093
:1057700070470841704740187047C043704710B5E4
:10578000002802D00020FFF7F8FF10BD10B501235C
:10579000884200DB00231800FFF7F1FF10BD10B5B1
:1057A0000123884200DC00231800FFF7E8FF10BD4A
:1057B000F0B5DE4657464E464546E0B5B3B0050067
:1057C0000C008F68002F24D0002824D0002924D07A
:1057D0000B685968436D98470600002D1FD0002CB8
:1057E0001FD06368596828006B6D98470400307AB1
:1057F000032800D1AEE1092800D18EE0012812D0A3
:105800006C69FAF751FF0200C5492800A047012042
:1058100078E042F00DFE42F00BFE42F009FE42F04D
:1058200007FE42F005FE31000EA81DF0E0FB30003F
:10583000FFF738FD8046210014A81DF0D8FB20009A
:10584000FFF737FD81460E98149B984201D1002343
:1058500017E042F0EDFD42F0EBFD42F0E9FD9A0069
:105860000EA98C466244516817E042F0E1FD42F017
:10587000DFFD9A0014ACA446624452688A4217D1F4
:105880000133984216DD002BE5DB0E9A9342E4DAF1
:10589000052AE4DD9A000F998958002BE5DB149A5C
:1058A0009342E4DA052AE4DD9A00159CA258E5E764
:1058B00042F0BEFD0E99052903DD0F980023012655
:1058C00005E00FA8FAE79A001258564301339942AF
:1058D000F9DC002402E04B46DD510134B4420ADA1F
:1058E000A7004346DD590021281C3AF0FDFA0028A4
:1058F000F1D00025EFE7149B052B0ADC0E9B052B4E
:1059000009DC002033B0F0BCBB46B246A946A04635
:10591000F0BD42F08DFD42F08BFD31001AA81DF064
:1059200066FB210020A81DF062FB3000FFF7C5FCDC
:105930000A902000FFF7C8FC0B901A98209B984211
:1059400001D1002317E042F073FD42F071FD42F0F7
:105950006FFD9A001AA98C466244516817E042F024
:1059600067FD42F065FD9A0020ACA446624452688F
:105970008A4217D10133984216DD002BE5DB1A9AD3
:105980009342E4DA052AE4DD9A001B998958002B3A
:10599000E5DB209A9342E4DA052AE4DD9A00219CB3
:1059A000A258E5E742F044FD1A99052903DD1B984A
:1059B0000023012205E01BA8FAE79C00245862435B
:1059C00001339942F9DC00231E00934670E0002366
:1059D0007CE064427EE080231B06984202D00023D4
:1059E00098467DE0012398467AE04E490091C91718
:1059F00001910098019912184B41D91749004908A3
:105A00000491002105910498059912184B415D00FD
:105A1000D20F15434346002B6DD1002C6DDB1F2C9C
:105A200072DC0120A0400138FFF7A0FE8146002073
:105A3000FFF79CFE06900120FFF798FE804649463E
:105A40002800FFF794FE099001214846FFF791FED8
:105A5000814606992800FFF799FE4146FFF787FE29
:105A600001004846FFF787FE814621002800FFF726
:105A700080FE040049460998FFF791FE4146FFF772
:105A800076FE01002000FFF776FE50440D903B1D8E
:105A90007A6890423FDC1B680D933A000832B9687F
:105AA0008B423ADB13680D930B9A029953540136DB
:105AB0005E4543DA02960A9B98573B699A46FB6813
:105AC000C01A7A69BC69231E00DA80E7002C00DC6A
:105AD0007FE700249840824200D17CE7002398466B
