:020000041000EA
:1000000000B5324B212058609868022188439860DF
:10001000D860186158612E4B002199600221596106
:100020000121F02299502B49196001219960352056
:1000300000F044F80222904214D00621196600F024
:1000400034F8196E01211966002018661A6600F04E
:100050002CF8196E196E196E052000F02FF8012189
:100060000842F9D1002199601B49196000215960AB
:100070001A491B48016001219960EB211966A021F2
:10008000196600F012F800219960164914480160C1
:100090000121996001BC002800D000471248134993
:1000A000086003C880F30888084703B5996A0420EC
:1000B0000142FBD001200142F8D103BD02B5186610
:1000C0001866FFF7F2FF186E186E02BD00000240BE
:1000D000000000180000070000035F00212200005C
:1000E000F4000018222000A00001001008ED00E03C
:1000F00000000000000000000000000074B24E7A12
:1001000000200420F7010010C3010010C5010010F9
:10011000C1010010C1010010C1010010C101001097
:10012000C1010010C1010010C1010010C701001081
:10013000C1010010C1010010C9010010CB01001065
:10014000CD010010CD010010CD010010CD01001037
:10015000CD010010CD010010CD010010CD01001027
:10016000CD010010CD010010CD010010CD01001017
:10017000CD010010CD010010CD010010CD01001007
:10018000CD010010CD010010CD010010CD010010F7
:10019000CD010010CD010010CD010010CD010010E7
:1001A000CD010010CD010010CD010010CD010010D7
:1001B000CD010010CD010010CD010010CD010010C7
:1001C00000BE00BE00BE00BE00BE00BEEFF3058054
:1001D000103800BEF2EB887128B603104CB603103D
:1001E0003402001090A31AE700201F49086006C8D7
:1001F00081F3088810471D48006800282FD10DA4FE
:100200000ECC002902D000F012F8F9E71849194A7B
:10021000002000E001C19142FCD1174988471749ED
:1002200088471749884700BEFDE701C901C29A42C5
:10023000FBD370474CB60310C0000020101B0020F9
:100240009CD0031000000420000004209CD0031068
:10025000001004200010042000000000704709482E
:1002600013F0AAF80047000008ED00E0000000D0FD
:10027000101B00205C3F0220052101102504001006
:10028000C32001105756000006005250ABB3605314
:100290008896031006005250861C0302989603109D
:1002A000060052505422A29DB496031005005250ED
:1002B000DE65F4689CD00310F8B5C04610B5064C56
:1002C0002378002B07D1054B002B02D0044800E017
:1002D00000BF0123237010BD101C0020000000008F
:1002E00098E40110044B10B5002B03D003490448D7
:1002F00000E000BF10BDC04600000000141C00203C
:1003000098E401100023036043608360704710B5D8
:1003100003685B69984710BD10B503689B699847EF
:1003200010BD10B5040020290CD00022A423E358EE
:10033000934209D95301E318181D9B698B4204D0DD
:100340000132F3E7002000E0002010BD034B036002
:10035000034B0360034B03607047C0462CEA011057
:1003600004EA0110E8E90110034B0360034B03604A
:10037000034B03607047C0462CEA011004EA0110E9
:10038000E8E9011010B5C423C458052C01D8002396
:1003900002E01CF0A3F901339C4208D9C218A8322C
:1003A00012788A42F7D12C339B00185800E00020C5
:1003B00010BDF8B505000E00002400E00134A423B0
:1003C000EB58A3420ED96301EB181F1D9B69202B2C
:1003D000F4D16301EB18D86931001DF0D3F900287E
:1003E000ECD100E000273800F8BD704710B5006878
:1003F000FFF7FBFF10BD704710B50068FFF7FBFF6C
:1004000010BD704710B50088FFF7FBFF10BD10B599
:1004100004000068FFF7E9FF201810BD10B5FFF7D2
:10042000F6FF10BDF0B5C64600B5E0B00024A34B02
:100430001C60A34B1C605FA8A24B5F93A24B18608B
:10044000A24900F081FCA24B1C70A24B1C7044E23C
:10045000002059E200225EE203239F4905A800F034
:1004600073FC5BE2A4236A46B0215218D1580429D8
:1004700035D82CA84D01AC46844463461E1D06ABFE
:100480003200E0CBE0C2E0CBE0C260CB60C201262C
:1004900063469E610131A423C150C4214358C21850
:1004A000A83216701A002C3292008C4D1550013370
:1004B000435006A802F0A2FA2C9B5B6903212CA8EA
:1004C0009847002818D0C8236A46B0215218D0583F
:1004D000002838D00322824900F036FC33E0243370
:1004E0006A46B0215218D0580028E2D0C33B0122FE
:1004F0007C4900F029FCDCE7A4236A46B0215218AD
:10050000D158042935D82CA84D01AC468444634603
:100510001E1D06AB3200E0CBE0C2E0CBE0C260CBF8
:1005200060C2032663469E610131A423C150C421E9
:100530004358C218A83216701A002C3292006A4D25
:1005400015500133435006A804F0B4F92C9B5B69A5
:1005500004212CA89847002818D0C8236A46B02147
:100560005218D05800283BD004225D4900F0ECFB23
:1005700036E024336A46B0215218D0580028E2D021
:10058000C33B0322574900F0DFFBDCE7A4236A46A4
:10059000B0215218D158042938D82CA84D01042371
:1005A0009C46A846804443461E1D06AB3200E0CB65
:1005B000E0C2E0CBE0C260CB60C2434662469A61D3
:1005C0000131A423C150C4214358C218A832654642
:1005D00015701A002C329200444D155001334350CF
:1005E00006A809F07BFD2C9B5B6916212CA8984777
:1005F000002818D0C8236A46B0215218D0580028C5
:1006000038D01622364900F09FFB33E024336A4687
:10061000B0215218D0580028E2D0C33B04223149FF
:1006200000F092FBDCE7A4236A46B0215218D158AF
:10063000042935D82CA84D01AC46844463461E1DC0
:1006400006AB3200E0CBE0C2E0CBE0C260CB60C2E0
:10065000162663469E610131A423C150C42143582C
:10066000C218A83216701A002C329200204D155074
:100670000133435006A807F0A9FC2C9B5B691921A4
:100680002CA89847002835D0C8236A46B0215218B4
:10069000D058002856D01922114900F055FB51E0DE
:1006A00024336A46B0215218D0580028E2D0C33B08
:1006B00016220C4900F048FBDCE7C0463C1C002039
:1006C000381C002004830310401C002098E4011013
:1006D000553F0220543F0220ACE40110A914001041
:1006E000F4E4011044E501109912001051100010BB
:1006F000F90E0010A4236A46B0215218D1580429DB
:1007000000D936E12CA84D01AC46844463461E1D39
:1007100006AB3200E0CBE0C2E0CBE0C260CB60C20F
:10072000192663469E610131A423C150C421435858
:10073000C218A83216701A002C329200E14D1550E2
:10074000013343500023029305AB019388239B029E
:100750000093DD4B2CAA210006A80BF01DFE06A875
:100760000CF094F8002106A80BF044FE041E00D102
:100770000DE163691B68042B00D013E163695B68BA
:10078000012B00D01CE163699B68602B00D024E141
:100790006369DB68602B00D02DE163691B69012B65
:1007A00000D036E1237F092B00D03FE1A269C74B7F
:1007B0001B689A4200D047E1C549206914F000F84F
:1007C00006A80CF049F90500061E00D03EE1002EF7
:1007D00000D040E1002106A80BF0CAFE05004369E5
:1007E0001B68022B00D044E16B695B68012B00D0D1
:1007F0004DE16B699B68022B00D055E12B7F092BE3
:1008000000D0A1E12B6901269E5700255D572B00E2
:100810003200B04905A800F097FAAE4200DCA1E131
:100820002069A269002113F0C5FF06A80CF014F995
:100830000400051E00D0A0E1002D00D0A2E100219F
:1008400006A80BF095FE040043691B68022B00D03C
:10085000A6E163695B68012B00D0AFE163699B6827
:10086000022B00D0B7E1237F092B00D0C1E123691F
:1008700001255D5700241C5723002A00964905A82E
:1008800000F062FAA54200DBC1E1944905A800F03E
:100890005BFA06A80BF0EDFC914B2C93914B2C933B
:1008A000914B2C93914B0593914B0593914B0122C6
:1008B0001A70914B1A78002A00D1B3E100238F49B6
:1008C0000868844663440B60002A00D1ACE1012330
:1008D0008B4A11688C4663441360864B1B78002B4F
:1008E00000D0A3E1814B05938648FFF797FD0400F4
:1008F000FFF782FD251A2800FFF784FD042800D8A1
:10090000A6E5281DFFF77EFD002800D1A2E52018EE
:10091000FFF76CFD0200032A00D09DE5724B2C937B
:10092000704B2C936E4B2C930023A4226946B02568
:1009300049198B502032694649198B500432694657
:1009400049198B5006A806F0BDFB2C9B5B69012161
:100950002CA89847002800D184E5C8236A4652197C
:10096000D058002800D1A4E50122674900F0ECF935
:100970009FE524336A46B0215218D058002800D190
:10098000E0E6C33B1922614900F0DEF9DAE6604B8C
:10099000186845235F4A604900F0D6F9564B01229A
:1009A0001A70E6E65A4A1068019304230093423312
:1009B000584A5A4900F0C8F94F4B01221A70DDE637
:1009C000534A10680193012500954723514A544921
:1009D00000F0BAF9484B1D70D5E64D4A10680193F6
:1009E00060230093183B4B4A4E4900F0ADF9424B4F
:1009F00001221A70CCE6464A1068019360230093E6
:100A0000173B444A484900F09FF93B4B01221A70BA
:100A1000C3E63F4A10680193012500954A233D4AE9
:100A2000424900F091F9344B1D70BBE6384A10681A
:100A30000193092300934233364A3D4900F084F97B
:100A40002D4B01221A70B1E61BF048FE394905A86A
:100A500000F07AF9BBE62E4B18680195002300934D
:100A600056332C4A344900F06FF9234B01221A7097
:100A7000B0E6274A10680193022300935933254AB0
:100A80002E4900F061F91C4B01221A70ACE6204A95
:100A900010680193012600965C231E4A284900F045
:100AA00053F9154B1E70A4E6194A106801930223EE
:100AB00000935B33174A234900F046F90E4B01229D
:100AC0001A709BE6C51600104C1F0020705D0310C5
:100AD00070390310A0E8011008E9011070E9011055
:100AE0002CEA011004EA0110E8E901100483031064
:100AF000D4E90110553F0220543F02203C1C002045
:100B0000381C002050EA0110F4E4011044E5011003
:100B1000401C002088E50110F0E5011014E60110EA
:100B200048E6011080E60110BCE60110F8E601106D
:100B300038E7011070E7011080E70110B8E70110F5
:100B4000ECE7011024E80110494A106801930923D9
:100B500000935533474A484900F0F6F8474B0122C5
:100B60001A704FE6424B18686623424A444900F027
:100B7000EBF8424B01221A7052E6424905A800F0F8
:100B8000E3F859E63A4B1868019400230093703358
:100B9000384A3D4900F0D8F8384B01221A704EE629
:100BA000334A10680193022300937333314A374963
:100BB00000F0CAF8314B01221A704AE62C4A10683C
:100BC00001930125009576232A4A314900F0BCF8AB
:100BD0002A4B1D7042E6264A1068019302230093B7
:100BE0007533244A2B4900F0AFF8244B01221A70C8
:100BF00039E61F4A10680193092300936F331D4A99
:100C00001D4900F0A1F81D4B01221A702FE6184B68
:100C100018688023174A204900F096F8174B0122E4
:100C20001A7032E601234AE6002351E61B4B1A688C
:100C30001B4C2368D3180E4908681A4900F084F841
:100C40002468002C0DD11849094B186800F07CF875
:100C5000164B5F93164B5F93200060B080BCB84684
:100C6000F0BD1449024B186800F06EF80124EFE75C
:100C7000401C002088E5011068E80110543F022064
:100C8000D8E8011070E7011080E70110B8E7011003
:100C9000ECE7011024E8011040E901103C1C0020A1
:100CA000381C002084E9011098E901100483031026
:100CB000D4E90110B0E90110013080007047000054
:100CC0000D281DD88000104B1B589F460F487047B9
:100CD0000F48FCE70F48FAE70F48F8E70F48F6E738
:100CE0000F48F4E70F48F2E70F48F0E70F48EEE748
:100CF0000F48ECE70F48EAE70F48E8E70F48E6E758
:100D00000F48E4E70F48E2E7FC5D0310F45D0310D1
:100D10008C5D0310945D03109C5D0310A45D0310B3
:100D2000AC5D0310B45D0310BC5D0310C45D031023
:100D3000D05D0310DC5D0310E45D0310EC5D031077
:100D4000745D0310845D03100EB400B582B003AA75
:100D500002CA019203689B68984702B008BC03B0BE
:100D600018470CB400B583B004AA02CA0192036804
:100D70009B68984703B008BC02B01847052803D801
:100D80008300024AD3589F4600207047345E031008
:100D9000002803D0012803D1013070470120FCE76F
:100DA0000020FAE710B5002806D0002906D0002A56
:100DB00006D0002B06D010BD1BF090FC1BF08EFC63
:100DC0001BF08CFC1BF08AFC10B513000C2836D8E5
:100DD00083001F4AD3589F460A230B70002010BD82
:100DE00001230B70FBE70B230B700020F7E70723B1
:100DF0000B700020F3E702230B700020EFE70323C2
:100E00000B700020EBE709230B700020E7E70423B9
:100E10000B700020E3E70D230B700020DFE70523B4
:100E20000B700020DBE706230B700020D7E70823B8
:100E30000B700020D3E70C230B700020CFE70022BB
:100E40000A70020003491800FFF77EFF0120C6E781
:100E5000705E03104C5E0310F0B5C64600B582B05C
:100E600004000D001700019300291AD00868FFF74D
:100E7000BCFA0600A008B0421AD30024B44225D21E
:100E8000A3009846B8442868FFF7AFFA844216D208
:100E90002B1DA2009858FFF7AEFA434618600134A4
:100EA000ECE7089A0C491800FFF74EFF01200EE00E
:100EB000089A0A490198FFF747FF012007E08321BC
:100EC000074B084A4900084811F0FEF8002002B01C
:100ED00080BCB846F0BDC046A45E0310D45E0310CB
:100EE000185F0310245F0310F45F0310704710B500
:100EF0000078FFF7FBFF10BDF0B5C64600B584B023
:100F000004000F0015001E00FFF74CFF2B681B6844
:100F1000042224212800984780462422002113F02F
:100F200049FC0295434603934546002B0ED0200012
:100F3000FFF762FA231A98461800FFF763FA0A28A7
:100F400011D940460A30FFF75DFA0DE0384B0193A6
:100F5000B723DB000093374B374A39003800FFF7DF
:100F600000FF013551E00020002803D02018FFF7D2
:100F7000BEFF00E00020112819D12000FFF73CFA45
:100F8000231A98461800FFF73DFA0C2804D940466A
:100F90000C30FFF737FA00E000202418002804D0B6
:100FA0002000FFF723FA241802E0002400E00024C8
:100FB000002C25D0A0462000FFF71EFA241A20009E
:100FC000FFF720FA04282ED9201DFFF71BFA43460D
:100FD0001C18002829D02000FFF708FA2418002C3C
:100FE0000ED0164B00933B002A0021002020FFF773
:100FF00033FF051E09D12068FFF7F7F9039B18623C
:10100000039B33600023039300250399002903D039
:10101000029803685B68984700230393280004B094
:1010200080BCB846F0BD0020D1E70024D7E7C04619
:10103000E860031064600310D0600310FC600310CC
:10104000704710B5007840B2FFF7FAFF10BD0000FE
:10105000F0B5C64600B584B00400884615001E00F1
:10106000FFF7A0FE2B681B6804221C21280098476C
:1010700007001C22002113F09DFB02950397002F0F
:101080000DD02000FFF7B8F9251A2800FFF7BAF9AC
:101090000A2810D928000A30FFF7B4F90CE07A4B7F
:1010A00001937A4B00937A4B7A4A41464046FFF7C8
:1010B00058FE0124BDE00020002803D02018FFF7CF
:1010C00016FF00E00020022818D12000FFF794F955
:1010D000251A2800FFF796F90C2804D928000C30AF
:1010E000FFF790F900E000202418002804D0200029
:1010F000FFF77CF9241802E0002400E00024002C13
:1011000000D191E025002000FFF776F9241A200095
:10111000FFF778F9042800D899E0201DFFF772F94D
:10112000002800D195E02818FFF78BFFC0B2FFF729
:101130002FFE3870039F2800FFF75EF92C1A20005D
:10114000FFF760F9062800D885E0A01DFFF75AF9DF
:10115000002800D181E02818FFF74EF97860039C41
:101160002800FFF749F92F1A3800FFF74BF9082834
:1011700000D874E038000830FFF744F9002800D1A7
:101180006FE02818FFF738F9A0602800FFF734F95E
:101190002F1A3800FFF736F90A2864D938000A30C8
:1011A000FFF730F9002860D02818FFF725F9E06034
:1011B0002800FFF721F92F1A3800FFF723F90C2830
:1011C00055D938000C30FFF71DF9002851D02818E8
:1011D000FFF737FFC0B2FFF7D1FD20742800FFF7FB
:1011E0000BF92F1A3800FFF70DF90E2843D93800F4
:1011F0000E30FFF707F900283FD02818FFF7FCF85A
:1012000060612800FFF7F8F82F1A3800FFF7FAF8A6
:10121000102834D938001030FFF7F4F8002830D007
:101220002818FFF7E9F8A061039B336000230393BC
:1012300000240399002903D0029803685B6898474B
:1012400000230393200004B080BCB846F0BD00200A
:1012500066E700206AE700207AE700207EE70020AA
:101260008CE7002090E700209CE700209FE700200B
:10127000ABE70020AEE70020BDE70120C0E700207B
:10128000CCE70120CFE7C046E8600310230400004C
:1012900064600310D0600310F0B5C64600B584B09A
:1012A0000400884615001E00FFF77CFD2B681B68B4
:1012B000042218212800984707001822002113F063
:1012C00079FA02950397002F0DD02000FFF794F8CC
:1012D000251A2800FFF796F80A2810D928000A30A6
:1012E000FFF790F80CE06C4B01936C4B00936C4B48
:1012F0006C4A41464046FFF734FD0124A6E0002039
:10130000002803D02018FFF7F2FD00E0002001289C
:1013100018D12000FFF770F8251A2800FFF772F89F
:101320000C2804D928000C30FFF76CF800E00020EE
:101330002418002804D02000FFF758F8241802E0F1
:10134000002400E00024002C7BD025002000FFF7C3
:1013500053F8241A2000FFF755F8042800D883E03A
:10136000201DFFF74FF8002800D17FE02818FFF775
:1013700068FEC0B2FFF70CFD3870039F2800FFF72E
:101380003BF82C1A2000FFF73DF8062800D86FE044
:10139000A01DFFF737F800286CD02818FFF72CF8AD
:1013A0007860039F2800FFF727F82C1A2000FFF72A
:1013B00029F8082860D920000830FFF723F8002812
:1013C0005CD02818FFF718F8B8602800FFF714F869
:1013D0002C1A2000FFF716F80A2851D920000A30ED
:1013E000FFF710F800284DD02818FFF72AFEC0B2EA
:1013F000FFF7C4FC38732800FEF7FEFF2C1A20000C
:10140000FFF700F80C283FD920000C30FEF7FAFF58
:1014100000283BD02818FEF7EFFF38612800FEF7C0
:10142000EBFF2C1A2000FEF7EDFF0E2830D920002C
:101430000E30FEF7E7FF00282CD02818FEF7DCFF5F
:101440007861039B336000230393002403990029F0
:1014500003D0029803685B68984700230393200039
:1014600004B080BCB846F0BD00207CE7002080E7D7
:10147000002090E7002093E70020A0E70020A3E7EA
:101480000020AFE70020B2E70020C1E70120C4E759
:101490000020D0E70120D3E7E8600310F903000043
:1014A00064600310D0600310F0B5C64600B584B088
:1014B0000400884615001E00FFF774FC2B681B68AB
:1014C000042228212800984707002822002113F031
:1014D00071F902950397002F0DD02000FEF78CFFC5
:1014E000251A2800FEF78EFF0A2810D928000A3096
:1014F000FEF788FF0CE06C4B01936C4B00936C4B38
:101500006C4A41464046FFF72CFC0124A6E000202F
:10151000002803D02018FFF7EAFC00E0002005288F
:1015200018D12000FEF768FF251A2800FEF76AFF91
:101530000C2804D928000C30FEF764FF00E00020DE
:101540002418002804D02000FEF750FF241802E0E1
:10155000002400E00024002C7BD025002000FEF7B2
:101560004BFF241A2000FEF74DFF042800D883E02B
:10157000201DFEF747FF002800D17FE02818FFF765
:1015800060FDC0B2FFF704FC3870039F2800FEF72F
:1015900033FF2C1A2000FEF735FF062800D86FE035
:1015A000A01DFEF72FFF00286CD02818FEF724FF9F
:1015B0007860039F2800FEF71FFF2C1A2000FEF71B
:1015C00021FF082860D920000830FEF71BFF002803
:1015D0005CD02818FEF710FFB8602800FEF70CFF5B
:1015E0002C1A2000FEF70EFF0A2851D920000A30DD
:1015F000FEF708FF00284DD02818FEF7FDFEF86022
:101600002800FEF7F9FE2C1A2000FEF7FBFE0C283E
:1016100042D920000C30FEF7F5FE00283ED02818F5
:10162000FEF7EAFE38612800FEF7E6FE2C1A2000DD
:10163000FEF7E8FE0E2833D920000E30FEF7E2FE5A
:1016400000282FD02818FFF7FCFCC0B2FFF796FB4C
:101650003875039B3360002303930024039900290A
:1016600003D0029803685B68984700230393200027
:1016700004B080BCB846F0BD00207CE7002080E7C5
:10168000002090E7002093E70020A0E70020A3E7D8
:101690000020AFE70020B2E70020BEE70020C1E74E
:1016A0000020CDE70020D0E7E86003105E050000D1
:1016B00064600310D0600310704710B50068FFF736
:1016C000FBFF10BDF0B5C64600B584B004008846E7
:1016D00015001E00FFF766FB2B681B68042204211F
:1016E000280098470023036002950390071E0DD041
:1016F0002000FEF781FE251A2800FEF783FE0A2847
:1017000010D928000A30FEF77DFE0CE02D4B019326
:101710002D4B00932D4B2E4A41464046FFF721FBAF
:1017200001243DE00020002803D02018FFF7DFFB54
:1017300000E00020092818D12000FEF75DFE251AE0
:101740002800FEF75FFE0C2804D928000C30FEF7B5
:1017500059FE00E000202418002804D02000FEF7E5
:1017600045FE241802E0002400E00024002C12D0E2
:1017700025002000FEF740FE241A2000FEF742FE5E
:1017800004281BD9201DFEF73DFE002818D028187C
:10179000FFF793FF3860039B33600023039300241B
:1017A0000399002903D0029803685B6898470023D7
:1017B0000393200004B080BCB846F0BD0020E4E7ED
:1017C0000020E7E7E86003104106000064600310B2
:1017D000D0600310F0B5CE4600B582B004000D0015
:1017E00001921F0000233B600BF087FC0090060075
:1017F0002000FEF701FE231A99461800FEF702FEAC
:10180000082804D948460830FEF7FCFD00E0002017
:10181000002804D02018FEF7EFFD814601E00123E7
:101820009946832E0FD8202E1FD02B681B684A465E
:10183000009928009847386000280BD0002002B09B
:1018400080BCB946F0BD009A1E490198FFF77CFAAA
:101850000120F4E7009B9E001B4B9A594B461B4905
:101860000198FFF771FA0120E9E72000FEF7C4FDB7
:10187000261A3000FEF7C6FD062816D9B01DFEF761
:10188000C1FD2418002812D02000FEF7AFFD241857
:10189000002C0ED0211D2B685B684A462800984713
:1018A000386000280BD00020C9E70020E9E70024B9
:1018B000EEE707490198FFF747FA0120BFE701204B
:1018C000BDE7C04604610310C467031058610310EC
:1018D00090610310F0B583B004000D0017001E00E6
:1018E0000022002312F06AF8002804D000233B6095
:1018F000336003B0F0BD3200200029001CF09CFDD5
:1019000000221D4B12F017F812F07EF912F0E0F8E9
:1019100004000D1E14DC00290ED080231B069C42FF
:1019200010D0002D26DC21D033681F3302DA0023CB
:10193000336000243C60DCE780231B069842ECD92E
:101940001AF0CCFE002DECD1EA0F002312196B41E6
:101950001C001300E10700930194520811430C008E
:10196000019B5D10336801333360DAE780231B0687
:101970009C42D9D31AF0B2FE0000E041F8B506004F
:101980000F0015001C000022094B12F035F800284A
:1019900009D023002A0030003900FFF79BFF23689D
:1019A000002B02DBF8BD1AF099FE1AF097FEC04634
:1019B0000000F03F30B585B011F0BDFF04000D0010
:1019C00080200006089BD84012F02EF822002B0041
:1019D00011F0B1FF00900191094A0A4B0292039362
:1019E00012F00AF8002808D16B46186859680A9B5B
:1019F000099AFFF7C3FF05B030BD02ABF5E7C0465B
:101A00000000C0FFFFFFDF41F0B5C64600B5030090
:101A10000C00012098400138D21A20235B42D318D1
:101A20002BD401259D4001239340984611F0FCFFE3
:101A300006000F004046290012F03EF802000B009D
:101A40003000390011F077FF06000F0020235B42C1
:101A5000E31817D4012199400120A04012F02CF87E
:101A600002000B003000390011F047FF12F01AF9A4
:101A700011F0F2FF80BCB846F0BD20239B1A01256F
:101A8000DD40D0E720231B1B0121D940E4E7000003
:101A900030B58BB0019100929D68DC680395049489
:101AA00001280AD0032820D0022845D00E9B019A95
:101AB0001A600F9B009A1A6013E0291C002012F094
:101AC0009CFC12F0E9FD12F01DFD24180594019B09
:101AD000A34208DB01AB1B680E9A13600F9B009AB0
:101AE0001A600BB030BD05ABF5E7291C002012F0E1
:101AF00084FC12F0D1FD12F005FD20180690019B28
:101B0000834215DB01AB1B680E9A1360291C1E482B
:101B100012F073FC12F0C0FD12F0F4FC24180794CC
:101B2000009BA34206DC6B461B680F9A1360D8E744
:101B300006ABE8E707ABF7E7291C144812F05DFC99
:101B400012F0AAFD12F0DEFC20180890019B8342DF
:101B500016DB01AB1B680E9A1360291CFE20800562
:101B600012F04BFC12F098FD12F0CCFC24180994F2
:101B7000009BA34206DC6B461B680F9A1360B0E71C
:101B800008ABE7E709ABF7E70000C040000080BF03
:101B900010B50B6802CB002A10DB8A4210DA9200E3
:101BA00099584B1C0ED000290EDB8368002B02D005
:101BB0004801181810BD036D9847FBE70020F9E7AE
:101BC0000020F7E70020F5E70020F3E710B54B68A9
:101BD00002CB002A10DB914210DD920099584B1C79
:101BE0000ED000290EDB8368002B02D048011818A4
:101BF00010BD036D9847FBE70020F9E70020F7E7E9
:101C00000020F5E70020F3E710B5FFF7C1FF10BD96
:101C1000F0B5C64600B582B080461D008868916860
:101C200012F001FC041C12F0A7FC06000F000021BA
:101C3000201C12F037FC002810D0A86812F09CFC81
:101C400002000B003000390011F057FE089B1860AD
:101C50005960002002B080BCB846F0BD43465C69C4
:101C6000A123044A00925B00034A04494046A0476E
:101C70000120EFE7386A0310D8690310D060031021
:101C8000F0B5C64600B584B080460D0016001C00B5
:101C90000A9F886812F070FC02900391B06812F0FD
:101CA0006BFC02000B000298039911F044FE0290B5
:101CB0000391002C1AD0A06812F05EFC02000B0009
:101CC0000298039911F007FE02904C006408B8686E
:101CD00012F052FC02000B000298210011F00DFEE0
:101CE0000E4A0F4B11F078FE00280BD00B9B00938F
:101CF0003B00320029004046FFF78AFF04B080BC59
:101D0000B846F0BD43465C693623064A0092FF336D
:101D1000054A06494046A0470120EFE77B14AE473D
:101D2000E17A943F546A0310D8690310D06003101D
:101D300030B583B00D001400127F032A0DD0092A9C
:101D40000ED0072A19D0446976230D4A0092FF333A
:101D50000C4A0D49A04701200DE0FF22002102E0BE
:101D60007F22802149420698019000932300280099
:101D7000FFF78EFE002003B030BD044A0449F2E7AD
:101D8000786A0310D8690310D0600310FF7F000049
:101D90000080FFFFF0B5DE4657464E464546E0B5AB
:101DA0008DB004000D00049205930E78012E14D01E
:101DB00045690123039302967D4B01937D4B00936C
:101DC000D1237D4A7D49A847012630000DB0F0BCE3
:101DD000BB46B246A946A046F0BD049B1F78012F22
:101DE0000CD04569012303930297714B0193744B07
:101DF0000093D323704A7149A847E6E7049B5B68C8
:101E0000002B15D01A689146002A1AD01268934602
:101E1000012A5DDD0A7F092A1CD0072A1AD04569EC
:101E2000684B0093E323644A6749A8473E00CCE728
:101E30004569664B0093DE235F4A6349A8473E002D
:101E4000C3E74569624B0093DF235B4A5E49A847BD
:101E50003E00BAE7049A127F092A0ED06569092369
:101E6000039302925B4B01935B4B0093E523524A31
:101E700052492000A8473E00A7E71E9A93450ED07E
:101E8000656903925B460293544B0193544B009354
:101E9000E623494A49492000A8473E0095E7049AAD
:101EA000526906929B689B00944663445B681E9A45
:101EB00093420DD06569039302924A4B0193474BBD
:101EC0000093E7233C4A3D492000A8473E007CE7B9
:101ED000AB680693169B9B689A464B460433079360
:101EE00000235F461E00A346A84623E04B465868E1
:101EF00012F042FB04000D00069812F03DFB220098
:101F00002B0011F018FD04000D00504612F034FBB8
:101F100002000B002000290011F0EFFC0AAB09AA17
:101F2000FFF7D8FCB3001C9A0999D1501D9A0A9961
:101F3000D15001361E9B9E4205DA012FD6DDB3003B
:101F4000079AD058D4E75C4645462B7F032B08D030
:101F50002B7F092B21D0032B1FD0072B1DD0002650
:101F600033E7002200230A920B930AAB0193169BDE
:101F70000093059B049A41465846FFF781FE061ED2
:101F800000D022E709AB189A0A980B99FFF7A2FC38
:101F9000099B5B42199A1360DAE7179B19781B9B20
:101FA00000931A9B169A2000FFF7C2FE06000CE76A
:101FB0009C6A0310B86A0310D8690310806A031082
:101FC000D46A0310206B0310D0600310F06A031072
:101FD000046B03105C6B0310686B0310786B0310C9
:101FE000886B0310AC6B031010B5002801D000689B
:101FF00010BD1AF073FB002800D00068704710B5C0
:10200000002801D0006810BD1AF068FB002800D03D
:102010000068704710B5002801D0006810BD1AF0A4
:102020005DFB002800D0006870477047084070478B
:102030000841704740187047C043704710B50028EA
:1020400002D00020FFF7F8FF10BD10B50123884231
:1020500000DB00231800FFF7F1FF10BD10B50123CE
:10206000884200DC00231800FFF7E8FF10BD10B520
:10207000002801D0006810BD1AF030FB012808D0FC
:1020800003280BD002280ED00A4B0B600A4B1360BA
:1020900003E000230B60084B1360704700230B60C4
:1020A000064B1360F9E7064B0B60FE239B0513609C
:1020B000F3E7C046FFFF7FFFFFFF7F7F0000C040C8
:1020C000000080BF10B5836B002B02D038219847E9
:1020D00010BD1AF003FB0000F0B5DE4657464E4631
:1020E0004546E0B593B005000C0016001F0021AB7B
:1020F0001B780B930B681B68032B0AD0022B08D0AC
:102100004469664B00935723654A6649A0470120FE
:1021100011E063681B68012B14D06C6901220392E3
:102120000293614B0193614B009358235C4A6049D1
:102130002800A047012013B0F0BCBB46B246A94618
:10214000A046F0BD33789846B3689A4673689946BE
:1021500073699B4633690D931D9A501E5843013095
:102160004346012B3FD0022B45D000230C931E9BEE
:10217000581E5B46584301304346012B43D0022B87
:1021800048D000201E9B013B5A465343013301387F
:10219000524650431B181C9A9B1A42D401211940E5
:1021A000DA0FD3185B100F9311911D9B013B0D9A11
:1021B000534301330C9801384A4650431B18DB1B2C
:1021C00031D401211940DA0FD3185B100EAA0E93F7
:1021D0001091229B83CA83C312681A600B9B012B48
:1021E00023D10020A7E7380048440138494611F0C0
:1021F0000FF90C90BBE73B004B44181A494611F00D
:1022000007F90C90B3E71C9850440138514611F07F
:10221000FFF8B7E71C9B5344181A514611F0F8F821
:10222000B0E70023BAE70023CBE700222100280013
:10223000FFF7AEFC8046012221002800FFF7A8FC32
:102240000700022221002800FFF7DEFC8146002261
:1022500021002800FFF7BAFC7B695B680C36229AE4
:10226000926A0B9208930792229B5B6A0B930693E8
:10227000229B30330593229B2C330493229B2033E3
:102280000393229C1C340294019600904B463A0022
:1022900041462800FFF77EFD4DE7C046546C031011
:1022A000EC6B0310D0600310E0710310786C031026
:1022B000806A0310F0B5DE4657464E464546E0B507
:1022C000AFB004000D008E68002E21D0CB689A4676
:1022D000002B1FD00022FFF75BFC07000122290022
:1022E0002000FFF755FC8146002229002000FFF75F
:1022F0006DFC8046002F0FD0796904C90023269316
:102300002692052A0BDC269B052B0ADD279809E07F
:102310001AF0E4F91AF0E2F90023269305E01AF026
:10232000DDF927A8920012F04BFA4346002B0BD0A0
:10233000596904C9002320932092052A06DC209BBA
:10234000052B05DD219804E0209305E01AF0C6F97D
:1023500021A8920012F034FA269B002B00DC96E0B4
:10236000052B00DC95E0279B1B68209A002A00DCE7
:1023700091E0052A00DC90E0219A12689A4200D090
:102380008DE02D93209A002A00DC8AE0052A00DCEB
:1023900089E0219A12682C92934200DD85E02DABF2
:1023A00019681C917B699A681D92DB6808931E93DB
:1023B000269B032B00DC7AE0052B00DC79E0279BD1
:1023C000DA681F92209B032B00DC74E0052B00DCF5
:1023D00073E0219BDB6818934B465B699868199002
:1023E000D8681A901B9214914246526991681591CF
:1023F000D26808921692209A032A60DD052A60DDD1
:10240000219AD26817925B689B009B4619002000B6
:10241000A36B9847706259462000A36B9847B0623F
:102420001E9B08931D9A09921A9A19991698159B42
:102430009C463B7F06960593634604930390029166
:102440000192099A0092089B524629002000FFF74A
:1024500043FE051E0DD1FB6833614B46DB6873619B
:102460004346DB68B3613A7F092A2CD001235B42E3
:102470007363209B052B4EDC269B052B4DDC28002F
:102480002FB0F0BCBB46B246A946A046F0BD1AF03C
:1024900025F9279B69E71AF021F9219A6EE71AF0CE
:1024A0001DF91AF01BF9219A75E72CAB78E71AF0A1
:1024B00015F92A9A85E71AF011F9249B8BE71AF08F
:1024C0000DF9249A9EE7FA6852420A920B935346FA
:1024D0009B680D9353465B680C9353465B6911935D
:1024E00053461B690893109373680F9333680E93D8
:1024F000F36A1293336B139314AB18AA1CA90AA89E
:102500000BF040F8011EB1DD236C320034322000A4
:1025100098470500ADE71AF0E1F81AF0DFF8F0B5DA
:10252000DE4657464E464546E0B5A3B00F0003923F
:102530009B462D9B0A21425E13920C21425E14920F
:102540000E21425E05921021425E0A920221425EF5
:1025500015920421425E1692026B1092426B0E920B
:102560003A68042A00D080E05A461268042A7ED1D4
:102570002F9A12680092042A7BD13A68002A7ADDE9
:10258000052A7ADD7A6812682F990968002976DDB4
:10259000052976DD2F9949680968914274D1219205
:1025A0002F990968002971DD052971DD2F99496886
:1025B000096820918A426EDC21AA126817923A6853
:1025C000032A6ADD052A6ADD7A68D26859460968F5
:1025D000032966DD052966DD59464968C9689142C7
:1025E00064D11F9259460968032961DD052961DD1F
:1025F00059464968C9681E918A425EDC1FAA126862
:1026000002925A461268002A59DD052A59DD5A46B7
:10261000526812682F990968032955DD052955DD8F
:102620002F994968C968914253D11D922F99096821
:10263000032950DD052950DD2F994968C9681C918F
:102640008A424DDC1DAA12680F922E9A002A4ED0A3
:102650001868052846DD5B6800220121904243DDB1
:102660009400E45861430132F8E71AF037F81AF0A1
:1026700035F81AF033F81AF031F87A6884E71AF06E
:102680002DF82F99496888E71AF028F81AF026F8EB
:102690002F9949688DE720AA8FE71AF01FF83A6949
:1026A00094E71AF01BF85946096998E71AF016F8EA
:1026B0001AF014F8594609699DE71EAA9FE71AF017
:1026C0000DF85A465268A5E71AF008F82F990969DB
:1026D000A9E71AF003F81AF001F82F990969AEE793
:1026E0001CAAB0E70433B7E70F9B8B423AD13B6893
:1026F000012B39DD052B39DD7B685B6808933B686E
:10270000022B36DD052B36DD7B689B6807935B4625
:102710001B68012B32DD052B32DD5B465B685B6895
:1027200009935B461B68022B2EDD052B2EDD5B46D5
:102730005B689B6804932F9B1B68012B2ADD052B8C
:102740002ADD2F9B5B685B6812932F9B1B68022B13
:1027500026DD052B26DD2F9B5B689B6811930023EC
:1027600000933DE119F0BAFF19F0B8FFBB68089378
:10277000C5E719F0B3FFFB680793C8E719F0AEFF90
:102780005B469B680993CCE719F0A8FF5B46DB68C2
:102790000493D0E719F0A2FF2F9B9B681293D4E714
:1027A00019F09CFF2F9BDB681193D8E719F096FF77
:1027B00019F094FF19F092FF19F090FF19F08EFFB5
:1027C00019F08CFF19F08AFF19F088FF19F086FFC5
:1027D00019F084FF4346B046AB461E000136049B09
:1027E0009E4266DA059D7543069BED18F6D4079B5D
:1027F0009D42F3DA4B46002BF0DB089B9945EDDA5E
:102800000024320046465B46AB461D009046029BC4
:102810009C42DFDA3B68042BC8D1009B002BC7DB4E
:102820007A689342C4DA4B46002BC3DBBB689945F8
:10283000C0DA5A46002ABFDBF9688B45BCDA002CA7
:10284000BCDB3A699442B9DA009843434B444B43AA
:102850005B445343E3189B00039A98582B68042B5E
:10286000AED1002EAEDB6B689E42ABDA5346002B36
:10287000AADBAB689A45A7DA4246002AA6DBE968DC
:102880008845A3DA002CA3DB2A699442A0DA7343BB
:1028900053444B4343445343E3189B002C9A9958A9
:1028A00011F0C1FD011C019811F0A2FD019001344D
:1028B000ADE701239C46E244099B9A4507DA0A9B4F
:1028C000524653430B9A91469944002687E72E9B24
:1028D000002B54D043469B002E9AD158019811F0FA
:1028E00087FD2F9B1B680193042B4AD1009B002B73
:1028F00049DB2F9A52680192934244DA0C9B002BD9
:1029000043DB2F9A9568AB423FDA0D9B002B3EDBF1
:102910002F9AD1688B423ADA4346002B39DB2F9B42
:102920001A69904535DA009B5D430C9B9C466544D3
:102930004D430D9B9C46654455434544AD00309B3B
:102940009C466544199010991A910E9B1B9311F0A7
:10295000A3FD00281FD119AC21680E9811F09CFD31
:1029600000281AD123682B6001239C46E0440F9B6A
:10297000984514DA00239A46002301939CE700212E
:10298000ACE719F0ABFE19F0A9FE19F0A7FE19F09B
:10299000A5FE19F0A3FE1AACDEE71BACE2E70D9B27
:1029A00001330D930D9A119B9A4207DA139B5343FF
:1029B000159A9B1A069300239846D8E70C9B01337F
:1029C0000C930C9A129B9A4207DA149B5343169A63
:1029D0009B1A0B9300230D93E4E7009B01330093B4
:1029E000009B179A934202DA00230C93E9E723B085
:1029F000F0BCBB46B246A946A046F0BD30B5044B7C
:102A0000020032CB32C232CB32C212CB12C230BD44
:102A10003C6E0310F0B5DE4657464E464546E0B5DF
:102A2000B7B015001E00107B16AA17A9FFF726FBEA
:102A30002B78012B02D0022B00D0002308AC23708E
:102A4000336863807368A3806B686381AB68A3811C
:102A50002B69E3816B692382179B1493169B159353
:102A6000409918A807F0CDF94098FFF7BDFA8146C4
:102A700041991EA807F0C5F94198FFF7B5FA8246BB
:102A800024AD4299280007F0BCF94298FFF7ACFA50
:102A900083462AAE4599300007F0B3F94598FFF711
:102AA000AAFA804630AF4399380007F0AAF9439854
:102AB000FFF7A1FA069005974346049303965B46F9
:102AC00002930195534600931EAB4A4618A9200075
:102AD000FFF725FD309B052B13DC2A9B052B12DC11
:102AE000249B052B11DC1E9B052B10DC189B052B52
:102AF0000FDC002037B0F0BCBB46B246A946A0466A
:102B0000F0BD19F0EBFD19F0E9FD19F0E7FD19F042
:102B1000E5FD19F0E3FD0000F0B5DE4657464E46F0
:102B20004546E0B5A7B0139114921E00319D339B2A
:102B3000426902920A21425E17920C21425E18926B
:102B40000E21425E04921021425E09920221425EF1
:102B500019920421425E1A92C2691292816A1F91EF
:102B6000C26A1E92914276DC3268042A75D12A68C4
:102B7000042A74D1359A12680092042A71D13268FD
:102B8000002A70DD052A70DD7268126835990968BF
:102B900000296CDD05296CDD359949680968914289
:102BA0006AD1259235990968002967DD052967DD15
:102BB00035994968096824918A4264DC25AA12681B
:102BC0001B923268032A60DD052A60DD7268D268D4
:102BD000296803295DDD05295DDD6968C9689142C1
:102BE0005BD123922968032959DD052959DD6968DC
:102BF000C96822918A4256DC23AA126801922A6887
:102C0000002A52DD052A52DD6A6812683599096882
:102C100003294EDD05294EDD35994968C968914281
:102C20004CD1219235990968032949DD052949DDEF
:102C300035994968C96820918A4246DC21AA126800
:102C40001192349A002A4DD0186805283FDD5B6840
:102C50000022012141E019F041FD19F03FFD19F07A
:102C60003DFD19F03BFD19F039FD72688EE719F052
:102C700035FD3599496892E719F030FD19F02EFDC0
:102C80003599496897E724AA99E719F027FD326931
:102C90009EE719F023FD2969A1E719F01FFD19F03E
:102CA0001DFD2969A5E722AAA7E719F017FD6A68A3
:102CB000ACE719F013FD35990969B0E719F00EFD7D
:102CC00019F00CFD35990969B5E720AAB7E7043377
:102CD000BEE79400E458614301329042F9DC119B55
:102CE0008B4238D13368012B37DD052B37DD736814
:102CF0005B6807933368022B34DD052B34DD736882
:102D00009B6806932B68012B31DD052B31DD6B6849
:102D10005B6808932B68022B2EDD052B2EDD6B687C
:102D20009B680393359B1B68012B2ADD052B2ADD4D
:102D3000359B5B685B681693359B1B68022B26DD11
:102D4000052B26DD359B5B689B68159300273300B8
:102D50003E001F00D6E119F0C1FC19F0BFFCB368BA
:102D60000793C7E719F0BAFCF3680693CAE719F0AE
:102D7000B5FCAB680893CDE719F0B0FCEB680393A2
:102D8000D0E719F0ABFC359B9B681693D4E719F09C
:102D9000A5FC359BDB681593D8E719F09FFC19F06B
:102DA0009DFC19F09BFC19F099FC19F097FC19F0A7
:102DB00095FC19F093FC19F091FC19F08FFC19F0B7
:102DC0008DFCB146464680466046009B9C460130DD
:102DD000039B98426BDA04994143059BC918F6D4CA
:102DE000069B9942F3DA002EF1DB079B9E42EEDA56
:102DF00000220B006146009184464046B0464E4694
:102E00009946019B9A42DCDA3B68042BC5D10099B4
:102E10000029C4DB7B689942C1DA4346002BC0DB42
:102E2000BB689845BDDA4C46002CBCDBFC68A2466A
:102E3000A145B8DA002AB8DB3C69A242B5DA0099AC
:102E40004B43434451464B434B446343D31830995F
:102E5000CC562B68042BAAD10028AADB6B689842B9
:102E6000A7DA002EA7DBAB689E42A4DA61460029F0
:102E7000A3DBE9688B468C459FDA002A9FDB296932
:102E80008A468A429BDA4343F31859464B436344CC
:102E900051464B43D3183299CB5602998A46544433
:102EA0005C431D9B9A4654441D940132A9E70123BB
:102EB0009A46D144089B994507DA099E4B465E43E2
:102EC0000E9B9A465644002082E76646444631955A
:102ED000349B002B06D0A300349A9B581D9A94462D
:102EE00063441D931D98A300139AD2581499CB588C
:102EF000191E00DAB1E0002B00DCB0E000239A4696
:102F00008840824200D1ADE000239846C117D31714
:102F100011F04CFA02000B1E00DAADE08021C90569
:102F20000A91C9170B910A980B9912184B41D9179E
:102F3000490049080C9100210D910C980D99121827
:102F40004B4111005B00CA0F134399464346002BC7
:102F500000D093E05346002B00DA92E01F2B00DDF7
:102F600096E0012098400138FFF75FF88046002086
:102F7000FFF75BF800900120FFF757F883464146C2
:102F80004846FFF753F8050001214046FFF750F887
:102F9000804600994846FFF758F85946FFF746F82B
:102FA00001004046FFF746F8804651464846FFF785
:102FB0003FF8814641462800FFF750F85946FFF791
:102FC00035F801004846FFF735F81D90129B9C46E6
:102FD00060441D901F9B984261DB1DAB1B681D93D5
:102FE0001E9A93425DDC1DAB1A681D92359B1B68CF
:102FF0000093042B57D1002E57DB359B5B68009361
:103000009E4252DA0F99002951DB359B9B68994209
:103010004DDA109900294CDB3598C068814248DAB6
:10302000002C48DB359909698C4244DA73430F9DC3
:10303000AC46634443431098844663444B43E318CF
:103040003699CA540134119B9C4236DA00231D93F1
:103050009946B446A046319D2CE700214BE75B42E0
:103060009A464DE780231B06984202D000239846DB
:103070004CE70123984649E7294951E7294B9946EE
:1030800068E7B321284B294A490029480FF01CF86A
:103090006821284B254AFF3125480FF015F81FAB52
:1030A0009CE71EABA0E719F019FB19F017FB19F00C
:1030B00015FB19F013FB19F011FBB346319D109B62
:1030C00001331093109A159B9A4209DA179B5343C8
:1030D000199A9B1A059300235E461C003195B2E7AE
:1030E0005E460F9B01330F930F9A169B9A4208DAA4
:1030F000189B53431A9A9B1A0E9300231093B346BE
:10310000E0E701361B9B9E4202DA00230F93EBE7B8
:1031100027B0F0BCBB46B246A946A046F0BDC046AB
:10312000010000C0FFFFFF7F8C6C03109C6C03103C
:10313000F86C03105C6D0310F0B5DE4657464E4642
:103140004546E0B5E7B004001D0053694593166994
:103150004496012B01D1012E63D02B695B4230AC28
:103160006361AB69E3619368A381536863815369C9
:1031700023821369E3816B68A3802B686380EB6A09
:10318000A3622B6BE3626B6A9A46AB6A9B467099AB
:1031900048A806F036FE7098FEF731FF09904EAF52
:1031A0007199380006F02DFE7198FEF728FF8046D1
:1031B00054AD7299280006F024FE7298FEF757FF6E
:1031C00081465AAE7399300006F01BFE7398FEF7E5
:1031D0001DFF069005964B460493039543460293C4
:1031E0000197099B009348AB5A4651462000FFF7D0
:1031F00093FC5A9B052B00DD87E1549B052B00DDDA
:1032000085E14E9B052B00DD83E1489B052B00DD0E
:1032100081E1002067B0F0BCBB46B246A946A0469B
:10322000F0BD2B695B423E93AB693F93936841933A
:103230005368099340936B6843932B684293EB6AFE
:1032400046932B6B47936B6A0A93AB6A0B93719906
:103250001EA806F0D6FD709924A806F0D2FD739939
:103260002AA806F0CEFD729930A806F0CAFD469A4B
:10327000479B9A426BDC249B042B6AD11E9B042B38
:1032800069D12A9B042B68D1249B002B67DD052B79
:1032900067DD259B1B682A9A002A64DD052A64DD08
:1032A0002B9A12689A4262D165932A9A002A60DDAD
:1032B000052A60DD2B9A1268649293425DDC65AB4F
:1032C0001B689846249B032B59DD052B59DD259B54
:1032D000DB681E9A032A56DD052A56DD1F9AD2683E
:1032E0009A4254D163931E9A032A52DD052A52DD75
:1032F0001F9AD268629293424FDC63AB1B68994677
:103300001E9B002B4BDD052B4BDD1F9B1B682A9A58
:10331000032A48DD052A48DD2B9AD2689A4246D115
:1033200061932A9A032A44DD052A44DD2B9AD26848
:103330006092934241DC61AB1F687298FEF75FFEBA
:10334000002847D03099052939DD319838E019F047
:10335000C5F919F0C3F919F0C1F919F0BFF919F05D
:10336000BDF9259B97E719F0B9F92B9A9AE719F05F
:10337000B5F919F0B3F92B9A9EE764ABA0E719F001
:10338000ADF9289BA5E719F0A9F9229AA8E719F049
:10339000A5F919F0A3F9229AACE762ABAEE719F0F0
:1033A0009DF91F9BB3E719F099F92E9AB6E719F02A
:1033B00095F919F093F92E9ABAE760ABBCE731A8FA
:1033C000002303E09A001258564301339942F9DC76
:1033D000B74278D143460E93249B012B75DD052B14
:1033E00075DD259B5B680F93249B022B71DD052BFC
:1033F00071DD259B9B6810934B46119312971E9B82
:10340000012B6ADD052B6ADD1F9B5B6813931E9BF6
:10341000022B66DD052B66DD1F9B9B6814934B46D4
:1034200015930123169317931893199743461A93EC
:103430002A9B012B59DD052B59DD2B9B5B681B93C8
:103440002A9B022B55DD052B55DD2B9B9B681C937E
:103450001D9700230C930D93696B002903DB636CAC
:10346000200098470C907098FEF7C9FD04007198F1
:10347000FEF7C5FD05007298FEF7F9FD060073988A
:10348000FEF7C4FD06901AAB0593049616AB0393A2
:10349000029512AB019300940EAB0AAA3EA90CA8A8
:1034A0000AF01AF8002828D1309B052B27DC2A9B2C
:1034B000052B26DC249B052B25DC1E9B052B00DC25
:1034C000A7E619F00BF919F009F919F007F9269B8D
:1034D00089E719F003F9279B8DE719F0FFF8209B86
:1034E00094E719F0FBF8219B98E719F0F7F82C9B6B
:1034F000A5E719F0F3F82D9BA9E719F0EFF819F0FB
:10350000EDF819F0EBF819F0E9F819F0E7F819F00F
:10351000E5F819F0E3F819F0E1F80000F0B5DE463F
:1035200057464E464546E0B5ABB00E0005921D002D
:10353000359B0A21425E1B920C21425E1C920E2199
:10354000425E07921021425E0C920221425E1D9261
:103550000421425E1E924269039282690492C2690A
:103560001892026A1492426A1592816A2391C26A81
:103570002292914276DC3268042A75D12A68042AA4
:1035800074D1379A12680192042A71D13268002AE4
:1035900070DD052A70DD72681268379909680029A4
:1035A0006CDD05296CDD37994968096891426AD15B
:1035B000299237990968002967DD052967DD379960
:1035C0004968096828918A4264DC29AA12681F9216
:1035D0003268032A60DD052A60DD7268D2682968D6
:1035E00003295DDD05295DDD6968C96891425BD10C
:1035F00027922968032959DD052959DD6968C968B9
:1036000026918A4256DC27AA126802922A68002A6A
:1036100052DD052A52DD6A68126837990968032964
:103620004EDD05294EDD37994968C96891424CD174
:10363000259237990968032949DD052949DD37991C
:103640004968C96824918A4246DC25AA1268179203
:10365000369A002A4DD0186805283FDD5B680022A5
:10366000012141E019F03AF819F038F819F036F86C
:1036700019F034F819F032F872688EE719F02EF864
:103680003799496892E719F029F819F027F837991E
:10369000496897E728AA99E719F020F832699EE768
:1036A00019F01CF82969A1E719F018F819F016F8B3
:1036B0002969A5E726AAA7E719F010F86A68ACE718
:1036C00019F00CF837990969B0E719F007F819F003
:1036D00005F837990969B5E724AAB7E70433BEE7C7
:1036E0009400E458614301329042F9DC179B8B420D
:1036F00038D13368012B37DD052B37DD73685B6804
:103700000A933368022B34DD052B34DD73689B6824
:1037100009932B68012B31DD052B31DD6B685B686C
:103720000B932B68022B2EDD052B2EDD6B689B681F
:103730000693379B1B68012B2ADD052B2ADD379B5F
:103740005B685B681A93379B1B68022B26DD052B91
:1037500026DD379B5B689B681993002733003E008A
:103760001F00D8E118F0BAFF18F0B8FFB3680A9349
:10377000C7E718F0B3FFF3680993CAE718F0AEFF84
:10378000AB680B93CDE718F0A9FFEB680693D0E781
:1037900018F0A4FF379B9B681A93D4E718F09EFF9C
:1037A000379BDB681993D8E718F098FF18F096FF5D
:1037B00018F094FF18F092FF18F090FF18F08EFFA9
:1037C00018F08CFF18F08AFF18F088FF18F086FFB9
:1037D000B146464680466046019B9C460130069BAA
:1037E00098426EDA07994143089BC918F6D4099BA1
:1037F0009942F3DA002EF1DB0A9B9E42EEDA0022B8
:103800000B006146019184464046B0464E469946BB
:10381000029B9A42DCDA3B68042BC5D1019900294E
:10382000C4DB7B689942C1DA4346002BC0DBBB682E
:103830009845BDDA4C46002CBCDBFC68A246A1458D
:10384000B8DA002AB8DB3C69A242B5DA01994B43E9
:10385000434451464B434B446343D3180599CC5CD6
:103860002B68042BAAD10028AADB6B689842A7DA40
:10387000002EA7DBAB689E42A4DA61460029A3DBD9
:10388000E9688B468C459FDA002A9FDB29698A46C6
:103890008A429BDA4343F31859464B4363445146EB
:1038A0004B43D3183499CB5C04998A46534403990B
:1038B0008A4654445C43219B9A46544421940132E5
:1038C000A6E701239A46D1440B9B994507DA0C9E43
:1038D0004B465E430D9B9A46564400207FE7664662
:1038E00044460195369B002B06D0A300369A9B5880
:1038F000219A9446634421932198159A131E00DA65
:10390000B4E0159A002A00DCB2E00022924698400A
:10391000149B834200D1AEE000239846C117149A4D
:10392000D31710F043FD02000B1E00DAADE080213A
:10393000C9050E91C9170F910E980F9912184B4196
:10394000D917490049081091002111911098119937
:1039500012184B4111005B00CA0F134399464346AE
:10396000002B00D093E05346002B00DA92E01F2B8F
:1039700000DD96E0012098400138FEF756FB8046B6
:103980000020FEF752FB16900120FEF74EFB834607
:1039900041464846FEF74AFB050001214046FEF736
:1039A00047FB804616994846FEF74FFB5946FEF7FF
:1039B0003DFB01004046FEF73DFB80465146484630
:1039C000FEF736FB814641462800FEF747FB594685
:1039D000FEF72CFB01004846FEF72CFB2190189BBC
:1039E0009C4660442190239B984261DB21AB1B687D
:1039F0002193229A93425DDC21AB1A682192379B76
:103A00001B681693042B57D1002E57DB379B5B683E
:103A100016939E4252DA1299002951DB379B9B681C
:103A200099424DDA139900294CDB3798C0688142DE
:103A300048DA002C48DB379909698C4244DA734331
:103A4000129DAC46634443431398844663444B43FE
:103A5000E3183899CA540134179B9C4236DA002384
:103A600021939946B446A046019D2DE7002348E7DF
:103A7000524292464BE780231B06984202D0002315
:103A800098464BE70123984648E7294951E7294BD7
:103A9000994668E7B321284B284A490028480EF088
:103AA00013FB6821274B254AFF3125480EF00CFBFC
:103AB00023AB9CE722ABA0E718F010FE18F00EFE37
:103AC00018F00CFE18F00AFE18F008FEB346019D2F
:103AD000139B01331393139A199B9A4209DA1B9B88
:103AE00053431D9A9B1A089300235E461C000195C0
:103AF000B2E75E46129B01331293129A1A9B9A42C6
:103B000008DA1C9B53431E9A9B1A0D9300231393B0
:103B1000B346E0E701361F9B9E4202DA0023129370
:103B2000EBE72BB0F0BCBB46B246A946A046F0BDC1
:103B3000010000C0FFFFFF7F8C6C03109C6C031022
:103B4000F86C03105C6D0310F0B5DE4657464E4628
:103B50004546E0B5B5B019694D42596948429E697C
:103B60001178012902D0022900D0002108AC21706F
:103B7000196861805968A180516861819168A1814B
:103B80001169E181526922820D950E900F96DA69D2
:103B900010921A6A52421192DA6A12921B6B1393B4
:103BA0003E9916A806F02DF93E98FEF733FA8146A5
:103BB0003F991CA806F025F93F98FEF72BFA82469C
:103BC00022AD4099280006F01CF94098FEF74FFA04
:103BD000834628AE4399300006F013F94398FEF768
:103BE00020FA80462EAF4199380006F00AF9419834
:103BF000FEF717FA002307930690059743460493B0
:103C000003965B4602930195534600931CAB4A46CC
:103C100016A92000FFF782FC2E9B052B13DC289BA6
:103C2000052B12DC229B052B11DC1C9B052B10DCC9
:103C3000169B052B0FDC002035B0F0BCBB46B2460E
:103C4000A946A046F0BD18F049FD18F047FD18F050
:103C500045FD18F043FD18F041FD0000F0B5CE46DB
:103C6000474680B587B004000D00CB689946002810
:103C700039D0002939D00B685968436D9847060040
:103C8000002C34D0002D34D02B6899682000636D4F
:103C9000984707002B681B68032B2CD000239846FD
:103CA000002C37D0002D37D06B6859682000636D29
:103CB0009847AB68002B31D0327A017A8A422FD0F4
:103CC0006569D32303910292374A0192374A0092E1
:103CD0005B00374A37492000A847012007B0C0BC25
:103CE000B946B046F0BD18F0F9FC18F0F7FC18F032
:103CF000F5FC18F0F3FC002C08D0002D08D02B6840
:103D0000D9682000636D98478046C9E718F0E6FC43
:103D100018F0E4FC18F0E2FC18F0E0FC18F0DEFC0F
:103D2000397A8A4205D063692349200098470120E7
:103D3000D4E7032A2AD0092A1BD0012A0AD06569B0
:103D40001000FCF7BDFF0200337A1C492000A84791
:103D50000120C3E70590002204920392424602929A
:103D6000019700964A4629002000FEF753FE0020E6
:103D7000B4E7002204920390424602920197009613
:103D80004A4629002000FFF7D7F9A7E7059000224F
:103D90000492039242460292019700964A462900F5
:103DA0002000FFF7D1FE99E76C6D03107C6D0310C6
:103DB000EC6B0310806A0310886D0310206E0310F3
:103DC00010B5836B002B02D03821984710BD18F036
:103DD00085FC0000F0B5DE4657464E464546E0B548
:103DE00091B005000C0016000B931DAB1B78984694
:103DF0000B681B68032B0AD0022B08D044695F4B69
:103E0000009349235E4A5F49A047012011E063689F
:103E10001B68012B14D06C690122039202935A4B48
:103E200001935A4B00934A23554A59492800A04709
:103E3000012011B0F0BCBB46B246A946A046F0BD79
:103E400001235B421E9A5363B3689B4673689A468C
:103E50003778012F34D0022F3AD000239946012F12
:103E60003FD0022F45D00023013B5A4653431C9AB2
:103E7000944663441A9A9B1A44D401211940DA0FDC
:103E8000D3185B100D930F914846013853465843A1
:103E90001B9B9C4660440B9BC71A35D401213940BB
:103EA000FB0FDF197F100CAA0C970E911E9B83CA83
:103EB00083C312681A604346012B27D10020B8E75C
:103EC0000B985044013819000FF0A2FA8146C6E75A
:103ED0000B9850441B9BC01A51460FF099FA81462B
:103EE000BDE71A985844013859460FF091FA03007B
:103EF000BAE71A9858441C9BC01A59460FF088FA22
:103F00000300B1E70023B8E70027C7E7002221003C
:103F10002800FDF73DFE8046012221002800FDF724
:103F200037FE0700022221002800FDF76DFE8146C2
:103F3000002221002800FDF749FE7B691B6910362D
:103F40001E9A926A0B92089307921E9B5B6A0B93D0
:103F500006931E9B303305931E9B2C3304931E9BAC
:103F6000203303931E9C1C340294019600904B4610
:103F70003A0041462800FDF70DFF5AE7546C031044
:103F80005C6E0310D0600310E0710310786C0310B6
:103F9000806A0310F0B5DE4657464E464546E0B50A
:103FA000BBB004000D008F68002F56D0CB689A4636
:103FB000002B54D00022FDF7EBFD06000122290062
:103FC0002000FDF7E5FD8046002229002000FDF7D6
:103FD000FDFD0A90337F9B467369DA6806929B6801
:103FE000079343465B69DA6808929A6809925A46D1
:103FF000092A36D01B699B00994619002000A36B43
:104000009847786249462000A36B9847B8620497A6
:104010005B460393099B0293089B0193079B0093C4
:10402000069B524629002000FFF7D4FE8146002857
:104030000BD1F3683B614346DB687B610A9BDB681D
:104040000B93BB61337F092B65D048463BB0F0BC76
:10405000BB46B246A946A046F0BD18F03FFB18F09B
:104060003DFB424612789146012A0FD06569012333
:1040700003930292C34B0193C34B00938023C34A23
:10408000C3492000A84701239946DEE7424652680B
:10409000002A14D0116800291AD05068002820D0B6
:1040A0000A68012A26D019698A4223D06569B94B6A
:1040B00000938A23B54AB8492000A847C5E7656937
:1040C000B64B00938723B14AB3492000A847BCE709
:1040D0006569B34B00938823AC4AAF492000A847D9
:1040E000B3E76569AF4B00938923A84AAA4920002A
:1040F000A847AAE701688A4200D17BE76569039176
:104100000292A94B0193A94B00938E239F4AA04989
:104110002000A84799E7002E00D1D3E0716904C9B7
:10412000002319931992052A00DDCEE0199B052B77
:1041300000DCCCE01A98920010F042FB0A9B002BA6
:1041400000D1C6E00A9B596904C900231F931F923E
:10415000052A00DDBFE01F9B052B00DCBDE0209899
:10416000920010F02DFB4346002B00D1B7E05969B7
:1041700004C9002325932592052A00DDB1E0259B83
:10418000052B00DCAFE02698920010F019FB199B7C
:10419000042B00D0A9E0259B042B00D0A7E01F9B97
:1041A000042B00D0A5E0199B002B00DCA3E0052B1D
:1041B00000DCA2E01A9B1B681F9A002A00DC9EE02C
:1041C000052A00DC9DE0209A12689A4200D09AE00D
:1041D00039931F9A002A00DC97E0052A00DC96E05C
:1041E000209A12683892934200DD92E039AB1B6846
:1041F0001F9A032A00DC8EE0052A00DC8DE0209A5D
:10420000D2682599032900DC89E0052900DC88E0D3
:104210002699C968914200D085E0379225990329F3
:1042200000DC82E0052900DC81E02699C96836912E
:104230008A427EDC37AA1268012B7CD10D93079944
:104240000E9106990F911999032976DD052976DDDE
:104250001A99C9681091012111910999129108992F
:104260001391149215931F9B012B6ADD052B6ADDB8
:10427000209B5B6816931F9B022B66DD052B66DD7A
:10428000209B9B68179318927B6831933B6830930F
:1042900015AB11AA0DA92BA80AF0E5FB011E5EDDE6
:1042A000236C3A0034322000984700285AD0259BCE
:1042B000052B4EDC1F9B052B4DDC199B052B4CDC85
:1042C0008146C2E60023199338E718F007FA1AA8C6
:1042D00031E71F9347E718F001FA20A840E725933C
:1042E00055E718F0FBF926A84EE718F0F7F918F093
:1042F000F5F918F0F3F918F0F1F91A9B5CE718F0EA
:10430000EDF9209A61E718F0E9F918F0E7F9209A39
:1043100068E738AB6BE718F0E1F9239A71E718F01A
:10432000DDF9299976E718F0D9F918F0D7F9299924
:104330007DE736AA7FE718F0D1F918F0CFF91D997B
:1043400088E718F0CBF9219B94E718F0C7F9229B76
:1043500098E718F0C3F918F0C1F918F0BFF9012374
:104360005B427B63259B052B08DC1F9B052B07DC31
:10437000199B052B00DC68E618F0B0F918F0AEF9CF
:1043800018F0ACF99C6A0310D46A03105C6E031039
:10439000806A0310EC6E0310D0600310F06A031003
:1043A000046B0310CC6E0310706F0310886B031046
:1043B000F0B5DE4657464E464546E0B5A3B08846C2
:1043C0000A929A462D9B0A21425E11920C21425E6E
:1043D00012920E21425E93461021425E009202210B
:1043E000425E13920421425E14921221425E1092A8
:1043F0000F92026B1592426B0E9242461268042A8B
:1044000000D0B9E052461268042A00D0B6E02F9AD4
:1044100012680192042A00D0B2E042461268002AD3
:1044200000DCAFE0052A00DCAEE0424652681268CC
:104430002F990968002900DCA9E0052900DCA8E023
:104440002F9949680968914200D0A5E021922F99DF
:104450000968002900DCA1E0052900DCA0E02F9913
:104460004968096820918A4200DD9CE021AA12680F
:10447000199252461268032A00DC96E0052A00DCF5
:1044800095E052465268D2682F990968032900DCEA
:1044900090E0052900DC8FE02F994968C9689142B6
:1044A00000D08CE01F922F990968032900DC88E076
:1044B000052900DC87E02F994968C9681E918A4266
:1044C00000DD83E01FAA156842461268012A7FDDDD
:1044D000052A7FDD424652685268029242461268BF
:1044E000022A7BDD052A7BDD4246526892680192F2
:1044F00042461268032A77DD052A77DD4246526874
:10450000D268169252461268012A73DD052A73DDBD
:10451000524652685268069252461268022A6FDD6D
:10452000052A6FDD52465268926891462F9A1268AA
:10453000012A6BDD052A6BDD2F9A526852681892AA
:104540002F9A1268022A67DD052A67DD2F9A5268C2
:1045500092681792169A10994A43AA4262D1186833
:10456000052861DD5B680022012190425EDD940038
:10457000E45861430132F8E718F0B0F818F0AEF8EB
:1045800018F0ACF818F0AAF84246526850E718F054
:10459000A5F82F99496856E718F0A0F818F09EF88A
:1045A0002F9949685EE720AA61E718F097F852460C
:1045B000126969E718F092F82F9909696FE718F006
:1045C0008DF818F08BF82F99096977E71EAA7AE71A
:1045D00018F084F84246926802927FE718F07EF85D
:1045E0004246D268019283E718F078F84246126991
:1045F000169287E718F072F85246926806928BE797
:1046000018F06CF85246D26891468FE718F066F8B9
:104610002F9A9268189293E718F060F82F9AD26850
:10462000179297E718F05AF804339CE78D4206D1A9
:10463000002304935346CA46D9469B462CE118F002
:104640004DF818F04BF818F049F818F047F818F042
:1046500045F818F043F818F041F818F03FF818F052
:104660003DF818F03BF818F039F80134BC426BDA29
:10467000009A72434244534663435B19F5D401994F
:104680008B42F2DA002AF0DB02998A42EDDA4946DF
:1046900009680429D5D104990029D4DB484640682B
:1046A0008142D0DA002AD0DB494689688C468A42AA
:1046B000CBDA002BCBDB4946C96808918B42C6DABE
:1046C00007980028C5DB4946096909918842C0DA84
:1046D0006046049948438446624408994A439B18BB
:1046E000099A5343079A944663449B000A9A985840
:1046F0005B461B68042BAED15B465B68002BACDDD0
:10470000002EACDB5B469B689E42A8DA002CA8DB3F
:104710005B46DB689C42A4DA03990029A3DB5A4676
:10472000126991429FDA7343E3185343039A944604
:1047300063449B002C9A99580FF075FE011C059854
:104740000FF056FE059090E70136069B9E4201DA77
:1047500000248BE72E9B002B67D0039B9B002E9A97
:10476000D15805980FF044FE2F9B1B680593042B2E
:104770005DD1049B002B5CDB2F9A5268059293421B
:1047800057DA0B9B002B56DB2F9A9468A34252DA20
:104790000C9B002B51DB2F9AD1688B424DDA039B87
:1047A000002B4CDB2F9A1269934248DA049B5C433E
:1047B0000B9B9C4664444C430C9B9C466444544372
:1047C000039B9C466444A400309B9C4664441B901D
:1047D00015991C910E9B1D930FF05EFE002830D1A1
:1047E0001BAD29680E980FF057FE00282BD12B68BF
:1047F00023600D9B01330D930D9A0F9B9A4224DA8F
:10480000109B07994B43944663440393119D0C9B63
:104810005D43139BED1A129B0B9A5343149A9B1AF8
:1048200098460026002305938FE7002199E717F0AB
:1048300055FF17F053FF17F051FF17F04FFF17F018
:104840004DFF1CADCDE71DADD1E7079B01330793AD
:10485000079B169A934202DA00230D93CCE70C9B38
:1048600001330C930C9B179A934202DA00230793AF
:10487000EEE7C846D146BA460B9B01330B930B9B20
:10488000189A934205DA00230C935746CA46C1464C
:10489000E8E7049B01330493049B199A934202DADC
:1048A00000230B93EBE723B0F0BCBB46B246A9460E
:1048B000A046F0BD30B5044B020032CB32C232CB41
:1048C00032C212CB12C230BD986F0310F0B5CE4683
:1048D000474680B5B1B015001E00107C16AA17A976
:1048E000FDF7CCFB06AC012323703368638073684B
:1048F000A3806B686381AB68A3816B69E381AB695B
:104900002382EB686382179B1293169B139338994B
:1049100018A805F076FA3898FDF766FB80463999B5
:104920001EA805F06EFA3998FDF75EFB814624ADAE
:104930003A99280005F065FA3A98FDF755FB07000B
:104940002AAE3B99300005F05CFA3B98FDF753FB2B
:1049500004900396029701954B4600931EAB424686
:1049600018A92000FFF724FD2A9B052B0DDC249BB2
:10497000052B0CDC1E9B052B0BDC189B052B0ADC86
:1049800031B0C0BCB946B046F0BD17F0A7FE17F075
:10499000A5FE17F0A3FE17F0A1FE0000F0B5DE465D
:1049A00057464E464546E0B5A9B019911A929B4626
:1049B000339B9A46359B0A21425E14920C21425E3B
:1049C00015920E22875E1022855E0221425E1692AB
:1049D0000421425E17921221425E139212924269A2
:1049E0000A92C2691892816A2391C26A2292584639
:1049F0000068042800D0BEE050460068042800D0BB
:104A0000BBE0379800680190042800D0B7E09142DD
:104A100000DDB6E05A461268002A00DCB3E0052A41
:104A200000DCB2E05A4652681268379909680029DA
:104A300000DCADE0052900DCACE037994968096885
:104A4000914200D0A9E0279237990968002900DC3B
:104A5000A5E0052900DCA4E037994968096826919A
:104A60008A4200DDA0E027AA12681F92524612680F
:104A7000032A00DC9AE0052A00DC99E052465268DD
:104A8000D26837990968032900DC94E0052900DC25
:104A900093E037994968C968914200D090E0259227
:104AA00037990968032900DC8CE0052900DC8BE0DC
:104AB00037994968C96824918A4200DD87E025AAB0
:104AC000126894465A461268012A00DC81E0052AE1
:104AD00000DC80E05A465268526805925A461268D5
:104AE000022A7CDD052A7CDD5A465268926890468F
:104AF0005A461268032A78DD052A78DD5A4652683C
:104B0000D2681B9252461268012A74DD052A74DDB0
:104B1000524652685268079252461268022A70DD65
:104B2000052A70DD524652689668379A1268012A43
:104B30006CDD052A6CDD379A526852681D92379AEF
:104B40001268022A68DD052A68DD379A5268926881
:104B50001C921B9A13994A43624563D11868052831
:104B600062DD5B680022012190425FDD9400E45821
:104B700061430132F8E717F0B1FD17F0AFFD17F010
:104B8000ADFD17F0ABFD17F0A9FD5A4652684CE792
:104B900017F0A4FD3799496852E717F09FFD17F009
:104BA0009DFD379949685AE726AA5DE717F096FDFB
:104BB0005246126965E717F091FD379909696BE76D
:104BC00017F08CFD17F08AFD3799096973E724AA5D
:104BD00076E717F083FD5A46926805927EE717F054
:104BE0007DFD5A46D268904682E717F077FD5A4617
:104BF00012691B9286E717F071FD52469268079280
:104C00008AE717F06BFD5246D6688EE717F066FD0F
:104C1000379A92681D9292E717F060FD379AD26832
:104C20001C9296E717F05AFD04339BE78C4513D18D
:104C3000002306932C003D00C146D846D346B24619
:104C4000069B1F9A934200DBF3E100230B935B4624
:104C50003393C3469846D8E117F040FD17F03EFD68
:104C600017F03CFD17F03AFD17F038FD17F036FD50
:104C700017F034FD17F032FD17F030FD17F02EFD60
:104C800017F02CFD0132AA426CDA3900614341442D
:104C9000019B534302981B18F4D45345F2DA0029C0
:104CA000F0DB05988142EDDA584600680428D5D13A
:104CB00006980028D4DB5E467668B042D0DA002938
:104CC000D0DB5846806881468142CBDA002BCBDBB3
:104CD0005846C06808908342C6DA03980028C5DBAE
:104CE00058460069060009900398B042BEDA48466B
:104CF000069E704381464944089841435B180999D0
:104D00004B43039989464B443299C95663461B6805
:104D1000042BADD163465B68002BABDD002CABDB15
:104D200063469B689C42A7DA002AA7DB6346DB68E0
:104D30009A42A3DA04980028A2DB66463669B0429C
:104D40009EDA6343D3187343049881464B443498E6
:104D5000C3560A98814649445943219B9946494480
:104D600021918FE7019E02980134079B9C4203DA50
:104D700000220196029086E72C0035003E005B463B
:104D8000D34667469A46369B002B07D0049B9B0070
:104D9000369A9B58219A9446634421932198049B08
:104DA0009B00199AD2581A99CB58191E00DAD4E0F0
:104DB000002B00DCD3E0002398468840824200D1DB
:104DC000D0E000230193C117D3170FF0EFFA0200D0
:104DD0000B1E00DAD0E08021C9050E91C9170F9192
:104DE0000E980F9912184B41D91749004908109194
:104DF000002111911098119912184B4111005B007C
:104E0000CA0F13439946019B002B00D0B6E04346DE
:104E1000002B00DAB5E01F2B00DDB9E0012098403F
:104E20000138FDF702F901900020FDF7FEF8089027
:104E30000120FDF7FAF8029001994846FDF7F6F8CF
:104E4000099001210198FDF7F3F80190089948466F
:104E5000FDF7FBF80299FDF7E9F801000198FDF76D
:104E6000E9F8019041464846FDF7E2F8804601998D
:104E70000998FDF7F3F80299FDF7D8F801004046CC
:104E8000FDF7D8F82190189B9C4660442190239B05
:104E9000984200DA83E021AB1B682193229A934267
:104EA0007FDC21AB19682191379B1B680193042B90
:104EB00079D1069B002B78DB379A52680192934296
:104EC00073DA0B9A002A72DB379B9B689A426EDA80
:104ED0000C9A002A6DDB3798C0688446824268DAF3
:104EE000049A002A67DB37980069824263DA069ADF
:104EF00053430B9A90464344624653430C9A94465C
:104F000063444343049A94466344389AD1540D9BB6
:104F100001330D930D9A129B9A424EDA139B03991B
:104F20004B4394466344049314980C9B5843169B3C
:104F3000C01A159B0B9A5343179A9B1A9846002345
:104F400021939C465346DA46339737002E002500BE
:104F50006446339A94469B4607E7002128E75B4264
:104F600098462AE780231B06984202D0002301932B
:104F700029E70123019326E731492EE7314B994672
:104F800045E7B321304B314A490031480DF09CF8D8
:104F90006821304B2D4AFF312D480DF095F823AB99
:104FA0007AE722AB7EE717F099FB17F097FB17F033
:104FB00095FB17F093FB17F091FBD346B246B8462A
:104FC000039B01330393039B1B9A934207DA00234D
:104FD0000D935646DA461E9B9B4647469AE7A146E6
:104FE0002C000C9B01330C930C9B1C9A934204DA0B
:104FF0000023039325004C46E5E725005446CA46A6
:105000001E9B99460B9B01330B930B9B1D9A93425E
:1050100007DA00230C934B461E93D146A2462C0080
:10502000E2E743463393D8469B46069B01330693FB
:1050300006E629B0F0BCBB46B246A946A046F0BD84
:10504000010000C0FFFFFF7F8C6C03109C6C0310FD
:10505000F86C03105C6D0310F0B5DE4657464E4603
:105060004546E0B5E9B004001D00936949935669CF
:105070004896012B01D1012E68D031AC0123237059
:105080002B6863806B68A380536863819368A381F6
:10509000E68193692382D36863822B695B426361F3
:1050A0000023A361AB69E36180235B42A362FF330A
:1050B000E3626B6A9A46AB6A9B4672994CA804F00D
:1050C000A0FE7298FCF79BFF099052AF73993800CD
:1050D00004F097FE7398FCF792FF804658AD7499E0
:1050E000280004F08EFE7498FCF7C1FF81465EAE86
:1050F0007599300004F085FE7598FCF787FF0690DF
:1051000005964B4604930395434602930197099BEA
:1051100000934CAB5A4651462000FFF73FFC5E9B84
:10512000052B00DD63E1589B052B00DD61E1529BFF
:10513000052B00DD5FE14C9B052B00DD5DE169B0D7
:10514000F0BCBB46B246A946A046F0BD2B695B4207
:105150004193AB69429393684593536844936B685A
:1051600047932B68469380235B424A93FF334B93CC
:10517000D368099343936B6A0B93AB6A0C9373994F
:105180001FA804F03EFE729925A804F03AFE759916
:105190002BA804F036FE749931A804F032FE4A9A26
:1051A0004B9B9A4244DC259B002B43DD052B43DDC2
:1051B000269B1B682B9A002A40DD052A40DD2C9A8D
:1051C00012689A423ED167932B9A002A3CDD052A49
:1051D0003CDD2C9A12686692934239DC67AB1B68FF
:1051E00098461F9B032B35DD052B35DD209BDB68A7
:1051F0002B9A032A32DD052A32DD2C9AD2689A4294
:1052000030D165932B9A032A2EDD052A2EDD2C9AA8
:10521000D268649293422BDC65AB1F687498FCF7EC
:10522000EEFE002832D03199052923DD329822E0A4
:1052300017F054FA17F052FA269BBBE717F04EFA14
:105240002C9ABEE717F04AFA17F048FA2C9AC2E7F0
:1052500066ABC4E717F042FA239BC9E717F03EFAA2
:105260002F9ACCE717F03AFA17F038FA2F9AD0E7CE
:1052700064ABD2E732A8002303E09A0012585643E9
:1052800001339942F9DCB74200D086E043460F93E0
:10529000259B012B00DC82E0052B00DC81E0269BB6
:1052A0005B681093259B022B7DDD052B7DDD269B06
:1052B0009B681193259B032B79DD052B79DD269BBC
:1052C000DB6812931F9B002B75DD052B75DD209B82
:1052D0001B6813931F9B012B71DD052B71DD209B38
:1052E0005B6814931F9B022B6DDD052B6DDD209BEE
:1052F0009B681593169701231793189319931A9780
:1053000043461B932B9B012B61DD052B61DD2C9B01
:105310005B681C932B9B022B5DDD052B5DDD2C9BBD
:105320009B681D931E9700230D930E93696B0029B4
:1053300003DB636C200098470D907298FCF75FFECA
:1053400004007398FCF75BFE05007498FCF78FFE71
:1053500006007598FCF75AFE06901BAB0593049661
:1053600017AB0393029513AB019300940FAB0BAAF9
:1053700041A90DA809F037FB002830D1319B052B3E
:105380002FDC2B9B052B2EDC259B052B2DDC1F9B5F
:10539000052B00DCD3E617F0A1F917F09FF917F001
:1053A0009DF9279B7DE717F099F9289B81E717F076
:1053B00095F9299B85E717F091F9209B89E717F06C
:1053C0008DF9219B8DE717F089F9229B91E717F062
:1053D00085F92D9B9DE717F081F92E9BA1E717F02A
:1053E0007DF917F07BF917F079F917F077F917F0D5
:1053F00075F917F073F917F071F917F06FF90000EC
:10540000F0B5DE4657464E464546E0B5ABB08B4656
:105410000C929A46359B0A21425E18920C21425EFC
:1054200019920E22875E1022855E0221425E1A9238
:105430000421425E1B921221425E17921692816AEB
:105440002591C26A249244690A9484690B94C469C0
:105450001C94046A1494406A159058460068042805
:1054600000D0BEE050460068042800D0BBE037986A
:1054700000680190042800D0B7E0914200DDB6E05A
:105480005A461268002A00DCB3E0052A00DCB2E0CC
:105490005A465268126837990968002900DCADE065
:1054A000052900DCACE0379949680968914200D0D1
:1054B000A9E0299237990968002900DCA5E00529AF
:1054C00000DCA4E037994968096828918A4200DD28
:1054D000A0E029AA1268219252461268032A00DC31
:1054E0009AE0052A00DC99E052465268D268379962
:1054F0000968032900DC94E0052900DC93E0379972
:105500004968C968914200D090E0279237990968AC
:10551000032900DC8CE0052900DC8BE03799496821
:10552000C96826918A4200DD87E027AA126894465E
:105530005A461268012A00DC81E0052A00DC80E07E
:105540005A465268526804925A461268022A7CDD12
:10555000052A7CDD5A465268926890465A4612687F
:10556000032A78DD052A78DD5A465268D2681D92F2
:1055700052461268012A74DD052A74DD52465268CB
:105580005268079252461268022A70DD052A70DDC1
:10559000524652689668379A1268012A6CDD052ACD
:1055A0006CDD379A526852681F92379A1268022A45
:1055B00068DD052A68DD379A526892681E921D9A46
:1055C00017994A43624563D11868052862DD5B6814
:1055D0000022012190425FDD9400E45861430132D2
:1055E000F8E717F07BF817F079F817F077F817F06D
:1055F00075F817F073F85A4652684CE717F06EF8D2
:105600003799496852E717F069F817F067F8379942
:1056100049685AE728AA5DE717F060F85246126910
:1056200065E717F05BF8379909696BE717F056F8EB
:1056300017F054F83799096973E726AA76E717F047
:105640004DF85A46926804927EE717F047F85A469A
:10565000D268904682E717F041F85A4612691D92C7
:1056600086E717F03BF85246926807928AE717F0F0
:1056700035F85246D6688EE717F030F8379A9268B8
:105680001F9292E717F02AF8379AD2681E9296E78F
:1056900017F024F804339BE78C450ED100230693C2
:1056A0002C003D00C146D046B246069B219A93424B
:1056B00000DBEBE100230D93D8E117F00FF817F0B2
:1056C0000DF817F00BF817F009F817F007F817F0B6
:1056D00005F817F003F817F001F816F0FFFF16F0C1
:1056E000FDFF16F0FBFF0132AA426FDA3900614379
:1056F0004144019B534302981B18F4D45345F2DAFA
:105700000029F0DB04988142EDDA5846006804284D
:10571000D5D106980028D4DB5E467668B042D0DA50
:105720000029D0DB5846806881468142CBDA002BC5
:10573000CBDB5846C06808908342C6DA039800283D
:10574000C5DB58460069060009900398B042BEDAEE
:105750004846069E704381464944089841435B1879
:1057600009994B43039989464B440C99C95C63469C
:105770001B68042BADD163465B68002BABDD002CAE
:10578000ABDB63469B689C42A7DA002AA7DB634633
:10579000DB689A42A3DA05980028A2DB66463669E0
:1057A000B0429EDA6343D3187343059881464B4455
:1057B0003498C35C0B9881464B440A98814649440F
:1057C0005943239B9946494423918CE7019E0298B3
:1057D0000134079B9C4203DA00220196029083E782
:1057E0002C0035003E005B46D34667469A46369B02
:1057F000002B07D0059B9B00369A9B58239A944612
:10580000634423932398159A131E00DAD6E0159A61
:10581000002A00DCD4E0002290469840149B83428A
:1058200000D1D0E000230193C117149AD3170EF0D2
:10583000BDFD02000B1E00DACFE08021C9051091EA
:10584000C91711911098119912184B41D917490095
:1058500049081291002113911298139912184B4183
:1058600011005B00CA0F13439946019B002B00D027
:10587000B5E04346002B00DAB4E01F2B00DDB8E0B2
:10588000012098400138FCF7D0FB01900020FCF784
:10589000CCFB08900120FCF7C8FB02900199484618
:1058A000FCF7C4FB099001210198FCF7C1FB0190B2
:1058B00008994846FCF7C9FB0299FCF7B7FB0100C1
:1058C0000198FCF7B7FB019041464846FCF7B0FB56
:1058D000804601990998FCF7C1FB0299FCF7A6FBE9
:1058E00001004046FCF7A6FB23901C9B9C466044AD
:1058F0002390259B984200DA82E023AB1B68239318
:10590000249A93427EDC23AB19682391379B1B6852
:105910000193042B78D1069B002B77DB379A5268D2
:105920000192934272DA0D9A002A71DB379B9B68D1
:105930009A426DDA0E9A002A6CDB3798C06884466A
:10594000824267DA059A002A66DB3798006982424C
:1059500062DA069A53430D9A904643446246534393
:105960000E9A944663444343059A94466344389A96
:10597000D1540F9B01330F930F9A169B9A424DDA25
:10598000179B03994B4394466344059318980E9BC9
:1059900058431A9BC01A199B0D9A53431B9A9B1A82
:1059A0009846002323939C465346DA463A00370034
:1059B0002E002500644694469B460AE7002326E70E
:1059C0005242904629E780231B06984202D00023CA
:1059D000019329E70123019326E730492FE7304B54
:1059E000994646E7B3212F4B2F4A49002F480CF028
:1059F0006BFB68212E4B2C4AFF312C480CF064FBCA
:105A000025AB7BE724AB7FE716F068FE16F066FE59
:105A100016F064FE16F062FE16F060FED346B24643
:105A2000B846039B01330393039B1D9A934207DA05
:105A300000230F935646DA46209B9B4647469BE73A
:105A4000A1462C000E9B01330E930E9B1E9A93428F
:105A500004DA0023039325004C46E5E7250054466D
:105A6000CA46209B99460D9B01330D930D9B1F9AAF
:105A7000934207DA00230E934B462093D146A24669
:105A80002C00E2E7069B013306930EE62BB0F0BC38
:105A9000BB46B246A946A046F0BDC046010000C0C4
:105AA000FFFFFF7F8C6C03109C6C0310F86C0310DD
:105AB0005C6D0310F0B5DE4657464E464546E0B5F0
:105AC000DFB019694C425969484236A901250D7069
:105AD0001D684D805D688D8055684D8195688D810C
