:020000041000EA
:1000000000B5324B212058609868022188439860DF
:10001000D860186158612E4B002199600221596106
:100020000121F02299502B49196001219960352056
:1000300000F044F80222904214D00621196600F024
:1000400034F8196E01211966002018661A6600F04E
:100050002CF8196E196E196E052000F02FF8012189
:100060000842F9D1002199601B49196000215960AB
:100070001A491B48016001219960EB211966A021F2
:10008000196600F012F800219960164914480160C1
:100090000121996001BC002800D000471248134993
:1000A000086003C880F30888084703B5996A0420EC
:1000B0000142FBD001200142F8D103BD02B5186610
:1000C0001866FFF7F2FF186E186E02BD00000240BE
:1000D000000000180000070000035F00212200005C
:1000E000F4000018222000A00001001008ED00E03C
:1000F00000000000000000000000000074B24E7A12
:1001000000200420F7010010C3010010C5010010F9
:10011000C1010010C1010010C1010010C101001097
:10012000C1010010C1010010C1010010C701001081
:10013000C1010010C1010010C9010010CB01001065
:10014000CD010010CD010010CD010010CD01001037
:10015000CD010010CD010010CD010010CD01001027
:10016000CD010010CD010010CD010010CD01001017
:10017000CD010010CD010010CD010010CD01001007
:10018000CD010010CD010010CD010010CD010010F7
:10019000CD010010CD010010CD010010CD010010E7
:1001A000CD010010CD010010CD010010CD010010D7
:1001B000CD010010CD010010CD010010CD010010C7
:1001C00000BE00BE00BE00BE00BE00BEEFF3058054
:1001D000103800BEF2EB8871083F04102C3F041069
:1001E0003402001090A31AE700201F49086006C8D7
:1001F00081F3088810471D48006800282FD10DA4FE
:100200000ECC002902D000F012F8F9E71849194A7B
:10021000002000E001C19142FCD1174988471749ED
:1002200088471749884700BEFDE701C901C29A42C5
:10023000FBD370472C3F0410C00000206C26002028
:10024000D86404100000042000000420D8640410C6
:10025000001004200010042000000000704709482E
:1002600013F0DAFB0047000008ED00E0000000D0CA
:1002700070260020F431022065270110FD040010D3
:10028000232701105756000006005250ABB36053AD
:1002900010AB031006005250861C030220AB031063
:1002A000060052505422A29D38AB03100500525054
:1002B000DE65F468D8640410F8B5C04610B5064C85
:1002C0002378002B07D1054B002B02D0044800E017
:1002D00000BF0123237010BD78270020000000001C
:1002E000301F0210044B10B5002B03D00349044803
:1002F00000E000BF10BDC046000000007C270020C9
:10030000301F021030B583B00D00140013000A0036
:100310000D4900F06FFD01AA0023019355331370BE
:10032000663353709570D4700021032909D8074BA8
:100330009B699B06FBD41078044B18600131013295
:10034000F3E703B030BDC046301F02100040034049
:1003500000B583B018F01AF8184B0093A023502270
:100360000021002018F0C7F8FA20800011F0CCFA24
:100370001348144B43600023037224220270124A74
:100380001268C260114A12680261114A1268426121
:10039000104A12688261104A1268C2610F4A1268DC
:1003A00002620F4A42628362C36217F0E1FD0020DD
:1003B00018F096F8002003B000BDC04698BB0310AB
:1003C000AC2A0220D41D0020841C0020881C0020A0
:1003D000801C0020901C00208C1C0020941C0020FD
:1003E00000002050F0B5D6464F464646C0B584B012
:1003F000884691469A460C9F03AB3A4A1A803900C8
:10040000394817F0C5FC9020C00114F00FFD06001C
:10041000364814F0ABFE002500241EE07A57130284
:10042000DB0ADB021BB2D100FC20C00001400B4301
:10043000D2101F210A40134399B2090A621C92B2DA
:1004400031550234A4B2B354305D032113F038FBAC
:10045000C1B2274814F0BAFE013590239B019D429A
:10046000DCDB244814F082FE009660236022002129
:10047000002018F040F8002E02D0300014F0DEFC0E
:10048000002203A9012A09D81B4B9B699B06FBD4B8
:100490000878194B186001320131F3E73900002266
:1004A00090239B019A4209D2134B9B699B06FBD474
:1004B0000878114B186001320131F1E700234A46F8
:1004C00041464A4351464A439A4204DDFA5C803A27
:1004D000FA540133F3E7002004B0E0BCBA46B14659
:1004E000A846F0BD55AAFFFFAC2A0220541F0210F7
:1004F000641F0210681F02100040034010B514F082
:1005000071FE00F0AFF900F01BF9FCE70023036077
:1005100043608360704710B503685B69984710BDFE
:1005200010B503689B69984710BD000030B583B0D3
:1005300008E06B46D879224B9B69202211001940B4
:100540001A4214D01E4B9B6910210A001A4019420E
:1005500034D16B46D91D002AEBD1194B9B69DB06C0
:10056000FBD4174B1B680B7001320131F3E7154BBD
:1005700000229B5E834203D06B46DA1D10701AE0A6
:100580006B46DA1D0D2313700C0004E015780C4B3C
:100590001D6001340132002CEED1094B9B699B0692
:1005A000FBD4F3E7064B9B699B06FBD41078044B06
:1005B0001860013101320029F4D0C3E703B030BD27
:1005C00000400340D0310220024B034A1A60034A24
:1005D0001A607047A01B0020C89603109C210210CF
:1005E000034B044A1A60044A1A60044A1A607047AE
:1005F0009C230220F4210210CC210210B021021011
:1006000010B5040020290CD00022A423E358934203
:1006100009D95301E318181D9B698B4204D001329C
:10062000F3E7002000E0002010BD0000034B036052
:10063000034B0360034B03607047C046F421021074
:10064000CC210210B0210210034B0360034B036066
:10065000034B03607047C046F4210210CC21021006
:10066000B021021010B502480BF059FE10BDC04673
:100670006824022010B5C423C458052C01D80023D7
:1006800002E01FF0A1FC01339C4208D9C218A83235
:1006900012788A42F7D12C339B00185800E00020D2
:1006A00010BDF8B505000E00002400E00134A423BD
:1006B000EB58A3420ED96301EB181F1D9B69202B39
:1006C000F4D16301EB18D869310020F0D9FC00287F
:1006D000ECD100E000273800F8BD000010B5E121A2
:1006E000144C4902200011F099FD022100200FF066
:1006F0007BFF022101200FF077FF00230122082158
:10070000200011F059FD0021200011F06BFD0A4975
:10071000142010F0BBF80121142010F08DF85023A4
:10072000A363636B38221A40044980235B010B43A7
:100730001A6010BD004003402D05001034400340F6
:1007400030B589B0D0231B065B689B0149D4D02308
:100750001B06802292045A612B4B18682B4B1B6896
:100760001B690093012360226021FFF73BFE0028F4
:100770003DD1274B18680CF0C5F900283DD1244B1A
:10078000186800210BF04AFF036901241C5700225E
:100790009A561D4D21002868FFF7B4FD803464226D
:1007A000624312121B4905A813F004F900240094B7
:1007B0002823502278210A2017F044FE164B029479
:1007C000F822120201925A6800921B6805AA782149
:1007D0000D2017F0F5FD2868104900F00BFB09B05B
:1007E00030BDD0231B06802292049A61B4E7064BE9
:1007F00018680B4900F0FEFABBE7034B186809497B
:1008000000F0F8FABBE7C046C0270020C42700204C
:10081000AC2700209C1F0210DC1D0020A41F02102A
:10082000741F02108C1F0210704710B50068FFF78C
:10083000FBFF10BD704710B50068FFF7FBFF10BD50
:10084000704710B50088FFF7FBFF10BD10B504001E
:100850000068FFF7E9FF201810BD10B5FFF7F6FF9D
:1008600010BD0000F0B58DB019200FF0D5FED023DB
:100870001B06802292045A625B689B014AD4D023F3
:100880001B065A61CE4814F071FCFFF727FF14F0E5
:10089000A9FCCC4811F038F8CB4814F067FC14F0F0
:1008A000DBFDCA4814F062FCC94B1868FFF750FD25
:1008B000002835D1C74814F059FCC74B1B78BFF34B
:1008C0005B8FDB0732D5C24BC44A1A60C44814F0B0
:1008D0004DFCC448FFF7C1FF0400C34B1860FFF78D
:1008E000AAFF251A2800FFF7ACFF04282AD9281DE3
:1008F000FFF7A7FF002827D02018FFF796FF020078
:10090000032A23D0B24B18680323B84900F072FAC7
:100910000DB0F0BDD0231B06802292049A61B1E78E
:10092000AB4B1868B24900F065FAC3E7AA4817F064
:1009300059FE0028C7D0AF481FF04EFBA64817F05D
:100940006DFEC0E70020D5E70022D9E7AA4814F0E1
:100950000DFCAA4B1B78BFF35B8FDB0713D504A8F4
:1009600006F006FCA64803685B6901219847002849
:1009700023D0A34AC823D058002840D00122A1493F
:1009800000F038FA3BE09D4817F02CFE0028E6D036
:100990009B4B9D4A1A609D4A1A609D4A1A6000222C
:1009A000A4215A5020315A5004315A5099481FF00E
:1009B00013FB924817F032FED1E7914AA423D15895
:1009C000042930D88E484C010419251D04AB2A0097
:1009D000E0CBE0C2E0CBE0C260CB60C20125A56104
:1009E0000131A423C150C4214358C218A832157044
:1009F0001A002C329200884C14500133435004A842
:100A000002F052F87E4803685B690321984700288A
:100A100013D07B4AC823D058002830D0032279490C
:100A200000F0E8F92BE02433D0580028E7D0C33B8E
:100A300001227A4900F0DEF9E1E7714AA423D15896
:100A4000042930D86E484C010419251D04AB2A0036
:100A5000E0CBE0C2E0CBE0C260CB60C20325A56181
:100A60000131A423C150C4214358C218A8321570C3
:100A70001A002C3292006A4C14500133435004A8DF
:100A800003F06EFF5E4803685B6904219847002805
:100A900013D05B4AC823D058002833D004225949C8
:100AA00000F0A8F92EE02433D0580028E7D0C33B4B
:100AB00003225A4900F09EF9E1E7514AA423D15894
:100AC000042933D84E484C0104239C460419251DA3
:100AD00004AB2A00E0CBE0C2E0CBE0C260CB60C256
:100AE0006346A3610131A033C150C4214358C218E9
:100AF000A832644614701A002C329200494C1450EB
:100B00000133435004A809F03FFB3D4803685B698B
:100B100016219847002813D0394AC823D0580028F6
:100B200030D01622374900F065F92BE02433D05835
:100B30000028E7D0C33B0422384900F05BF9E1E725
:100B40002F4AA423D158042930D82D484C01041928
:100B5000251D04AB2A00E0CBE0C2E0CBE0C260CBB5
:100B600060C21625A5610131A423C150C421435898
:100B7000C218A83215701A002C3292002A4C145058
:100B80000133435004A807F077FA1D4803685B69F6
:100B900019219847002849D0194AC823D05800285D
:100BA00066D01922174900F025F961E02433D058A6
:100BB0000028E7D0C33B1622184900F01BF9E1E7F3
:100BC000B01F0210B80B0000C41F0210DC1F02107F
:100BD000C0270020002002109C270020A01B00201E
:100BE0002020021018220210C827002030200210F6
:100BF000F01F0210C9050010782002109427002071
:100C00009C23022090200210B0210210CC2102105F
:100C1000F4210210E105001055150010E02002102B
:100C200045130010FD100010A50F00103D4AA4232D
:100C3000D158042945D83B484C010419251D04AB63
:100C40002A00E0CBE0C2E0CBE0C260CB60C2192555
:100C5000A5610131A423C150C4214358C218A83250
:100C600015701A002C3292002F4C1450013343504F
:100C70002E4814F07BFA2E4B1B78BFF35B8FDB07FB
:100C800029D52C4C2C4B23602C4814F06FFA20688B
:100C90000BF052FE002838D1294814F067FA254B92
:100CA000186800210BF0FCFB264B1860D0231B06B4
:100CB0005B689B012FD4D0231B06802292045A61CB
:100CC00026E62433D0580028D2D0C33B19221E492F
:100CD00000F090F8CCE7164817F084FC0028D0D03C
:100CE0001A4B196800230293194B1B680193194B87
:100CF0000093194B0B4A10480BF0A4FB17481FF048
:100D00006BF90B4817F08AFCBBE7114B18681449C4
:100D100000F070F8FCE5D0231B06802292049A6153
:100D2000F6E5C0469C230220711700102421021012
:100D300098270020AC2700206824022040210210C0
:100D40007C210210C4270020E0200210C8270020C8
:100D5000C0270020D0FB0100CC2700206506001032
:100D60006021021001308000704700000D281DD85E
:100D70008000104B1B589F460F4870470F48FCE7F8
:100D80000F48FAE70F48F8E70F48F6E70F48F4E78F
:100D90000F48F2E70F48F0E70F48EEE70F48ECE79F
:100DA0000F48EAE70F48E8E70F48E6E70F48E4E7AF
:100DB0000F48E2E7C0710310B871031050710310BF
:100DC0005871031060710310687103107071031083
:100DD00078710310807103108871031094710310EF
:100DE000A0710310A8710310B071031038710310C3
:100DF000487103100EB400B582B003AA02CA019272
:100E000003689B68984702B008BC03B018470CB44D
:100E100000B583B004AA02CA019203689B68984790
:100E200003B008BC02B01847052803D88300024A63
:100E3000D3589F4600207047F8710310002803D054
:100E4000012803D1013070470120FCE70020FAE7B8
:100E500010B5002806D0002906D0002A06D0002BA5
:100E600006D010BD1FF0B0F81FF0AEF81FF0ACF8C0
:100E70001FF0AAF810B513000C2836D883001F4ABB
:100E8000D3589F460A230B70002010BD01230B701E
:100E9000FBE70B230B700020F7E707230B70002004
:100EA000F3E702230B700020EFE703230B70002011
:100EB000EBE709230B700020E7E704230B70002009
:100EC000E3E70D230B700020DFE705230B70002004
:100ED000DBE706230B700020D7E708230B70002008
:100EE000D3E70C230B700020CFE700220A7002002A
:100EF00003491800FFF77EFF0120C6E73472031094
:100F000010720310F0B5C64600B582B004000D00A3
:100F10001700019300291AD00868FFF785FC060026
:100F2000A008B0421AD30024B44225D2A3009846A8
:100F3000B8442868FFF778FC844216D22B1DA20023
:100F40009858FFF777FC434618600134ECE7089A9D
:100F50000C491800FFF74EFF01200EE0089A0A49DD
:100F60000198FFF747FF012007E08321074B084A5C
:100F70004900084811F0D8FB002002B080BCB846F8
:100F8000F0BDC0466872031098720310DC72031043
:100F9000E8720310B8730310704710B50078FFF7BC
:100FA000FBFF10BDF0B5C64600B584B004000F00CD
:100FB00015001E00FFF74CFF2B681B68042224213C
:100FC0002800984780462422002113F023FF029531
:100FD000434603934546002B0ED02000FFF72BFC21
:100FE000231A98461800FFF72CFC0A2811D940460E
:100FF0000A30FFF726FC0DE0384B0193B723DB00E6
:101000000093374B374A39003800FFF700FF0135AE
:1010100051E00020002803D02018FFF7BEFF00E0B9
:101020000020112819D12000FFF705FC231A98464B
:101030001800FFF706FC0C2804D940460C30FFF7D7
:1010400000FC00E000202418002804D02000FFF756
:10105000ECFB241802E0002400E00024002C25D042
:10106000A0462000FFF7E7FB241A2000FFF7E9FB6A
:1010700004282ED9201DFFF7E4FB43461C18002846
:1010800029D02000FFF7D1FB2418002C0ED0164BDE
:1010900000933B002A0021002020FFF733FF051EAC
:1010A00009D12068FFF7C0FB039B1862039B3360E4
:1010B0000023039300250399002903D002980368B5
:1010C0005B68984700230393280004B080BCB846AF
:1010D000F0BD0020D1E70024D7E7C046AC74031070
:1010E0002874031094740310C0740310704710B573
:1010F000007840B2FFF7FAFF10BD0000F0B5C64619
:1011000000B584B00400884615001E00FFF7A0FE5D
:101110002B681B6804221C212800984707001C220A
:10112000002113F077FE02950397002F0DD02000C9
:10113000FFF781FB251A2800FFF783FB0A2810D947
:1011400028000A30FFF77DFB0CE07A4B01937A4BC5
:1011500000937A4B7A4A41464046FFF758FE0124F5
:10116000BDE00020002803D02018FFF716FF00E0A4
:101170000020022818D12000FFF75DFB251A280067
:10118000FFF75FFB0C2804D928000C30FFF759FB50
:1011900000E000202418002804D02000FFF745FBC1
:1011A000241802E0002400E00024002C00D191E08B
:1011B00025002000FFF73FFB241A2000FFF741FB2A
:1011C000042800D899E0201DFFF73BFB002800D140
:1011D00095E02818FFF78BFFC0B2FFF72FFE38709D
:1011E000039F2800FFF727FB2C1A2000FFF729FB9D
:1011F000062800D885E0A01DFFF723FB002800D1BA
:1012000081E02818FFF717FB7860039C2800FFF7A0
:1012100012FB2F1A3800FFF714FB082800D874E0DF
:1012200038000830FFF70DFB002800D16FE02818C8
:10123000FFF701FBA0602800FFF7FDFA2F1A380026
:10124000FFF7FFFA0A2864D938000A30FFF7F9FAE5
:10125000002860D02818FFF7EEFAE0602800FFF7BA
:10126000EAFA2F1A3800FFF7ECFA0C2855D93800A3
:101270000C30FFF7E6FA002851D02818FFF737FFA7
:10128000C0B2FFF7D1FD20742800FFF7D4FA2F1A5F
:101290003800FFF7D6FA0E2843D938000E30FFF792
:1012A000D0FA00283FD02818FFF7C5FA606128005F
:1012B000FFF7C1FA2F1A3800FFF7C3FA102834D904
:1012C00038001030FFF7BDFA002830D02818FFF79B
:1012D000B2FAA061039B33600023039300240399B7
:1012E000002903D0029803685B68984700230393A2
:1012F000200004B080BCB846F0BD002066E70020A6
:101300006AE700207AE700207EE700208CE70020D3
:1013100090E700209CE700209FE70020ABE700203B
:10132000AEE70020BDE70120C0E70020CCE70120A8
:10133000CFE7C046AC7403102304000028740310E8
:1013400094740310F0B5C64600B584B00400884616
:1013500015001E00FFF77CFD2B681B680422182176
:101360002800984707001822002113F053FD02952A
:101370000397002F0DD02000FFF75DFA251A2800F3
:10138000FFF75FFA0A2810D928000A30FFF759FA48
:101390000CE06C4B01936C4B00936C4B6C4A4146D8
:1013A0004046FFF734FD0124A6E00020002803D0CA
:1013B0002018FFF7F2FD00E00020012818D12000DE
:1013C000FFF739FA251A2800FFF73BFA0C2804D951
:1013D00028000C30FFF735FA00E000202418002820
:1013E00004D02000FFF721FA241802E0002400E0D6
:1013F0000024002C7BD025002000FFF71CFA241AC3
:101400002000FFF71EFA042800D883E0201DFFF714
:1014100018FA002800D17FE02818FFF768FEC0B254
:10142000FFF70CFD3870039F2800FFF704FA2C1A11
:101430002000FFF706FA062800D86FE0A01DFFF78E
:1014400000FA00286CD02818FFF7F5F97860039FA0
:101450002800FFF7F0F92C1A2000FFF7F2F908280E
:1014600060D920000830FFF7ECF900285CD028187C
:10147000FFF7E1F9B8602800FFF7DDF92C1A20002A
:10148000FFF7DFF90A2851D920000A30FFF7D9F910
:1014900000284DD02818FFF72AFEC0B2FFF7C4FC81
:1014A00038732800FFF7C7F92C1A2000FFF7C9F995
:1014B0000C283FD920000C30FFF7C3F900283BD09F
:1014C0002818FFF7B8F938612800FFF7B4F92C1A8B
:1014D0002000FFF7B6F90E2830D920000E30FFF7B4
:1014E000B0F900282CD02818FFF7A5F97861039BE4
:1014F00033600023039300240399002903D002984A
:1015000003685B68984700230393200004B080BC05
:10151000B846F0BD00207CE7002080E7002090E77F
:10152000002093E70020A0E70020A3E70020AFE71A
:101530000020B2E70020C1E70120C4E70020D0E787
:101540000120D3E7AC740310F903000028740310E2
:1015500094740310F0B5C64600B584B00400884604
:1015600015001E00FFF774FC2B681B68042228215D
:101570002800984707002822002113F04BFC029511
:101580000397002F0DD02000FFF755F9251A2800EA
:10159000FFF757F90A2810D928000A30FFF751F948
:1015A0000CE06C4B01936C4B00936C4B6C4A4146C6
:1015B0004046FFF72CFC0124A6E00020002803D0C1
:1015C0002018FFF7EAFC00E00020052818D12000D1
:1015D000FFF731F9251A2800FFF733F90C2804D951
:1015E00028000C30FFF72DF900E000202418002817
:1015F00004D02000FFF719F9241802E0002400E0CD
:101600000024002C7BD025002000FFF714F9241AB9
:101610002000FFF716F9042800D883E0201DFFF70B
:1016200010F9002800D17FE02818FFF760FDC0B254
:10163000FFF704FC3870039F2800FFF7FCF82C1A12
:101640002000FFF7FEF8062800D86FE0A01DFFF786
:10165000F8F800286CD02818FFF7EDF87860039FA1
:101660002800FFF7E8F82C1A2000FFF7EAF808280E
:1016700060D920000830FFF7E4F800285CD0281873
:10168000FFF7D9F8B8602800FFF7D5F82C1A20002A
:10169000FFF7D7F80A2851D920000A30FFF7D1F810
:1016A00000284DD02818FFF7C6F8F8602800FFF78B
:1016B000C2F82C1A2000FFF7C4F80C2842D92000E9
:1016C0000C30FFF7BEF800283ED02818FFF7B3F81B
:1016D00038612800FFF7AFF82C1A2000FFF7B1F8A7
:1016E0000E2833D920000E30FFF7ABF800282FD09A
:1016F0002818FFF7FCFCC0B2FFF796FB3875039B78
:1017000033600023039300240399002903D0029837
:1017100003685B68984700230393200004B080BCF3
:10172000B846F0BD00207CE7002080E7002090E76D
:10173000002093E70020A0E70020A3E70020AFE708
:101740000020B2E70020BEE70020C1E70020CDE77F
:101750000020D0E7AC7403105E050000287403106D
:1017600094740310704710B50068FFF7FBFF10BDBD
:10177000F0B5C64600B584B00400884615001E00CA
:10178000FFF766FB2B681B6804220421280098479A
:101790000023036002950390071E0DD02000FFF781
:1017A0004AF8251A2800FFF74CF80A2810D9280013
:1017B0000A30FFF746F80CE02D4B01932D4B0093B8
:1017C0002D4B2E4A41464046FFF721FB01243DE0C8
:1017D0000020002803D02018FFF7DFFB00E00020E6
:1017E000092818D12000FFF726F8251A2800FFF74E
:1017F00028F80C2804D928000C30FFF722F800E064
:1018000000202418002804D02000FFF70EF8241828
:1018100002E0002400E00024002C12D0250020006B
:10182000FFF709F8241A2000FFF70BF804281BD94A
:10183000201DFFF706F8002818D02818FFF793FF9F
:101840003860039B3360002303930024039900292D
:1018500003D0029803685B68984700230393200035
:1018600004B080BCB846F0BD0020E4E70020E7E704
:10187000AC74031041060000287403109474031024
:10188000F0B5CE4600B582B004000D0001921F00F5
:1018900000233B600BF087FC009006002000FEF761
:1018A000CAFF231A99461800FEF7CBFF082804D96F
:1018B00048460830FEF7C5FF00E00020002804D0AD
:1018C0002018FEF7B8FF814601E001239946832ED8
:1018D0000FD8202E1FD02B681B684A46009928007D
:1018E0009847386000280BD0002002B080BCB94671
:1018F000F0BD009A1E490198FFF77CFA0120F4E739
:10190000009B9E001B4B9A594B461B490198FFF7C1
:1019100071FA0120E9E72000FEF78DFF261A30005A
:10192000FEF78FFF062816D9B01DFEF78AFF241890
:10193000002812D02000FEF778FF2418002C0ED0CB
:10194000211D2B685B684A462800984738600028AC
:101950000BD00020C9E70020E9E70024EEE70749A3
:101960000198FFF747FA0120BFE70120BDE7C04615
:10197000C8740310887B03101C7503105475031082
:10198000F0B583B004000D0017001E0000220023F4
:1019900012F044FB002804D000233B60336003B006
:1019A000F0BD32002000290020F072FA00221D4B09
:1019B00012F0F1FA12F058FC12F0BAFB04000D1EFE
:1019C00014DC00290ED080231B069C4210D0002D71
:1019D00026DC21D033681F3302DA00233360002471
:1019E0003C60DCE780231B069842ECD91EF0ECFA41
:1019F000002DECD1EA0F002312196B411C001300DB
:101A0000E10700930194520811430C00019B5D1003
:101A1000336801333360DAE780231B069C42D9D355
:101A20001EF0D2FA0000E041F8B506000F001500E4
:101A30001C000022094B12F00FFB002809D02300E4
:101A40002A0030003900FFF79BFF2368002B02DBE0
:101A5000F8BD1EF0B9FA1EF0B7FAC0460000F03F1C
:101A600030B585B012F097FA04000D008020000612
:101A7000089BD84012F008FB22002B0012F08BFAD2
:101A800000900191094A0A4B0292039312F0E4FA82
:101A9000002808D16B46186859680A9B099AFFF715
:101AA000C3FF05B030BD02ABF5E7C0460000C0FF84
:101AB000FFFFDF41F0B5C64600B503000C00012072
:101AC00098400138D21A20235B42D3182BD4012529
:101AD0009D4001239340984612F0D6FA06000F006D
:101AE0004046290012F018FB02000B0030003900BC
:101AF00012F051FA06000F0020235B42E31817D4BE
:101B0000012199400120A04012F006FB02000B00C9
:101B10003000390012F021FA12F0F4FB12F0CCFA86
:101B200080BCB846F0BD20239B1A0125DD40D0E7DC
:101B300020231B1B0121D940E4E7000030B58BB006
:101B4000019100929D68DC680395049401280AD0F5
:101B5000032820D0022845D00E9B019A1A600F9BC3
:101B6000009A1A6013E0291C002012F076FF13F08F
:101B7000C3F812F0F7FF24180594019BA34208DB79
:101B800001AB1B680E9A13600F9B009A1A600BB092
:101B900030BD05ABF5E7291C002012F05EFF13F005
:101BA000ABF812F0DFFF20180690019B834215DB93
:101BB00001AB1B680E9A1360291C1E4812F04DFFE2
:101BC00013F09AF812F0CEFF24180794009BA3425A
:101BD00006DC6B461B680F9A1360D8E706ABE8E794
:101BE00007ABF7E7291C144812F037FF13F084F80D
:101BF00012F0B8FF20180890019B834216DB01AB5E
:101C00001B680E9A1360291CFE20800512F025FF28
:101C100013F072F812F0A6FF24180994009BA34257
:101C200006DC6B461B680F9A1360B0E708ABE7E76A
:101C300009ABF7E70000C040000080BF10B50B689B
:101C400002CB002A10DB8A4210DA920099584B1C12
:101C50000ED000290EDB8368002B02D04801181833
:101C600010BD036D9847FBE70020F9E70020F7E778
:101C70000020F5E70020F3E710B54B6802CB002AFF
:101C800010DB914210DD920099584B1C0ED00029B8
:101C90000EDB8368002B02D04801181810BD036DBD
:101CA0009847FBE70020F9E70020F7E70020F5E779
:101CB0000020F3E710B5FFF7C1FF10BDF0B5C64631
:101CC00000B582B080461D008868916812F0DBFE86
:101CD000041C12F081FF06000F000021201C12F0EE
:101CE00011FF002810D0A86812F076FF02000B0048
:101CF0003000390012F031F9089B1860596000205B
:101D000002B080BCB846F0BD43465C69A123044ADA
:101D100000925B00034A04494046A0470120EFE7D8
:101D2000FC7D03109C7D031094740310F0B5C6462F
:101D300000B584B080460D0016001C000A9F88681C
:101D400012F04AFF02900391B06812F045FF0200C2
:101D50000B000298039912F01EF902900391002CD7
:101D60001AD0A06812F038FF02000B000298039905
:101D700012F0E1F802904C006408B86812F02CFFF1
:101D800002000B000298210012F0E7F80E4A0F4BF8
:101D900012F052F900280BD00B9B00933B0032004D
:101DA00029004046FFF78AFF04B080BCB846F0BD6A
:101DB00043465C693623064A0092FF33054A0649CA
:101DC0004046A0470120EFE77B14AE47E17A943FFD
:101DD000187E03109C7D03109474031030B583B0FB
:101DE0000D001400127F032A0DD0092A0ED0072AF5
:101DF00019D0446976230D4A0092FF330C4A0D49ED
:101E0000A04701200DE0FF22002102E07F22802177
:101E1000494206980190009323002800FFF78EFEA8
:101E2000002003B030BD044A0449F2E73C7E0310B1
:101E30009C7D031094740310FF7F00000080FFFF5F
:101E4000F0B5DE4657464E464546E0B58DB0040037
:101E50000D00049205930E78012E14D045690123DC
:101E6000039302967D4B01937D4B0093D1237D4AD2
:101E70007D49A847012630000DB0F0BCBB46B246F4
:101E8000A946A046F0BD049B1F78012F0CD04569E0
:101E9000012303930297714B0193744B0093D32357
:101EA000704A7149A847E6E7049B5B68002B15D090
:101EB0001A689146002A1AD012689346012A5DDDFD
:101EC0000A7F092A1CD0072A1AD04569684B00935B
:101ED000E323644A6749A8473E00CCE74569664B5F
:101EE0000093DE235F4A6349A8473E00C3E7456984
:101EF000624B0093DF235B4A5E49A8473E00BAE786
:101F0000049A127F092A0ED065690923039302926D
:101F10005B4B01935B4B0093E523524A52492000EF
:101F2000A8473E00A7E71E9A93450ED06569039225
:101F30005B460293544B0193544B0093E623494A6A
:101F400049492000A8473E0095E7049A5269069245
:101F50009B689B00944663445B681E9A93420DD035
:101F60006569039302924A4B0193474B0093E72321
:101F70003C4A3D492000A8473E007CE7AB680693F9
:101F8000169B9B689A464B460433079300235F4693
:101F90001E00A346A84623E04B46586812F01CFEDC
:101FA00004000D00069812F017FE22002B0011F01D
:101FB000F2FF04000D00504612F00EFE02000B006E
:101FC0002000290011F0C9FF0AAB09AAFFF7D8FCCD
:101FD000B3001C9A0999D1501D9A0A99D150013623
:101FE0001E9B9E4205DA012FD6DDB300079AD0581A
:101FF000D4E75C4645462B7F032B08D02B7F092B6B
:1020000021D0032B1FD0072B1DD0002633E7002241
:1020100000230A920B930AAB0193169B0093059B36
:10202000049A41465846FFF781FE061E00D022E77B
:1020300009AB189A0A980B99FFF7A2FC099B5B421F
:10204000199A1360DAE7179B19781B9B00931A9B68
:10205000169A2000FFF7C2FE06000CE7607E031010
:102060007C7E03109C7D0310447E0310987E031039
:10207000E47E031094740310B47E0310C87E031032
:10208000207F03102C7F03103C7F03104C7F031034
:10209000707F031010B5002801D0006810BD1DF03E
:1020A00093FF002800D00068704710B5002801D0C9
:1020B000006810BD1DF088FF002800D00068704740
:1020C00010B5002801D0006810BD1DF07DFF00286C
:1020D00000D000687047704708407047084170475B
:1020E00040187047C043704710B5002802D0002048
:1020F000FFF7F8FF10BD10B50123884200DB002375
:102100001800FFF7F1FF10BD10B50123884200DC75
:1021100000231800FFF7E8FF10BD10B5002801D01C
:10212000006810BD1DF050FF012808D003280BD017
:1021300002280ED00A4B0B600A4B136003E0002309
:102140000B60084B1360704700230B60064B136055
:10215000F9E7064B0B60FE239B051360F3E7C046CF
:10216000FFFF7FFFFFFF7F7F0000C040000080BFB8
:1021700010B5836B002B02D03821984710BD1DF09D
:1021800023FF0000F0B5DE4657464E464546E0B513
:1021900093B005000C0016001F0021AB1B780B93B9
:1021A0000B681B68032B0AD0022B08D04469664BCE
:1021B00000935723654A6649A047012011E06368F0
:1021C0001B68012B14D06C69012203920293614BAE
:1021D0000193614B009358235C4A60492800A04753
:1021E000012013B0F0BCBB46B246A946A046F0BDE4
:1021F00033789846B3689A467368994673699B46E4
:1022000033690D931D9A501E584301304346012BEC
:102210003FD0022B45D000230C931E9B581E5B46DB
:10222000584301304346012B43D0022B48D00020B5
:102230001E9B013B5A4653430133013852465043DB
:102240001B181C9A9B1A42D401211940DA0FD3188B
:102250005B100F9311911D9B013B0D9A534301336A
:102260000C9801384A4650431B18DB1B31D401211E
:102270001940DA0FD3185B100EAA0E931091229B0F
:1022800083CA83C312681A600B9B012B23D10020E1
:10229000A7E7380048440138494611F0E9FB0C90A3
:1022A000BBE73B004B44181A494611F0E1FB0C9088
:1022B000B3E71C9850440138514611F0D9FBB7E7F9
:1022C0001C9B5344181A514611F0D2FBB0E700236F
:1022D000BAE70023CBE7002221002800FFF7AEFC7D
:1022E0008046012221002800FFF7A8FC07000222F7
:1022F00021002800FFF7DEFC814600222100280093
:10230000FFF7BAFC7B695B680C36229A926A0B92E3
:1023100008930792229B5B6A0B930693229B3033B0
:102320000593229B2C330493229B20330393229CFE
:102330001C340294019600904B463A004146280016
:10234000FFF77EFD4DE7C04618800310B07F0310F5
:1023500094740310A48503103C800310447E031082
:10236000F0B5DE4657464E464546E0B5AFB00400F0
:102370000D008E68002E21D0CB689A46002B1FD00E
:102380000022FFF75BFC0700012229002000FFF775
:1023900055FC8146002229002000FFF76DFC804695
:1023A000002F0FD0796904C9002326932692052AAD
:1023B0000BDC269B052B0ADD279809E01DF004FEA7
:1023C0001DF002FE0023269305E01DF0FDFD27A869
:1023D000920012F025FD4346002B0BD0596904C929
:1023E000002320932092052A06DC209B052B05DD87
:1023F000219804E0209305E01DF0E6FD21A892005D
:1024000012F00EFD269B002B00DC96E0052B00DC75
:1024100095E0279B1B68209A002A00DC91E0052AA2
:1024200000DC90E0219A12689A4200D08DE02D9352
:10243000209A002A00DC8AE0052A00DC89E0219A43
:1024400012682C92934200DD85E02DAB19681C9137
:102450007B699A681D92DB6808931E93269B032B69
:1024600000DC7AE0052B00DC79E0279BDA681F921C
:10247000209B032B00DC74E0052B00DC73E0219B28
:10248000DB6818934B465B6998681990D8681A9076
:102490001B9214914246526991681591D268089234
:1024A0001692209A032A60DD052A60DD219AD268FF
:1024B00017925B689B009B4619002000A36B98470E
:1024C000706259462000A36B9847B0621E9B089328
:1024D0001D9A09921A9A19991698159B9C463B7F4A
:1024E0000696059363460493039002910192099A1C
:1024F0000092089B524629002000FFF743FE051E6C
:102500000DD1FB6833614B46DB6873614346DB6882
:10251000B3613A7F092A2CD001235B427363209B6D
:10252000052B4EDC269B052B4DDC28002FB0F0BC84
:10253000BB46B246A946A046F0BD1DF045FD279B0F
:1025400069E71DF041FD219A6EE71DF03DFD1DF08C
:102550003BFD219A75E72CAB78E71DF035FD2A9AF3
:1025600085E71DF031FD249B8BE71DF02DFD249A9E
:102570009EE7FA6852420A920B9353469B680D936A
:1025800053465B680C9353465B69119353461B6932
:102590000893109373680F9333680E93F36A129342
:1025A000336B139314AB18AA1CA90AA80BF040F8BC
:1025B000011EB1DD236C3200343220009847050043
:1025C000ADE71DF001FD1DF0FFFCF0B5DE465746FE
:1025D0004E464546E0B5A3B00F0003929B462D9BA7
:1025E0000A21425E13920C21425E14920E21425E39
:1025F00005921021425E0A920221425E1592042148
:10260000425E1692026B1092426B0E923A68042A56
:1026100000D080E05A461268042A7ED12F9A1268B0
:102620000092042A7BD13A68002A7ADD052A7ADDF5
:102630007A6812682F990968002976DD052976DD08
:102640002F9949680968914274D121922F9909689C
:10265000002971DD052971DD2F99496809682091EC
:102660008A426EDC21AA126817923A68032A6ADD50
:10267000052A6ADD7A68D26859460968032966DD49
:10268000052966DD59464968C968914264D11F929F
:1026900059460968032961DD052961DD5946496804
:1026A000C9681E918A425EDC1FAA126802925A46CD
:1026B0001268002A59DD052A59DD5A465268126807
:1026C0002F990968032955DD052955DD2F9949689A
:1026D000C968914253D11D922F990968032950DD91
:1026E000052950DD2F994968C9681C918A424DDC43
:1026F0001DAA12680F922E9A002A4ED0186805283B
:1027000046DD5B6800220121904243DD9400E458DD
:1027100061430132F8E71DF057FC1DF055FC1DF038
:1027200053FC1DF051FC7A6884E71DF04DFC2F9995
:10273000496888E71DF048FC1DF046FC2F99496860
:102740008DE720AA8FE71DF03FFC3A6994E71DF062
:102750003BFC5946096998E71DF036FC1DF034FC36
:10276000594609699DE71EAA9FE71DF02DFC5A46B0
:102770005268A5E71DF028FC2F990969A9E71DF00B
:1027800023FC1DF021FC2F990969AEE71CAAB0E7D4
:102790000433B7E70F9B8B423AD13B68012B39DDFD
:1027A000052B39DD7B685B6808933B68022B36DDBF
:1027B000052B36DD7B689B6807935B461B68012B06
:1027C00032DD052B32DD5B465B685B6809935B4657
:1027D0001B68022B2EDD052B2EDD5B465B689B689C
:1027E00004932F9B1B68012B2ADD052B2ADD2F9BD1
:1027F0005B685B6812932F9B1B68022B26DD052B01
:1028000026DD2F9B5B689B681193002300933DE1BD
:102810001DF0DAFB1DF0D8FBBB680893C5E71DF07F
:10282000D3FBFB680793C8E71DF0CEFB5B469B68B4
:102830000993CCE71DF0C8FB5B46DB680493D0E747
:102840001DF0C2FB2F9B9B681293D4E71DF0BCFBCD
:102850002F9BDB681193D8E71DF0B6FB1DF0B4FB8E
:102860001DF0B2FB1DF0B0FB1DF0AEFB1DF0ACFB8C
:102870001DF0AAFB1DF0A8FB1DF0A6FB1DF0A4FB9C
:102880004346B046AB461E000136049B9E4266DAC4
:10289000059D7543069BED18F6D4079B9D42F3DA20
:1028A0004B46002BF0DB089B9945EDDA0024320003
:1028B00046465B46AB461D009046029B9C42DFDAD3
:1028C0003B68042BC8D1009B002BC7DB7A6893427E
:1028D000C4DA4B46002BC3DBBB689945C0DA5A46C5
:1028E000002ABFDBF9688B45BCDA002CBCDB3A69F7
:1028F0009442B9DA009843434B444B435B445343FF
:10290000E3189B00039A98582B68042BAED1002E35
:10291000AEDB6B689E42ABDA5346002BAADBAB689A
:102920009A45A7DA4246002AA6DBE9688845A3DA79
:10293000002CA3DB2A699442A0DA734353444B432F
:1029400043445343E3189B002C9A995812F09BF888
:10295000011C019812F07CF801900134ADE70123CD
:102960009C46E244099B9A4507DA0A9B5246534328
:102970000B9A91469944002687E72E9B002B54D052
:1029800043469B002E9AD158019812F061F82F9B74
:102990001B680193042B4AD1009B002B49DB2F9A23
:1029A00052680192934244DA0C9B002B43DB2F9A2E
:1029B0009568AB423FDA0D9B002B3EDB2F9AD16826
:1029C0008B423ADA4346002B39DB2F9B1A6990453C
:1029D00035DA009B5D430C9B9C4665444D430D9B43
:1029E0009C46654455434544AD00309B9C46654438
:1029F000199010991A910E9B1B9312F07DF80028E4
:102A00001FD119AC21680E9812F076F800281AD15F
:102A100023682B6001239C46E0440F9B984514DA01
:102A200000239A46002301939CE70021ACE71DF0A8
:102A3000CBFA1DF0C9FA1DF0C7FA1DF0C5FA1DF05A
:102A4000C3FA1AACDEE71BACE2E70D9B01330D9332
:102A50000D9A119B9A4207DA139B5343159A9B1ABE
:102A6000069300239846D8E70C9B01330C930C9AED
:102A7000129B9A4207DA149B5343169A9B1A0B93A4
:102A800000230D93E4E7009B01330093009B179A0A
:102A9000934202DA00230C93E9E723B0F0BCBB4673
:102AA000B246A946A046F0BD30B5044B020032CB79
:102AB00032C232CB32C212CB12C230BD00820310FE
:102AC000F0B5DE4657464E464546E0B5B7B0150070
:102AD0001E00107B16AA17A9FFF726FB2B78012BE7
:102AE00002D0022B00D0002308AC2370336863802F
:102AF0007368A3806B686381AB68A3812B69E381F2
:102B00006B692382179B1493169B1593409918A801
:102B100007F0CDF94098FFF7BDFA814641991EA80C
:102B200007F0C5F94198FFF7B5FA824624AD4299FE
:102B3000280007F0BCF94298FFF7ACFA83462AAEAA
:102B40004599300007F0B3F94598FFF7AAFA804697
:102B500030AF4399380007F0AAF94398FFF7A1FA7C
:102B6000069005974346049303965B4602930195AE
:102B7000534600931EAB4A4618A92000FFF725FDD7
:102B8000309B052B13DC2A9B052B12DC249B052B89
:102B900011DC1E9B052B10DC189B052B0FDC002085
:102BA00037B0F0BCBB46B246A946A046F0BD1DF00A
:102BB0000BFA1DF009FA1DF007FA1DF005FA1DF0D9
:102BC00003FA0000F0B5DE4657464E464546E0B5EE
:102BD000A7B0139114921E00319D339B426902925B
:102BE0000A21425E17920C21425E18920E21425E2B
:102BF00004921021425E09920221425E1992042140
:102C0000425E1A92C2691292816A1F91C26A1E9232
:102C1000914276DC3268042A75D12A68042A74D17C
:102C2000359A12680092042A71D13268002A70DD48
:102C3000052A70DD726812683599096800296CDD13
:102C400005296CDD35994968096891426AD1259258
:102C500035990968002967DD052967DD35994968D7
:102C6000096824918A4264DC25AA12681B923268A2
:102C7000032A60DD052A60DD7268D26829680329AD
:102C80005DDD05295DDD6968C96891425BD12392EC
:102C90002968032959DD052959DD6968C968229128
:102CA0008A4256DC23AA126801922A68002A52DD61
:102CB000052A52DD6A6812683599096803294EDDD4
:102CC00005294EDD35994968C96891424CD1219258
:102CD00035990968032949DD052949DD3599496890
:102CE000C96820918A4246DC21AA12681192349A5E
:102CF000002A4DD0186805283FDD5B6800220121BD
:102D000041E01DF061F91DF05FF91DF05DF91DF066
:102D10005BF91DF059F972688EE71DF055F9359988
:102D2000496892E71DF050F91DF04EF93599496850
:102D300097E724AA99E71DF047F932699EE71DF04D
:102D400043F92969A1E71DF03FF91DF03DF9296913
:102D5000A5E722AAA7E71DF037F96A68ACE71DF0DE
:102D600033F935990969B0E71DF02EF91DF02CF9FA
:102D700035990969B5E720AAB7E70433BEE794009F
:102D8000E458614301329042F9DC119B8B4238D107
:102D90003368012B37DD052B37DD73685B680793DC
:102DA0003368022B34DD052B34DD73689B68069392
:102DB0002B68012B31DD052B31DD6B685B680893D7
:102DC0002B68022B2EDD052B2EDD6B689B68039391
:102DD000359B1B68012B2ADD052B2ADD359B5B68A3
:102DE0005B681693359B1B68022B26DD052B26DDC1
:102DF000359B5B689B681593002733003E001F00DE
:102E0000D6E11DF0E1F81DF0DFF8B3680793C7E7DE
:102E10001DF0DAF8F3680693CAE71DF0D5F8AB6841
:102E20000893CDE71DF0D0F8EB680393D0E71DF0D1
:102E3000CBF8359B9B681693D4E71DF0C5F8359BFE
:102E4000DB681593D8E71DF0BFF81DF0BDF81DF045
:102E5000BBF81DF0B9F81DF0B7F81DF0B5F81DF07E
:102E6000B3F81DF0B1F81DF0AFF81DF0ADF8B146A4
:102E7000464680466046009B9C460130039B984234
:102E80006BDA04994143059BC918F6D4069B994215
:102E9000F3DA002EF1DB079B9E42EEDA00220B00F4
:102EA0006146009184464046B0464E469946019B95
:102EB0009A42DCDA3B68042BC5D100990029C4DBB7
:102EC0007B689942C1DA4346002BC0DBBB6898455A
:102ED000BDDA4C46002CBCDBFC68A246A145B8DA42
:102EE000002AB8DB3C69A242B5DA00994B4343445F
:102EF00051464B434B446343D3183099CC562B680F
:102F0000042BAAD10028AADB6B689842A7DA002E0E
:102F1000A7DBAB689E42A4DA61460029A3DBE9681F
:102F20008B468C459FDA002A9FDB29698A468A42B4
:102F30009BDA4343F31859464B43634451464B4392
:102F4000D3183299CB5602998A4654445C431D9B50
:102F50009A4654441D940132A9E701239A46D1446C
:102F6000089B994507DA099E4B465E430E9B9A469D
:102F70005644002082E7664644463195349B002B38
:102F800006D0A300349A9B581D9A944663441D931F
:102F90001D98A300139AD2581499CB58191E00DA21
:102FA000B1E0002B00DCB0E000239A46884082426A
:102FB00000D1ADE000239846C117D31711F026FDCC
:102FC00002000B1E00DAADE08021C9050A91C91785
:102FD0000B910A980B9912184B41D91749004908CF
:102FE0000C9100210D910C980D9912184B41110074
:102FF0005B00CA0F134399464346002B00D093E071
:103000005346002B00DA92E01F2B00DD96E00120F2
:1030100098400138FFF75FF880460020FFF75BF823
:1030200000900120FFF757F8834641464846FFF7D6
:1030300053F8050001214046FFF750F880460099FB
:103040004846FFF758F85946FFF746F80100404652
:10305000FFF746F8804651464846FFF73FF881465D
:1030600041462800FFF750F85946FFF735F80100B0
:103070004846FFF735F81D90129B9C4660441D9012
:103080001F9B984261DB1DAB1B681D931E9A9342E8
:103090005DDC1DAB1A681D92359B1B680093042BE9
:1030A00057D1002E57DB359B5B6800939E4252DA66
:1030B0000F99002951DB359B9B6899424DDA109995
:1030C00000294CDB3598C068814248DA002C48DB87
:1030D000359909698C4244DA73430F9DAC466344C9
:1030E00043431098844663444B43E3183699CA54CB
:1030F0000134119B9C4236DA00231D939946B44655
:10310000A046319D2CE700214BE75B429A464DE7F4
:1031100080231B06984202D0002398464CE70123E7
:10312000984649E7294951E7294B994668E7B32171
:10313000284B294A490029480FF0F6FA6821284B04
:10314000254AFF3125480FF0EFFA1FAB9CE71EAB75
:10315000A0E71CF039FF1CF037FF1CF035FF1CF016
:1031600033FF1CF031FFB346319D109B01331093A8
:10317000109A159B9A4209DA179B5343199A9B1A86
:10318000059300235E461C003195B2E75E460F9B17
:1031900001330F930F9A169B9A4208DA189B5343F8
:1031A0001A9A9B1A0E9300231093B346E0E7013658
:1031B0001B9B9E4202DA00230F93EBE727B0F0BC83
:1031C000BB46B246A946A046F0BDC046010000C0BD
:1031D000FFFFFF7F5080031060800310BC8003104E
:1031E00020810310F0B5DE4657464E464546E0B511
:1031F000E7B004001D005369459316694496012BFE
:1032000001D1012E63D02B695B4230AC6361AB69A5
:10321000E3619368A38153686381536923821369CF
:10322000E3816B68A3802B686380EB6AA3622B6BDE
:10323000E3626B6A9A46AB6A9B46709948A806F0AF
:1032400036FE7098FEF731FF09904EAF7199380045
:1032500006F02DFE7198FEF728FF804654AD729956
:10326000280006F024FE7298FEF757FF81465AAEFA
:103270007399300006F01BFE7398FEF71DFF069051
:1032800005964B4604930395434602930197099B89
:10329000009348AB5A4651462000FFF793FC5A9BD7
:1032A000052B00DD87E1549B052B00DD85E14E9B5E
:1032B000052B00DD83E1489B052B00DD81E100202B
:1032C00067B0F0BCBB46B246A946A046F0BD2B692C
:1032D0005B423E93AB693F93936841935368099374
:1032E00040936B6843932B684293EB6A46932B6B36
:1032F00047936B6A0A93AB6A0B9371991EA806F009
:10330000D6FD709924A806F0D2FD73992AA806F07C
:10331000CEFD729930A806F0CAFD469A479B9A42A4
:103320006BDC249B042B6AD11E9B042B69D12A9B46
:10333000042B68D1249B002B67DD052B67DD259BC3
:103340001B682A9A002A64DD052A64DD2B9A12681C
:103350009A4262D165932A9A002A60DD052A60DDCF
:103360002B9A1268649293425DDC65AB1B689846A9
:10337000249B032B59DD052B59DD259BDB681E9A09
:10338000032A56DD052A56DD1F9AD2689A4254D187
:1033900063931E9A032A52DD052A52DD1F9AD268D2
:1033A000629293424FDC63AB1B6899461E9B002BD5
:1033B0004BDD052B4BDD1F9B1B682A9A032A48DD3A
:1033C000052A48DD2B9AD2689A4246D161932A9AFF
:1033D000032A44DD052A44DD2B9AD2686092934289
:1033E00041DC61AB1F687298FEF75FFE002847D092
:1033F0003099052939DD319838E01CF0E5FD1CF0E5
:10340000E3FD1CF0E1FD1CF0DFFD1CF0DDFD259B64
:1034100097E71CF0D9FD2B9A9AE71CF0D5FD1CF01C
:10342000D3FD2B9A9EE764ABA0E71CF0CDFD289B53
:10343000A5E71CF0C9FD229AA8E71CF0C5FD1CF009
:10344000C3FD229AACE762ABAEE71CF0BDFD1F9B4B
:10345000B3E71CF0B9FD2E9AB6E71CF0B5FD1CF0E1
:10346000B3FD2E9ABAE760ABBCE731A8002303E0B6
:103470009A001258564301339942F9DCB74278D189
:1034800043460E93249B012B75DD052B75DD259B93
:103490005B680F93249B022B71DD052B71DD259B4F
:1034A0009B6810934B46119312971E9B012B6ADD6C
:1034B000052B6ADD1F9B5B6813931E9B022B66DD49
:1034C000052B66DD1F9B9B6814934B4615930123C8
:1034D000169317931893199743461A932A9B012B17
:1034E00059DD052B59DD2B9B5B681B932A9B022B17
:1034F00055DD052B55DD2B9B9B681C931D970023E9
:103500000C930D93696B002903DB636C20009847D3
:103510000C907098FEF7C9FD04007198FEF7C5FD88
:1035200005007298FEF7F9FD06007398FEF7C4FDDA
:1035300006901AAB0593049616AB0393029512AB53
:10354000019300940EAB0AAA3EA90CA80AF01AF83F
:10355000002828D1309B052B27DC2A9B052B26DC55
:10356000249B052B25DC1E9B052B00DCA7E61CF00D
:103570002BFD1CF029FD1CF027FD269B89E71CF084
:1035800023FD279B8DE71CF01FFD209B94E71CF07B
:103590001BFD219B98E71CF017FD2C9BA5E71CF059
:1035A00013FD2D9BA9E71CF00FFD1CF00DFD1CF079
:1035B0000BFD1CF009FD1CF007FD1CF005FD1CF0C7
:1035C00003FD1CF001FD0000F0B5DE4657464E46F7
:1035D0004546E0B5ABB00E0005921D00359B0A21B3
:1035E000425E1B920C21425E1C920E21425E0792AB
:1035F0001021425E0C920221425E1D920421425E25
:103600001E924269039282690492C2691892026A08
:103610001492426A1592816A2391C26A229291425F
:1036200076DC3268042A75D12A68042A74D1379A64
:1036300012680192042A71D13268002A70DD052ACD
:1036400070DD726812683799096800296CDD0529F8
:103650006CDD37994968096891426AD12992379996
:103660000968002967DD052967DD37994968096818
:1036700028918A4264DC29AA12681F923268032AC0
:1036800060DD052A60DD7268D268296803295DDD86
:1036900005295DDD6968C96891425BD12792296877
:1036A000032959DD052959DD6968C96826918A42CF
:1036B00056DC27AA126802922A68002A52DD052ADF
:1036C00052DD6A6812683799096803294EDD0529B9
:1036D0004EDD37994968C96891424CD12592379996
:1036E0000968032949DD052949DD37994968C96811
:1036F00024918A4246DC25AA12681792369A002A3B
:103700004DD0186805283FDD5B680022012141E0AB
:103710001CF05AFC1CF058FC1CF056FC1CF054FC2D
:103720001CF052FC72688EE71CF04EFC3799496819
:1037300092E71CF049FC1CF047FC3799496897E771
:1037400028AA99E71CF040FC32699EE71CF03CFC7B
:103750002969A1E71CF038FC1CF036FC2969A5E7B3
:1037600026AAA7E71CF030FC6A68ACE71CF02CFC2A
:1037700037990969B0E71CF027FC1CF025FC379944
:103780000969B5E724AAB7E70433BEE79400E45813
:10379000614301329042F9DC179B8B4238D1336888
:1037A000012B37DD052B37DD73685B680A933368BF
:1037B000022B34DD052B34DD73689B6809932B687D
:1037C000012B31DD052B31DD6B685B680B932B68BA
:1037D000022B2EDD052B2EDD6B689B680693379B35
:1037E0001B68012B2ADD052B2ADD379B5B685B6894
:1037F0001A93379B1B68022B26DD052B26DD379B92
:103800005B689B681993002733003E001F00D8E1D6
:103810001CF0DAFB1CF0D8FBB3680A93C7E71CF076
:10382000D3FBF3680993CAE71CF0CEFBAB680B939C
:10383000CDE71CF0C9FBEB680693D0E71CF0C4FB96
:10384000379B9B681A93D4E71CF0BEFB379BDB6861
:103850001993D8E71CF0B8FB1CF0B6FB1CF0B4FBC6
:103860001CF0B2FB1CF0B0FB1CF0AEFB1CF0ACFB80
:103870001CF0AAFB1CF0A8FB1CF0A6FBB1464646B8
:1038800080466046019B9C460130069B98426EDA5A
:1038900007994143089BC918F6D4099B9942F3DA6A
:1038A000002EF1DB0A9B9E42EEDA00220B006146FD
:1038B000019184464046B0464E469946029B9A4244
:1038C000DCDA3B68042BC5D101990029C4DB7B6895
:1038D0009942C1DA4346002BC0DBBB689845BDDA8C
:1038E0004C46002CBCDBFC68A246A145B8DA002A95
:1038F000B8DB3C69A242B5DA01994B4343445146D7
:103900004B434B446343D3180599CC5C2B68042B81
:10391000AAD10028AADB6B689842A7DA002EA7DBA1
:10392000AB689E42A4DA61460029A3DBE9688B46B6
:103930008C459FDA002A9FDB29698A468A429BDAF6
:103940004343F31859464B43634451464B43D31802
:103950003499CB5C04998A46534403998A4654446B
:103960005C43219B9A46544421940132A6E70123EB
:103970009A46D1440B9B994507DA0C9E4B465E4311
:103980000D9B9A46564400207FE7664644460195C3
:10399000369B002B06D0A300369A9B58219A94465A
:1039A000634421932198159A131E00DAB4E0159A06
:1039B000002A00DCB2E0002292469840149B834229
:1039C00000D1AEE000239846C117149AD31711F026
:1039D0001DF802000B1E00DAADE08021C9050E9132
:1039E000C9170F910E980F9912184B41D91749001A
:1039F00049081091002111911098119912184B410A
:103A000011005B00CA0F134399464346002B00D0B8
:103A100093E05346002B00DA92E01F2B00DD96E086
:103A2000012098400138FEF756FB80460020FEF743
:103A300052FB16900120FEF74EFB83464146484656
:103A4000FEF74AFB050001214046FEF747FB804692
:103A500016994846FEF74FFB5946FEF73DFB01001D
:103A60004046FEF73DFB804651464846FEF736FB92
:103A7000814641462800FEF747FB5946FEF72CFBDE
:103A800001004846FEF72CFB2190189B9C466044A1
:103A90002190239B984261DB21AB1B682193229AE2
:103AA00093425DDC21AB1A682192379B1B68169309
:103AB000042B57D1002E57DB379B5B6816939E4231
:103AC00052DA1299002951DB379B9B6899424DDAF3
:103AD000139900294CDB3798C068814248DA002CE2
:103AE00048DB379909698C4244DA7343129DAC462E
:103AF000634443431398844663444B43E318389923
:103B0000CA540134179B9C4236DA0023219399460C
:103B1000B446A046019D2DE7002348E75242924655
:103B20004BE780231B06984202D0002398464BE7C0
:103B30000123984648E7294951E7294B994668E708
:103B4000B321284B284A490028480EF0EDFD682192
:103B5000274B254AFF3125480EF0E6FD23AB9CE7B5
:103B600022ABA0E71CF030FA1CF02EFA1CF02CFA65
:103B70001CF02AFA1CF028FAB346019D139B01336E
:103B80001393139A199B9A4209DA1B9B53431D9A6C
:103B90009B1A089300235E461C000195B2E75E461F
:103BA000129B01331293129A1A9B9A4208DA1C9BB9
:103BB00053431E9A9B1A0D9300231393B346E0E7D9
:103BC00001361F9B9E4202DA00231293EBE72BB0D3
:103BD000F0BCBB46B246A946A046F0BD010000C0FD
:103BE000FFFFFF7F5080031060800310BC80031034
:103BF00020810310F0B5DE4657464E464546E0B5F7
:103C0000B5B019694D42596948429E691178012938
:103C100002D0022900D0002108AC2170196861800F
:103C20005968A180516861819168A1811169E18120
:103C3000526922820D950E900F96DA6910921A6AD7
:103C400052421192DA6A12921B6B13933E9916A894
:103C500006F02DF93E98FEF733FA81463F991CA8ED
:103C600006F025F93F98FEF72BFA824622AD4099DF
:103C7000280006F01CF94098FEF74FFA834628AE5C
:103C80004399300006F013F94398FEF720FA804676
:103C90002EAF4199380006F00AF94198FEF717FA5D
:103CA00000230793069005974346049303965B46CB
:103CB00002930195534600931CAB4A4616A9200077
:103CC000FFF782FC2E9B052B13DC289B052B12DCB7
:103CD000229B052B11DC1C9B052B10DC169B052B56
:103CE0000FDC002035B0F0BCBB46B246A946A0466A
:103CF000F0BD1CF069F91CF067F91CF065F91CF0C7
:103D000063F91CF061F90000F0B5CE46474680B576
:103D100087B004000D00CB689946002839D00029EF
:103D200039D00B685968436D98470600002C34D091
:103D3000002D34D02B6899682000636D98470700E8
:103D40002B681B68032B2CD000239846002C37D0FF
:103D5000002D37D06B6859682000636D9847AB68B9
:103D6000002B31D0327A017A8A422FD06569D32371
:103D700003910292374A0192374A00925B00374A18
:103D800037492000A847012007B0C0BCB946B0465B
:103D9000F0BD1CF019F91CF017F91CF015F91CF016
:103DA00013F9002C08D0002D08D02B68D96820000A
:103DB000636D98478046C9E71CF006F91CF004F9CA
:103DC0001CF002F91CF000F91CF0FEF8397A8A4266
:103DD00005D063692349200098470120D4E7032ACE
:103DE0002AD0092A1BD0012A0AD065691000FCF7E5
:103DF000BDFF0200337A1C492000A8470120C3E719
:103E00000590002204920392424602920197009686
:103E10004A4629002000FEF753FE0020B4E70022A6
:103E20000492039042460292019700964A46290066
:103E30002000FFF7D7F9A7E705900022049203922C
:103E400042460292019700964A4629002000FFF759
:103E5000D1FE99E73081031040810310B07F031039
:103E6000447E03104C810310E481031010B5836B72
:103E7000002B02D03821984710BD1CF0A5F8000097
:103E8000F0B5DE4657464E464546E0B591B00500D2
:103E90000C0016000B931DAB1B7898460B681B6833
:103EA000032B0AD0022B08D044695F4B00934923AF
:103EB0005E4A5F49A047012011E063681B68012B3F
:103EC00014D06C690122039202935A4B01935A4B0E
:103ED00000934A23554A59492800A047012011B0B0
:103EE000F0BCBB46B246A946A046F0BD01235B42EA
:103EF0001E9A5363B3689B4673689A463778012FBE
:103F000034D0022F3AD000239946012F3FD0022F00
:103F100045D00023013B5A4653431C9A94466344C0
:103F20001A9A9B1A44D401211940DA0FD3185B1056
:103F30000D930F9148460138534658431B9B9C46AE
:103F400060440B9BC71A35D401213940FB0FDF19A0
:103F50007F100CAA0C970E911E9B83CA83C3126814
:103F60001A604346012B27D10020B8E70B98504434
:103F7000013819000FF07CFD8146C6E70B985044CC
:103F80001B9BC01A51460FF073FD8146BDE71A987E
:103F90005844013859460FF06BFD0300BAE71A98F0
:103FA00058441C9BC01A59460FF062FD0300B1E74C
:103FB0000023B8E70027C7E7002221002800FDF70B
:103FC0003DFE8046012221002800FDF737FE070054
:103FD000022221002800FDF76DFE8146002221000B
:103FE0002800FDF749FE7B691B6910361E9A926A0C
:103FF0000B92089307921E9B5B6A0B9306931E9B82
:10400000303305931E9B2C3304931E9B2033039364
:104010001E9C1C340294019600904B463A00414687
:104020002800FDF70DFF5AE71880031020820310C7
:1040300094740310A48503103C800310447E031085
:10404000F0B5DE4657464E464546E0B5BBB00400E7
:104050000D008F68002F56D0CB689A46002B54D0A5
:104060000022FDF7EBFD0600012229002000FDF7EC
:10407000E5FD8046002229002000FDF7FDFD0A90A5
:10408000337F9B467369DA6806929B6807934346C1
:104090005B69DA6808929A6809925A46092A36D00A
:1040A0001B699B00994619002000A36B9847786212
:1040B00049462000A36B9847B86204975B46039378
:1040C000099B0293089B0193079B0093069B524612
:1040D00029002000FFF7D4FE814600280BD1F368A9
:1040E0003B614346DB687B610A9BDB680B93BB61EA
:1040F000337F092B65D048463BB0F0BCBB46B24687
:10410000A946A046F0BD1BF05FFF1BF05DFF4246D5
:1041100012789146012A0FD0656901230393029218
:10412000C34B0193C34B00938023C34AC349200070
:10413000A84701239946DEE742465268002A14D078
:10414000116800291AD05068002820D00A68012A76
:1041500026D019698A4223D06569B94B00938A2316
:10416000B54AB8492000A847C5E76569B64B009332
:104170008723B14AB3492000A847BCE76569B34B20
:1041800000938823AC4AAF492000A847B3E765698C
:10419000AF4B00938923A84AAA492000A847AAE761
:1041A00001688A4200D17BE7656903910292A94BBD
:1041B0000193A94B00938E239F4AA0492000A84752
:1041C00099E7002E00D1D3E0716904C90023199347
:1041D0001992052A00DDCEE0199B052B00DCCCE00E
:1041E0001A98920010F01CFE0A9B002B00D1C6E02A
:1041F0000A9B596904C900231F931F92052A00DDF9
:10420000BFE01F9B052B00DCBDE02098920010F062
:1042100007FE4346002B00D1B7E0596904C90023CB
:1042200025932592052A00DDB1E0259B052B00DCB6
:10423000AFE02698920010F0F3FD199B042B00D0FC
:10424000A9E0259B042B00D0A7E01F9B042B00D0E6
:10425000A5E0199B002B00DCA3E0052B00DCA2E00D
:104260001A9B1B681F9A002A00DC9EE0052A00DCCE
:104270009DE0209A12689A4200D09AE039931F9AE2
:10428000002A00DC97E0052A00DC96E0209A1268FC
:104290003892934200DD92E039AB1B681F9A032AE3
:1042A00000DC8EE0052A00DC8DE0209AD26825999A
:1042B000032900DC89E0052900DC88E02699C9682B
:1042C000914200D085E037922599032900DC82E0F5
:1042D000052900DC81E02699C96836918A427EDC96
:1042E00037AA1268012B7CD10D9307990E9106997C
:1042F0000F911999032976DD052976DD1A99C96888
:104300001091012111910999129108991391149218
:1043100015931F9B012B6ADD052B6ADD209B5B68D3
:1043200016931F9B022B66DD052B66DD209B9B6889
:10433000179318927B6831933B68309315AB11AAA1
:104340000DA92BA80AF0E5FB011E5EDD236C3A00E7
:1043500034322000984700285AD0259B052B4EDC8C
:104360001F9B052B4DDC199B052B4CDC8146C2E6BF
:104370000023199338E71BF027FE1AA831E71F9393
:1043800047E71BF021FE20A840E7259355E71BF0E7
:104390001BFE26A84EE71BF017FE1BF015FE1BF0B8
:1043A00013FE1BF011FE1A9B5CE71BF00DFE209A1A
:1043B00061E71BF009FE1BF007FE209A68E738ABA7
:1043C0006BE71BF001FE239A71E71BF0FDFD2999B5
:1043D00076E71BF0F9FD1BF0F7FD29997DE736AA7A
:1043E0007FE71BF0F1FD1BF0EFFD1D9988E71BF047
:1043F000EBFD219B94E71BF0E7FD229B98E71BF068
:10440000E3FD1BF0E1FD1BF0DFFD01235B427B635D
:10441000259B052B08DC1F9B052B07DC199B052B17
:1044200000DC68E61BF0D0FD1BF0CEFD1BF0CCFDE0
:10443000607E0310987E031020820310447E0310D8
:10444000B082031094740310B47E0310C87E03106E
:1044500090820310348303104C7F0310F0B5DE46C6
:1044600057464E464546E0B5A3B088460A929A465E
:104470002D9B0A21425E11920C21425E12920E2166
:10448000425E93461021425E00920221425E1392E8
:104490000421425E14921221425E10920F92026B2E
:1044A0001592426B0E9242461268042A00D0B9E07F
:1044B00052461268042A00D0B6E02F9A1268019280
:1044C000042A00D0B2E042461268002A00DCAFE0C5
:1044D000052A00DCAEE04246526812682F9909684E
:1044E000002900DCA9E0052900DCA8E02F99496833
:1044F0000968914200D0A5E021922F99096800290E
:1045000000DCA1E0052900DCA0E02F9949680968DA
:1045100020918A4200DD9CE021AA1268199252463D
:104520001268032A00DC96E0052A00DC95E052467A
:104530005268D2682F990968032900DC90E00529A8
:1045400000DC8FE02F994968C968914200D08CE067
:104550001F922F990968032900DC88E0052900DCF7
:1045600087E02F994968C9681E918A4200DD83E07F
:104570001FAA156842461268012A7FDD052A7FDDE1
:10458000424652685268029242461268022A7BDD15
:10459000052A7BDD424652689268019242461268C3
:1045A000032A77DD052A77DD42465268D2681692E3
:1045B00052461268012A73DD052A73DD524652689D
:1045C0005268069252461268022A6FDD052A6FDD94
:1045D00052465268926891462F9A1268012A6BDD02
:1045E000052A6BDD2F9A5268526818922F9A12682A
:1045F000022A67DD052A67DD2F9A526892681792B2
:10460000169A10994A43AA4262D11868052861DDBA
:104610005B680022012190425EDD9400E458614312
:104620000132F8E71BF0D0FC1BF0CEFC1BF0CCFCF9
:104630001BF0CAFC4246526850E71BF0C5FC2F999C
:10464000496856E71BF0C0FC1BF0BEFC2F99496877
:104650005EE720AA61E71BF0B7FC5246126969E7E2
:104660001BF0B2FC2F9909696FE71BF0ADFC1BF042
:10467000ABFC2F99096977E71EAA7AE71BF0A4FC27
:104680004246926802927FE71BF09EFC4246D26847
:10469000019283E71BF098FC42461269169287E765
:1046A0001BF092FC5246926806928BE71BF08CFC42
:1046B0005246D26891468FE71BF086FC2F9A92688B
:1046C000189293E71BF080FC2F9AD268179297E715
:1046D0001BF07AFC04339CE78D4206D1002304933F
:1046E0005346CA46D9469B462CE11BF06DFC1BF095
:1046F0006BFC1BF069FC1BF067FC1BF065FC1BF0FE
:1047000063FC1BF061FC1BF05FFC1BF05DFC1BF00D
:104710005BFC1BF059FC0134BC426BDA009A72431B
:104720004244534663435B19F5D401998B42F2DA54
:10473000002AF0DB02998A42EDDA49460968042929
:10474000D5D104990029D4DB484640688142D0DAAB
:10475000002AD0DB494689688C468A42CBDA002B96
:10476000CBDB4946C96808918B42C6DA0798002816
:10477000C5DB4946096909918842C0DA6046049957
:1047800048438446624408994A439B18099A534314
:10479000079A944663449B000A9A98585B461B68A4
:1047A000042BAED15B465B68002BACDD002EACDB8E
:1047B0005B469B689E42A8DA002CA8DB5B46DB6860
:1047C0009C42A4DA03990029A3DB5A46126991425C
:1047D0009FDA7343E3185343039A944663449B0060
:1047E0002C9A995810F04FF9011C059810F030F9E7
:1047F000059090E70136069B9E4201DA00248BE784
:104800002E9B002B67D0039B9B002E9AD1580598B6
:1048100010F01EF92F9B1B680593042B5DD1049BA0
:10482000002B5CDB2F9A52680592934257DA0B9B60
:10483000002B56DB2F9A9468A34252DA0C9B002B74
:1048400051DB2F9AD1688B424DDA039B002B4CDB56
:104850002F9A1269934248DA049B5C430B9B9C4657
:1048600064444C430C9B9C4664445443039B9C46C9
:104870006444A400309B9C4664441B9015991C9191
:104880000E9B1D9310F038F9002830D11BAD29681C
:104890000E9810F031F900282BD12B6823600D9B66
:1048A00001330D930D9A0F9B9A4224DA109B0799BE
:1048B0004B43944663440393119D0C9B5D43139BB0
:1048C000ED1A129B0B9A5343149A9B1A9846002692
:1048D000002305938FE7002199E71BF075FB1BF080
:1048E00073FB1BF071FB1BF06FFB1BF06DFB1CAD32
:1048F000CDE71DADD1E7079B01330793079B169AC0
:10490000934202DA00230D93CCE70C9B01330C9306
:104910000C9B179A934202DA00230793EEE7C846EE
:10492000D146BA460B9B01330B930B9B189A9342CB
:1049300005DA00230C935746CA46C146E8E7049BB4
:1049400001330493049B199A934202DA00230B93D8
:10495000EBE723B0F0BCBB46B246A946A046F0BD8B
:1049600030B5044B020032CB32C232CB32C212CB52
:1049700012C230BD5C830310F0B5CE46474680B509
:10498000B1B015001E00107C16AA17A9FDF7CCFBCC
:1049900006AC01232370336863807368A3806B685F
:1049A0006381AB68A3816B69E381AB692382EB68A8
:1049B0006382179B1293169B1393389918A805F0DE
:1049C00076FA3898FDF766FB804639991EA805F0FF
:1049D0006EFA3998FDF75EFB814624AD3A992800BE
:1049E00005F065FA3A98FDF755FB07002AAE3B99AA
:1049F000300005F05CFA3B98FDF753FB04900396FA
:104A0000029701954B4600931EAB424618A9200021
:104A1000FFF724FD2A9B052B0DDC249B052B0CDCCA
:104A20001E9B052B0BDC189B052B0ADC31B0C0BC90
:104A3000B946B046F0BD1BF0C7FA1BF0C5FA1BF033
:104A4000C3FA1BF0C1FA0000F0B5DE4657464E46E9
:104A50004546E0B5A9B019911A929B46339B9A46F8
:104A6000359B0A21425E14920C21425E15920E2261
:104A7000875E1022855E0221425E16920421425E0C
:104A800017921221425E1392129242690A92C269EF
:104A90001892816A2391C26A2292584600680428BB
:104AA00000D0BEE050460068042800D0BBE0379834
:104AB00000680190042800D0B7E0914200DDB6E024
:104AC0005A461268002A00DCB3E0052A00DCB2E096
:104AD0005A465268126837990968002900DCADE02F
:104AE000052900DCACE0379949680968914200D09B
:104AF000A9E0279237990968002900DCA5E005297B
:104B000000DCA4E037994968096826918A4200DDF3
:104B1000A0E027AA12681F9252461268032A00DCFE
:104B20009AE0052A00DC99E052465268D26837992B
:104B30000968032900DC94E0052900DC93E037993B
:104B40004968C968914200D090E025923799096878
:104B5000032900DC8CE0052900DC8BE037994968EB
:104B6000C96824918A4200DD87E025AA126894462C
:104B70005A461268012A00DC81E0052A00DC80E048
:104B80005A465268526805925A461268022A7CDDDB
:104B9000052A7CDD5A465268926890465A46126849
:104BA000032A78DD052A78DD5A465268D2681B92BE
:104BB00052461268012A74DD052A74DD5246526895
:104BC0005268079252461268022A70DD052A70DD8B
:104BD000524652689668379A1268012A6CDD052A97
:104BE0006CDD379A526852681D92379A1268022A11
:104BF00068DD052A68DD379A526892681C921B9A14
:104C000013994A43624563D11868052862DD5B68E1
:104C10000022012190425FDD9400E458614301329B
:104C2000F8E71BF0D1F91BF0CFF91BF0CDF91BF021
:104C3000CBF91BF0C9F95A4652684CE71BF0C4F98E
:104C40003799496852E71BF0BFF91BF0BDF9379956
:104C500049685AE726AA5DE71BF0B6F95246126981
:104C600065E71BF0B1F9379909696BE71BF0ACF9FF
:104C70001BF0AAF93799096973E724AA76E71BF0B4
:104C8000A3F95A46926805927EE71BF09DF95A46B1
:104C9000D268904682E71BF097F95A4612691B9238
:104CA00086E71BF091F95246926807928AE71BF05B
:104CB0008BF95246D6688EE71BF086F9379A9268D0
:104CC0001D9292E71BF080F9379AD2681C9296E702
:104CD0001BF07AF904339BE78C4513D1002306932C
:104CE0002C003D00C146D846D346B246069B1F9ACB
:104CF000934200DBF3E100230B935B463393C346FF
:104D00009846D8E11BF060F91BF05EF91BF05CF9E6
:104D10001BF05AF91BF058F91BF056F91BF054F927
:104D20001BF052F91BF050F91BF04EF91BF04CF937
:104D30000132AA426CDA390061434144019B53437A
:104D400002981B18F4D45345F2DA0029F0DB0598D9
:104D50008142EDDA584600680428D5D1069800282B
:104D6000D4DB5E467668B042D0DA0029D0DB584604
:104D7000806881468142CBDA002BCBDB5846C06885
:104D800008908342C6DA03980028C5DB58460069BC
:104D9000060009900398B042BEDA4846069E70436A
:104DA00081464944089841435B1809994B4303994C
:104DB00089464B443299C95663461B68042BADD1D2
:104DC00063465B68002BABDD002CABDB63469B6866
:104DD0009C42A7DA002AA7DB6346DB689A42A3DA83
:104DE00004980028A2DB66463669B0429EDA634327
:104DF000D3187343049881464B443498C3560A9899
:104E0000814649445943219B9946494421918FE762
:104E1000019E02980134079B9C4203DA002201960E
:104E2000029086E72C0035003E005B46D34667467D
:104E30009A46369B002B07D0049B9B00369A9B58C2
:104E4000219A9446634421932198049B9B00199ACC
:104E5000D2581A99CB58191E00DAD4E0002B00DC86
:104E6000D3E0002398468840824200D1D0E000235E
:104E70000193C117D3170FF0C9FD02000B1E00DA12
:104E8000D0E08021C9050E91C9170F910E980F9996
:104E900012184B41D917490049081091002111916E
:104EA0001098119912184B4111005B00CA0F13435F
:104EB0009946019B002B00D0B6E04346002B00DA58
:104EC000B5E01F2B00DDB9E0012098400138FDF767
:104ED00002F901900020FDF7FEF808900120FDF78F
:104EE000FAF8029001994846FDF7F6F80990012179
:104EF0000198FDF7F3F8019008994846FDF7FBF893
:104F00000299FDF7E9F801000198FDF7E9F8019031
:104F100041464846FDF7E2F8804601990998FDF7B9
:104F2000F3F80299FDF7D8F801004046FDF7D8F8EC
:104F30002190189B9C4660442190239B984200DA64
:104F400083E021AB1B682193229A93427FDC21AB43
:104F500019682191379B1B680193042B79D1069B1B
:104F6000002B78DB379A52680192934273DA0B9ADE
:104F7000002A72DB379B9B689A426EDA0C9A002AF1
:104F80006DDB3798C0688446824268DA049A002A4A
:104F900067DB37980069824263DA069A53430B9ABB
:104FA00090464344624653430C9A944663444343B9
:104FB000049A94466344389AD1540D9B01330D935F
:104FC0000D9A129B9A424EDA139B03994B439446D7
:104FD0006344049314980C9B5843169BC01A159B6A
:104FE0000B9A5343179A9B1A9846002321939C4689
:104FF0005346DA46339737002E0025006446339A2D
:1050000094469B4607E7002128E75B4298462AE73B
:1050100080231B06984202D00023019329E7012335
:10502000019326E731492EE7314B994645E7B321F5
:10503000304B314A490031480DF076FB6821304B46
:105040002D4AFF312D480DF06FFB23AB7AE722ABE1
:105050007EE71AF0B9FF1AF0B7FF1AF0B5FF1AF0A1
:10506000B3FF1AF0B1FFD346B246B846039B0133F3
:105070000393039B1B9A934207DA00230D93564632
:10508000DA461E9B9B4647469AE7A1462C000C9B9E
:1050900001330C930C9B1C9A934204DA0023039374
:1050A00025004C46E5E725005446CA461E9B994616
:1050B0000B9B01330B930B9B1D9A934207DA002342
:1050C0000C934B461E93D146A2462C00E2E7434682
:1050D0003393D8469B46069B0133069306E629B0D8
:1050E000F0BCBB46B246A946A046F0BD010000C0D8
:1050F000FFFFFF7F5080031060800310BC8003100F
:1051000020810310F0B5DE4657464E464546E0B5D1
:10511000E9B004001D009369499356694896012B34
:1051200001D1012E68D031AC012323702B6863803C
:105130006B68A380536863819368A381E681936958
:105140002382D36863822B695B4263610023A3617E
:10515000AB69E36180235B42A362FF33E3626B6A66
:105160009A46AB6A9B4672994CA804F0A0FE7298CE
:10517000FCF79BFF099052AF7399380004F097FE3B
:105180007398FCF792FF804658AD7499280004F09C
:105190008EFE7498FCF7C1FF81465EAE75993000B3
:1051A00004F085FE7598FCF787FF069005964B4640
:1051B00004930395434602930197099B00934CABDC
:1051C0005A4651462000FFF73FFC5E9B052B00DD51
:1051D00063E1589B052B00DD61E1529B052B00DD4F
:1051E0005FE14C9B052B00DD5DE169B0F0BCBB4687
:1051F000B246A946A046F0BD2B695B424193AB691C
:10520000429393684593536844936B6847932B6824
:10521000469380235B424A93FF334B93D3680993B1
:1052200043936B6A0B93AB6A0C9373991FA804F0BA
:105230003EFE729925A804F03AFE75992BA804F059
:1052400036FE749931A804F032FE4A9A4B9B9A427A
:1052500044DC259B002B43DD052B43DD269B1B688F
:105260002B9A002A40DD052A40DD2C9A12689A42CA
:105270003ED167932B9A002A3CDD052A3CDD2C9A0F
:1052800012686692934239DC67AB1B6898461F9B95
:10529000032B35DD052B35DD209BDB682B9A032A9C
:1052A00032DD052A32DD2C9AD2689A4230D16593DC
:1052B0002B9A032A2EDD052A2EDD2C9AD2686492C1
:1052C00093422BDC65AB1F687498FCF7EEFE002858
:1052D00032D03199052923DD329822E01AF074FE8C
:1052E0001AF072FE269BBBE71AF06EFE2C9ABEE700
:1052F0001AF06AFE1AF068FE2C9AC2E766ABC4E7A1
:105300001AF062FE239BC9E71AF05EFE2F9ACCE7E3
:105310001AF05AFE1AF058FE2F9AD0E764ABD2E783
:1053200032A8002303E09A001258564301339942F1
:10533000F9DCB74200D086E043460F93259B012B52
:1053400000DC82E0052B00DC81E0269B5B6810938B
:10535000259B022B7DDD052B7DDD269B9B68119314
:10536000259B032B79DD052B79DD269BDB681293CA
:105370001F9B002B75DD052B75DD209B1B68139390
:105380001F9B012B71DD052B71DD209B5B68149346
:105390001F9B022B6DDD052B6DDD209B9B681593FC
:1053A000169701231793189319931A9743461B9343
:1053B0002B9B012B61DD052B61DD2C9B5B681C9316
:1053C0002B9B022B5DDD052B5DDD2C9B9B681D93CC
:1053D0001E9700230D930E93696B002903DB636C0A
:1053E000200098470D907298FCF75FFE04007398B8
:1053F000FCF75BFE05007498FCF78FFE06007598BD
:10540000FCF75AFE06901BAB0593049617AB03936B
:10541000029513AB019300940FAB0BAA41A90DA801
:1054200009F037FB002830D1319B052B2FDC2B9B5B
:10543000052B2EDC259B052B2DDC1F9B052B00DC73
:10544000D3E61AF0C1FD1AF0BFFD1AF0BDFD279B8F
:105450007DE71AF0B9FD289B81E71AF0B5FD299B7D
:1054600085E71AF0B1FD209B89E71AF0ADFD219B7D
:105470008DE71AF0A9FD229B91E71AF0A5FD2D9B5F
:105480009DE71AF0A1FD2E9BA1E71AF09DFD1AF0F1
:105490009BFD1AF099FD1AF097FD1AF095FD1AF090
:1054A00093FD1AF091FD1AF08FFD0000F0B5DE4675
:1054B00057464E464546E0B5ABB08B460C929A46F1
:1054C000359B0A21425E18920C21425E19920E22EF
:1054D000875E1022855E0221425E1A920421425E9E
:1054E0001B921221425E17921692816A2591C26A1E
:1054F000249244690A9484690B94C4691C94046AD4
:105500001494406A159058460068042800D0BEE004
:1055100050460068042800D0BBE03798006801902E
:10552000042800D0B7E0914200DDB6E05A46126888
:10553000002A00DCB3E0052A00DCB2E05A465268DB
:10554000126837990968002900DCADE0052900DC04
:10555000ACE0379949680968914200D0A9E02992E6
:1055600037990968002900DCA5E0052900DCA4E0E2
:1055700037994968096828918A4200DDA0E029AA84
:105580001268219252461268032A00DC9AE0052A2A
:1055900000DC99E052465268D268379909680329BD
:1055A00000DC94E0052900DC93E037994968C9687C
:1055B000914200D090E0279237990968032900DCD6
:1055C0008CE0052900DC8BE037994968C968269191
:1055D0008A4200DD87E027AA126894465A4612687C
:1055E000012A00DC81E0052A00DC80E05A4652688E
:1055F000526804925A461268022A7CDD052A7CDD34
:105600005A465268926890465A461268032A78DDD4
:10561000052A78DD5A465268D2681D9252461268B1
:10562000012A74DD052A74DD5246526852680792D9
:1056300052461268022A70DD052A70DD5246526811
:105640009668379A1268012A6CDD052A6CDD379A54
:10565000526852681F92379A1268022A68DD052A3A
:1056600068DD379A526892681E921D9A17994A43CC
:10567000624563D11868052862DD5B68002201215C
:1056800090425FDD9400E45861430132F8E71AF07C
:105690009BFC1AF099FC1AF097FC1AF095FC1AF092
:1056A00093FC5A4652684CE71AF08EFC37994968C9
:1056B00052E71AF089FC1AF087FC379949685AE7D3
:1056C00028AA5DE71AF080FC5246126965E71AF0D5
:1056D0007BFC379909696BE71AF076FC1AF074FCC9
:1056E0003799096973E726AA76E71AF06DFC5A46DE
:1056F000926804927EE71AF067FC5A46D268904698
:1057000082E71AF061FC5A4612691D9286E71AF088
:105710005BFC5246926807928AE71AF055FC5246A3
:10572000D6688EE71AF050FC379A92681F9292E77B
:105730001AF04AFC379AD2681E9296E71AF044FC97
:1057400004339BE78C450ED1002306932C003D00CB
:10575000C146D046B246069B219A934200DBEBE15C
:1057600000230D93D8E11AF02FFC1AF02DFC1AF04B
:105770002BFC1AF029FC1AF027FC1AF025FC1AF071
:1057800023FC1AF021FC1AF01FFC1AF01DFC1AF081
:105790001BFC0132AA426FDA390061434144019B8C
:1057A000534302981B18F4D45345F2DA0029F0DB76
:1057B00004988142EDDA584600680428D5D106984D
:1057C0000028D4DB5E467668B042D0DA0029D0DB10
:1057D0005846806881468142CBDA002BCBDB5846A5
:1057E000C06808908342C6DA03980028C5DB584693
:1057F0000069060009900398B042BEDA4846069E4A
:10580000704381464944089841435B1809994B43CA
:10581000039989464B440C99C95C63461B68042B69
:10582000ADD163465B68002BABDD002CABDB634680
:105830009B689C42A7DA002AA7DB6346DB689A4292
:10584000A3DA05980028A2DB66463669B0429EDAE4
:105850006343D3187343059881464B443498C35C23
:105860000B9881464B440A98814649445943239BEF
:105870009946494423918CE7019E02980134079B85
:105880009C4203DA00220196029083E72C00350047
:105890003E005B46D34667469A46369B002B07D0B0
:1058A000059B9B00369A9B58239A94466344239306
:1058B0002398159A131E00DAD6E0159A002A00DC08
:1058C000D4E0002290469840149B834200D1D0E05F
:1058D00000230193C117149AD3170FF097F8020011
:1058E0000B1E00DACFE08021C9051091C917119174
:1058F0001098119912184B41D91749004908129173
:10590000002113911298139912184B4111005B005A
:10591000CA0F13439946019B002B00D0B5E04346C4
:10592000002B00DAB4E01F2B00DDB8E00120984026
:105930000138FCF7D0FB01900020FCF7CCFB08906D
:105940000120FCF7C8FB029001994846FCF7C4FB14
:10595000099001210198FCF7C1FB01900899484684
:10596000FCF7C9FB0299FCF7B7FB01000198FCF7B3
:10597000B7FB019041464846FCF7B0FB80460199D1
:105980000998FCF7C1FB0299FCF7A6FB0100404611
:10599000FCF7A6FB23901C9B9C4660442390259B10
:1059A000984200DA82E023AB1B682393249A934247
:1059B0007EDC23AB19682391379B1B680193042B72
:1059C00078D1069B002B77DB379A5268019293427D
:1059D00072DA0D9A002A71DB379B9B689A426DDA66
:1059E0000E9A002A6CDB3798C0688446824267DAD8
:1059F000059A002A66DB37980069824262DA069AC5
:105A000053430D9A90464344624653430E9A94463C
:105A100063444343059A94466344389AD1540F9B98
:105A200001330F930F9A169B9A424DDA179B0399F5
:105A30004B4394466344059318980E9B58431A9B16
:105A4000C01A199B0D9A53431B9A9B1A9846002320
:105A500023939C465346DA463A0037002E00250031
:105A6000644694469B460AE7002326E75242904646
:105A700029E780231B06984202D00023019329E7DF
:105A80000123019326E730492FE7304B994646E73B
:105A9000B3212F4B2F4A49002F480CF045FE6821B7
:105AA0002E4B2C4AFF312C480CF03EFE25AB7BE7F9
:105AB00024AB7FE71AF088FA1AF086FA1AF084FA13
:105AC0001AF082FA1AF080FAD346B246B846039B1F
:105AD00001330393039B1D9A934207DA00230F932C
